:100000000C9426010C9443010C9479080C94430140
:100010000C9443010C9443010C9443010C94EC08A0
:100020000C9443010C9443010C9443010C94430140
:100030000C9443010C9443010C9443010C94430130
:100040000C9443010C9443010C9443010C94430120
:100050000C9443010C9443010C9443010C94430110
:100060000C9443010C9443010C9443010C94430100
:10007000000000000000005F0000000700070014FF
:100080007F147F14242A7F2A1223130864623649BE
:100090005522500005030000001C224100004122AF
:1000A0001C00082A1C2A0808083E080800503000D6
:1000B000000808080808006060000020100804021A
:1000C0003E5149453E00427F400042615149462130
:1000D00041454B311814127F1027454545393C4A9C
:1000E00049493001710905033649494936064949EC
:1000F000291E003636000000563600000008142283
:100100004114141414144122140800020151090668
:10011000324979413E7E1111117E7F494949363E6F
:10012000414141227F4141221C7F494949417F0988
:100130000901013E414151327F0808087F00417F9B
:1001400041002040413F017F081422417F40404050
:10015000407F0204027F7F0408107F3E4141413E00
:100160007F090909063E4151215E7F09192946464A
:100170004949493101017F01013F4040403F1F2073
:1001800040201F7F2018207F631408146303047825
:100190000403615149454300007F414102040810B6
:1001A0002041417F000004020102044040404040E1
:1001B000000102040020545454787F4844443838E5
:1001C00044444420384444487F3854545418087EEA
:1001D000090102081454543C7F0804047800447D4B
:1001E00040002040443D00007F10284400417F40F3
:1001F000007C041804787C080404783844444438AB
:100200007C14141408081414187C7C08040408488E
:1002100054545420043F4440203C4040207C1C2047
:1002200040201C3C4030403C44281028440C505096
:10023000503C4464544C44000836410000007F00A8
:1002400000004136080002010302010011241FBE14
:10025000CFEFD4E0DEBFCDBF12E0A0E0B1E0E2E935
:10026000FFE102C005900D92AC3EB107D9F723E043
:10027000ACEEB2E001C01D92A038B207E1F70E94D7
:1002800045010C94C70F0C94000080E885BF80E204
:1002900080BF78948FE190E00E9473010E948001FA
:1002A0000E94E6060E9429070E9485070E94970780
:1002B0000E94F2010E94B9010E9493030E94AC03C4
:1002C0000E94CD050E9408090E94D1080E94BD032A
:1002D0000E94CD0408955D9BFECF8CB908955F9B6D
:1002E000FECF8CB1089590BD89B988E18AB98EE8B6
:1002F00080BD6FE671E08BE691E00E94DD0A089513
:1003000080E885BF08950F931F93CF93DF930E94DA
:10031000CD0A8C010E94D20AC0E0D8E10E94CD0A29
:1003200088839991C11580E2D807C1F7C8010E945E
:10033000D20AC0E0D8E10E94CD0A8991C11580E2BD
:10034000D807C9F7DF91CF911F910F9108950396B8
:10035000E0E0F4E1808387E99AE30197F1F700C0D8
:10036000000080810895E0910201F09103018083F3
:10037000089520E030E050E840E0E0910201F09183
:10038000030180EB820F8083852F942FE091000181
:10039000F0910101E20FF31F10820197B9F72F5F6F
:1003A0003F4F2830310549F7089520E030E060E8FC
:1003B00050E04FEFE0910201F091030180EB820FDA
:1003C0008083862F952FE0910001F0910101E20FCB
:1003D000F31F40830197B9F72F5F3F4F2830310556
:1003E00049F70895E0910201F09103018EEA8083BC
:1003F000E0910201F091030181EA8083E091020122
:10040000F09103018AED8083E0910201F0910301F4
:1004100082E18083E0910201F091030188EC808306
:10042000E0910201F091030188EA8083E0910201EA
:10043000F09103018FE38083E0910201F0910301C9
:1004400085ED8083E0910201F091030180E88083D3
:10045000E0910201F091030181E88083E0910201C3
:10046000F091030180E58083E0910201F0910301A6
:1004700089ED8083E0910201F091030181E28083A4
:10048000E0910201F091030180E28083E09102019A
:10049000F091030182E08083E0910201F091030179
:1004A0008BED8083E0910201F091030180E3808372
:1004B000E0910201F09103018DEA8083E091020155
:1004C000F09103011082E0910201F091030184EAAE
:1004D0008083E0910201F091030186EA8083E0913C
:1004E0000201F09103018FEA80830895E0910201F7
:1004F000F091030180558083E0910201F0910301A6
:10050000862F8F708083E0910201F0910301629544
:100510006F70605F60830895E0910001F0910101C8
:10052000808308958032D8F0805290E09C01220FA1
:10053000331F220F331F820F931F20E030E0F90199
:10054000E80FF91FE059FF4FE491A0910001B0912D
:100550000101EC932F5F3F4F2530310581F708955E
:10056000EF92FF920F931F93CF93DF93FC01808153
:10057000882399F18F010F5F1F4FC0E0D0E0E12C7D
:100580000F2EF9E1FF2EF02D0E9492029E01AFEA9C
:10059000B7E40E943C09AE01481B590B569547959C
:1005A000480F591F529542954F7045275F70452758
:1005B000F49EC001F59E900D1124C817D90739F497
:1005C000209729F0E39460E08E2D0E947602219618
:1005D000F80181918F018111D7CFDF91CF911F91C8
:1005E0000F91FF90EF900895CF93DF93DC0180E8A7
:1005F000689FB0011124785E26C0803230F120520D
:1006000030E0F901EE0FFF1FEE0FFF1FE20FF31FA7
:10061000E059FF4F2F5F3F4FC901880F991F880F87
:10062000991F280F391F20593F4FEB01442319F020
:100630009491909501C0949199933196E217F307A4
:10064000A9F76B5F7F4F2D91822F2111D6CFDF91BC
:10065000CF910895FC01F85E608308959C01240FFA
:10066000311D2115344018F441110AC008958EE15E
:1006700091E09F938F930E94280B0F900F90089505
:10068000A62FB72FFC01F85E9C012F5F374E41501B
:10069000240F311D9D919193E217F307D9F7089527
:1006A000883048F083E691E09F938F930E94280B57
:1006B0000F900F90089540E820E8829FC001112418
:1006C0000E942E030895833058F4E0910201F091C6
:1006D000030190E29083E0910201F0910301808395
:1006E0000895E0910201F091030191E29083E0917D
:1006F0000201F09103018083E0910201F091030176
:1007000060830895E0910201F091030192E29083E9
:10071000E0910201F09103018083E0910201F091E8
:1007200003016083089580E00E94630308956FE7EA
:1007300080E00E94710367E080E00E948203E0E0B5
:10074000F8E18191A0910001B09101018C93E11534
:100750008CE1F807B1F70895E0E0F8E11192E115B6
:100760008CE1F807D9F70895E0E0F8E18FEF819385
:10077000E1159CE1F907D9F70895CF93DF93A0E441
:10078000B3E0EBE2F3E01196FC93EE9348EA51E01C
:1007900013965C934E93129780EB91E053969C9343
:1007A0008E93529721E054962C9354971B96FC936A
:1007B000EE931A978CEE92E0EC01F983E8835B8369
:1007C0004A8365EB71E07B8B6A8B2C8BFB87EA8716
:1007D000C5E5D3E0F983E8835B834A834FEB51E0BF
:1007E0005B8B4A8B2C8BFB87EA871182108227EC6C
:1007F00031E03383228321ED31E0358324832CEDF6
:1008000031E03783268324EE31E0338B228B23E0E3
:10081000248BB387A28795878487D787C687C1E053
:10082000D3E0198218828DEF91E09B8B8A8B22E0B6
:100830002C8B87E192E09B838A8380E292E09D8308
:100840008C83BB87AA87FD87EC87C6E1D3E019823A
:10085000188242E352E05B8B4A8B2C8B21E432E01E
:100860003B832A839D838C83BB87AA87FD87EC8784
:10087000DF91CF910895EF92FF920F931F93CF9343
:10088000DF938C01E62E0E94B90160E080E00E94B7
:100890007602F801828993890E94B002F801848966
:1008A0008823F9F0C0E0D0E0F12C60E08C2F8F5F5E
:1008B0000E947602EC16FD0621F48FE492E00E947D
:1008C000B0022196FE01EE0FFF1FE00FF11F8081A5
:1008D00091810E94B002F801248930E0C217D30749
:1008E00024F3FFE121EA87E0F15020408040E1F766
:1008F00000C00000DF91CF911F910F91FF90EF900A
:100900000895BF92CF92DF92EF92FF920F931F93C1
:10091000CF93DF938C01B62EFC018289938940E04E
:1009200060E00E94F402F8018489882361F1C0E04C
:10093000D0E0EB2CF12C6701FFEFCF1ADF0ACC0CD3
:10094000DD1CC00ED11EB394EC16FD0641F4F60179
:100950008081918141E06B2D0E94F4020DC0FE0167
:100960003196EE0FFF1FE00FF11F8081918140E073
:100970006C2F6F5F0E94F4022196F801848990E049
:10098000C817D9070CF3DF91CF911F910F91FF90FA
:10099000EF90DF90CF90BF9008950E94CD056C013D
:1009A0000E94D1057C01412CC1E0612C0BE213E0D7
:1009B000712C55245394312C0F2EF1E08F2EF3E03F
:1009C0009F2EF02D0F2EF6E1AF2EF3E0BF2EF02D6F
:1009D00001C04D2EF80182899389805B914011F509
:1009E000CC2329F00E94B901C6010E9434060E945E
:1009F0003809FC01D081D41539F00E943809FC0176
:100A00004080C32D8501E6CF0E943809FC01438058
:100A10000E943809FC0180814812DBCF432CC32D92
:100A20008401D8CFC6010E9467050E94D105EC0160
:100A30008E159F05A1F08330910521F4772081F078
:100A40007A940EC0049761F4F8018489272D30E070
:100A500090E00197281739071CF4739401C0E7014F
:100A6000611011C00E942906882369F0872D90E04B
:100A70000596880F991FF801E80FF91F0081118171
:100A80000E94AC03732C0E942906682E83E294EF27
:100A90000197F1F700C00000672DC8010E94810492
:100AA0000E9497037E01C52D95CF80589109BC0106
:100AB000990F880B990B0E94F5092AE037ED43EA5C
:100AC0005FE30E944B090E94BD09862F08950F9392
:100AD0001F93CF93DF93182F092F82E090E00E949D
:100AE000A701D82F81E090E00E94A7012D2F30E0D0
:100AF000C82FD0E0C01BD10907FDD395C901811BC8
:100B0000910917FD93958F3F910519F014F08FEF20
:100B100090E0CF3FD10519F014F0CFEFD0E099234A
:100B200014F480E090E00E945505182FCE01DD23DB
:100B300014F480E090E00E945505982F812FDF91FA
:100B4000CF911F910F9108950F931F93CF93DF9330
:100B500003E010E0C0E0D0E082E090E00E94A70156
:100B60008D0FD0E8D80F81E090E00E94A7018C0F94
:100B7000C0E8C80F0150110979F796E5D902812D17
:100B80001124C902912D1124D7FD8395C7FD93959A
:100B9000DF91CF911F910F910895C09A0E94A405F3
:100BA0000895292F482F592F891701F1082E000C7D
:100BB000990B99231CF4919581959109022E000CB3
:100BC000330B33231CF4319521953109821B930B90
:100BD0004396879770F044357CF44D3A84F0543551
:100BE0008CF45D3A94F080E090E0089580E090E02D
:100BF000089580E090E0089582E090E0089581E01B
:100C000090E0089583E090E0089584E090E00895F6
:100C1000CF9383E090E00E94A701C82F84E090E08A
:100C20000E94A701282F6C2F70E0822F90E0CF91B7
:100C3000089590B320B325FB222720F99071892FC6
:100C400090E0959587959595879595958795820FD1
:100C5000089586B38095817008950E94A4050E942E
:100C600067050E94D1050895CF93DF93CDB7DEB716
:100C700063970FB6F894DEBF0FBECDBF0E94670525
:100C800021E030E03A8329838C879D870E942906E2
:100C90008E871F86188A198A1A8A1B8ADE011C967B
:100CA000FE0133969E01255F3F4F8D918193E217A0
:100CB000F307D9F783E08B87CE0101960E949B074B
:100CC00063960FB6F894DEBF0FBECDBFDF91CF9114
:100CD0000895AF92BF92CF92DF92EF92FF920F935F
:100CE0001F93CF93DF93CDB7DEB728970FB6F89455
:100CF000DEBF0FBECDBF88E0EEE0F1E0DE01119671
:100D000001900D928A95E1F7CE0101965C0110E009
:100D10000F2EFCE6EF2EF3E0FF2EF02D0F2EFAE65D
:100D2000CF2EF3E0DF2EF02D40E061E0F501819160
:100D300091915F010E94F4020E9497032CC082E00F
:100D400090E00E94A701082F81E090E00E94A70197
:100D5000123061F018F4113031F010C0133049F046
:100D6000143051F00BC0F601008308C0F701008376
:100D700005C0F701008302C0F70100830E94190635
:100D8000813049F4FFE32DE083E0F15020408040C2
:100D9000E1F700C000000E941906882381F20E943A
:100DA000AC031F5F143009F0BFCF28960FB6F8943C
:100DB000DEBF0FBECDBFDF91CF911F910F91FF908E
:100DC000EF90DF90CF90BF90AF90089587B3806B86
:100DD00087BB8DB181618DB96E9AC49A08958FB920
:100DE00080E88EB9779BFECF089580E00E94EF06E1
:100DF000779BFECF8FB10895C49880EC90E00E945D
:100E0000EF06C49A0895CF93C82FC49883E090E06A
:100E10000E94EF068C2F90E00E94EF060E94F506DC
:100E2000C49ACF9108951F93CF93DF93182FEB01AE
:100E3000C49883E090E00E94EF06812F90E00E942A
:100E4000EF060E94F506C49A8883DF91CF911F9127
:100E50000895CF93DF931F92CDB7DEB70E94E606C9
:100E60000E94FC06BE016F5F7F4F8EE00E94130759
:100E70008981807E803831F084E992E00E943E0BC7
:100E800081E001C080E00F90DF91CF910895C49878
:100E90008EE00E940307C49A0895C49881E890E008
:100EA0000E94EF06C49A08951F93CF93DF93182FE3
:100EB000D62FC42FC49885E090E00E94EF06812FC2
:100EC00090E00E94EF068D2F90E00E94EF068C2F9D
:100ED00090E00E94EF06C49ADF91CF911F91089590
:100EE000CF93DF93D82FC62FC49882E090E00E9462
:100EF000EF068D2F90E00E94EF068C2F90E00E946D
:100F0000EF06C49ADF91CF9108950E9429074FEF11
:100F100060E680E60E9454074FEF61E08BE20E949A
:100F2000540740E060EE8FE00E94540708958BB7AD
:100F300080688BBF0895EF92FF920F931F93CF931A
:100F4000DF937C01FC0140814295440F407E60EDBF
:100F500082E30E945407F70160817181769567955D
:100F6000769567957695679581E30E947007F701FE
:100F700062856623A1F087010E5F1F4FC0E0D0E0BD
:100F8000F80161918F018C2F8A5C0E947007219675
:100F9000F7016285262F30E0C217D3078CF385E373
:100FA0000E9470070E944D07DF91CF911F910F9112
:100FB000FF90EF900895EF92FF920F931F93CF93BE
:100FC000DF93CDB7DEB72D970FB6F894DEBF0FBE17
:100FD000CDBF7C01BE01645F7F4F82E60E94130794
:100FE000BE01635F7F4F81E60E9413078D8590E00D
:100FF000880F991F880F991F880F991F2C8522959C
:1010000026952770822B9A83898385E60E940307A1
:101010008F708B878823B1F000E010E0B8016E5F1D
:101020007F4F81E090E08C0F9D1F680F791F86E64F
:10103000800F0E9413070F5F1F4F2B8530E00217B0
:10104000130764F340E061E08CE20E9454078BE0F8
:10105000FE013196D70101900D928A95E1F7C70103
:101060002D960FB6F894DEBF0FBECDBFDF91CF91A6
:101070001F910F91FF90EF900895EF92FF920F93C1
:101080001F93CF93DF93CDB7DEB72B970FB6F894AE
:10109000DEBF0FBECDBFCE0101960E94DB07898166
:1010A0009A8181309105C1F0029771F4E980FA804C
:1010B0000B811C812D813E814F81588569857A8500
:1010C0008B850E94120908C086EC92E09F938F9353
:1010D0000E94280B0F900F902B960FB6F894DEBF4E
:1010E0000FBECDBFDF91CF911F910F91FF90EF9079
:1010F00008951F920F920FB60F9211242F933F93D2
:101100004F935F936F937F938F939F93AF93BF930F
:10111000EF93FF93F8940E943D087894FF91EF912C
:10112000BF91AF919F918F917F916F915F914F91FF
:101130003F912F910F900FBE0F901F901895CF9356
:10114000DF93CDB7DEB763970FB6F894DEBF0FBE5F
:10115000CDBF81E090E09A83898388E0E6E1F1E009
:10116000DE011C9601900D928A95E1F7DE011C9636
:10117000FE0133969E01255F3F4F8D918193E217CB
:10118000F307D9F788E08B87CE0101960E949B0771
:1011900063960FB6F894DEBF0FBECDBFDF91CF913F
:1011A0000895F894EAE8F0E080818C608083EBE8B1
:1011B000F0E08081808382EA97E0909387008093BB
:1011C0008600EDE7F0E08081806180837894109262
:1011D0006F0310926E0308951F920F920FB60F9235
:1011E00011248F939F9380916E0390916F030196CA
:1011F00090936F0380936E039F918F910F900FBE1A
:101200000F901F90189580916E0390916F03089531
:10121000E0E7F3E010821282118283E0838315827B
:1012200014820895EF92FF920F931F93CF93DF9351
:10123000CDB7DEB72B970FB6F894DEBF0FBECDBF8C
:10124000E0E7F3E0108310E0128301832383832F10
:1012500090E0958384832B960FB6F894DEBF0FBE83
:10126000CDBFDF91CF911F910F91FF90EF90089527
:1012700080E793E008950895A29FB001B39FC00155
:10128000A39F700D811D1124911DB29F700D811DB2
:101290001124911D08950E945F090C94470A0E9431
:1012A000400A58F00E94390A40F029F45F3F29F0C3
:1012B0000C94300A51110C947B0A0C94360A0E944B
:1012C000580A68F39923B1F3552391F3951B550BF5
:1012D000BB27AA2762177307840738F09F5F5F4F09
:1012E000220F331F441FAA1FA9F335D00E2E3AF048
:1012F000E0E832D091505040E695001CCAF72BD060
:10130000FE2F29D0660F771F881FBB1F26173707B0
:101310004807AB07B0E809F0BB0B802DBF01FF27E2
:1013200093585F4F3AF09E3F510578F00C94300A85
:101330000C947B0A5F3FE4F3983ED4F3869577954F
:101340006795B795F7959F5FC9F7880F911D96959B
:10135000879597F90895E1E0660F771F881FBB1FF7
:10136000621773078407BA0720F0621B730B840BA4
:10137000BA0BEE1F88F7E09508950E94C40968949F
:10138000B1110C947B0A08950E94600A88F09F575F
:1013900098F0B92F9927B751B0F0E1F0660F771F99
:1013A000881F991F1AF0BA95C9F714C0B13091F08F
:1013B0000E947A0AB1E008950C947A0A672F782F78
:1013C0008827B85F39F0B93FCCF386957795679554
:1013D000B395D9F73EF490958095709561957F4FC0
:1013E0008F4F9F4F0895E89409C097FB3EF4909566
:1013F0008095709561957F4F8F4F9F4F9923A9F0EE
:10140000F92F96E9BB279395F6958795779567957C
:10141000B795F111F8CFFAF4BB0F11F460FF1BC0C0
:101420006F5F7F4F8F4F9F4F16C0882311F096E953
:1014300011C0772321F09EE8872F762F05C0662301
:1014400071F096E8862F70E060E02AF09A95660FBA
:10145000771F881FDAF7880F9695879597F9089573
:1014600097F99F6780E870E060E008959FEF80EC57
:10147000089500240A9416161706180609060895FA
:1014800000240A9412161306140605060895092E60
:101490000394000C11F4882352F0BB0F40F4BF2BCF
:1014A00011F460FF04C06F5F7F4F8F4F9F4F08950F
:1014B00057FD9058440F551F59F05F3F71F0479505
:1014C000880F97FB991F61F09F3F79F087950895EA
:1014D000121613061406551FF2CF4695F1DF08C009
:1014E000161617061806991FF1CF86957105610526
:1014F00008940895E894BB2766277727CB0197F9CE
:1015000008958F929F92AF92BF92CF92DF92EF9207
:10151000FF92CF93DF93EC01688179818A819B816F
:10152000611571058105910521F464E279ED8BE582
:1015300097E02DE133EF41E050E00E943C0F49017C
:101540005A019B01AC01A7EAB1E40E945B0F6B0159
:101550007C01ACEEB4EFA50194010E94690FDC019F
:10156000CB018C0D9D1DAE1DBF1DB7FF03C00197A4
:10157000A109B04888839983AA83BB839F77DF91B1
:10158000CF91FF90EF90DF90CF90BF90AF909F9062
:101590008F9008950E94810A089584E091E00E944E
:1015A000810A0895A0E0B0E08093040190930501C2
:1015B000A0930601B093070108950F931F93CF9353
:1015C000DF93009731F46115710519F480E090E024
:1015D0003AC08B01EC016EE070E081E090E00E9487
:1015E000400DFC01892B91F380E8838301151105DF
:1015F00071F01387028781E883838091760390914D
:101600007703892B21F4F0937703E09376032097F7
:10161000C9F0D187C08783818260838380917803FA
:1016200090917903892B71F4F0937903E093780317
:1016300080917A0390917B03892B21F4F0937B03B3
:10164000E0937A03CF01DF91CF911F910F9108951D
:10165000A0E0B0E0EEE2FBE00C947E0FAE014B5F49
:101660005F4FFA0161917191AF0180917803909180
:1016700079030E946E0BE2E00C949A0F0F931F9374
:10168000CF93DF93E0917803F0917903238121FFD9
:101690001BC08C01D0E0C0E0F80181918F01609106
:1016A000780370917903DB011896ED91FC911997FD
:1016B000882331F00995892B79F3DFEFCFEFECCF59
:1016C0008AE00995892B19F08FEF9FEF02C08D2FCB
:1016D0009C2FDF91CF911F910F910895ACE0B0E066
:1016E000E4E7FBE00C946E0F7C016B018A01FC01C6
:1016F00017821682838181FFBDC1CE0101964C0104
:10170000F7019381F60193FD859193FF81916F011C
:10171000882309F4ABC1853239F493FD859193FF99
:1017200081916F01853229F4B70190E00E94A60EE5
:10173000E7CF512C312C20E02032A0F48B3269F01D
:1017400030F4803259F0833269F420612CC08D323C
:1017500039F0803339F4216026C02260246023C030
:10176000286021C027FD27C030ED380F3A3078F4CB
:1017700026FF06C0FAE05F9E300D1124532E13C0E1
:101780008AE0389E300D1124332E20620CC08E3238
:1017900021F426FD6BC1206406C08C3611F420684C
:1017A00002C0883641F4F60193FD859193FF819143
:1017B0006F018111C1CF982F9F7D9554933028F4EC
:1017C0000C5F1F4FFFE3F9830DC0833631F0833781
:1017D00071F0833509F05BC022C0F80180818983F4
:1017E0000E5F1F4F44244394512C540115C03801FF
:1017F000F2E06F0E711CF801A080B18026FF03C0DB
:10180000652D70E002C06FEF7FEFC5012C870E944D
:101810009B0E2C0183012C852F77222E17C03801B7
:10182000F2E06F0E711CF801A080B18026FF03C0AA
:10183000652D70E002C06FEF7FEFC5012C870E941D
:10184000890E2C012C852068222E830123FC1BC0CD
:10185000832D90E048165906B0F4B70180E290E07D
:101860000E94A60E3A94F4CFF50127FC859127FE3D
:1018700081915F01B70190E00E94A60E31103A9469
:10188000F1E04F1A51084114510471F7E5C0843654
:1018900011F0893639F5F80127FF07C060817181A1
:1018A000828193810C5F1F4F08C060817181072E78
:1018B000000C880B990B0E5F1F4F2F76722E97FF2F
:1018C00009C090958095709561957F4F8F4F9F4F80
:1018D0002068722E2AE030E0A4010E94DE0EA82EBD
:1018E000A81844C0853729F42F7EB22E2AE030E0B4
:1018F00025C0F22FF97FBF2E8F36C1F018F488353E
:1019000079F0B4C0803719F0883721F0AFC02F2F9D
:101910002061B22EB4FE0DC08B2D8460B82E09C09C
:1019200024FF0AC09F2F9660B92E06C028E030E041
:1019300005C020E130E002C020E132E0F801B7FE4E
:1019400007C060817181828193810C5F1F4F06C047
:101950006081718180E090E00E5F1F4FA4010E94C2
:10196000DE0EA82EA818FB2DFF777F2E76FE0BC06B
:10197000372D3E7FA51450F474FE0AC072FC08C0D7
:10198000372D3E7E05C0BA2C372D03C0BA2C01C0BE
:10199000B52C34FF0DC0FE01EA0DF11D80818033AE
:1019A00011F4397E09C032FF06C0B394B39404C069
:1019B000832F867809F0B39433FD13C030FF06C03F
:1019C0005A2CB31418F4530C5B18B32CB31468F4EA
:1019D000B70180E290E03C870E94A60EB3943C855C
:1019E000F5CFB31410F43B1801C0312C34FF12C0F2
:1019F000B70180E390E03C870E94A60E3C8532FF51
:101A000017C031FD03C088E790E002C088E590E090
:101A1000B7010CC0832F867859F031FF02C08BE2EA
:101A200001C080E237FD8DE2B70190E00E94A60E72
:101A3000A51438F4B70180E390E00E94A60E5A94F2
:101A4000F7CFAA94F401EA0DF11D8081B70190E06F
:101A50000E94A60EA110F5CF332009F451CEB70194
:101A600080E290E00E94A60E3A94F6CFF7018681BC
:101A7000978102C08FEF9FEF2C96E2E10C948A0FC2
:101A80000F931F93CF93DF93869F8001879F100D45
:101A9000969F100D1124C8010E945C0DEC01009767
:101AA00029F0A80160E070E00E94940ECE01DF9161
:101AB000CF911F910F910895CF93DF9382309105BD
:101AC00010F482E090E0E0917E03F0917F0320E04B
:101AD00030E0C0E0D0E0309711F1408151814817EB
:101AE0005907C0F04817590761F482819381209704
:101AF00019F09B838A832BC090937F0380937E038E
:101B000026C02115310519F04217530718F49A0120
:101B1000BE01DF01EF010280F381E02DDCCF211552
:101B2000310509F1281B390B2430310590F4129648
:101B30008D919C9113976115710521F0FB019383A1
:101B4000828304C090937F0380937E03FD013296CD
:101B500044C0FD01E20FF31F81939193225031099C
:101B60002D933C933AC020917C0330917D03232B2D
:101B700041F420910A0130910B0130937D032093B1
:101B80007C0320910801309109012115310541F4B0
:101B90002DB73EB740910C0150910D01241B350B20
:101BA000E0917C03F0917D03E217F307A0F42E1B74
:101BB0003F0B2817390778F0AC014E5F5F4F2417B1
:101BC000350748F04E0F5F1F50937D0340937C0311
:101BD0008193919302C0E0E0F0E0CF01DF91CF91DB
:101BE00008950F931F93CF93DF93009709F48CC050
:101BF000FC0132971382128200917E0310917F03C1
:101C00000115110581F420813181820F931F2091EC
:101C10007C0330917D032817390779F5F0937D0314
:101C2000E0937C0371C0D80140E050E0AE17BF07DD
:101C300050F412962D913C911397AD012115310569
:101C400009F1D901F3CF9D01DA0133832283608149
:101C50007181860F971F8217930769F4EC01288121
:101C60003981260F371F2E5F3F4F318320838A81B2
:101C70009B8193838283452B29F4F0937F03E09328
:101C80007E0342C01396FC93EE931297ED014991A7
:101C900059919E01240F351FE217F30771F48081DB
:101CA0009181840F951F029611969C938E93828149
:101CB000938113969C938E931297E0E0F0E0D80105
:101CC00012968D919C911397009719F0F8018C0151
:101CD000F6CF8D919C9198012E5F3F4F820F931FFD
:101CE00020917C0330917D032817390769F43097E0
:101CF00029F410927F0310927E0302C01382128295
:101D000010937D0300937C03DF91CF911F910F917E
:101D10000895FC010590615070400110D8F780953E
:101D200090958E0F9F1F0895DC0101C06D93415067
:101D30005040E0F70895FC0161507040019001109F
:101D4000D8F7809590958E0F9F1F08950F931F933E
:101D5000CF93DF93FB01238121FD03C08FEF9FEF22
:101D600028C022FF16C04681578124813581421741
:101D7000530744F4A081B1819D012F5F3F4F318310
:101D800020838C93268137812F5F3F4F37832683B3
:101D900010C0EB01092F182F0084F185E02D099563
:101DA000892BE1F68E819F8101969F838E83812FFF
:101DB000902FDF91CF911F910F910895FA01AA27DB
:101DC000283051F1203181F1E8946F936E7F6E5F7E
:101DD0007F4F8F4F9F4FAF4FB1E03ED0B4E03CD02C
:101DE000670F781F891F9A1FA11D680F791F8A1F0F
:101DF000911DA11D6A0F711D811D911DA11D20D076
:101E000009F468943F912AE0269F11243019305D2F
:101E10003193DEF6CF010895462F4770405D419320
:101E2000B3E00FD0C9F7F6CF462F4F70405D4A336D
:101E300018F0495D31FD4052419302D0A9F7EACF35
:101E4000B4E0A6959795879577956795BA95C9F764
:101E500000976105710508959B01AC010A2E069457
:101E60005795479537952795BA95C9F7620F731F10
:101E7000841F951FA01D0895052E97FB1EF4009446
:101E80000E94530F57FD07D00E94A50F07FC03D0F7
:101E90004EF40C94530F50954095309521953F4F3B
:101EA0004F4F5F4F089590958095709561957F4F46
:101EB0008F4F9F4F08950E943C09A59F900DB49F9E
:101EC000900DA49F800D911D11240895B7FF0C94CF
:101ED0005B0F0E945B0F821B930B08952F923F9222
:101EE0004F925F926F927F928F929F92AF92BF922A
:101EF000CF92DF92EF92FF920F931F93CF93DF93D6
:101F0000CDB7DEB7CA1BDB0B0FB6F894DEBF0FBE32
:101F1000CDBF09942A88398848885F846E847D847F
:101F20008C849B84AA84B984C884DF80EE80FD8081
:101F30000C811B81AA81B981CE0FD11D0FB6F894F7
:101F4000DEBF0FBECDBFED010895A1E21A2EAA1B80
:101F5000BB1BFD010DC0AA1FBB1FEE1FFF1FA21759
:101F6000B307E407F50720F0A21BB30BE40BF50B56
:101F7000661F771F881F991F1A9469F760957095DF
:101F8000809590959B01AC01BD01CF010895F89417
:021F9000FFCF81
:101F92000012001001000000000080032000520225
:101FA20064027502840201010101010101016174EF
:101FB20074656D7074656420746F207570646174EB
:101FC2006520627566666572206F757473696465F3
:101FD200206F662073637265656E2C20696D706C6C
:101FE200656D656E7420777261702061726F756EB7
:101FF200643F00617474656D7074656420746F2051
:1020020075706461746520627566666572207769B1
:10201200746820696E76616C6964206C696E652CE7
:1020220020696D706C656D656E74207772617020C9
:1020320061726F756E643F00476F206261636B006F
:1020420047616D65006869676873636F7265006FE9
:102052007074696F6E7300506C61792067616D6591
:10206200004869676873636F726573004F707469C3
:102072006F6E7300546869732069732074686520F9
:102082006D61696E206D656E75203A2900416C6C38
:10209200206C69766573206C6F73742C2067616D98
:1020A20065206F766572004E65772067616D650009
:1020B2004261636B20746F206D61696E206D656E85
:1020C20075004661696C2072656769737465726434
:1020D20000436F6E74696E75652067616D65002AD5
:1020E2002000536574206D617820726967687420DE
:1020F20028782900536574206D696E206C656674BA
:102102002028782900536574206D6178207570202D
:1021120028792900536574206D696E20646F776E8B
:10212200287929004D435032353135206973204ECC
:102132004F5420696E20636F6E66696775726174B1
:10214200696F6E206D6F64652061667465722072BE
:102152006573657421004D657373616765207769E6
:10216200746820756E6D6170706564204944206CDE
:0C2172006F61646564203A280A0D0000CB
:00000001FF
