:100000000C9460030C947D030C94280B0C947D03DA
:100010000C947D030C947D030C947D030C94600C74
:100020000C947D030C947D030C947D030C947D0350
:100030000C947D030C947D030C947D030C947D0340
:100040000C947D030C947D030C947D030C947D0330
:100050000C947D030C947D030C947D030C947D0320
:100060000C947D030C947D030C947D030C947D0310
:1000700000000000005C00000C000C007C287C28C4
:1000800058DC68002410480028542840000C000068
:10009000007884008478000054385400107C1000EC
:1000A00080400000101010000040000060100C00A4
:1000B00038543800487C40004864580044542C00B0
:1000C0001C107C005C5424003854240064140C0080
:1000D00068542C0048543800004800008048000054
:1000E0001028440028282800442810000454080040
:1000F00038445C00781478007C5428003844280088
:100100007C4438007C5444007C140400384474005F
:100110007C107C00447C440020403C007C106C003F
:100120007C4040007C187C0078103C00384438004B
:100130007C1408003844B8007C146800485424003B
:10014000047C04007C407C003C603C007C307C00F3
:100150006C106C000C700C0064544C00007C44006B
:100160000C106000447C00000804080080808000BF
:1001700000040800304878007C48300030484800CF
:1001800030487C00306850001078140090A8780047
:100190007C08700050744000808074007C106800FF
:1001A000447C4000781078007808700030483000B7
:1001B000F82810003048F80078100800505828003F
:1001C000083C4800384078003840380078207800F3
:1001D0004830480098A0780048685800107884009B
:1001E000007C00008478100008040804000000006F
:1001F0000000005F00000007000700147F147F1458
:10020000242A7F2A1223130864623649552250009B
:1002100005030000001C2241000041221C00082AA6
:100220001C2A0808083E080800503000000808088A
:100230000808006060000020100804023E51494593
:100240003E00427F400042615149462141454B31C9
:100250001814127F1027454545393C4A4949300159
:10026000710905033649494936064949291E0036B0
:100270003600000056360000000814224114141401
:10028000141441221408000201510906324979412F
:100290003E7E1111117E7F494949363E414141223E
:1002A0007F4141221C7F494949417F090901013EA3
:1002B000414151327F0808087F00417F41002040C2
:1002C000413F017F081422417F404040407F0204AB
:1002D000027F7F0408107F3E4141413E7F090909AA
:1002E000063E4151215E7F09192946464949493157
:1002F00001017F01013F4040403F1F2040201F7F00
:100300002018207F631408146303047804036151E8
:1003100049454300007F4141020408102041417FCC
:100320000000040201020440404040400001020479
:100330000020545454787F4844443838444444207E
:10034000384444487F3854545418087E0901020840
:100350001454543C7F0804047800447D400020403D
:10036000443D00007F10284400417F40007C041879
:1003700004787C0804047838444444387C14141409
:1003800008081414187C7C080404084854545420A9
:10039000043F4440203C4040207C1C2040201C3C2A
:1003A0004030403C44281028440C5050503C446499
:1003B000544C44000836410000007F0000004136E4
:1003C000080002010302010000000000000000001C
:1003D000065F5F0600000000070700070700001423
:1003E0007F7F147F7F1400242E6B6B3A120000462F
:1003F0006630180C666200307A4F5D377A48000428
:1004000007030000000000001C3E634100000000E4
:1004100041633E1C000000082A3E1C1C3E2A0808BE
:10042000083E3E0808000000A0E060000000000850
:100430000808080808000000006060000000006074
:1004400030180C060301003E7F594D7F3E000042EC
:10045000427F7F40400000627359496F660000226E
:100460006349497F360000181C16137F7F10002750
:100470006745457D3900003C7E4B497930000003DB
:100480006371190F070000367F49497F3600000667
:100490004F49693F1E000000006C6C000000000026
:1004A000A0EC6C00000000081C3663410000001442
:1004B00014141414140000004163361C08000002D8
:1004C0000351590F0600003E7F415D5D1F1E007CF9
:1004D0007E13137E7C0000417F7F49497F36001CDC
:1004E0003E634141632200417F7F41637F1C0041A5
:1004F0007F7F495D416300417F7F491D0103001CEF
:100500003E6341517372007F7F08087F7F000000C7
:10051000417F7F41000000307040417F3F0100413A
:100520007F7F081C776300417F7F41406070007FC0
:100530007F060C067F7F007F7F060C187F7F001CE4
:100540003E6341633E1C00417F7F49090F06001E48
:100550003F21717F5E0000417F7F19396F46002681
:10056000674D597B32000003417F7F410300007FCC
:100570007F40407F7F00001F3F60603F1F00007F83
:100580007F3018307F7F0063771C081C776300077B
:100590004F78784F0700006773594D47637100002B
:1005A0007F7F41410000000103060C18306000000D
:1005B00041417F7F000000080C0603060C08008004
:1005C000808080808080800000030704000000207D
:1005D0007454543C784000413F7F44447C38003898
:1005E0007C44446C280000307848493F7F40003804
:1005F0007C54545C180000487E7F49030200009838
:10060000BCA4A4F87C0400417F7F08047C7800002F
:10061000447D7D4000000040C484FD7D0000004119
:100620007F7F10386C440000417F7F400000007CD9
:100630007C0C180C7C78007C7C04047C78000038EE
:100640007C44447C38000084FCF8A4243C18001846
:100650003C24A4F8FC8400447C78441C1800004826
:100660005C54547424000000043E7F442400003C89
:100670007C40403C7C40001C3C60603C1C00003CDA
:100680007C6030607C3C00446C3810386C44009CCA
:10069000BCA0A0FC7C00004C64745C4C64000008AE
:1006A000083E7741410000000000777700000041DC
:1006B00041773E0808000002030103020301000025
:1006C00011241FBECFEFD4E0DEBFCDBF14E0A0E009
:1006D000B1E0E2E1F6E202C005900D92AE38B1075A
:1006E000D9F725E0AEE8B4E001C01D92A633B20709
:1006F000E1F70E947F030C9407130C94000080E83C
:1007000085BF80E280BF8FB780688FBF8FE190E0A8
:100710000E94B30386E191E00E947E0E0E94C40312
:100720000E9495090E94D8090E94340A0E94460A34
:100730000E94C2040E9489040E9463060E947C06F3
:100740000E94110C0E94DE080E94450C0E94840643
:100750000E94980708955D9BFECF8CB908955F9B1A
:10076000FECF8CB1089590BD89B988E18AB98EE831
:1007700080BD6FEA73E08BEA93E00E941D0E8BE16F
:1007800091E00E947E0E089580E885BF0895CF9283
:10079000DF92EF92FF920F931F93CF93DF9384E248
:1007A00091E09F938F930E94680E0E940D0E7C0132
:1007B0000E94120E0F900F90C12CD12CC0E0D0E0FF
:1007C0000CE311E00E940D0EF601F85E808320819B
:1007D0002817A1F099279F938F931F922F93DF9251
:1007E000CF921F930F930E94680E21968DB79EB7EC
:1007F00008960FB6F8949EBF0FBE8DBF9FEFC91A23
:10080000D90AC11488E0D806E9F6C7010E94120E81
:1008100000E010E0E12CF12C0F2EF6E7CF2EF1E0F6
:10082000DF2EF02D0E940D0EF801F85E20812817B2
:10083000B1F099279F938F931F922F931F930F933C
:10084000DF92CF920E94680E9FEFE91AF90A8DB7E6
:100850009EB708960FB6F8949EBF0FBE8DBF0F5F70
:100860001F4F011598E01907E9F6FF92EF92DF9309
:10087000CF9384EB91E09F938F930E94680E0F902B
:100880000F900F900F900F900F90DF91CF911F91CD
:100890000F91FF90EF90DF90CF9008958FEF84BB82
:1008A00015BA089500E014E10F2EF5E0FF2EF02DAB
:1008B000DF2C0F2EF4E1EF2EF02DC0E1D2E0F80195
:1008C000D08287E99AE30197F1F700C000008081A8
:1008D0001F928F93EF92FF92DF93CF930E94680E47
:1008E0000F900F900F900F900F900F90E8CF0396FE
:1008F000E0E0F4E1808387E99AE30197F1F700C033
:10090000000080810895E0910201F091030180834D
:10091000089520E030E050E840E0E0910201F091DD
:10092000030180EB820F8083852F942FE0910001DB
:10093000F0910101E20FF31F10820197B9F72F5FC9
:100940003F4F2830310549F7089520E030E060E856
:1009500050E04FEFE0910201F091030180EB820F34
:100960008083862F952FE0910001F0910101E20F25
:10097000F31F40830197B9F72F5F3F4F28303105B0
:1009800049F70895E0910201F09103018EEA808316
:10099000E0910201F091030181EA8083E09102017C
:1009A000F09103018AED8083E0910201F09103014F
:1009B00082E18083E0910201F091030188EC808361
:1009C000E0910201F091030188EA8083E091020145
:1009D000F09103018FE38083E0910201F091030124
:1009E00085ED8083E0910201F091030180E880832E
:1009F000E0910201F091030181E88083E09102011E
:100A0000F091030180E58083E0910201F091030100
:100A100089ED8083E0910201F091030181E28083FE
:100A2000E0910201F091030180E28083E0910201F4
:100A3000F091030182E08083E0910201F0910301D3
:100A40008BED8083E0910201F091030180E38083CC
:100A5000E0910201F09103018DEA8083E0910201AF
:100A6000F09103011082E0910201F091030184EA08
:100A70008083E0910201F091030186EA8083E09196
:100A80000201F09103018FEA80830895E091020151
:100A9000F091030180558083E0910201F091030100
:100AA000862F8F708083E0910201F091030162959F
:100AB0006F70605F60830895E0910001F091010123
:100AC000808308958032D8F0805290E09C01220FFC
:100AD000331F220F331F820F931F20E030E0F901F4
:100AE000E80FF91FE451FE4FE491A0910001B0918D
:100AF0000101EC932F5F3F4F2530310581F70895B9
:100B0000EF92FF920F931F93CF93DF93FC018081AD
:100B1000882399F18F010F5F1F4FC0E0D0E0E12CD7
:100B20000F2EF9E1FF2EF02D0E9462059E01AFEA23
:100B3000B7E40E947C0CAE01481B590B56954795B3
:100B4000480F591F529542954F7045275F704527B2
:100B5000F49EC001F59E900D1124C817D90739F4F1
:100B6000209729F0E39460E08E2D0E94460521969F
:100B7000F80181918F018111D7CFDF91CF911F9122
:100B80000F91FF90EF900895CF93DF93DC0180E801
:100B9000689FB0011124785E26C0803230F1205267
:100BA00030E0F901EE0FFF1FEE0FFF1FE20FF31F02
:100BB000E451FE4F2F5F3F4FC901880F991F880FE7
:100BC000991F280F391F24513E4FEB01442319F080
:100BD0009491909501C0949199933196E217F307FF
:100BE000A9F76B5F7F4F2D91822F2111D6CFDF9117
:100BF000CF910895FC01F85E608308959C01240F55
:100C0000311D2115344018F441110AC008958AE2BB
:100C100092E09F938F930E94680E0F900F9008951B
:100C2000A62FB72FFC01F85E9C012F5F374E415075
:100C3000240F311D9D919193E217F307D9F7089581
:100C4000883048F08FE692E09F938F930E94680E61
:100C50000F900F90089540E820E8829FC001112472
:100C60000E94FE050895833058F4E0910201F0914E
:100C7000030190E29083E0910201F09103018083EF
:100C80000895E0910201F091030191E29083E091D7
:100C90000201F09103018083E0910201F0910301D0
:100CA00060830895E0910201F091030192E2908344
:100CB000E0910201F09103018083E0910201F09143
:100CC00003016083089580E00E94330608956FE772
:100CD00080E00E94410667E080E00E945206E0E06A
:100CE000F8E18191A0910001B09101018C93E1158F
:100CF0008CE1F807B1F70895E0E0F8E11192E11511
:100D00008CE1F807D9F70895CF93DF93CDB7DEB71D
:100D1000CB54D1090FB6F894DEBF0FBECDBFE9EDBD
:100D2000F4E01182108284EB92E0938382838EEB55
:100D300092E09583848389EC92E09783868381EDAA
:100D400092E0978B868B83E0808FCE01019695870A
:100D500084879E01265E3F4F37872687275E3F4F59
:100D6000318B208BA7EAB4E011961C921E922AEEDA
:100D700032E057963C932E93569742E058964C9308
:100D8000589724E033E013963C932E9312972DE06E
:100D900033E015963C932E9314971D969C938E9357
:100DA0001C971F96FC93EE931E97A0ECB4E011964F
:100DB0001C921E926FE173E057967C936E93569748
:100DC00058964C9358974EE253E013965C934E938B
:100DD000129715963C932E9314971D969C938E9381
:100DE0001C971F96FC93EE931E97C55BDF4F0FB6C3
:100DF000F894DEBF0FBECDBFDF91CF910895CF92A3
:100E0000DF92EF92FF920F931F93CF93DF937C01BA
:100E1000C62E0E94890460E080E00E944605F7012A
:100E2000868997890E948005F701808D8823F9F0D3
:100E300087010E5F1F4FC0E0D0E0D12C60E08C2F07
:100E40008F5F0E944605CC16DD0621F48CE393E00B
:100E50000E948005F801819191918F010E94800587
:100E60002196F701208D30E0C217D3073CF3FFE94C
:100E700026E881E0F15020408040E1F700C000000A
:100E8000DF91CF911F910F91FF90EF90DF90CF9066
:100E900008959F92AF92BF92CF92DF92EF92FF920E
:100EA0000F931F93CF93DF938C01962E40E060E069
:100EB000FC01868997890E94C405F801808D8823EA
:100EC00059F15801C0E0D0E0E92CF12C939467016E
:100ED000FFEFCF1ADF0ACC0CDD1CC00ED11EEC16C2
:100EE000FD0641F441E0692DF601808191810E9467
:100EF000C40508C040E06C2F6F5FF50182819381CB
:100F00000E94C4052196F2E0AF0EB11CF801208DBD
:100F100030E0C217D3071CF3DF91CF911F910F91DF
:100F2000FF90EF90DF90CF90BF90AF909F9008958B
:100F30000E94DE084C010E94E2087C01212CC1E0E5
:100F4000412C09ED14E0512C0F2EF0ECAF2EF3E004
:100F5000BF2EF02D0F2EFFEDCF2EF3E0DF2EF02D64
:100F60003324339401C0282ED80156968D919C913C
:100F700057978F53934009F04FC0A4E4B3E0BF9359
:100F8000AF930E94680E0F900F90CC23C1F00E9487
:100F90008904A7E5B3E0BF93AF930E94680EC40134
:100FA0000E943F09ADE6B3E0BF93AF930E94680E85
:100FB0000E94420C3C010F900F900F900F90D301B4
:100FC0008C918215B9F08C911F928F931F922F9262
:100FD000A1E8B3E0BF93AF930E94680ED3012C90B9
:100FE0000F900F900F900F900F900F90C0E000ECBB
:100FF00014E0BACFF301238190812913B4CFA4EB7D
:10100000B3E0BF93AF930E94680E0F900F90212C16
:10101000C0E007EA14E0A8CFD8011C96ED91FC913E
:101020001D9787898F9386898F93BF92AF920E9475
:10103000680EDF92CF920E94680EC4010E94780869
:101040000E94E208EC010F900F900F900F900F900C
:101050000F908E159F05A1F08330910521F4552046
:1010600081F05A940EC0049761F4252D30E0F80108
:10107000808D90E00197281739071CF4539401C024
:10108000E701411011C00E943409882369F0852DC1
:1010900090E00696880F991FF801E80FF91F00816C
:1010A00011810E947C06512C0E943409482E83ED48
:1010B00090E30197F1F700C00000652DC8010E9480
:1010C00049070E9467067E01C32D4ECF80589109C3
:1010D000BC01990F880B990B0E94350D2AE037ED62
:1010E00043EA5FE30E948B0C0E94FD0C862F08955B
:1010F0000F931F93CF93DF93182F092F82E090E077
:101100000E947704D82F81E090E00E9477042D2F71
:1011100030E0C82FD0E0C01BD10907FDD395C9012D
:10112000811B910917FD93958F3F910519F014F0DC
:101130008FEF90E0CF3FD10519F014F0CFEFD0E062
:10114000992314F480E090E00E946608182FCE01E5
:10115000DD2314F480E090E00E946608982F812F30
:10116000DF91CF911F910F9108950F931F93CF930C
:10117000DF9303E010E0C0E0D0E082E090E00E9466
:1011800077048D0FD0E8D80F81E090E00E947704BB
:101190008C0FC0E8C80F0150110979F796E5D90204
:1011A000812D1124C902912D1124D7FD8395C7FDEE
:1011B0009395DF91CF911F910F910895C09A0E944E
:1011C000B5080895292F482F592F891701F1082EA6
:1011D000000C990B99231CF4919581959109022E8D
:1011E000000C330B33231CF4319521953109821BFC
:1011F000930B4396879770F044357CF44D3A84F016
:1012000054358CF45D3A94F080E090E0089580E0ED
:1012100090E0089580E090E0089582E090E00895E5
:1012200081E090E0089583E090E0089584E090E00C
:101230000895CF9383E090E00E947704C82F84E064
:1012400090E00E947704282F6C2F70E0822F90E0AE
:10125000CF91089580B390B395FB992790F9990F9A
:1012600082958170890F089586B380958170089565
:101270000E94B5080E9478080E94E20808950F9322
:101280001F93CF93DF93CDB7DEB763970FB6F89474
:10129000DEBF0FBECDBF0E947808182F092F81E056
:1012A00090E09A8389831C870D870E9434098E877A
:1012B0001F86188A198A1A8A1B8ADE011C96FE016B
:1012C0003396AE01455F5F4F2D912193E417F507EB
:1012D000D9F783E08B87CE0101960E944A0A0E94CB
:1012E00034091F928F93802F002E000C990B9F932F
:1012F0000F93812F012E000C990B9F931F9385EF65
:1013000093E09F938F930E94680E0FB6F894DEBF10
:101310000FBECDBF63960FB6F894DEBF0FBECDBF34
:10132000DF91CF911F910F91089587B3806B87BB99
:101330008DB181618DB96E9AC49A08958FB980E894
:101340008EB9779BFECF089580E00E949E09779B1F
:10135000FECF8FB10895C49880EC90E00E949E0962
:10136000C49A0895CF93C82FC49883E090E00E9458
:101370009E098C2F90E00E949E090E94A409C49AA5
:10138000CF9108951F93CF93DF93182FEB01C4984B
:1013900083E090E00E949E09812F90E00E949E09C8
:1013A0000E94A409C49A8883DF91CF911F91089568
:1013B000CF93DF931F92CDB7DEB70E9495090E94AD
:1013C000AB09BE016F5F7F4F8EE00E94C209898129
:1013D000807E803831F08CE194E00E947E0E81E0C6
:1013E00001C080E00F90DF91CF910895C4988EE006
:1013F0000E94B209C49A0895C49881E890E00E94BE
:101400009E09C49A08951F93CF93DF93182FD62F68
:10141000C42FC49885E090E00E949E09812F90E03F
:101420000E949E098D2F90E00E949E098C2F90E0D3
:101430000E949E09C49ADF91CF911F910895CF9386
:10144000DF93D82FC62FC49882E090E00E949E09B7
:101450008D2F90E00E949E098C2F90E00E949E09A3
:10146000C49ADF91CF9108950E94D8094FEF60E6AA
:1014700080E60E94030A4FEF61E08BE20E94030ABC
:1014800040E060EE8FE00E94030A08958BB7806809
:101490008BBF0895EF92FF920F931F93CF93DF932B
:1014A0007C01FC0140814295440F407E60ED82E367
:1014B0000E94030AF70160817181769567957695A0
:1014C00067957695679581E30E941F0AF70162850B
:1014D0006623A1F087010E5F1F4FC0E0D0E0F80146
:1014E00061918F018C2F8A5C0E941F0A2196F7015F
:1014F0006285262F30E0C217D3078CF385E30E9464
:101500001F0A0E94FC09DF91CF911F910F91FF905C
:10151000EF900895EF92FF920F931F93CF93DF9375
:10152000CDB7DEB72D970FB6F894DEBF0FBECDBF97
:101530007C01BE01645F7F4F82E60E94C209BE014A
:10154000635F7F4F81E60E94C2098D8590E0880F1E
:10155000991F880F991F880F991F2C852295269512
:101560002770822B9A83898385E60E94B2098F7047
:101570008B878823B1F000E010E0B8016E5F7F4FE9
:1015800081E090E08C0F9D1F680F791F86E6800F29
:101590000E94C2090F5F1F4F2B8530E0021713070F
:1015A00064F340E061E08CE20E94030A8BE0FE01FC
:1015B0003196D70101900D928A95E1F7C7012D96DA
:1015C0000FB6F894DEBF0FBECDBFDF91CF911F9154
:1015D0000F91FF90EF900895EF92FF920F931F935A
:1015E000CF93DF93CDB7DEB72B970FB6F894DEBF5E
:1015F0000FBECDBFCE0101960E948A0A89819A81D1
:1016000081309105C1F0029771F4E980FA800B8175
:101610001C812D813E814F81588569857A858B8516
:101620000E941B0C08C08EE494E09F938F930E944D
:10163000680E0F900F902B960FB6F894DEBF0FBE7A
:10164000CDBFDF91CF911F910F91FF90EF90089543
:101650001F920F920FB60F9211242F933F934F9327
:101660005F936F937F938F939F93AF93BF93EF930A
:10167000FF93F8940E94EC0A7894FF91EF91BF9148
:10168000AF919F918F917F916F915F914F913F911A
:101690002F910F900FBE0F901F901895CF93DF934F
:1016A000CDB7DEB763970FB6F894DEBF0FBECDBFE0
:1016B00081E090E09A83898388E0EEE0F1E0DE014A
:1016C0001C9601900D928A95E1F7DE011C96FE01B1
:1016D00033969E01255F3F4F8D918193E217F3076B
:1016E000D9F788E08B87CE0101960E944A0A63965B
:1016F0000FB6F894DEBF0FBECDBFDF91CF91089536
:101700000F931F93CF93DF93CDB7DEB7C456D109A4
:101710000FB6F894DEBF0FBECDBF81E088BB8E014F
:101720000F5F1F4F1B8F0A8F23E734E03D8F2C8FF5
:101730001FA30EA34FE353E059AB48AB8AAB1CABDE
:101740000BAB3EAB2DAB21961FAF0EAF21974BE7F6
:1017500054E02B965FAF4EAF2B972C968FAF2C9704
:10176000FE01E45BFF4F11830083338322831587DF
:10177000048725E834E0378B268B808F1A82198204
:1017800084EB92E09C838B838EEB92E09E838D832F
:1017900089EC92E098878F8381ED92E0988F8F8B10
:1017A00083E0898FCE014A969E878D874996988BD4
:1017B0008F87FA8BE98B0E94C2040E9489042FE371
:1017C0008DE093E0215080409040E1F700C00000A0
:1017D0000E94A5042FE38DE093E0215080409040CB
:1017E000E1F700C000000E9463060E947C060E9490
:1017F00067062FE38DE093E0215080409040E1F7B1
:1018000000C00000C8010E949807CC59DF4F0FB6F6
:10181000F894DEBF0FBECDBFDF91CF911F910F9126
:101820000895E4E2F5E010821282118283E083835E
:10183000158214820895EF92FF920F931F93CF9316
:10184000DF93CDB7DEB72B970FB6F894DEBF0FBE90
:10185000CDBFE4E2F5E00083812F90E092838183A5
:101860002383832F90E0958384832B960FB6F8947F
:10187000DEBF0FBECDBFDF91CF911F910F91FF90C3
:10188000EF90089584E295E00895F894EAE8F0E096
:1018900080818C608083EBE8F0E08081808382EA45
:1018A00097E09093870080938600EDE7F0E08081D9
:1018B00080618083789410922B0510922A050895F8
:1018C0001F920F920FB60F9211248F939F938091C6
:1018D0002A0590912B05019690932B0580932A055C
:1018E0009F918F910F900FBE0F901F901895809130
:1018F0002A0590912B050895A29FB001B39FC001C6
:10190000A39F700D811D1124911DB29F700D811D2B
:101910001124911D08950E949F0C0C94870D0E9424
:10192000800D58F00E94790D40F029F45F3F29F0B6
:101930000C94700D51110C94BB0D0C94760D0E94FB
:10194000980D68F39923B1F3552391F3951B550B2B
:10195000BB27AA2762177307840738F09F5F5F4F82
:10196000220F331F441FAA1FA9F335D00E2E3AF0C1
:10197000E0E832D091505040E695001CCAF72BD0D9
:10198000FE2F29D0660F771F881FBB1F261737072A
:101990004807AB07B0E809F0BB0B802DBF01FF275C
:1019A00093585F4F3AF09E3F510578F00C94700DBC
:1019B0000C94BB0D5F3FE4F3983ED4F38695779586
:1019C0006795B795F7959F5FC9F7880F911D969515
:1019D000879597F90895E1E0660F771F881FBB1F71
:1019E000621773078407BA0720F0621B730B840B1E
:1019F000BA0BEE1F88F7E09508950E94040D6894D5
:101A0000B1110C94BB0D08950E94A00D88F09F5752
:101A100098F0B92F9927B751B0F0E1F0660F771F12
:101A2000881F991F1AF0BA95C9F714C0B13091F008
:101A30000E94BA0DB1E008950C94BA0D672F782F6B
:101A40008827B85F39F0B93FCCF3869577956795CD
:101A5000B395D9F73EF490958095709561957F4F39
:101A60008F4F9F4F0895E89409C097FB3EF49095DF
:101A70008095709561957F4F8F4F9F4F9923A9F067
:101A8000F92F96E9BB279395F695879577956795F6
:101A9000B795F111F8CFFAF4BB0F11F460FF1BC03A
:101AA0006F5F7F4F8F4F9F4F16C0882311F096E9CD
:101AB00011C0772321F09EE8872F762F05C066237B
:101AC00071F096E8862F70E060E02AF09A95660F34
:101AD000771F881FDAF7880F9695879597F90895ED
:101AE00097F99F6780E870E060E008959FEF80ECD1
:101AF000089500240A941616170618060906089574
:101B000000240A9412161306140605060895092ED9
:101B10000394000C11F4882352F0BB0F40F4BF2B48
:101B200011F460FF04C06F5F7F4F8F4F9F4F089588
:101B300057FD9058440F551F59F05F3F71F047957E
:101B4000880F97FB991F61F09F3F79F08795089563
:101B5000121613061406551FF2CF4695F1DF08C082
:101B6000161617061806991FF1CF8695710561059F
:101B700008940895E894BB2766277727CB0197F947
:101B800008958F929F92AF92BF92CF92DF92EF9281
:101B9000FF92CF93DF93EC01688179818A819B81E9
:101BA000611571058105910521F464E279ED8BE5FC
:101BB00097E02DE133EF41E050E00E947C124901B3
:101BC0005A019B01AC01A7EAB1E40E949B126B0190
:101BD0007C01ACEEB4EFA50194010E94A912DC01D6
:101BE000CB018C0D9D1DAE1DBF1DB7FF03C001971E
:101BF000A109B04888839983AA83BB839F77DF912B
:101C0000CF91FF90EF90DF90CF90BF90AF909F90DB
:101C10008F9008950E94C10D089584E091E00E9484
:101C2000C10D0895A0E0B0E08093040190930501F8
:101C3000A0930601B093070108950F931F93CF93CC
:101C4000DF93009731F46115710519F480E090E09D
:101C50003AC08B01EC016EE070E081E090E00E9400
:101C60008010FC01892B91F380E883830115110515
:101C700071F01387028781E8838380912C0590910E
:101C80002D05892B21F4F0932D05E0932C05209749
:101C9000C9F0D187C08783818260838380912E05BC
:101CA00090912F05892B71F4F0932F05E0932E0569
:101CB0008091300590913105892B21F4F093310505
:101CC000E0933005CF01DF91CF911F910F910895DF
:101CD000A0E0B0E0EEE6FEE00C94BE12AE014B5F79
:101CE0005F4FFA0161917191AF0180912E05909142
:101CF0002F050E94AE0EE2E00C94DA120F931F93B0
:101D0000CF93DF93E0912E05F0912F05238121FFE2
:101D10001BC08C01D0E0C0E0F80181918F0160917F
:101D20002E0570912F05DB011896ED91FC91199706
:101D3000882331F00995892B79F3DFEFCFEFECCFD2
:101D40008AE00995892B19F08FEF9FEF02C08D2F44
:101D50009C2FDF91CF911F910F910895ACE0B0E0DF
:101D6000E4EBFEE00C94AE127C016B018A01FC01F5
:101D700017821682838181FFBDC1CE0101964C017D
:101D8000F7019381F60193FD859193FF81916F0196
:101D9000882309F4ABC1853239F493FD859193FF13
:101DA00081916F01853229F4B70190E00E94E6111C
:101DB000E7CF512C312C20E02032A0F48B3269F097
:101DC00030F4803259F0833269F420612CC08D32B6
:101DD00039F0803339F4216026C02260246023C0AA
:101DE000286021C027FD27C030ED380F3A3078F445
:101DF00026FF06C0FAE05F9E300D1124532E13C05B
:101E00008AE0389E300D1124332E20620CC08E32B1
:101E100021F426FD6BC1206406C08C3611F42068C5
:101E200002C0883641F4F60193FD859193FF8191BC
:101E30006F018111C1CF982F9F7D9554933028F465
:101E40000C5F1F4FFFE3F9830DC0833631F08337FA
:101E500071F0833509F05BC022C0F801808189836D
:101E60000E5F1F4F44244394512C540115C0380178
:101E7000F2E06F0E711CF801A080B18026FF03C054
:101E8000652D70E002C06FEF7FEFC5012C870E94C7
:101E9000DB112C0183012C852F77222E17C03801EE
:101EA000F2E06F0E711CF801A080B18026FF03C024
:101EB000652D70E002C06FEF7FEFC5012C870E9497
:101EC000C9112C012C852068222E830123FC1BC004
:101ED000832D90E048165906B0F4B70180E290E0F7
:101EE0000E94E6113A94F4CFF50127FC859127FE74
:101EF00081915F01B70190E00E94E61131103A94A0
:101F0000F1E04F1A51084114510471F7E5C08436CD
:101F100011F0893639F5F80127FF07C0608171811A
:101F2000828193810C5F1F4F08C060817181072EF1
:101F3000000C880B990B0E5F1F4F2F76722E97FFA8
:101F400009C090958095709561957F4F8F4F9F4FF9
:101F50002068722E2AE030E0A4010E941E12A82EF2
:101F6000A81844C0853729F42F7EB22E2AE030E02D
:101F700025C0F22FF97FBF2E8F36C1F018F48835B7
:101F800079F0B4C0803719F0883721F0AFC02F2F17
:101F90002061B22EB4FE0DC08B2D8460B82E09C016
:101FA00024FF0AC09F2F9660B92E06C028E030E0BB
:101FB00005C020E130E002C020E132E0F801B7FEC8
:101FC00007C060817181828193810C5F1F4F06C0C1
:101FD0006081718180E090E00E5F1F4FA4010E943C
:101FE0001E12A82EA818FB2DFF777F2E76FE0BC0A1
:101FF000372D3E7FA51450F474FE0AC072FC08C051
:10200000372D3E7E05C0BA2C372D03C0BA2C01C037
:10201000B52C34FF0DC0FE01EA0DF11D8081803327
:1020200011F4397E09C032FF06C0B394B39404C0E2
:10203000832F867809F0B39433FD13C030FF06C0B8
:102040005A2CB31418F4530C5B18B32CB31468F463
:10205000B70180E290E03C870E94E611B3943C8592
:10206000F5CFB31410F43B1801C0312C34FF12C06B
:10207000B70180E390E03C870E94E6113C8532FF87
:1020800017C031FD03C088E790E002C088E590E00A
:10209000B7010CC0832F867859F031FF02C08BE264
:1020A00001C080E237FD8DE2B70190E00E94E611A9
:1020B000A51438F4B70180E390E00E94E6115A9429
:1020C000F7CFAA94F401EA0DF11D8081B70190E0E9
:1020D0000E94E611A110F5CF332009F451CEB701CB
:1020E00080E290E00E94E6113A94F6CFF7018681F3
:1020F000978102C08FEF9FEF2C96E2E10C94CA12F9
:102100000F931F93CF93DF93869F8001879F100DBE
:10211000969F100D1124C8010E949C10EC0100979D
:1021200029F0A80160E070E00E94D411CE01DF9197
:10213000CF911F910F910895CF93DF938230910536
:1021400010F482E090E0E0913405F091350520E054
:1021500030E0C0E0D0E0309711F140815181481764
:102160005907C0F04817590761F48281938120977D
:1021700019F09B838A832BC0909335058093340597
:1021800026C02115310519F04217530718F49A019A
:10219000BE01DF01EF010280F381E02DDCCF2115CC
:1021A000310509F1281B390B2430310590F41296C2
:1021B0008D919C9113976115710521F0FB0193831B
:1021C000828304C09093350580933405FD013296D7
:1021D00044C0FD01E20FF31F819391932250310916
:1021E0002D933C933AC02091320530913305232B37
:1021F00041F420910A0130910B0130933305209373
:10220000320520910801309109012115310541F471
:102210002DB73EB740910C0150910D01241B350B99
:10222000E0913205F0913305E217F307A0F42E1B7D
:102230003F0B2817390778F0AC014E5F5F4F24172A
:10224000350748F04E0F5F1F50933305409332051A
:102250008193919302C0E0E0F0E0CF01DF91CF9154
:1022600008950F931F93CF93DF93009709F48CC0C9
:10227000FC013297138212820091340510913505CA
:102280000115110581F420813181820F931F209166
:102290003205309133052817390779F5F093330566
:1022A000E093320571C0D80140E050E0AE17BF079F
:1022B00050F412962D913C911397AD0121153105E3
:1022C00009F1D901F3CF9D01DA01338322836081C3
:1022D0007181860F971F8217930769F4EC0128819B
:1022E0003981260F371F2E5F3F4F318320838A812C
:1022F0009B8193838283452B29F4F0933505E093EA
:10230000340542C01396FC93EE931297ED01499168
:1023100059919E01240F351FE217F30771F4808154
:102320009181840F951F029611969C938E938281C2
:10233000938113969C938E931297E0E0F0E0D8017E
:1023400012968D919C911397009719F0F8018C01CA
:10235000F6CF8D919C9198012E5F3F4F820F931F76
:1023600020913205309133052817390769F43097E9
:1023700029F4109235051092340502C0138212829E
:102380001093330500933205DF91CF911F910F9188
:102390000895FC010590615070400110D8F78095B8
:1023A00090958E0F9F1F0895DC0101C06D934150E1
:1023B0005040E0F70895FC01615070400190011019
:1023C000D8F7809590958E0F9F1F08950F931F93B8
:1023D000CF93DF93FB01238121FD03C08FEF9FEF9C
:1023E00028C022FF16C046815781248135814217BB
:1023F000530744F4A081B1819D012F5F3F4F31838A
:1024000020838C93268137812F5F3F4F378326832C
:1024100010C0EB01092F182F0084F185E02D0995DC
:10242000892BE1F68E819F8101969F838E83812F78
:10243000902FDF91CF911F910F910895FA01AA2754
:10244000283051F1203181F1E8946F936E7F6E5FF7
:102450007F4F8F4F9F4FAF4FB1E03ED0B4E03CD0A5
:10246000670F781F891F9A1FA11D680F791F8A1F88
:10247000911DA11D6A0F711D811D911DA11D20D0EF
:1024800009F468943F912AE0269F11243019305DA9
:102490003193DEF6CF010895462F4770405D41939A
:1024A000B3E00FD0C9F7F6CF462F4F70405D4A33E7
:1024B00018F0495D31FD4052419302D0A9F7EACFAF
:1024C000B4E0A6959795879577956795BA95C9F7DE
:1024D00000976105710508959B01AC010A2E0694D1
:1024E0005795479537952795BA95C9F7620F731F8A
:1024F000841F951FA01D0895052E97FB1EF40094C0
:102500000E94931257FD07D00E94E51207FC03D0EA
:102510004EF40C94931250954095309521953F4F71
:102520004F4F5F4F089590958095709561957F4FBF
:102530008F4F9F4F08950E947C0CA59F900DB49FD4
:10254000900DA49F800D911D11240895B7FF0C9448
:102550009B120E949B12821B930B08952F923F9215
:102560004F925F926F927F928F929F92AF92BF92A3
:10257000CF92DF92EF92FF920F931F93CF93DF934F
:10258000CDB7DEB7CA1BDB0B0FB6F894DEBF0FBEAC
:10259000CDBF09942A88398848885F846E847D84F9
:1025A0008C849B84AA84B984C884DF80EE80FD80FB
:1025B0000C811B81AA81B981CE0FD11D0FB6F89471
:1025C000DEBF0FBECDBFED010895A1E21A2EAA1BFA
:1025D000BB1BFD010DC0AA1FBB1FEE1FFF1FA217D3
:1025E000B307E407F50720F0A21BB30BE40BF50BD0
:1025F000661F771F881F991F1A9469F76095709559
:10260000809590959B01AC01BD01CF010895F89490
:02261000FFCFFA
:102612000012001001000000000036052000010138
:102622000101010101014845524500484552452139
:10263200212121005374617274696E6720535241E3
:102642004D20746573742E2E2E0A0D005772697414
:1026520065207068617365206572726F723A2065D9
:1026620078745F72616D5B2534645D203D20253096
:102672003258202873686F756C642062652025309B
:102682003258290A0D0052657472696576616C20B0
:102692007068617365206572726F723A2065787432
:1026A2005F72616D5B2534645D203D2025303258B8
:1026B200202873686F756C6420626520253032585B
:1026C200290A0D005352414D207465737420636FC3
:1026D2006D706C657465642077697468200A0D25D5
:1026E2003464206572726F727320696E207772692A
:1026F200746520706861736520616E64200A0D251F
:102702003464206572726F727320696E2072657410
:1027120072696576616C2070686173650A0A0D00E2
:10272200416472657373653A202564202C206461CC
:1027320074613A202564200A0D00617474656D701D
:1027420074656420746F20757064617465206275AD
:1027520066666572206F757473696465206F6620A2
:1027620073637265656E2C20696D706C656D656E44
:102772007420777261702061726F756E643F0061C0
:102782007474656D7074656420746F207570646113
:10279200746520627566666572207769746820695F
:1027A2006E76616C6964206C696E652C20696D704F
:1027B2006C656D656E7420777261702061726F75E1
:1027C2006E643F00506C61792067616D65004869F5
:1027D200676873636F726573004F7074696F6E73AD
:1027E200005468697320697320746865206D61699B
:1027F2006E206D656E75203A2900416C6C206C6903
:10280200766573206C6F73742C2067616D65206F21
:10281200766572004E65772067616D65004261637F
:102822006B20746F206D61696E206D656E75004658
:1028320061696C2072656769737465726400436FC5
:102842006E74696E75652067616D65002A200047A8
:10285200616D6500696E736964652067616D6520ED
:102862006E6F64650A0D00696E7369646520706C31
:102872006179696E672067616D650A0D006A6F791B
:10288200737469636B20706F732073656E740A0DC5
:1028920000696E73696465206661696C73206E6F8E
:1028A20064652C206E756D4661696C73203A202533
:1028B200642C2067616D65206661696C733A20251E
:1028C200640A0D0047414D45204F5645520A0D00FE
:1028D2004F7074696F6E206E6F64657320646573E8
:1028E2006372697074696F6E3A2025730A0D00690C
:1028F2006E73696465206D656E75206C6F6F7069AB
:102902006E670A0D00436F6F726473583A20256434
:102912002C20436F6F726473593A2025642C204235
:102922007574746F6E3A2025640A0D004D4350325F
:10293200353135206973204E4F5420696E20636F04
:102942006E66696775726174696F6E206D6F64651A
:1029520020616674657220726573657421004D652D
:102962007373616765207769746820756E6D617035
:10297200706564204944206C6F61646564203A2864
:102982000A0D00476F206261636B006869676873B4
:0E299200636F7265006F7074696F6E73000082
:00000001FF
