:100000000C9426010C9443010C945D080C9443015C
:100010000C9443010C9443010C9443010C94D008BC
:100020000C9443010C9443010C9443010C94430140
:100030000C9443010C9443010C9443010C94430130
:100040000C9443010C9443010C9443010C94430120
:100050000C9443010C9443010C9443010C94430110
:100060000C9443010C9443010C9443010C94430100
:10007000000000000000005F0000000700070014FF
:100080007F147F14242A7F2A1223130864623649BE
:100090005522500005030000001C224100004122AF
:1000A0001C00082A1C2A0808083E080800503000D6
:1000B000000808080808006060000020100804021A
:1000C0003E5149453E00427F400042615149462130
:1000D00041454B311814127F1027454545393C4A9C
:1000E00049493001710905033649494936064949EC
:1000F000291E003636000000563600000008142283
:100100004114141414144122140800020151090668
:10011000324979413E7E1111117E7F494949363E6F
:10012000414141227F4141221C7F494949417F0988
:100130000901013E414151327F0808087F00417F9B
:1001400041002040413F017F081422417F40404050
:10015000407F0204027F7F0408107F3E4141413E00
:100160007F090909063E4151215E7F09192946464A
:100170004949493101017F01013F4040403F1F2073
:1001800040201F7F2018207F631408146303047825
:100190000403615149454300007F414102040810B6
:1001A0002041417F000004020102044040404040E1
:1001B000000102040020545454787F4844443838E5
:1001C00044444420384444487F3854545418087EEA
:1001D000090102081454543C7F0804047800447D4B
:1001E00040002040443D00007F10284400417F40F3
:1001F000007C041804787C080404783844444438AB
:100200007C14141408081414187C7C08040408488E
:1002100054545420043F4440203C4040207C1C2047
:1002200040201C3C4030403C44281028440C505096
:10023000503C4464544C44000836410000007F00A8
:1002400000004136080002010302010011241FBE14
:10025000CFEFD4E0DEBFCDBF12E0A0E0B1E0E8E632
:10026000FFE102C005900D92AC3EB107D9F723E043
:10027000ACEEB2E001C01D92A038B207E1F70E94D7
:1002800045010C94B20F0C94000080E885BF80E219
:1002900080BF78948FE190E00E9480010E948D01E0
:1002A0000E94CA060E940D070E9469070E947B07F0
:1002B0000E94FF010E94C6010E94A0030E94B90390
:1002C0000E94C1030E94A4032FE382E49FE0215017
:1002D00080409040E1F700C000000E94B1050E94FC
:1002E000EC080E94B5080E94CA030E94DA0408952F
:1002F0005D9BFECF8CB908955F9BFECF8CB10895B6
:1003000090BD89B988E18AB98EE880BD6CE771E05B
:1003100088E791E00E94C10A089580E885BF0895AA
:100320000F931F93CF93DF930E94B10A8C010E9419
:10033000B60AC0E0D8E10E94B10A88839991C1153C
:1003400080E2D807C1F7C8010E94B60AC0E0D8E130
:100350000E94B10A8991C11580E2D807C9F7DF91DF
:10036000CF911F910F9108950396E0E0F4E180830F
:1003700087E99AE30197F1F700C0000080810895B2
:10038000E0910201F09103018083089520E030E0C4
:1003900050E840E0E0910201F091030180EB820F10
:1003A0008083852F942FE0910001F0910101E20FED
:1003B000F31F10820197B9F72F5F3F4F28303105A7
:1003C00049F7089520E030E060E850E04FEFE09119
:1003D0000201F091030180EB820F8083862F952F1D
:1003E000E0910001F0910101E20FF31F40830197BA
:1003F000B9F72F5F3F4F2830310549F70895E09155
:100400000201F09103018EEA8083E0910201F091F4
:10041000030181EA8083E0910201F09103018AEDFA
:100420008083E0910201F091030182E18083E091F9
:100430000201F091030188EC8083E0910201F091C8
:10044000030188EA8083E0910201F09103018FE3C8
:100450008083E0910201F091030185ED8083E091BA
:100460000201F091030180E88083E0910201F091A4
:10047000030181E88083E0910201F091030180E5AE
:100480008083E0910201F091030189ED8083E09186
:100490000201F091030181E28083E0910201F09179
:1004A000030180E28083E0910201F091030182E088
:1004B0008083E0910201F09103018BED8083E09154
:1004C0000201F091030180E38083E0910201F09149
:1004D00003018DEA8083E0910201F0910301108213
:1004E000E0910201F091030184EA8083E09102012E
:1004F000F091030186EA8083E0910201F09103010B
:100500008FEA80830895E0910201F0910301805504
:100510008083E0910201F0910301862F8F70808328
:10052000E0910201F091030162956F70605F60835A
:100530000895E0910001F0910101808308958032D7
:10054000D8F0805290E09C01220F331F220F331FFE
:10055000820F931F20E030E0F901E80FF91FE05906
:10056000FF4FE491A0910001B0910101EC932F5F46
:100570003F4F2530310581F70895EF92FF920F9399
:100580001F93CF93DF93FC018081882399F18F0122
:100590000F5F1F4FC0E0D0E0E12C0F2EF9E1FF2EDE
:1005A000F02D0E949F029E01AFEAB7E40E9420094D
:1005B000AE01481B590B56954795480F591F529548
:1005C00042954F7045275F704527F49EC001F59E08
:1005D000900D1124C817D90739F4209729F0E39416
:1005E00060E08E2D0E9483022196F80181918F0197
:1005F0008111D7CFDF91CF911F910F91FF90EF9095
:100600000895CF93DF93DC0180E8689FB001112447
:10061000785E26C0803230F1205230E0F901EE0FD2
:10062000FF1FEE0FFF1FE20FF31FE059FF4F2F5F79
:100630003F4FC901880F991F880F991F280F391F35
:1006400020593F4FEB01442319F09491909501C03C
:10065000949199933196E217F307A9F76B5F7F4F57
:100660002D91822F2111D6CFDF91CF910895FC01DA
:10067000F85E608308959C01240F311D21153440DC
:1006800018F441110AC008958EE191E09F938F9371
:100690000E940C0B0F900F900895A62FB72FFC010E
:1006A000F85E9C012F5F374E4150240F311D9D9104
:1006B0009193E217F307D9F70895883048F083E65D
:1006C00091E09F938F930E940C0B0F900F900895D1
:1006D00040E820E8829FC00111240E943B03089556
:1006E000833058F4E0910201F091030190E290838D
:1006F000E0910201F091030180830895E0910201ED
:10070000F091030191E29083E0910201F0910301E5
:100710008083E0910201F091030160830895E091EC
:100720000201F091030192E29083E0910201F091C5
:1007300003018083E0910201F09103016083089539
:1007400080E00E94700308956FE780E00E947E03BE
:1007500067E080E00E948F03E0E0F8E18191A091E2
:100760000001B09101018C93E1158CE1F807B1F71C
:100770000895E0E0F8E11192E1158CE1F807D9F76E
:100780000895E0E0F8E18FEF8193E1159CE1F9072E
:10079000D9F70895CF93DF93A0E4B3E0EBE2F3E061
:1007A0001196FC93EE9348EA51E013965C934E93B6
:1007B000129780EB91E053969C938E93529721E091
:1007C00054962C9354971B96FC93EE931A978CEEA9
:1007D00092E0EC01F983E8835B834A8365EB71E087
:1007E0007B8B6A8B2C8BFB87EA87C5E5D3E0F9838B
:1007F000E8835B834A834FEB51E05B8B4A8B2C8B06
:10080000FB87EA871182108227EC31E03383228351
:1008100021ED31E0358324832CED31E037832683CD
:1008200024EE31E0338B228B23E0248BB387A28725
:1008300095878487D787C687C1E0D3E0198218825D
:100840008DEF91E09B8B8A8B22E02C8B87E192E0ED
:100850009B838A8380E292E09D838C83BB87AA87F7
:10086000FD87EC87C6E1D3E01982188242E352E0AB
:100870005B8B4A8B2C8B21E432E03B832A839D8364
:100880008C83BB87AA87FD87EC87DF91CF91089582
:10089000EF92FF920F931F93CF93DF938C01E62E7D
:1008A0000E94C60160E080E00E948302F801828914
:1008B00093890E94BD02F80184898823F9F0C0E081
:1008C000D0E0F12C60E08C2F8F5F0E948302EC1649
:1008D000FD0621F48FE492E00E94BD022196FE0104
:1008E000EE0FFF1FE00FF11F808191810E94BD027A
:1008F000F801248930E0C217D30724F3FFE121EA8D
:1009000087E0F15020408040E1F700C00000DF9117
:10091000CF911F910F91FF90EF900895BF92CF92CA
:10092000DF92EF92FF920F931F93CF93DF938C018F
:10093000B62EFC018289938940E060E00E940103A9
:10094000F8018489882361F1C0E0D0E0EB2CF12C20
:100950006701FFEFCF1ADF0ACC0CDD1CC00ED11EE1
:10096000B394EC16FD0641F4F6018081918141E0DB
:100970006B2D0E9401030DC0FE013196EE0FFF1F8B
:10098000E00FF11F8081918140E06C2F6F5F0E942A
:1009900001032196F801848990E0C817D9070CF368
:1009A000DF91CF911F910F91FF90EF90DF90CF904B
:1009B000BF9008950E94B1050E94B5056C010E9488
:1009C00088057C0182E690E00E94220BC0E00BE2E9
:1009D00013E0B12CD0E081E690E00E94220BC70129
:1009E0000E944B050E94B5058C159D05E9F08330EA
:1009F000910529F4BB2099F0BA946C0115C084309C
:100A0000910579F4F80124894B2D50E030E0215014
:100A10003109421753073CF4B3946C0105C06C01D3
:100A200003C06C0101C06C01C11111C00E940D0610
:100A3000882369F08B2D90E00596880F991FF801A7
:100A4000E80FF91F008111810E94B903BD2E0E9499
:100A50000D06C82F83E294EF0197F1F700C0000064
:100A6000F8946B2DC8010E948E040E94A403789410
:100A7000B2CF80589109BC01990F880B990B0E9445
:100A8000D9092AE037ED43EA5FE30E942F090E946B
:100A9000A109862F08950F931F93CF93DF93182FEB
:100AA000092F82E090E00E94B401D82F81E090E00D
:100AB0000E94B4012D2F30E0C82FD0E0C01BD10917
:100AC00007FDD395C901811B910917FD93958F3FB0
:100AD000910519F014F08FEF90E0CF3FD10519F098
:100AE00014F0CFEFD0E0992314F480E090E00E945E
:100AF0003905182FCE01DD2314F480E090E00E9428
:100B00003905982F812FDF91CF911F910F91089573
:100B10000F931F93CF93DF9303E010E0C0E0D0E08A
:100B200082E090E00E94B4018D0FD0E8D80F81E000
:100B300090E00E94B4018C0FC0E8C80F0150110969
:100B400079F796E5D902812D1124C902912D11243E
:100B5000D7FD8395C7FD9395DF91CF911F910F919D
:100B60000895C09A0E9488050895292F482F592F6B
:100B7000891701F1082E000C990B99231CF491950B
:100B800081959109022E000C330B33231CF431950F
:100B900021953109821B930B4396879770F044355A
:100BA0007CF44D3A84F054358CF45D3A94F080E056
:100BB00090E0089580E090E0089580E090E008954E
:100BC00082E090E0089581E090E0089583E090E075
:100BD000089584E090E00895CF9383E090E00E9430
:100BE000B401C82F84E090E00E94B401282F6C2F3C
:100BF00070E0822F90E0CF91089590B320B325FB51
:100C0000222720F99071892F90E0959587959595E9
:100C1000879595958795820F089586B38095817005
:100C200008950E9488050E944B050E94B50508950D
:100C3000CF93DF93CDB7DEB763970FB6F894DEBFDF
:100C40000FBECDBF0E944B0521E030E03A832983DF
:100C50008C879D870E940D068E871F86188A198AA9
:100C60001A8A1B8ADE011C96FE0133969E01255FBF
:100C70003F4F8D918193E217F307D9F783E08B877C
:100C8000CE0101960E947F0763960FB6F894DEBFEF
:100C90000FBECDBFDF91CF910895AF92BF92CF929B
:100CA000DF92EF92FF920F931F93CF93DF93CDB715
:100CB000DEB728970FB6F894DEBF0FBECDBF88E031
:100CC000EEE0F1E0DE01119601900D928A95E1F7D8
:100CD000CE0101965C0110E00F2EFCE6EF2EF3E052
:100CE000FF2EF02D0F2EFAE6CF2EF3E0DF2EF02DA3
:100CF00040E061E0F501819191915F010E94010363
:100D00000E94A4032CC082E090E00E94B401082F4E
:100D100081E090E00E94B401123061F018F41130CB
:100D200031F010C0133049F0143051F00BC0F6010F
:100D3000008308C0F701008305C0F701008302C0EB
:100D4000F70100830E94FD05813049F4FFE32DE0A7
:100D500083E0F15020408040E1F700C000000E9495
:100D6000FD05882381F20E94B9031F5F143009F04A
:100D7000BFCF28960FB6F894DEBF0FBECDBFDF9170
:100D8000CF911F910F91FF90EF90DF90CF90BF9088
:100D9000AF90089587B3806B87BB8DB181618DB9AA
:100DA0006E9AC49A08958FB980E88EB9779BFECF6A
:100DB000089580E00E94D306779BFECF8FB10895FF
:100DC000C49880EC90E00E94D306C49A0895CF9313
:100DD000C82FC49883E090E00E94D3068C2F90E047
:100DE0000E94D3060E94D906C49ACF9108951F93FA
:100DF000CF93DF93182FEB01C49883E090E00E941B
:100E0000D306812F90E00E94D3060E94D906C49A8F
:100E10008883DF91CF911F910895CF93DF931F9225
:100E2000CDB7DEB70E94CA060E94E006BE016F5F22
:100E30007F4F8EE00E94F7068981807E803831F0F6
:100E400084E992E00E94290B81E001C080E00F90CC
:100E5000DF91CF910895C4988EE00E94E706C49A6E
:100E60000895C49881E890E00E94D306C49A08953A
:100E70001F93CF93DF93182FD62FC42FC49885E0EC
:100E800090E00E94D306812F90E00E94D3068D2F20
:100E900090E00E94D3068C2F90E00E94D306C49A63
:100EA000DF91CF911F910895CF93DF93D82FC62F55
:100EB000C49882E090E00E94D3068D2F90E00E94BB
:100EC000D3068C2F90E00E94D306C49ADF91CF9175
:100ED00008950E940D074FEF60E680E60E943807F4
:100EE0004FEF61E08BE20E94380740E060EE8FE058
:100EF0000E94380708958BB780688BBF0895EF92E2
:100F0000FF920F931F93CF93DF937C01FC014081ED
:100F10004295440F407E60ED82E30E943807F7015E
:100F200060817181769567957695679576956795D9
:100F300081E30E945407F70162856623A1F08701CF
:100F40000E5F1F4FC0E0D0E0F80161918F018C2F40
:100F50008A5C0E9454072196F7016285262F30E0B3
:100F6000C217D3078CF385E30E9454070E94310710
:100F7000DF91CF911F910F91FF90EF900895EF9225
:100F8000FF920F931F93CF93DF93CDB7DEB72D97CB
:100F90000FB6F894DEBF0FBECDBF7C01BE01645F0B
:100FA0007F4F82E60E94F706BE01635F7F4F81E6B6
:100FB0000E94F7068D8590E0880F991F880F991F72
:100FC000880F991F2C85229526952770822B9A834E
:100FD000898385E60E94E7068F708B878823B1F0AE
:100FE00000E010E0B8016E5F7F4F81E090E08C0F71
:100FF0009D1F680F791F86E6800F0E94F7060F5F1E
:101000001F4F2B8530E00217130764F340E061E0C7
:101010008CE20E9438078BE0FE013196D7010190E7
:101020000D928A95E1F7C7012D960FB6F894DEBFB1
:101030000FBECDBFDF91CF911F910F91FF90EF9029
:101040000895EF92FF920F931F93CF93DF93CDB745
:10105000DEB72B970FB6F894DEBF0FBECDBFCE0123
:1010600001960E94BF0789819A8181309105C1F064
:10107000029771F4E980FA800B811C812D813E81F9
:101080004F81588569857A858B850E94F60808C04E
:1010900086EC92E09F938F930E940C0B0F900F9021
:1010A0002B960FB6F894DEBF0FBECDBFDF91CF9168
:1010B0001F910F91FF90EF9008951F920F920FB61E
:1010C0000F9211242F933F934F935F936F937F93CE
:1010D0008F939F93AF93BF93EF93FF93F8940E94E6
:1010E00021087894FF91EF91BF91AF919F918F91DB
:1010F0007F916F915F914F913F912F910F900FBE14
:101100000F901F901895CF93DF93CDB7DEB76397FD
:101110000FB6F894DEBF0FBECDBF81E090E09A839A
:10112000898388E0E6E1F1E0DE011C9601900D92F2
:101130008A95E1F7DE011C96FE0133969E01255F3C
:101140003F4F8D918193E217F307D9F788E08B87A2
:10115000CE0101960E947F0763960FB6F894DEBF1A
:101160000FBECDBFDF91CF910895F894EAE8F0E08B
:1011700080818C608083EBE8F0E08081808382EA6C
:1011800097E09093870080938600EDE7F0E0808100
:1011900080618083789410926F0310926E0308959B
:1011A0001F920F920FB60F9211248F939F938091ED
:1011B0006E0390916F03019690936F0380936E037B
:1011C0009F918F910F900FBE0F901F901895809157
:1011D0006E0390916F030895E0E7F3E010821282AE
:1011E000118283E08383158214820895EF92FF9227
:1011F0000F931F93CF93DF93CDB7DEB72B970FB627
:10120000F894DEBF0FBECDBFE0E7F3E0108310E03F
:10121000128301832383832F90E0958384832B960D
:101220000FB6F894DEBF0FBECDBFDF91CF911F91F7
:101230000F91FF90EF90089580E793E0089508954F
:10124000A29FB001B39FC001A39F700D811D112407
:10125000911DB29F700D811D1124911D08950E9452
:1012600043090C942B0A0E94240A58F00E941D0A7C
:1012700040F029F45F3F29F00C94140A51110C94AA
:101280005F0A0C941A0A0E943C0A68F39923B1F38E
:10129000552391F3951B550BBB27AA27621773079C
:1012A000840738F09F5F5F4F220F331F441FAA1F30
:1012B000A9F335D00E2E3AF0E0E832D091505040EC
:1012C000E695001CCAF72BD0FE2F29D0660F771F9A
:1012D000881FBB1F261737074807AB07B0E809F080
:1012E000BB0B802DBF01FF2793585F4F3AF09E3F05
:1012F000510578F00C94140A0C945F0A5F3FE4F3F4
:10130000983ED4F3869577956795B795F7959F5F47
:10131000C9F7880F911D9695879597F90895E1E093
:10132000660F771F881FBB1F621773078407BA07F2
:1013300020F0621B730B840BBA0BEE1F88F7E0954D
:1013400008950E94A8096894B1110C945F0A089549
:101350000E94440A88F09F5798F0B92F9927B751F7
:10136000B0F0E1F0660F771F881F991F1AF0BA9549
:10137000C9F714C0B13091F00E945E0AB1E008953F
:101380000C945E0A672F782F8827B85F39F0B93F31
:10139000CCF3869577956795B395D9F73EF49095FC
:1013A0008095709561957F4F8F4F9F4F0895E8947A
:1013B00009C097FB3EF490958095709561957F4F9D
:1013C0008F4F9F4F9923A9F0F92F96E9BB2793954B
:1013D000F695879577956795B795F111F8CFFAF45B
:1013E000BB0F11F460FF1BC06F5F7F4F8F4F9F4F8C
:1013F00016C0882311F096E911C0772321F09EE8EA
:10140000872F762F05C0662371F096E8862F70E04F
:1014100060E02AF09A95660F771F881FDAF7880F29
:101420009695879597F9089597F99F6780E870E0FA
:1014300060E008959FEF80EC089500240A9416164A
:10144000170618060906089500240A9412161306B2
:10145000140605060895092E0394000C11F4882340
:1014600052F0BB0F40F4BF2B11F460FF04C06F5F5C
:101470007F4F8F4F9F4F089557FD9058440F551F32
:1014800059F05F3F71F04795880F97FB991F61F006
:101490009F3F79F087950895121613061406551F7D
:1014A000F2CF4695F1DF08C0161617061806991FE9
:1014B000F1CF86957105610508940895E894BB27DE
:1014C00066277727CB0197F908958F929F92AF9265
:1014D000BF92CF92DF92EF92FF92CF93DF93EC0116
:1014E000688179818A819B816115710581059105EA
:1014F00021F464E279ED8BE597E02DE133EF41E0F3
:1015000050E00E94270F49015A019B01AC01A7EA54
:10151000B1E40E94460F6B017C01ACEEB4EFA50173
:1015200094010E94540FDC01CB018C0D9D1DAE1D5A
:10153000BF1DB7FF03C00197A109B04888839983F5
:10154000AA83BB839F77DF91CF91FF90EF90DF90CD
:10155000CF90BF90AF909F908F9008950E94650AA2
:10156000089584E091E00E94650A0895A0E0B0E04B
:101570008093040190930501A0930601B0930701A5
:1015800008950F931F93CF93DF93009731F4611564
:10159000710519F480E090E03AC08B01EC016EE037
:1015A00070E081E090E00E942B0DFC01892B91F30B
:1015B00080E883830115110571F01387028781E8A4
:1015C00083838091760390917703892B21F4F093A4
:1015D0007703E09376032097C9F0D187C087838192
:1015E000826083838091780390917903892B71F4D1
:1015F000F0937903E093780380917A0390917B03D1
:10160000892B21F4F0937B03E0937A03CF01DF91E0
:10161000CF911F910F910895A0E0B0E0E2E1FBE0CF
:101620000C94690FAE014B5F5F4FFA0161917191AC
:10163000AF0180917803909179030E94590BE2E009
:101640000C94850F60917803709179030E94910E3C
:1016500008950F931F93CF93DF93E0917803F09158
:101660007903238121FF1BC08C01D0E0C0E0F80189
:1016700081918F016091780370917903DB01189655
:10168000ED91FC911997882331F00995892B79F315
:10169000DFEFCFEFECCF8AE00995892B19F08FEFC0
:1016A0009FEF02C08D2F9C2FDF91CF911F910F9143
:1016B0000895ACE0B0E0EFE5FBE00C94590F7C013D
:1016C0006B018A01FC0117821682838181FFBDC1F3
:1016D000CE0101964C01F7019381F60193FD8591AE
:1016E00093FF81916F01882309F4ABC1853239F4EE
:1016F00093FD859193FF81916F01853229F4B701A4
:1017000090E00E94910EE7CF512C312C20E0203246
:10171000A0F48B3269F030F4803259F0833269F4EE
:1017200020612CC08D3239F0803339F4216026C01D
:101730002260246023C0286021C027FD27C030ED2F
:10174000380F3A3078F426FF06C0FAE05F9E300D7D
:101750001124532E13C08AE0389E300D1124332EED
:1017600020620CC08E3221F426FD6BC1206406C0BD
:101770008C3611F4206802C0883641F4F60193FDDE
:10178000859193FF81916F018111C1CF982F9F7D2A
:101790009554933028F40C5F1F4FFFE3F9830DC07D
:1017A000833631F0833771F0833509F05BC022C096
:1017B000F801808189830E5F1F4F44244394512C8C
:1017C000540115C03801F2E06F0E711CF801A080C1
:1017D000B18026FF03C0652D70E002C06FEF7FEF80
:1017E000C5012C870E94860E2C0183012C852F7742
:1017F000222E17C03801F2E06F0E711CF801A08094
:10180000B18026FF03C0652D70E002C06FEF7FEF4F
:10181000C5012C870E94740E2C012C852068222E75
:10182000830123FC1BC0832D90E048165906B0F4B9
:10183000B70180E290E00E94910E3A94F4CFF50156
:1018400027FC859127FE81915F01B70190E00E94FE
:10185000910E31103A94F1E04F1A5108411451049D
:1018600071F7E5C0843611F0893639F5F80127FFA4
:1018700007C060817181828193810C5F1F4F08C016
:1018800060817181072E000C880B990B0E5F1F4F32
:101890002F76722E97FF09C090958095709561956F
:1018A0007F4F8F4F9F4F2068722E2AE030E0A401B7
:1018B0000E94C90EA82EA81844C0853729F42F7E8F
:1018C000B22E2AE030E025C0F22FF97FBF2E8F36EE
:1018D000C1F018F4883579F0B4C0803719F0883732
:1018E00021F0AFC02F2F2061B22EB4FE0DC08B2D82
:1018F0008460B82E09C024FF0AC09F2F9660B92EBD
:1019000006C028E030E005C020E130E002C020E160
:1019100032E0F801B7FE07C0608171818281938156
:101920000C5F1F4F06C06081718180E090E00E5F08
:101930001F4FA4010E94C90EA82EA818FB2DFF77E7
:101940007F2E76FE0BC0372D3E7FA51450F474FE1B
:101950000AC072FC08C0372D3E7E05C0BA2C372D58
:1019600003C0BA2C01C0B52C34FF0DC0FE01EA0D36
:10197000F11D8081803311F4397E09C032FF06C029
:10198000B394B39404C0832F867809F0B39433FDE5
:1019900013C030FF06C05A2CB31418F4530C5B1854
:1019A000B32CB31468F4B70180E290E03C870E9446
:1019B000910EB3943C85F5CFB31410F43B1801C0DD
:1019C000312C34FF12C0B70180E390E03C870E94C5
:1019D000910E3C8532FF17C031FD03C088E790E0CF
:1019E00002C088E590E0B7010CC0832F867859F0DB
:1019F00031FF02C08BE201C080E237FD8DE2B7010A
:101A000090E00E94910EA51438F4B70180E390E0B5
:101A10000E94910E5A94F7CFAA94F401EA0DF11D99
:101A20008081B70190E00E94910EA110F5CF332084
:101A300009F451CEB70180E290E00E94910E3A94F1
:101A4000F6CFF7018681978102C08FEF9FEF2C962A
:101A5000E2E10C94750F0F931F93CF93DF93869F52
:101A60008001879F100D969F100D1124C8010E94C0
:101A7000470DEC01009729F0A80160E070E00E949A
:101A80007F0ECE01DF91CF911F910F910895CF93DB
:101A9000DF938230910510F482E090E0E0917E03C4
:101AA000F0917F0320E030E0C0E0D0E0309711F10A
:101AB0004081518148175907C0F04817590761F410
:101AC00082819381209719F09B838A832BC0909306
:101AD0007F0380937E0326C02115310519F042173C
:101AE000530718F49A01BE01DF01EF010280F38170
:101AF000E02DDCCF2115310509F1281B390B2430ED
:101B0000310590F412968D919C9113976115710592
:101B100021F0FB019383828304C090937F03809321
:101B20007E03FD01329644C0FD01E20FF31F819355
:101B30009193225031092D933C933AC020917C031C
:101B400030917D03232B41F420910A0130910B0148
:101B500030937D0320937C0320910801309109018B
:101B60002115310541F42DB73EB740910C0150913C
:101B70000D01241B350BE0917C03F0917D03E217EE
:101B8000F307A0F42E1B3F0B2817390778F0AC01A0
:101B90004E5F5F4F2417350748F04E0F5F1F50937D
:101BA0007D0340937C038193919302C0E0E0F0E0D9
:101BB000CF01DF91CF9108950F931F93CF93DF93C0
:101BC000009709F48CC0FC013297138212820091B5
:101BD0007E0310917F030115110581F4208131816D
:101BE000820F931F20917C0330917D0328173907C2
:101BF00079F5F0937D03E0937C0371C0D80140E058
:101C000050E0AE17BF0750F412962D913C911397F8
:101C1000AD012115310509F1D901F3CF9D01DA019B
:101C20003383228360817181860F971F8217930708
:101C300069F4EC0128813981260F371F2E5F3F4F51
:101C4000318320838A819B8193838283452B29F46E
:101C5000F0937F03E0937E0342C01396FC93EE93D0
:101C60001297ED01499159919E01240F351FE217FA
:101C7000F30771F480819181840F951F029611966C
:101C80009C938E938281938113969C938E9312974B
:101C9000E0E0F0E0D80112968D919C9113970097A7
:101CA00019F0F8018C01F6CF8D919C9198012E5F6F
:101CB0003F4F820F931F20917C0330917D032817A3
:101CC000390769F4309729F410927F0310927E034C
:101CD00002C01382128210937D0300937C03DF9174
:101CE000CF911F910F910895FC01059061507040B4
:101CF0000110D8F7809590958E0F9F1F0895DC01F5
:101D000001C06D9341505040E0F70895FC016150CF
:101D1000704001900110D8F7809590958E0F9F1F0D
:101D200008950F931F93CF93DF93FB01238121FD30
:101D300003C08FEF9FEF28C022FF16C04681578156
:101D4000248135814217530744F4A081B1819D015C
:101D50002F5F3F4F318320838C93268137812F5F04
:101D60003F4F3783268310C0EB01092F182F0084C3
:101D7000F185E02D0995892BE1F68E819F810196F1
:101D80009F838E83812F902FDF91CF911F910F9191
:101D90000895FA01AA27283051F1203181F1E89401
:101DA0006F936E7F6E5F7F4F8F4F9F4FAF4FB1E04E
:101DB0003ED0B4E03CD0670F781F891F9A1FA11D49
:101DC000680F791F8A1F911DA11D6A0F711D811D4A
:101DD000911DA11D20D009F468943F912AE0269F0F
:101DE00011243019305D3193DEF6CF010895462F6E
:101DF0004770405D4193B3E00FD0C9F7F6CF462F4F
:101E00004F70405D4A3318F0495D31FD40524193B7
:101E100002D0A9F7EACFB4E0A69597958795779574
:101E20006795BA95C9F700976105710508959B01FB
:101E3000AC010A2E06945795479537952795BA9584
:101E4000C9F7620F731F841F951FA01D0895052EEB
:101E500097FB1EF400940E943E0F57FD07D00E948E
:101E6000900F07FC03D04EF40C943E0F5095409514
:101E7000309521953F4F4F4F5F4F08959095809536
:101E8000709561957F4F8F4F9F4F08950E94200955
:101E9000A59F900DB49F900DA49F800D911D1124BE
:101EA0000895B7FF0C94460F0E94460F821B930BB8
:101EB00008952F923F924F925F926F927F928F92EE
:101EC0009F92AF92BF92CF92DF92EF92FF920F93C9
:101ED0001F93CF93DF93CDB7DEB7CA1BDB0B0FB6D3
:101EE000F894DEBF0FBECDBF09942A883988488890
:101EF0005F846E847D848C849B84AA84B984C88426
:101F0000DF80EE80FD800C811B81AA81B981CE0F1C
:101F1000D11D0FB6F894DEBF0FBECDBFED01089501
:101F2000A1E21A2EAA1BBB1BFD010DC0AA1FBB1FDD
:101F3000EE1FFF1FA217B307E407F50720F0A21B4F
:101F4000B30BE40BF50B661F771F881F991F1A94BC
:101F500069F760957095809590959B01AC01BD01E6
:081F6000CF010895F894FFCFB2
:101F6800001200100100000000008003200052024F
:101F78006402750284020101010101010101617419
:101F880074656D7074656420746F20757064617415
:101F98006520627566666572206F7574736964651D
:101FA800206F662073637265656E2C20696D706C96
:101FB800656D656E7420777261702061726F756EE1
:101FC800643F00617474656D7074656420746F207B
:101FD80075706461746520627566666572207769DC
:101FE800746820696E76616C6964206C696E652C12
:101FF80020696D706C656D656E74207772617020F4
:1020080061726F756E643F00476F206261636B0099
:1020180047616D65006869676873636F7265006F13
:102028007074696F6E7300506C61792067616D65BB
:10203800004869676873636F726573004F707469ED
:102048006F6E730054686973206973207468652023
:102058006D61696E206D656E75203A2900416C6C62
:10206800206C69766573206C6F73742C2067616DC2
:1020780065206F766572004E65772067616D650033
:102088004261636B20746F206D61696E206D656EAF
:1020980075004661696C207265676973746572645E
:1020A80000436F6E74696E75652067616D65002AFF
:1020B8002000536574206D61782072696768742008
:1020C80028782900536574206D696E206C656674E4
:1020D8002028782900536574206D61782075702058
:1020E80028792900536574206D696E20646F776EB6
:1020F800287929004D435032353135206973204EF7
:102108004F5420696E20636F6E66696775726174DB
:10211800696F6E206D6F64652061667465722072E8
:102128006573657421004D65737361676520776910
:10213800746820756E6D6170706564204944206C08
:0C2148006F61646564203A280A0D0000F5
:00000001FF
