:100000000C9460030C947D030C94510A0C947D03B2
:100010000C947D030C947D030C947D030C947D0360
:100020000C947D030C947D030C947D030C947D0350
:100030000C947D030C947D030C947D030C947D0340
:100040000C947D030C947D030C947D030C947D0330
:100050000C947D030C947D030C947D030C947D0320
:100060000C947D030C947D030C947D030C947D0310
:1000700000000000005C00000C000C007C287C28C4
:1000800058DC68002410480028542840000C000068
:10009000007884008478000054385400107C1000EC
:1000A00080400000101010000040000060100C00A4
:1000B00038543800487C40004864580044542C00B0
:1000C0001C107C005C5424003854240064140C0080
:1000D00068542C0048543800004800008048000054
:1000E0001028440028282800442810000454080040
:1000F00038445C00781478007C5428003844280088
:100100007C4438007C5444007C140400384474005F
:100110007C107C00447C440020403C007C106C003F
:100120007C4040007C187C0078103C00384438004B
:100130007C1408003844B8007C146800485424003B
:10014000047C04007C407C003C603C007C307C00F3
:100150006C106C000C700C0064544C00007C44006B
:100160000C106000447C00000804080080808000BF
:1001700000040800304878007C48300030484800CF
:1001800030487C00306850001078140090A8780047
:100190007C08700050744000808074007C106800FF
:1001A000447C4000781078007808700030483000B7
:1001B000F82810003048F80078100800505828003F
:1001C000083C4800384078003840380078207800F3
:1001D0004830480098A0780048685800107884009B
:1001E000007C00008478100008040804000000006F
:1001F0000000005F00000007000700147F147F1458
:10020000242A7F2A1223130864623649552250009B
:1002100005030000001C2241000041221C00082AA6
:100220001C2A0808083E080800503000000808088A
:100230000808006060000020100804023E51494593
:100240003E00427F400042615149462141454B31C9
:100250001814127F1027454545393C4A4949300159
:10026000710905033649494936064949291E0036B0
:100270003600000056360000000814224114141401
:10028000141441221408000201510906324979412F
:100290003E7E1111117E7F494949363E414141223E
:1002A0007F4141221C7F494949417F090901013EA3
:1002B000414151327F0808087F00417F41002040C2
:1002C000413F017F081422417F404040407F0204AB
:1002D000027F7F0408107F3E4141413E7F090909AA
:1002E000063E4151215E7F09192946464949493157
:1002F00001017F01013F4040403F1F2040201F7F00
:100300002018207F631408146303047804036151E8
:1003100049454300007F4141020408102041417FCC
:100320000000040201020440404040400001020479
:100330000020545454787F4844443838444444207E
:10034000384444487F3854545418087E0901020840
:100350001454543C7F0804047800447D400020403D
:10036000443D00007F10284400417F40007C041879
:1003700004787C0804047838444444387C14141409
:1003800008081414187C7C080404084854545420A9
:10039000043F4440203C4040207C1C2040201C3C2A
:1003A0004030403C44281028440C5050503C446499
:1003B000544C44000836410000007F0000004136E4
:1003C000080002010302010000000000000000001C
:1003D000065F5F0600000000070700070700001423
:1003E0007F7F147F7F1400242E6B6B3A120000462F
:1003F0006630180C666200307A4F5D377A48000428
:1004000007030000000000001C3E634100000000E4
:1004100041633E1C000000082A3E1C1C3E2A0808BE
:10042000083E3E0808000000A0E060000000000850
:100430000808080808000000006060000000006074
:1004400030180C060301003E7F594D7F3E000042EC
:10045000427F7F40400000627359496F660000226E
:100460006349497F360000181C16137F7F10002750
:100470006745457D3900003C7E4B497930000003DB
:100480006371190F070000367F49497F3600000667
:100490004F49693F1E000000006C6C000000000026
:1004A000A0EC6C00000000081C3663410000001442
:1004B00014141414140000004163361C08000002D8
:1004C0000351590F0600003E7F415D5D1F1E007CF9
:1004D0007E13137E7C0000417F7F49497F36001CDC
:1004E0003E634141632200417F7F41637F1C0041A5
:1004F0007F7F495D416300417F7F491D0103001CEF
:100500003E6341517372007F7F08087F7F000000C7
:10051000417F7F41000000307040417F3F0100413A
:100520007F7F081C776300417F7F41406070007FC0
:100530007F060C067F7F007F7F060C187F7F001CE4
:100540003E6341633E1C00417F7F49090F06001E48
:100550003F21717F5E0000417F7F19396F46002681
:10056000674D597B32000003417F7F410300007FCC
:100570007F40407F7F00001F3F60603F1F00007F83
:100580007F3018307F7F0063771C081C776300077B
:100590004F78784F0700006773594D47637100002B
:1005A0007F7F41410000000103060C18306000000D
:1005B00041417F7F000000080C0603060C08008004
:1005C000808080808080800000030704000000207D
:1005D0007454543C784000413F7F44447C38003898
:1005E0007C44446C280000307848493F7F40003804
:1005F0007C54545C180000487E7F49030200009838
:10060000BCA4A4F87C0400417F7F08047C7800002F
:10061000447D7D4000000040C484FD7D0000004119
:100620007F7F10386C440000417F7F400000007CD9
:100630007C0C180C7C78007C7C04047C78000038EE
:100640007C44447C38000084FCF8A4243C18001846
:100650003C24A4F8FC8400447C78441C1800004826
:100660005C54547424000000043E7F442400003C89
:100670007C40403C7C40001C3C60603C1C00003CDA
:100680007C6030607C3C00446C3810386C44009CCA
:10069000BCA0A0FC7C00004C64745C4C64000008AE
:1006A000083E7741410000000000777700000041DC
:1006B00041773E0808000002030103020301000025
:1006C00011241FBECFEFD4E0DEBFCDBF13E0A0E00A
:1006D000B1E0EEE8F3E202C005900D92AC37B1074D
:1006E000D9F723E0ACE7B3E001C01D92A638B2070A
:1006F000E1F70E947F030C94C5110C940000CF9386
:10070000DF93CDB7DEB769970FB6F894DEBF0FBEA3
:10071000CDBF80E885BF80E280BF8FB780688FBF84
:100720008FE190E00E94BD030E94CA030E94D70897
:100730000E941A090E9476090E9488090E94C80432
:100740000E948F040E9469060E9482060E9420086F
:100750008C01CE0101960E948A06CE0101960E946C
:100760005707C8010E948108FCCF5D9BFECF8CB962
:1007700008955F9BFECF8CB1089590BD89B988E143
:100780008AB98EE880BD69EB73E085EB93E00E9447
:10079000DB0C089580E885BF0895CF92DF92EF9239
:1007A000FF920F931F93CF93DF9386E191E09F9386
:1007B0008F930E94260D0E94CB0C7C010E94D00CCE
:1007C0000F900F90C12CD12CC0E0D0E00EE211E0D0
:1007D0000E94CB0CF601F85E808320812817A1F0DF
:1007E00099279F938F931F922F93DF92CF921F93FE
:1007F0000F930E94260D21968DB79EB708960FB6CF
:10080000F8949EBF0FBE8DBF9FEFC91AD90AC114BD
:1008100088E0D806E9F6C7010E94D00C00E010E09D
:10082000E12CF12C0F2EF8E6CF2EF1E0DF2EF02D8B
:100830000E94CB0CF801F85E20812817B1F09927AF
:100840009F938F931F922F931F930F93DF92CF92BB
:100850000E94260D9FEFE91AF90A8DB79EB70896F8
:100860000FB6F8949EBF0FBE8DBF0F5F1F4F0115CF
:1008700098E01907E9F6FF92EF92DF93CF9386EAAB
:1008800091E09F938F930E94260D0F900F900F90F1
:100890000F900F900F90DF91CF911F910F91FF90CC
:1008A000EF90DF90CF9008958FEF84BB15BA089535
:1008B00000E014E10F2EF5E0FF2EF02DDF2C0F2EBF
:1008C000F4E1EF2EF02DC2E0D2E0F801D08287E90A
:1008D0009AE30197F1F700C0000080811F928F9387
:1008E000EF92FF92DF93CF930E94260D0F900F900F
:1008F0000F900F900F900F90E8CF0396E0E0F4E197
:10090000808387E99AE30197F1F700C000008081B6
:100910000895E0910201F09103018083089520E0A1
:1009200030E050E840E0E0910201F091030180EBFB
:10093000820F8083852F942FE0910001F0910101B7
:10094000E20FF31F10820197B9F72F5F3F4F283056
:10095000310549F7089520E030E060E850E04FEFBE
:10096000E0910201F091030180EB820F8083862FDA
:10097000952FE0910001F0910101E20FF31F4083F8
:100980000197B9F72F5F3F4F2830310549F7089598
:10099000E0910201F09103018EEA8083E09102016F
:1009A000F091030181EA8083E0910201F09103015B
:1009B0008AED8083E0910201F091030182E180835E
:1009C000E0910201F091030188EC8083E091020143
:1009D000F091030188EA8083E0910201F091030124
:1009E0008FE38083E0910201F091030185ED808324
:1009F000E0910201F091030180E88083E09102011F
:100A0000F091030181E88083E0910201F0910301FC
:100A100080E58083E0910201F091030189ED8083FC
:100A2000E0910201F091030181E28083E0910201F3
:100A3000F091030180E28083E0910201F0910301D3
:100A400082E08083E0910201F09103018BED8083CD
:100A5000E0910201F091030180E38083E0910201C3
:100A6000F09103018DEA8083E0910201F09103018E
:100A70001082E0910201F091030184EA8083E09109
:100A80000201F091030186EA8083E0910201F09176
:100A900003018FEA80830895E0910201F091030140
:100AA00080558083E0910201F0910301862F8F70C1
:100AB0008083E0910201F091030162956F70605FA5
:100AC00060830895E0910001F09101018083089511
:100AD0008032D8F0805290E09C01220F331F220F09
:100AE000331F820F931F20E030E0F901E80FF91F58
:100AF000E451FE4FE491A0910001B0910101EC930B
:100B00002F5F3F4F2530310581F70895EF92FF9217
:100B10000F931F93CF93DF93FC018081882399F17A
:100B20008F010F5F1F4FC0E0D0E0E12C0F2EF9E1E5
:100B3000FF2EF02D0E9468059E01AFEAB7E40E94E7
:100B40003A0BAE01481B590B56954795480F591F54
:100B5000529542954F7045275F704527F49EC0011E
:100B6000F59E900D1124C817D90739F4209729F064
:100B7000E39460E08E2D0E944C052196F80181914E
:100B80008F018111D7CFDF91CF911F910F91FF90EE
:100B9000EF900895CF93DF93DC0180E8689FB00168
:100BA0001124785E26C0803230F1205230E0F90105
:100BB000EE0FFF1FEE0FFF1FE20FF31FE451FE4F7A
:100BC0002F5F3F4FC901880F991F880F991F280F6A
:100BD000391F24513E4FEB01442319F09491909515
:100BE00001C0949199933196E217F307A9F76B5FCF
:100BF0007F4F2D91822F2111D6CFDF91CF91089574
:100C0000FC01F85E608308959C01240F311D2115BD
:100C1000344018F441110AC008958CE192E09F938A
:100C20008F930E94260D0F900F900895A62FB72F37
:100C3000FC01F85E9C012F5F374E4150240F311D9F
:100C40009D919193E217F307D9F70895883048F002
:100C500081E692E09F938F930E94260D0F900F9054
:100C6000089540E820E8829FC00111240E940406F4
:100C70000895833058F4E0910201F091030190E26D
:100C80009083E0910201F091030180830895E09147
:100C90000201F091030191E29083E0910201F09151
:100CA00003018083E0910201F091030160830895C4
:100CB000E0910201F091030192E29083E091020140
:100CC000F09103018083E0910201F09103016083C0
:100CD000089580E00E94390608956FE780E00E9441
:100CE000470667E080E00E945806E0E0F8E1819165
:100CF000A0910001B09101018C93E1158CE1F807FE
:100D0000B1F70895E0E0F8E11192E1158CE1F80700
:100D1000D9F70895CF93DF93CDB7DEB7CB54D10980
:100D20000FB6F894DEBF0FBECDBFFC01118210825A
:100D300086EA92E09383828380EB92E095838483BA
:100D40008BEB92E09783868383EC92E0978B868B84
:100D500083E0808FCE010196958784874996978797
:100D600086874996918B808BC55BDF4F0FB6F894D1
:100D7000DEBF0FBECDBFDF91CF910895CF92DF923E
:100D8000EF92FF920F931F93CF93DF937C01C62EB8
:100D90000E948F0460E080E00E944C05F701868984
:100DA00097890E948605F701808D8823F9F08701D5
:100DB0000E5F1F4FC0E0D0E0D12C60E08C2F8F5F22
:100DC0000E944C05CC16DD0621F48CED92E00E94C9
:100DD0008605F801819191918F010E9486052196E7
:100DE000F701208D30E0C217D3073CF3FFE926E876
:100DF00081E0F15020408040E1F700C00000DF9129
:100E0000CF911F910F91FF90EF90DF90CF900895B9
:100E10009F92AF92BF92CF92DF92EF92FF920F9389
:100E20001F93CF93DF938C01962E40E060E0FC018E
:100E3000868997890E94CA05F801808D882359F117
:100E40005801C0E0D0E0E92CF12C93946701FFEF4A
:100E5000CF1ADF0ACC0CDD1CC00ED11EEC16FD062D
:100E600041F441E0692DF601808191810E94CA051B
:100E700008C040E06C2F6F5FF501828193810E9472
:100E8000CA052196F2E0AF0EB11CF801208D30E0CA
:100E9000C217D3071CF3DF91CF911F910F91FF90E1
:100EA000EF90DF90CF90BF90AF909F9008958C010E
:100EB0000E9420080E942408EC01E12CF12CD12C86
:100EC0000E94F7070E94BA070E9424088C179D070A
:100ED000E9F08330910529F4FF2099F0FA94EC01B0
:100EE00015C08430910579F44F2D50E0F801208D24
:100EF00030E021503109421753073CF4F394EC01E0
:100F000005C0EC0103C0EC0101C0EC01E11010C010
:100F10000E947608882361F0EF2DF0E03696EE0F00
:100F2000FF1FE00FF11F008111810E948206FD2C3E
:100F30000E947608E82E83ED90E30197F1F700C058
:100F400000006F2DC8010E9408070E946D06B8CFEF
:100F500080589109BC01990F880B990B0E94F30BE3
:100F60002AE037ED43EA5FE30E94490B0E94BB0B86
:100F7000862F08950F931F93CF93DF93182F092F78
:100F800082E090E00E947D04D82F81E090E00E94F2
:100F90007D042D2F30E0C82FD0E0C01BD10907FD04
:100FA000D395C901811B910917FD93958F3F910539
:100FB00019F014F08FEF90E0CF3FD10519F014F045
:100FC000CFEFD0E0992314F480E090E00E94A807CE
:100FD000182FCE01DD2314F480E090E00E94A807D2
:100FE000982F812FDF91CF911F910F9108950F932B
:100FF0001F93CF93DF9303E010E0C0E0D0E082E0E6
:1010000090E00E947D048D0FD0E8D80F81E090E041
:101010000E947D048C0FC0E8C80F0150110979F7B8
:1010200096E5D902812D1124C902912D1124D7FDF5
:101030008395C7FD9395DF91CF911F910F910895EF
:10104000C09A0E94F7070895292F482F592F891712
:1010500001F1082E000C990B99231CF491958195B0
:101060009109022E000C330B33231CF4319521958A
:101070003109821B930B4396879770F044357CF4BB
:101080004D3A84F054358CF45D3A94F080E090E071
:10109000089580E090E0089580E090E0089582E077
:1010A00090E0089581E090E0089583E090E0089555
:1010B00084E090E00895CF9383E090E00E947D0467
:1010C000C82F84E090E00E947D04282F6C2F70E0F0
:1010D000822F90E0CF91089580B390B395FB99272C
:1010E00090F9990F82958170890F089586B3809544
:1010F000817008950E94F7070E94BA070E94240891
:1011000008950F931F93CF93DF93CDB7DEB7639707
:101110000FB6F894DEBF0FBECDBF0E94BA07182FDE
:10112000092F81E090E09A8389831C870D870E94B4
:1011300076088E871F86188A198A1A8A1B8ADE010A
:101140001C96FE013396AE01455F5F4F2D912193B2
:10115000E417F507D9F783E08B87CE0101960E944B
:101160008C090E9476081F928F93802F002E000C0E
:10117000990B9F930F93812F012E000C990B9F9336
:101180001F938FED92E09F938F930E94260D0FB6D1
:10119000F894DEBF0FBECDBF63960FB6F894DEBFE6
:1011A0000FBECDBFDF91CF911F910F91089587B3EF
:1011B000806B87BB8DB181618DB96E9AC49A089599
:1011C0008FB980E88EB9779BFECF089580E00E94AA
:1011D000E008779BFECF8FB10895C49880EC90E033
:1011E0000E94E008C49A0895CF93C82FC49883E062
:1011F00090E00E94E0088C2F90E00E94E0080E949E
:10120000E608C49ACF9108951F93CF93DF93182FC8
:10121000EB01C49883E090E00E94E008812F90E009
:101220000E94E0080E94E608C49A8883DF91CF916B
:101230001F910895CF93DF931F92CDB7DEB70E9421
:10124000D7080E94ED08BE016F5F7F4F8EE00E94BD
:1012500004098981807E803831F086E093E00E9425
:101260003C0D81E001C080E00F90DF91CF910895A7
:10127000C4988EE00E94F408C49A0895C49881E846
:1012800090E00E94E008C49A08951F93CF93DF93E3
:10129000182FD62FC42FC49885E090E00E94E00854
:1012A000812F90E00E94E0088D2F90E00E94E008DE
:1012B0008C2F90E00E94E008C49ADF91CF911F919B
:1012C0000895CF93DF93D82FC62FC49882E090E083
:1012D0000E94E0088D2F90E00E94E0088C2F90E0A3
:1012E0000E94E008C49ADF91CF9108950E941A09E4
:1012F0004FEF60E680E60E9445094FEF61E08BE228
:101300000E94450940E060EE8FE00E944509089583
:101310008BB780688BBF0895EF92FF920F931F9356
:10132000CF93DF937C01FC0140814295440F407EC6
:1013300060ED82E30E944509F70160817181769535
:101340006795769567957695679581E30E94610923
:10135000F70162856623A1F087010E5F1F4FC0E091
:10136000D0E0F80161918F018C2F8A5C0E946109A5
:101370002196F7016285262F30E0C217D3078CF340
:1013800085E30E9461090E943E09DF91CF911F9180
:101390000F91FF90EF900895EF92FF920F931F939C
:1013A000CF93DF93CDB7DEB72D970FB6F894DEBF9E
:1013B0000FBECDBF7C01BE01645F7F4F82E60E94FD
:1013C0000409BE01635F7F4F81E60E9404098D8599
:1013D00090E0880F991F880F991F880F991F2C85FF
:1013E000229526952770822B9A83898385E60E9411
:1013F000F4088F708B878823B1F000E010E0B8010B
:101400006E5F7F4F81E090E08C0F9D1F680F791F0A
:1014100086E6800F0E9404090F5F1F4F2B8530E086
:101420000217130764F340E061E08CE20E94450973
:101430008BE0FE013196D70101900D928A95E1F77C
:10144000C7012D960FB6F894DEBF0FBECDBFDF915A
:10145000CF911F910F91FF90EF900895CF93DF935D
:10146000CDB7DEB72B970FB6F894DEBF0FBECDBF5A
:10147000CE0101960E94CC0989819A81019741F0A1
:1014800088E393E09F938F930E94260D0F900F9017
:101490002B960FB6F894DEBF0FBECDBFDF91CF9174
:1014A00008951F920F920FB60F9211242F933F931E
:1014B0004F935F936F937F938F939F93AF93BF935C
:1014C000EF93FF93F8940E942E0A7894FF91EF9186
:1014D000BF91AF919F918F917F916F915F914F914C
:1014E0003F912F910F900FBE0F901F901895CF93A3
:1014F000DF93CDB7DEB763970FB6F894DEBF0FBEAC
:10150000CDBF81E090E09A83898388E0EEE0F1E04E
:10151000DE011C9601900D928A95E1F7DE011C9682
:10152000FE0133969E01255F3F4F8D918193E21717
:10153000F307D9F788E08B87CE0101960E948C09CA
:1015400063960FB6F894DEBF0FBECDBFDF91CF918B
:1015500008950F931F93CF93DF93CDB7DEB7C45693
:10156000D1090FB6F894DEBF0FBECDBF81E088BBB6
:101570008E010F5F1F4F1B8F0A8F2DE533E03D8FCC
:101580002C8F1FA30EA345E653E059AB48AB8AABA3
:101590001CAB0BAB3EAB2DAB21961FAF0EAF219713
:1015A0004AE653E02B965FAF4EAF2B972C968FAF4A
:1015B0002C97FE01E45BFF4F11830083338322836A
:1015C0001587048724E733E0378B268B808F1A82B8
:1015D000198286EA92E09C838B8380EB92E09E8363
:1015E0008D838BEB92E098878F8383EC92E0988FCA
:1015F0008F8B83E0898FCE014A969E878D8749968F
:10160000988B8F87FA8BE98B0E94C8040E948F0405
:101610002FE38DE093E0215080409040E1F700C03F
:1016200000000E94AB042FE38DE093E02150804046
:101630009040E1F700C000000E9469060E94820607
:101640000E946D062FE38DE093E021508040904092
:10165000E1F700C00000C8010E945707CC59DF4FD6
:101660000FB6F894DEBF0FBECDBFDF91CF911F91B3
:101670000F910895A29FB001B39FC001A39F700D69
:10168000811D1124911DB29F700D811D1124911D8A
:1016900008950E945D0B0C94450C0E943E0C58F07E
:1016A0000E94370C40F029F45F3F29F00C942E0C77
:1016B00051110C94790C0C94340C0E94560C68F364
:1016C0009923B1F3552391F3951B550BBB27AA27FB
:1016D00062177307840738F09F5F5F4F220F331F35
:1016E000441FAA1FA9F335D00E2E3AF0E0E832D0FD
:1016F00091505040E695001CCAF72BD0FE2F29D000
:10170000660F771F881FBB1F261737074807AB07D1
:10171000B0E809F0BB0B802DBF01FF2793585F4F46
:101720003AF09E3F510578F00C942E0C0C94790CF5
:101730005F3FE4F3983ED4F3869577956795B79528
:10174000F7959F5FC9F7880F911D9695879597F933
:101750000895E1E0660F771F881FBB1F62177307AC
:101760008407BA0720F0621B730B840BBA0BEE1FC1
:1017700088F7E09508950E94C20B6894B1110C940B
:10178000790C08950E945E0C88F09F5798F0B92F4D
:101790009927B751B0F0E1F0660F771F881F991FA6
:1017A0001AF0BA95C9F714C0B13091F00E94780CC4
:1017B000B1E008950C94780C672F782F8827B85FD4
:1017C00039F0B93FCCF3869577956795B395D9F7FE
:1017D0003EF490958095709561957F4F8F4F9F4F08
:1017E0000895E89409C097FB3EF490958095709514
:1017F00061957F4F8F4F9F4F9923A9F0F92F96E95D
:10180000BB279395F695879577956795B795F111D1
:10181000F8CFFAF4BB0F11F460FF1BC06F5F7F4F6E
:101820008F4F9F4F16C0882311F096E911C0772380
:1018300021F09EE8872F762F05C0662371F096E889
:10184000862F70E060E02AF09A95660F771F881F58
:10185000DAF7880F9695879597F9089597F99F6716
:1018600080E870E060E008959FEF80EC0895002428
:101870000A941616170618060906089500240A94F5
:1018800012161306140605060895092E0394000C7B
:1018900011F4882352F0BB0F40F4BF2B11F460FF0A
:1018A00004C06F5F7F4F8F4F9F4F089557FD905833
:1018B000440F551F59F05F3F71F04795880F97FB14
:1018C000991F61F09F3F79F08795089512161306CE
:1018D0001406551FF2CF4695F1DF08C016161706FD
:1018E0001806991FF1CF8695710561050894089532
:1018F000E894BB2766277727CB0197F908958F9245
:101900009F92AF92BF92CF92DF92EF92FF92CF93CE
:10191000DF93EC01688179818A819B816115710572
:101920008105910521F464E279ED8BE597E02DE1E5
:1019300033EF41E050E00E943A1149015A019B0106
:10194000AC01A7EAB1E40E9459116B017C01ACEE35
:10195000B4EFA50194010E946711DC01CB018C0D4D
:101960009D1DAE1DBF1DB7FF03C00197A109B04863
:1019700088839983AA83BB839F77DF91CF91FF9060
:10198000EF90DF90CF90BF90AF909F908F90089591
:101990000E947F0C089584E091E00E947F0C0895DE
:1019A000A0E0B0E08093040190930501A0930601AC
:1019B000B093070108950F931F93CF93DF93009780
:1019C00031F46115710519F480E090E03AC08B01A3
:1019D000EC016EE070E081E090E00E943E0FFC01BF
:1019E000892B91F380E883830115110571F013872A
:1019F000028781E8838380917C0390917D03892B0A
:101A000021F4F0937D03E0937C032097C9F0D18704
:101A1000C08783818260838380917E0390917F035E
:101A2000892B71F4F0937F03E0937E038091800310
:101A300090918103892B21F4F0938103E09380033B
:101A4000CF01DF91CF911F910F910895A0E0B0E0F9
:101A5000ECE2FDE00C947C11AE014B5F5F4FFA01AC
:101A600061917191AF0180917E0390917F030E94FB
:101A70006C0DE2E00C9498110F931F93CF93DF93BA
:101A8000E0917E03F0917F03238121FF1BC08C0135
:101A9000D0E0C0E0F80181918F0160917E037091E8
:101AA0007F03DB011896ED91FC911997882331F0A3
:101AB0000995892B79F3DFEFCFEFECCF8AE0099519
:101AC000892B19F08FEF9FEF02C08D2F9C2FDF9194
:101AD000CF911F910F910895ACE0B0E0E2E7FDE0F7
:101AE0000C946C117C016B018A01FC011782168237
:101AF000838181FFBDC1CE0101964C01F701938125
:101B0000F60193FD859193FF81916F01882309F47C
:101B1000ABC1853239F493FD859193FF81916F01BB
:101B2000853229F4B70190E00E94A410E7CF512C30
:101B3000312C20E02032A0F48B3269F030F4803276
:101B400059F0833269F420612CC08D3239F0803332
:101B500039F4216026C02260246023C0286021C09F
:101B600027FD27C030ED380F3A3078F426FF06C045
:101B7000FAE05F9E300D1124532E13C08AE0389E88
:101B8000300D1124332E20620CC08E3221F426FD3C
:101B90006BC1206406C08C3611F4206802C0883600
:101BA00041F4F60193FD859193FF81916F018111BD
:101BB000C1CF982F9F7D9554933028F40C5F1F4F11
:101BC000FFE3F9830DC0833631F0833771F083353D
:101BD00009F05BC022C0F801808189830E5F1F4F2E
:101BE00044244394512C540115C03801F2E06F0E87
:101BF000711CF801A080B18026FF03C0652D70E044
:101C000002C06FEF7FEFC5012C870E9499102C0155
:101C100083012C852F77222E17C03801F2E06F0E3A
:101C2000711CF801A080B18026FF03C0652D70E013
:101C300002C06FEF7FEFC5012C870E9487102C0137
:101C40002C852068222E830123FC1BC0832D90E06D
:101C500048165906B0F4B70180E290E00E94A41043
:101C60003A94F4CFF50127FC859127FE81915F011D
:101C7000B70190E00E94A41031103A94F1E04F1A9D
:101C800051084114510471F7E5C0843611F08936CA
:101C900039F5F80127FF07C0608171818281938146
:101CA0000C5F1F4F08C060817181072E000C880BEC
:101CB000990B0E5F1F4F2F76722E97FF09C09095DC
:101CC0008095709561957F4F8F4F9F4F2068722E42
:101CD0002AE030E0A4010E94DC10A82EA81844C01D
:101CE000853729F42F7EB22E2AE030E025C0F22F6E
:101CF000F97FBF2E8F36C1F018F4883579F0B4C063
:101D0000803719F0883721F0AFC02F2F2061B22E15
:101D1000B4FE0DC08B2D8460B82E09C024FF0AC00C
:101D20009F2F9660B92E06C028E030E005C020E164
:101D300030E002C020E132E0F801B7FE07C0608168
:101D40007181828193810C5F1F4F06C06081718118
:101D500080E090E00E5F1F4FA4010E94DC10A82ECF
:101D6000A818FB2DFF777F2E76FE0BC0372D3E7F08
:101D7000A51450F474FE0AC072FC08C0372D3E7ED4
:101D800005C0BA2C372D03C0BA2C01C0B52C34FFC6
:101D90000DC0FE01EA0DF11D8081803311F4397E02
:101DA00009C032FF06C0B394B39404C0832F867871
:101DB00009F0B39433FD13C030FF06C05A2CB3149E
:101DC00018F4530C5B18B32CB31468F4B70180E219
:101DD00090E03C870E94A410B3943C85F5CFB314E7
:101DE00010F43B1801C0312C34FF12C0B70180E35E
:101DF00090E03C870E94A4103C8532FF17C031FD63
:101E000003C088E790E002C088E590E0B7010CC00D
:101E1000832F867859F031FF02C08BE201C080E247
:101E200037FD8DE2B70190E00E94A410A51438F4AC
:101E3000B70180E390E00E94A4105A94F7CFAA94CF
:101E4000F401EA0DF11D8081B70190E00E94A41019
:101E5000A110F5CF332009F451CEB70180E290E014
:101E60000E94A4103A94F6CFF7018681978102C0B0
:101E70008FEF9FEF2C96E2E10C9488110F931F9344
:101E8000CF93DF93869F8001879F100D969F100D43
:101E90001124C8010E945A0FEC01009729F0A801F3
:101EA00060E070E00E949210CE01DF91CF911F910F
:101EB0000F910895CF93DF938230910510F482E063
:101EC00090E0E0918403F091850320E030E0C0E0F1
:101ED000D0E0309711F14081518148175907C0F087
:101EE0004817590761F482819381209719F09B83E9
:101EF0008A832BC0909385038093840326C0211589
:101F0000310519F04217530718F49A01BE01DF0199
:101F1000EF010280F381E02DDCCF2115310509F1BD
:101F2000281B390B2430310590F412968D919C9129
:101F300013976115710521F0FB019383828304C01F
:101F40009093850380938403FD01329644C0FD0184
:101F5000E20FF31F81939193225031092D933C930B
:101F60003AC02091820330918303232B41F42091C6
:101F70000A0130910B013093830320938203209157
:101F80000801309109012115310541F42DB73EB703
:101F900040910C0150910D01241B350BE0918203FF
:101FA000F0918303E217F307A0F42E1B3F0B2817D1
:101FB000390778F0AC014E5F5F4F2417350748F0C2
:101FC0004E0F5F1F5093830340938203819391933D
:101FD00002C0E0E0F0E0CF01DF91CF9108950F93D0
:101FE0001F93CF93DF93009709F48CC0FC013297C5
:101FF000138212820091840310918503011511054B
:1020000081F420813181820F931F209182033091CE
:1020100083032817390779F5F0938303E09382034C
:1020200071C0D80140E050E0AE17BF0750F41296DF
:102030002D913C911397AD012115310509F1D9017D
:10204000F3CF9D01DA013383228360817181860F92
:10205000971F8217930769F4EC0128813981260FB5
:10206000371F2E5F3F4F318320838A819B8193836B
:102070008283452B29F4F0938503E093840342C0C7
:102080001396FC93EE931297ED01499159919E019D
:10209000240F351FE217F30771F480819181840FBB
:1020A000951F029611969C938E938281938113962D
:1020B0009C938E931297E0E0F0E0D80112968D91F8
:1020C0009C911397009719F0F8018C01F6CF8D9130
:1020D0009C9198012E5F3F4F820F931F20918203A6
:1020E000309183032817390769F4309729F4109247
:1020F00085031092840302C013821282109383031B
:1021000000938203DF91CF911F910F910895FC01FD
:102110000590615070400110D8F7809590958E0F12
:102120009F1F0895DC0101C06D9341505040E0F7BE
:102130000895FC016150704001900110D8F780951E
:1021400090958E0F9F1F08950F931F93CF93DF934A
:10215000FB01238121FD03C08FEF9FEF28C022FFE9
:1021600016C046815781248135814217530744F4B4
:10217000A081B1819D012F5F3F4F318320838C93DC
:10218000268137812F5F3F4F3783268310C0EB01B5
:10219000092F182F0084F185E02D0995892BE1F690
:1021A0008E819F8101969F838E83812F902FDF9157
:1021B000CF911F910F910895FA01AA27283051F16C
:1021C000203181F1E8946F936E7F6E5F7F4F8F4F68
:1021D0009F4FAF4FB1E03ED0B4E03CD0670F781FC7
:1021E000891F9A1FA11D680F791F8A1F911DA11DAC
:1021F0006A0F711D811D911DA11D20D009F46894E5
:102200003F912AE0269F11243019305D3193DEF68C
:10221000CF010895462F4770405D4193B3E00FD042
:10222000C9F7F6CF462F4F70405D4A3318F0495D2D
:1022300031FD4052419302D0A9F7EACFB4E0A69510
:102240009795879577956795BA95C9F70097610532
:10225000710508959B01AC010A2E06945795479588
:1022600037952795BA95C9F7620F731F841F951F7D
:10227000A01D0895052E97FB1EF400940E94511195
:1022800057FD07D00E94A31107FC03D04EF40C9415
:10229000511150954095309521953F4F4F4F5F4FCD
:1022A000089590958095709561957F4F8F4F9F4FC2
:1022B00008950E943A0BA59F900DB49F900DA49F86
:1022C000800D911D11240895B7FF0C9459110E949F
:1022D0005911821B930B08952F923F924F925F9258
:1022E0006F927F928F929F92AF92BF92CF92DF9226
:1022F000EF92FF920F931F93CF93DF93CDB7DEB78B
:10230000CA1BDB0B0FB6F894DEBF0FBECDBF09941E
:102310002A88398848885F846E847D848C849B8475
:10232000AA84B984C884DF80EE80FD800C811B8183
:10233000AA81B981CE0FD11D0FB6F894DEBF0FBEB2
:10234000CDBFED010895A1E21A2EAA1BBB1BFD0112
:102350000DC0AA1FBB1FEE1FFF1FA217B307E40784
:10236000F50720F0A21BB30BE40BF50B661F771FDC
:10237000881F991F1A9469F76095709580959095BC
:0E2380009B01AC01BD01CF010895F894FFCF81
:10238E000012001001000000000086032000010171
:10239E000101010101015374617274696E6720536A
:1023AE0052414D20746573742E2E2E0A0D005772F5
:1023BE00697465207068617365206572726F723A18
:1023CE00206578745F72616D5B2534645D203D20FD
:1023DE0025303258202873686F756C642062652032
:1023EE0025303258290A0D0052657472696576617E
:1023FE006C207068617365206572726F723A206529
:10240E0078745F72616D5B2534645D203D202530EC
:10241E003258202873686F756C64206265202530F1
:10242E003258290A0D005352414D207465737420A1
:10243E00636F6D706C657465642077697468200ACB
:10244E000D253464206572726F727320696E207769
:10245E007269746520706861736520616E64200A0C
:10246E000D253464206572726F727320696E20724E
:10247E00657472696576616C2070686173650A0AAD
:10248E000D00416472657373653A202564202C201B
:10249E00646174613A202564200A0D0061747465CC
:1024AE006D7074656420746F20757064617465203E
:1024BE00627566666572206F757473696465206FE8
:1024CE00662073637265656E2C20696D706C656D28
:1024DE00656E7420777261702061726F756E643FE5
:1024EE0000617474656D7074656420746F2075700E
:1024FE0064617465206275666665722077697468BA
:10250E0020696E76616C6964206C696E652C206939
:10251E006D706C656D656E7420777261702061727E
:10252E006F756E643F00506C61792067616D650058
:10253E004869676873636F726573004F7074696F73
:10254E006E73005468697320697320746865206D1A
:10255E0061696E206D656E75203A29002A20004350
:10256E006F6F726473583A2025642C20436F6F721C
:10257E006473593A2025642C20427574746F6E3A38
:10258E002025640A0D004D435032353135206973D4
:10259E00204E4F5420696E20636F6E6669677572A8
:1025AE006174696F6E206D6F64652061667465720B
:1025BE0020726573657421004D65737361676520C4
:1025CE007769746820756E6D61707065642049441A
:1025DE00206C6F61646564203A280A0D00476F20F5
:1025EE006261636B0047616D65006869676873635C
:0C25FE006F7265006F7074696F6E73007F
:00000001FF
