:100000000C9460030C947D030C945E0B0C947D03A4
:100010000C947D030C947D030C947D030C94620C72
:100020000C947D030C947D030C947D030C947D0350
:100030000C947D030C947D030C947D030C947D0340
:100040000C947D030C947D030C947D030C947D0330
:100050000C947D030C947D030C947D030C947D0320
:100060000C947D030C947D030C947D030C947D0310
:1000700000000000005C00000C000C007C287C28C4
:1000800058DC68002410480028542840000C000068
:10009000007884008478000054385400107C1000EC
:1000A00080400000101010000040000060100C00A4
:1000B00038543800487C40004864580044542C00B0
:1000C0001C107C005C5424003854240064140C0080
:1000D00068542C0048543800004800008048000054
:1000E0001028440028282800442810000454080040
:1000F00038445C00781478007C5428003844280088
:100100007C4438007C5444007C140400384474005F
:100110007C107C00447C440020403C007C106C003F
:100120007C4040007C187C0078103C00384438004B
:100130007C1408003844B8007C146800485424003B
:10014000047C04007C407C003C603C007C307C00F3
:100150006C106C000C700C0064544C00007C44006B
:100160000C106000447C00000804080080808000BF
:1001700000040800304878007C48300030484800CF
:1001800030487C00306850001078140090A8780047
:100190007C08700050744000808074007C106800FF
:1001A000447C4000781078007808700030483000B7
:1001B000F82810003048F80078100800505828003F
:1001C000083C4800384078003840380078207800F3
:1001D0004830480098A0780048685800107884009B
:1001E000007C00008478100008040804000000006F
:1001F0000000005F00000007000700147F147F1458
:10020000242A7F2A1223130864623649552250009B
:1002100005030000001C2241000041221C00082AA6
:100220001C2A0808083E080800503000000808088A
:100230000808006060000020100804023E51494593
:100240003E00427F400042615149462141454B31C9
:100250001814127F1027454545393C4A4949300159
:10026000710905033649494936064949291E0036B0
:100270003600000056360000000814224114141401
:10028000141441221408000201510906324979412F
:100290003E7E1111117E7F494949363E414141223E
:1002A0007F4141221C7F494949417F090901013EA3
:1002B000414151327F0808087F00417F41002040C2
:1002C000413F017F081422417F404040407F0204AB
:1002D000027F7F0408107F3E4141413E7F090909AA
:1002E000063E4151215E7F09192946464949493157
:1002F00001017F01013F4040403F1F2040201F7F00
:100300002018207F631408146303047804036151E8
:1003100049454300007F4141020408102041417FCC
:100320000000040201020440404040400001020479
:100330000020545454787F4844443838444444207E
:10034000384444487F3854545418087E0901020840
:100350001454543C7F0804047800447D400020403D
:10036000443D00007F10284400417F40007C041879
:1003700004787C0804047838444444387C14141409
:1003800008081414187C7C080404084854545420A9
:10039000043F4440203C4040207C1C2040201C3C2A
:1003A0004030403C44281028440C5050503C446499
:1003B000544C44000836410000007F0000004136E4
:1003C000080002010302010000000000000000001C
:1003D000065F5F0600000000070700070700001423
:1003E0007F7F147F7F1400242E6B6B3A120000462F
:1003F0006630180C666200307A4F5D377A48000428
:1004000007030000000000001C3E634100000000E4
:1004100041633E1C000000082A3E1C1C3E2A0808BE
:10042000083E3E0808000000A0E060000000000850
:100430000808080808000000006060000000006074
:1004400030180C060301003E7F594D7F3E000042EC
:10045000427F7F40400000627359496F660000226E
:100460006349497F360000181C16137F7F10002750
:100470006745457D3900003C7E4B497930000003DB
:100480006371190F070000367F49497F3600000667
:100490004F49693F1E000000006C6C000000000026
:1004A000A0EC6C00000000081C3663410000001442
:1004B00014141414140000004163361C08000002D8
:1004C0000351590F0600003E7F415D5D1F1E007CF9
:1004D0007E13137E7C0000417F7F49497F36001CDC
:1004E0003E634141632200417F7F41637F1C0041A5
:1004F0007F7F495D416300417F7F491D0103001CEF
:100500003E6341517372007F7F08087F7F000000C7
:10051000417F7F41000000307040417F3F0100413A
:100520007F7F081C776300417F7F41406070007FC0
:100530007F060C067F7F007F7F060C187F7F001CE4
:100540003E6341633E1C00417F7F49090F06001E48
:100550003F21717F5E0000417F7F19396F46002681
:10056000674D597B32000003417F7F410300007FCC
:100570007F40407F7F00001F3F60603F1F00007F83
:100580007F3018307F7F0063771C081C776300077B
:100590004F78784F0700006773594D47637100002B
:1005A0007F7F41410000000103060C18306000000D
:1005B00041417F7F000000080C0603060C08008004
:1005C000808080808080800000030704000000207D
:1005D0007454543C784000413F7F44447C38003898
:1005E0007C44446C280000307848493F7F40003804
:1005F0007C54545C180000487E7F49030200009838
:10060000BCA4A4F87C0400417F7F08047C7800002F
:10061000447D7D4000000040C484FD7D0000004119
:100620007F7F10386C440000417F7F400000007CD9
:100630007C0C180C7C78007C7C04047C78000038EE
:100640007C44447C38000084FCF8A4243C18001846
:100650003C24A4F8FC8400447C78441C1800004826
:100660005C54547424000000043E7F442400003C89
:100670007C40403C7C40001C3C60603C1C00003CDA
:100680007C6030607C3C00446C3810386C44009CCA
:10069000BCA0A0FC7C00004C64745C4C64000008AE
:1006A000083E7741410000000000777700000041DC
:1006B00041773E0808000002030103020301000025
:1006C00011241FBECFEFD4E0DEBFCDBF14E0A0E009
:1006D000B1E0E6EAF6E202C005900D92A837B10754
:1006E000D9F725E0A8E7B4E001C01D92A432B20713
:1006F000E1F70E947F030C9451130C94000080E8F2
:1007000085BF80E280BF8FB780688FBF8FE190E0A8
:100710000E94AF030E94BC030E94BE090E94010A0E
:100720000E945D0A0E946F0A0E94BA040E9481041E
:100730000E945B060E9474060E9448080E947E0C7C
:100740000E94470C0E947C060E94690708955D9BE9
:10075000FECF8CB908955F9BFECF8CB1089590BDFC
:1007600089B988E18AB98EE880BD6BEA73E087EACF
:1007700093E00E94670E089580E885BF0895CF92A8
:10078000DF92EF92FF920F931F93CF93DF938EE14F
:1007900091E09F938F930E94B20E0E94570E7C01AE
:1007A0000E945C0E0F900F90C12CD12CC0E0D0E0C5
:1007B00006E311E00E94570EF601F85E8083208167
:1007C0002817A1F099279F938F931F922F93DF9261
:1007D000CF921F930F930E94B20E21968DB79EB7B2
:1007E00008960FB6F8949EBF0FBE8DBF9FEFC91A33
:1007F000D90AC11488E0D806E9F6C7010E945C0E48
:1008000000E010E0E12CF12C0F2EF0E7CF2EF1E00C
:10081000DF2EF02D0E94570EF801F85E2081281778
:10082000B1F099279F938F931F922F931F930F934C
:10083000DF92CF920E94B20E9FEFE91AF90A8DB7AC
:100840009EB708960FB6F8949EBF0FBE8DBF0F5F80
:100850001F4F011598E01907E9F6FF92EF92DF9319
:10086000CF938EEA91E09F938F930E94B20E0F90E8
:100870000F900F900F900F900F90DF91CF911F91DD
:100880000F91FF90EF90DF90CF9008958FEF84BB92
:1008900015BA089500E014E10F2EF5E0FF2EF02DBB
:1008A000DF2C0F2EF4E1EF2EF02DCAE0D2E0F8019C
:1008B000D08287E99AE30197F1F700C000008081B8
:1008C0001F928F93EF92FF92DF93CF930E94B20E0D
:1008D0000F900F900F900F900F900F90E8CF03960E
:1008E000E0E0F4E1808387E99AE30197F1F700C043
:1008F000000080810895E0910201F091030180835E
:10090000089520E030E050E840E0E0910201F091ED
:10091000030180EB820F8083852F942FE0910001EB
:10092000F0910101E20FF31F10820197B9F72F5FD9
:100930003F4F2830310549F7089520E030E060E866
:1009400050E04FEFE0910201F091030180EB820F44
:100950008083862F952FE0910001F0910101E20F35
:10096000F31F40830197B9F72F5F3F4F28303105C0
:1009700049F70895E0910201F09103018EEA808326
:10098000E0910201F091030181EA8083E09102018C
:10099000F09103018AED8083E0910201F09103015F
:1009A00082E18083E0910201F091030188EC808371
:1009B000E0910201F091030188EA8083E091020155
:1009C000F09103018FE38083E0910201F091030134
:1009D00085ED8083E0910201F091030180E880833E
:1009E000E0910201F091030181E88083E09102012E
:1009F000F091030180E58083E0910201F091030111
:100A000089ED8083E0910201F091030181E280830E
:100A1000E0910201F091030180E28083E091020104
:100A2000F091030182E08083E0910201F0910301E3
:100A30008BED8083E0910201F091030180E38083DC
:100A4000E0910201F09103018DEA8083E0910201BF
:100A5000F09103011082E0910201F091030184EA18
:100A60008083E0910201F091030186EA8083E091A6
:100A70000201F09103018FEA80830895E091020161
:100A8000F091030180558083E0910201F091030110
:100A9000862F8F708083E0910201F09103016295AF
:100AA0006F70605F60830895E0910001F091010133
:100AB000808308958032D8F0805290E09C01220F0C
:100AC000331F220F331F820F931F20E030E0F90104
:100AD000E80FF91FE451FE4FE491A0910001B0919D
:100AE0000101EC932F5F3F4F2530310581F70895C9
:100AF000EF92FF920F931F93CF93DF93FC018081BE
:100B0000882399F18F010F5F1F4FC0E0D0E0E12CE7
:100B10000F2EF9E1FF2EF02D0E945A059E01AFEA3B
:100B2000B7E40E94C60CAE01481B590B5695479579
:100B3000480F591F529542954F7045275F704527C2
:100B4000F49EC001F59E900D1124C817D90739F401
:100B5000209729F0E39460E08E2D0E943E052196B7
:100B6000F80181918F018111D7CFDF91CF911F9132
:100B70000F91FF90EF900895CF93DF93DC0180E811
:100B8000689FB0011124785E26C0803230F1205277
:100B900030E0F901EE0FFF1FEE0FFF1FE20FF31F12
:100BA000E451FE4F2F5F3F4FC901880F991F880FF7
:100BB000991F280F391F24513E4FEB01442319F090
:100BC0009491909501C0949199933196E217F3070F
:100BD000A9F76B5F7F4F2D91822F2111D6CFDF9127
:100BE000CF910895FC01F85E608308959C01240F65
:100BF000311D2115344018F441110AC0089584E2D2
:100C000092E09F938F930E94B20E0F900F900895E1
:100C1000A62FB72FFC01F85E9C012F5F374E415085
:100C2000240F311D9D919193E217F307D9F7089591
:100C3000883048F089E692E09F938F930E94B20E2D
:100C40000F900F90089540E820E8829FC001112482
:100C50000E94F6050895833058F4E0910201F09166
:100C6000030190E29083E0910201F09103018083FF
:100C70000895E0910201F091030191E29083E091E7
:100C80000201F09103018083E0910201F0910301E0
:100C900060830895E0910201F091030192E2908354
:100CA000E0910201F09103018083E0910201F09153
:100CB00003016083089580E00E942B0608956FE78A
:100CC00080E00E94390667E080E00E944A06E0E08A
:100CD000F8E18191A0910001B09101018C93E1159F
:100CE0008CE1F807B1F70895E0E0F8E11192E11521
:100CF0008CE1F807D9F70895CF93DF938EEA92E05D
:100D00009F938F930E94B20E8CED94E0E3ECF4E09D
:100D1000DC011196FC93EE934CEB52E013965C933E
:100D20004E93129724EC32E057963C932E935697AD
:100D300021E058962C93C8E7D4E0F983E8835B83DD
:100D40004A8369EC72E07F8B6E8B288FA5EFB4E04D
:100D50001196FC93EE9313965C934E93129743ED8A
:100D600052E057965C934E93569758962C9358970B
:100D7000118210822BED32E03383228325EE32E0A4
:100D80003583248320EF32E03783268328EF32E057
:100D9000378B268B23E0208F95878487D787C6875C
:100DA000B18BA08B0F900F90DF91CF910895EF92B0
:100DB000FF920F931F93CF93DF938C01E62E0E9437
:100DC000810460E080E00E943E05F80186899789F1
:100DD0000E947805F801808D8823F9F0C0E0D0E00A
:100DE000F12C60E08C2F8F5F0E943E05EC16FD0613
:100DF00021F481E193E00E9478052196FE01EE0F37
:100E0000FF1FE00FF11F808191810E947805F8019A
:100E1000208D30E0C217D30724F3FFE926E881E0F4
:100E2000F15020408040E1F700C00000DF91CF91F9
:100E30001F910F91FF90EF900895BF92CF92DF9294
:100E4000EF92FF920F931F93CF93DF938C01B62EF7
:100E5000FC018689978940E060E00E94BC05F801AA
:100E6000808D882361F1C0E0D0E0EB2CF12C67018C
:100E7000FFEFCF1ADF0ACC0CDD1CC00ED11EB394DD
:100E8000EC16FD0641F4F6018081918141E06B2D65
:100E90000E94BC050DC0FE013196EE0FFF1FE00F52
:100EA000F11F8081918140E06C2F6F5F0E94BC0533
:100EB0002196F801808D90E0C817D9070CF3DF91D7
:100EC000CF911F910F91FF90EF90DF90CF90BF9047
:100ED000089584E193E09F938F930E94B20E0E9445
:100EE00048080E944C086C010F900F9010E00F2EE4
:100EF000F3ECEF2EF4E0FF2EF02DB12CCBE2D3E09B
:100F000000E0DF93CF930E94B20E0E941F080E9460
:100F1000E2070E944C080F900F908C159D05E9F098
:100F20008330910529F4BB2099F0BA946C0115C067
:100F30008430910579F44B2D50E0F701208D30E09D
:100F400021503109421753073CF4B3946C0105C09A
:100F50006C0103C06C0101C06C01111111C00E9431
:100F6000A408882369F08B2D90E00696880F991FBE
:100F7000F701E80FF91FE080F1800E947406B02E9F
:100F80000E94A408182F83ED90E30197F1F700C0A9
:100F900000006B2DC7010E941D070E945F06B1CFA4
:100FA00080589109BC01990F880B990B0E947F0D05
:100FB0002AE037ED43EA5FE30E94D50C0E94470D1B
:100FC000862F08950F931F93CF93DF93182F092F28
:100FD00082E090E00E946F04D82F81E090E00E94B0
:100FE0006F042D2F30E0C82FD0E0C01BD10907FDC2
:100FF000D395C901811B910917FD93958F3F9105E9
:1010000019F014F08FEF90E0CF3FD10519F014F0F4
:10101000CFEFD0E0992314F480E090E00E94D00755
:10102000182FCE01DD2314F480E090E00E94D00759
:10103000982F812FDF91CF911F910F9108950F93DA
:101040001F93CF93DF9303E010E0C0E0D0E082E095
:1010500090E00E946F048D0FD0E8D80F81E090E0FF
:101060000E946F048C0FC0E8C80F0150110979F776
:1010700096E5D902812D1124C902912D1124D7FDA5
:101080008395C7FD9395DF91CF911F910F9108959F
:10109000C09A0E941F080895292F482F592F891799
:1010A00001F1082E000C990B99231CF49195819560
:1010B0009109022E000C330B33231CF4319521953A
:1010C0003109821B930B4396879770F044357CF46B
:1010D0004D3A84F054358CF45D3A94F080E090E021
:1010E000089580E090E0089580E090E0089582E027
:1010F00090E0089581E090E0089583E090E0089505
:1011000084E090E00895CF9383E090E00E946F0424
:10111000C82F84E090E00E946F04282F6C2F70E0AD
:10112000822F90E0CF91089590B320B325FB222722
:1011300020F99071892F90E09595879595958795E1
:1011400095958795820F089586B38095817008954F
:101150000E941F080E94E2070E944C080895CF9346
:10116000DF93CDB7DEB763970FB6F894DEBF0FBE3F
:10117000CDBF0E94E20721E030E03A8329838C87CB
:101180009D870E94A4088E871F86188A198A1A8A4A
:101190001B8ADE011C96FE0133969E01255F3F4FA0
:1011A0008D918193E217F307D9F783E08B87CE0106
:1011B00001960E94730A63960FB6F894DEBF0FBEC5
:1011C000CDBFDF91CF9108958F929F92AF92BF9242
:1011D000CF92DF92EF92FF920F931F93CF93DF9303
:1011E000CDB7DEB728970FB6F894DEBF0FBECDBFE0
:1011F00088E0EEE0F1E0DE01119601900D928A9513
:10120000E1F7CE0101964C0110E00F2EF0E1EF2E38
:10121000F5E0FF2EF02D0F2EFEE0CF2EF5E0DF2EB5
:10122000F02D0F2EFEE3AF2EF3E0BF2EF02D40E0A9
:1012300061E0F401819191914F010E94BC050E94EF
:101240005F0653C082E090E00E946F04082F81E0A7
:1012500090E00E946F04123061F018F4113031F008
:1012600010C0133049F0143051F00BC0F601008368
:1012700008C0F701008305C0F701008302C0F70131
:1012800000830E949408813049F4FFE32DE083E05D
:10129000F15020408040E1F700C00000F7013181AB
:1012A0002081F60191818081432F032E000C550B84
:1012B0005F933F93422F022E000C550B5F932F93A9
:1012C000292F092E000C330B3F939F93282F082EB4
:1012D000000C330B3F938F93BF92AF920E94B20EDC
:1012E0000FB6F894DEBF0FBECDBF0E9494088823CE
:1012F00009F4A8CF0E9474061F5F143009F097CF3D
:10130000E0E1F5E031812081EEE0F5E0918180813E
:10131000432F032E000C550B5F933F93422F022E59
:10132000000C550B5F932F93292F092E000C330BC4
:101330003F939F93282F082E000C330B3F938F93DE
:101340008CE693E09F938F930E94B20E0FB6F894B1
:10135000DEBF0FBECDBF28960FB6F894DEBF0FBE1E
:10136000CDBFDF91CF911F910F91FF90EF90DF9054
:10137000CF90BF90AF909F908F90089587B3806B70
:1013800087BB8DB181618DB96E9AC49A08958FB96A
:1013900080E88EB9779BFECF089580E00E94C70950
:1013A000779BFECF8FB10895C49880EC90E00E94A7
:1013B000C709C49A0895CF93C82FC49883E090E0DA
:1013C0000E94C7098C2F90E00E94C7090E94CD0996
:1013D000C49ACF9108951F93CF93DF93182FEB01F9
:1013E000C49883E090E00E94C709812F90E00E949A
:1013F000C7090E94CD09C49A8883DF91CF911F91BC
:101400000895CF93DF931F92CDB7DEB70E94BE0938
:101410000E94D409BE016F5F7F4F8EE00E94EB09EE
:101420008981807E803831F089ED93E00E94C80E7A
:1014300081E001C080E00F90DF91CF910895C498C2
:101440008EE00E94DB09C49A0895C49881E890E078
:101450000E94C709C49A08951F93CF93DF93182F52
:10146000D62FC42FC49885E090E00E94C709812F31
:1014700090E00E94C7098D2F90E00E94C7098C2F31
:1014800090E00E94C709C49ADF91CF911F910895FF
:10149000CF93DF93D82FC62FC49882E090E00E94AC
:1014A000C7098D2F90E00E94C7098C2F90E00E9401
:1014B000C709C49ADF91CF9108950E94010A4FEFA6
:1014C00060E680E60E942C0A4FEF61E08BE20E940A
:1014D0002C0A40E060EE8FE00E942C0A08958BB742
:1014E00080688BBF0895EF92FF920F931F93CF9365
:1014F000DF937C01FC0140814295440F407E60ED0A
:1015000082E30E942C0AF7016081718176956795CC
:10151000769567957695679581E30E94480AF7016D
:1015200062856623A1F087010E5F1F4FC0E0D0E007
:10153000F80161918F018C2F8A5C0E94480A2196E4
:10154000F7016285262F30E0C217D3078CF385E3BD
:101550000E94480A0E94250ADF91CF911F910F91A6
:10156000FF90EF900895EF92FF920F931F93CF9308
:10157000DF93CDB7DEB72D970FB6F894DEBF0FBE61
:10158000CDBF7C01BE01645F7F4F82E60E94EB0904
:10159000BE01635F7F4F81E60E94EB098D8590E07D
:1015A000880F991F880F991F880F991F2C852295E6
:1015B00026952770822B9A83898385E60E94DB0912
:1015C0008F708B878823B1F000E010E0B8016E5F68
:1015D0007F4F81E090E08C0F9D1F680F791F86E69A
:1015E000800F0E94EB090F5F1F4F2B8530E0021721
:1015F000130764F340E061E08CE20E942C0A8BE068
:10160000FE013196D70101900D928A95E1F7C7014D
:101610002D960FB6F894DEBF0FBECDBFDF91CF91F0
:101620001F910F91FF90EF900895EF92FF920F930B
:101630001F93CF93DF93CDB7DEB72B970FB6F894F8
:10164000DEBF0FBECDBFCE0101960E94B30A8981D5
:101650009A818130910529F10297D9F4E980FA80C5
:101660000B811C812D813E814F81588569857A854A
:101670008B850E94880C8C811F928F938BE094E065
:101680009F938F930E94B20E0F900F900F900F9028
:1016900008C08CE394E09F938F930E94B20E0F904A
:1016A0000F902B960FB6F894DEBF0FBECDBFDF9123
:1016B000CF911F910F91FF90EF9008951F920F927D
:1016C0000FB60F9211242F933F934F935F936F9315
:1016D0007F938F939F93AF93BF93EF93FF93F89470
:1016E0000E94150B7894FF91EF91BF91AF919F915C
:1016F0008F917F916F915F914F913F912F910F90BB
:101700000FBE0F901F901895CF93DF93CDB7DEB724
:1017100063970FB6F894DEBF0FBECDBF81E090E0B7
:101720009A83898388E0E6E1F1E0DE011C9601906E
:101730000D928A95E1F7DE011C96FE0133969E011B
:10174000255F3F4F8D918193E217F307D9F788E02A
:101750008B87CE0101960E94730A63960FB6F894A8
:10176000DEBF0FBECDBFDF91CF9108950F931F93C2
:10177000CF93DF93CDB7DEB7C456D1090FB6F89437
:10178000DEBF0FBECDBF81E088BB8E010F5F1F4F54
:101790001B8F0A8F2CEB32E03D8F2C8F1FA30EA3E3
:1017A00044EC52E059AB48AB8AAB1CAB0BAB3EAB45
:1017B0002DAB21961FAF0EAF219749EC52E02B962F
:1017C0005FAF4EAF2B972C968FAF2C97FE01E45B4B
:1017D000FF4F11830083338322831587048723ED12
:1017E00032E0378B268B808F1A8219828BED92E044
:1017F0009C838B8385EE92E09E838D8380EF92E0C5
:1018000098878F8388EF92E0988F8F8B83E0898F02
:10181000CE014A969E878D874996988B8F87FA8B43
:10182000E98B0E94BA040E9481042FE38DE093E0CB
:10183000215080409040E1F700C000000E949D04CC
:101840002FE38DE093E0215080409040E1F700C00D
:1018500000000E945B060E9474060E945F062FE350
:101860008DE093E0215080409040E1F700C00000FF
:10187000C8010E946907CC59DF4F0FB6F894DEBF4C
:101880000FBECDBFDF91CF911F910F910895F894B6
:10189000EAE8F0E080818C608083EBE8F0E0808112
:1018A000808382EA97E09093870080938600EDE73B
:1018B000F0E080818061808378941092130510920B
:1018C000120508951F920F920FB60F9211248F9355
:1018D0009F938091120590911305019690931305A3
:1018E000809312059F918F910F900FBE0F901F90C4
:1018F000189580911205909113050895E4E1F5E0A3
:1019000010821282118283E08383158214820895EB
:10191000EF92FF920F931F93CF93DF93CDB7DEB774
:101920002B970FB6F894DEBF0FBECDBFE4E1F5E014
:10193000108310E0128301832383832F90E095832B
:1019400084832B960FB6F894DEBF0FBECDBFDF9118
:10195000CF911F910F91FF90EF90089584E195E052
:101960000895E4E1F5E0908183811F929F931F9297
:101970008F9381E694E09F938F930E94B20E0F9015
:101980000F900F900F900F900F900895A29FB001AD
:10199000B39FC001A39F700D811D1124911DB29FA3
:1019A000700D811D1124911D08950E94E90C0C9465
:1019B000D10D0E94CA0D58F00E94C30D40F029F4C9
:1019C0005F3F29F00C94BA0D51110C94050E0C9444
:1019D000C00D0E94E20D68F39923B1F3552391F3F2
:1019E000951B550BBB27AA2762177307840738F08E
:1019F0009F5F5F4F220F331F441FAA1FA9F335D0EB
:101A00000E2E3AF0E0E832D091505040E695001C9E
:101A1000CAF72BD0FE2F29D0660F771F881FBB1F58
:101A2000261737074807AB07B0E809F0BB0B802D36
:101A3000BF01FF2793585F4F3AF09E3F510578F062
:101A40000C94BA0D0C94050E5F3FE4F3983ED4F36A
:101A5000869577956795B795F7959F5FC9F7880F36
:101A6000911D9695879597F90895E1E0660F771F88
:101A7000881FBB1F621773078407BA0720F0621B19
:101A8000730B840BBA0BEE1F88F7E09508950E9444
:101A90004E0D6894B1110C94050E08950E94EA0D44
:101AA00088F09F5798F0B92F9927B751B0F0E1F01F
:101AB000660F771F881F991F1AF0BA95C9F714C0CF
:101AC000B13091F00E94040EB1E008950C94040E20
:101AD000672F782F8827B85F39F0B93FCCF3869508
:101AE00077956795B395D9F73EF490958095709565
:101AF00061957F4F8F4F9F4F0895E89409C097FBE2
:101B00003EF490958095709561957F4F8F4F9F4FD4
:101B10009923A9F0F92F96E9BB279395F695879518
:101B200077956795B795F111F8CFFAF4BB0F11F4DB
:101B300060FF1BC06F5F7F4F8F4F9F4F16C0882382
:101B400011F096E911C0772321F09EE8872F762FB8
:101B500005C0662371F096E8862F70E060E02AF0F9
:101B60009A95660F771F881FDAF7880F96958795E5
:101B700097F9089597F99F6780E870E060E008950D
:101B80009FEF80EC089500240A9416161706180695
:101B90000906089500240A94121613061406050671
:101BA0000895092E0394000C11F4882352F0BB0F02
:101BB00040F4BF2B11F460FF04C06F5F7F4F8F4F65
:101BC0009F4F089557FD9058440F551F59F05F3FA0
:101BD00071F04795880F97FB991F61F09F3F79F04F
:101BE00087950895121613061406551FF2CF4695D1
:101BF000F1DF08C0161617061806991FF1CF869553
:101C00007105610508940895E894BB276627772736
:101C1000CB0197F908958F929F92AF92BF92CF9286
:101C2000DF92EF92FF92CF93DF93EC01688179818D
:101C30008A819B81611571058105910521F464E21A
:101C400079ED8BE597E02DE133EF41E050E00E9424
:101C5000C61249015A019B01AC01A7EAB1E40E94F6
:101C6000E5126B017C01ACEEB4EFA50194010E947A
:101C7000F312DC01CB018C0D9D1DAE1DBF1DB7FF06
:101C800003C00197A109B04888839983AA83BB83C5
:101C90009F77DF91CF91FF90EF90DF90CF90BF9033
:101CA000AF909F908F9008950E940B0E089584E04E
:101CB00091E00E940B0E0895A0E0B0E08093040133
:101CC00090930501A0930601B093070108950F9327
:101CD0001F93CF93DF93009731F46115710519F4C9
:101CE00080E090E03AC08B01EC016EE070E081E0B2
:101CF00090E00E94CA10FC01892B91F380E8838355
:101D00000115110571F01387028781E883838091A3
:101D10001A0590911B05892B21F4F0931B05E09384
:101D20001A052097C9F0D187C08783818260838399
:101D300080911C0590911D05892B71F4F0931D0570
:101D4000E0931C0580911E0590911F05892B21F4BD
:101D5000F0931F05E0931E05CF01DF91CF911F91F6
:101D60000F910895A0E0B0E0E8EBFEE00C940813BA
:101D7000AE014B5F5F4FFA0161917191AF018091AC
:101D80001C0590911D050E94F80EE2E00C942413AE
:101D90000F931F93CF93DF93E0911C05F0911D05E6
:101DA000238121FF1BC08C01D0E0C0E0F8018191AC
:101DB0008F0160911C0570911D05DB011896ED9156
:101DC000FC911997882331F00995892B79F3DFEF7E
:101DD000CFEFECCF8AE00995892B19F08FEF9FEFB9
:101DE00002C08D2F9C2FDF91CF911F910F910895ED
:101DF000ACE0B0E0EEEFFEE00C94F8127C016B0179
:101E00008A01FC0117821682838181FFBDC1CE0148
:101E100001964C01F7019381F60193FD859193FFA3
:101E200081916F01882309F4ABC1853239F493FDA8
:101E3000859193FF81916F01853229F4B70190E07C
:101E40000E943012E7CF512C312C20E02032A0F438
:101E50008B3269F030F4803259F0833269F42061BA
:101E60002CC08D3239F0803339F4216026C02260D5
:101E7000246023C0286021C027FD27C030ED380F23
:101E80003A3078F426FF06C0FAE05F9E300D112448
:101E9000532E13C08AE0389E300D1124332E206259
:101EA0000CC08E3221F426FD6BC1206406C08C3636
:101EB00011F4206802C0883641F4F60193FD859143
:101EC00093FF81916F018111C1CF982F9F7D955410
:101ED000933028F40C5F1F4FFFE3F9830DC0833666
:101EE00031F0833771F0833509F05BC022C0F8010F
:101EF000808189830E5F1F4F44244394512C5401E9
:101F000015C03801F2E06F0E711CF801A080B1809D
:101F100026FF03C0652D70E002C06FEF7FEFC501A3
:101F20002C870E9425122C0183012C852F77222ECD
:101F300017C03801F2E06F0E711CF801A080B1806B
:101F400026FF03C0652D70E002C06FEF7FEFC50173
:101F50002C870E9413122C012C852068222E8301CD
:101F600023FC1BC0832D90E048165906B0F4B7013E
:101F700080E290E00E9430123A94F4CFF50127FC01
:101F8000859127FE81915F01B70190E00E94301298
:101F900031103A94F1E04F1A51084114510471F78D
:101FA000E5C0843611F0893639F5F80127FF07C0FE
:101FB00060817181828193810C5F1F4F08C06081B5
:101FC0007181072E000C880B990B0E5F1F4F2F7627
:101FD000722E97FF09C090958095709561957F4FFF
:101FE0008F4F9F4F2068722E2AE030E0A4010E949C
:101FF0006812A82EA81844C0853729F42F7EB22E67
:102000002AE030E025C0F22FF97FBF2E8F36C1F0D5
:1020100018F4883579F0B4C0803719F0883721F08A
:10202000AFC02F2F2061B22EB4FE0DC08B2D846067
:10203000B82E09C024FF0AC09F2F9660B92E06C093
:1020400028E030E005C020E130E002C020E132E0CD
:10205000F801B7FE07C060817181828193810C5FB6
:102060001F4F06C06081718180E090E00E5F1F4FBE
:10207000A4010E946812A82EA818FB2DFF777F2EBE
:1020800076FE0BC0372D3E7FA51450F474FE0AC0B7
:1020900072FC08C0372D3E7E05C0BA2C372D03C018
:1020A000BA2C01C0B52C34FF0DC0FE01EA0DF11DA4
:1020B0008081803311F4397E09C032FF06C0B394A9
:1020C000B39404C0832F867809F0B39433FD13C012
:1020D00030FF06C05A2CB31418F4530C5B18B32C01
:1020E000B31468F4B70180E290E03C870E9430129C
:1020F000B3943C85F5CFB31410F43B1801C0312CD8
:1021000034FF12C0B70180E390E03C870E94301298
:102110003C8532FF17C031FD03C088E790E002C064
:1021200088E590E0B7010CC0832F867859F031FF25
:1021300002C08BE201C080E237FD8DE2B70190E082
:102140000E943012A51438F4B70180E390E00E9499
:1021500030125A94F7CFAA94F401EA0DF11D808150
:10216000B70190E00E943012A110F5CF332009F49E
:1021700051CEB70180E290E00E9430123A94F6CF3F
:10218000F7018681978102C08FEF9FEF2C96E2E1E5
:102190000C9414130F931F93CF93DF93869F8001AA
:1021A000879F100D969F100D1124C8010E94E61004
:1021B000EC01009729F0A80160E070E00E941E1277
:1021C000CE01DF91CF911F910F910895CF93DF93AF
:1021D0008230910510F482E090E0E0912205F091C8
:1021E000230520E030E0C0E0D0E0309711F14081DD
:1021F000518148175907C0F04817590761F4828187
:102200009381209719F09B838A832BC09093230599
:102210008093220526C02115310519F04217530776
:1022200018F49A01BE01DF01EF010280F381E02D75
:10223000DCCF2115310509F1281B390B243031057C
:1022400090F412968D919C9113976115710521F070
:10225000FB019383828304C090932305809322051E
:10226000FD01329644C0FD01E20FF31F819391936B
:10227000225031092D933C933AC020912005309192
:102280002105232B41F420910A0130910B01309359
:102290002105209320052091080130910901211585
:1022A000310541F42DB73EB740910C0150910D011D
:1022B000241B350BE0912005F0912105E217F3076F
:1022C000A0F42E1B3F0B2817390778F0AC014E5FA6
:1022D0005F4F2417350748F04E0F5F1F50932105BD
:1022E000409320058193919302C0E0E0F0E0CF019C
:1022F000DF91CF9108950F931F93CF93DF930097B2
:1023000009F48CC0FC0132971382128200912205DD
:10231000109123050115110581F420813181820F6F
:10232000931F20912005309121052817390779F551
:10233000F0932105E093200571C0D80140E050E002
:10234000AE17BF0750F412962D913C911397AD0133
:102350002115310509F1D901F3CF9D01DA0133834C
:10236000228360817181860F971F8217930769F41A
:10237000EC0128813981260F371F2E5F3F4F3183B3
:1023800020838A819B8193838283452B29F4F09358
:102390002305E093220542C01396FC93EE93129717
:1023A000ED01499159919E01240F351FE217F30762
:1023B00071F480819181840F951F029611969C93F0
:1023C0008E938281938113969C938E931297E0E073
:1023D000F0E0D80112968D919C911397009719F017
:1023E000F8018C01F6CF8D919C9198012E5F3F4FA3
:1023F000820F931F2091200530912105281739075E
:1024000069F4309729F4109223051092220502C036
:10241000138212821093210500932005DF91CF9142
:102420001F910F910895FC010590615070400110BB
:10243000D8F7809590958E0F9F1F0895DC0101C0FD
:102440006D9341505040E0F70895FC016150704099
:1024500001900110D8F7809590958E0F9F1F0895D9
:102460000F931F93CF93DF93FB01238121FD03C0C3
:102470008FEF9FEF28C022FF16C04681578124812D
:1024800035814217530744F4A081B1819D012F5F2C
:102490003F4F318320838C93268137812F5F3F4FBD
:1024A0003783268310C0EB01092F182F0084F18594
:1024B000E02D0995892BE1F68E819F8101969F83FE
:1024C0008E83812F902FDF91CF911F910F910895CF
:1024D000FA01AA27283051F1203181F1E8946F9355
:1024E0006E7F6E5F7F4F8F4F9F4FAF4FB1E03ED0FB
:1024F000B4E03CD0670F781F891F9A1FA11D680F99
:10250000791F8A1F911DA11D6A0F711D811D911DCB
:10251000A11D20D009F468943F912AE0269F112440
:102520003019305D3193DEF6CF010895462F4770A4
:10253000405D4193B3E00FD0C9F7F6CF462F4F70FF
:10254000405D4A3318F0495D31FD4052419302D05D
:10255000A9F7EACFB4E0A695979587957795679503
:10256000BA95C9F700976105710508959B01AC0103
:102570000A2E06945795479537952795BA95C9F72A
:10258000620F731F841F951FA01D0895052E97FBD2
:102590001EF400940E94DD1257FD07D00E942F13F5
:1025A00007FC03D04EF40C94DD1250954095309505
:1025B00021953F4F4F4F5F4F0895909580957095AF
:1025C00061957F4F8F4F9F4F08950E94C60CA59F26
:1025D000900DB49F900DA49F800D911D112408951E
:1025E000B7FF0C94E5120E94E512821B930B08952D
:1025F0002F923F924F925F926F927F928F929F9213
:10260000AF92BF92CF92DF92EF92FF920F931F9300
:10261000CF93DF93CDB7DEB7CA1BDB0B0FB6F894B1
:10262000DEBF0FBECDBF09942A88398848885F84F1
:102630006E847D848C849B84AA84B984C884DF8062
:10264000EE80FD800C811B81AA81B981CE0FD11D46
:102650000FB6F894DEBF0FBECDBFED010895A1E225
:102660001A2EAA1BBB1BFD010DC0AA1FBB1FEE1F0C
:10267000FF1FA217B307E407F50720F0A21BB30B57
:10268000E40BF50B661F771F881F991F1A9469F7D3
:1026900060957095809590959B01AC01BD01CF012F
:0626A0000895F894FFCF3D
:1026A600001200100100000000002405200097031E
:1026B600A903BA03C9030101010101010101537410
:1026C600617274696E67205352414D20746573744C
:1026D6002E2E2E0A0D00577269746520706861737C
:1026E60065206572726F723A206578745F72616DEB
:1026F6005B2534645D203D202530325820287368E0
:102706006F756C642062652025303258290A0D00E9
:1027160052657472696576616C20706861736520B4
:102726006572726F723A206578745F72616D5B25AF
:1027360034645D203D2025303258202873686F753B
:102746006C642062652025303258290A0D005352E8
:10275600414D207465737420636F6D706C6574658C
:10276600642077697468200A0D25346420657272C6
:102776006F727320696E2077726974652070686164
:10278600736520616E64200A0D25346420657272BB
:102796006F727320696E2072657472696576616CFA
:1027A6002070686173650A0A0D004164726573736F
:1027B600653A202564202C20646174613A202564E2
:1027C600200A0D00617474656D7074656420746F01
:1027D6002075706461746520627566666572206F27
:1027E600757473696465206F662073637265656EC0
:1027F6002C20696D706C656D656E742077726170E2
:102806002061726F756E643F00617474656D7074DB
:10281600656420746F2075706461746520627566E6
:10282600666572207769746820696E76616C696482
:10283600206C696E652C20696D706C656D656E74B3
:1028460020777261702061726F756E643F00496E09
:102856007369646520696E69740A0D00476F2062AA
:1028660061636B0047616D65006869676873636FD4
:102876007265006F7074696F6E7300506C617920B9
:1028860067616D65004869676873636F7265730099
:102896004F7074696F6E7300546869732069732092
:1028A600746865206D61696E206D656E75203A29C4
:1028B600002A2000496E73696465206D656E752077
:1028C60066756E6374696F6E0A0D00496E7369648E
:1028D60065206D656E75206C6F6F700A0D004D6119
:1028E6007820783A2025642C204D617820793A208A
:1028F60025642C206D696E20783A2025642C206D85
:10290600696E20793A202564200A0D004D617820F1
:10291600783A2025642C204D617820793A20256468
:102926002C206D696E20783A2025642C206D696E06
:1029360020793A20256400536574206D61782072F1
:10294600696768742028782900536574206D696E5C
:10295600206C6566742028782900536574206D61A3
:10296600782075702028792900536574206D696E6A
:1029760020646F776E287929004D43503235313502
:10298600206973204E4F5420696E20636F6E66690E
:102996006775726174696F6E206D6F64652061661C
:1029A600746572207265736574210052656369658A
:1029B60076656420612067616D6520737461747546
:1029C60073206D6573736167652C206E756D206667
:1029D60061696C73203D202564200A004D65737380
:1029E600616765207769746820756E6D61707065C2
:1029F60064204944206C6F61646564203A280A0D9E
:102A0600004C69766573203A202564204661696C1E
:082A1600733A202564200A0038
:00000001FF
