:100000000C9438000C9455000C9455000C94550039
:100010000C9455000C9455000C9455000C9455000C
:100020000C9455000C9455000C9455000C945500FC
:100030000C9455000C9455000C9455000C945500EC
:100040000C9455000C9455000C9455000C945500DC
:100050000C9455000C9455000C9455000C945500CC
:100060000C9455000C9455000C9455000C945500BC
:1000700011241FBECFEFD4E0DEBFCDBF12E0A0E061
:10008000B1E0E8EFF0E102C005900D92A032B107B7
:10009000D9F722E0A0E2B2E001C01D92AA32B20775
:1000A000E1F70E9457000C947A080C9400008FE14D
:1000B00090E00E9486000E9493000E94F3016C0170
:1000C0000AE011E0C2E1D1E0C6010E94BA01F82EB7
:1000D000E92E7F936F931F930F930E94FC03EF927F
:1000E000FF92DF93CF930E94FC038DB79EB70896D3
:1000F0000FB6F8949EBF0FBE8DBFE6CF5D9BFECFBF
:100100008CB908955F9BFECF8CB1089590BD89B9DD
:1001100088E18AB98EE880BD62E870E08EE790E001
:100120000E94B103089580E885BF85B71F928F9321
:100130008DE091E09F938F930E94FC030F900F90AE
:100140000F900F900895CF92DF92EF92FF920F934E
:100150001F93CF93DF938AE191E09F938F930E9447
:10016000FC030E94A1037C010E94A6030F900F9044
:10017000C12CD12CC0E0D0E002E311E00E94A10329
:10018000F601F85E808320812817A1F099279F93BC
:100190008F931F922F93DF92CF921F930F930E9402
:1001A000FC0321968DB79EB708960FB6F8949EBFB4
:1001B0000FBE8DBF9FEFC91AD90AC11488E0D806B7
:1001C000E9F6C7010E94A60300E010E0E12CF12C43
:1001D0000F2EFCE6CF2EF1E0DF2EF02D0E94A103C2
:1001E000F801F85E20812817B1F099279F938F932B
:1001F0001F922F931F930F93DF92CF920E94FC03C5
:100200009FEFE91AF90A8DB79EB708960FB6F894D2
:100210009EBF0FBE8DBF0F5F1F4F011598E01907DE
:10022000E9F6FF92EF92DF93CF938AEA91E09F93F2
:100230008F930E94FC030F900F900F900F900F90E0
:100240000F90DF91CF911F910F91FF90EF90DF9072
:10025000CF9008958FEF84BB15BA089500E014E1A4
:100260000F2EF5E0FF2EF02DDF2C0F2EF4E1EF2EF8
:10027000F02DC6E0D2E0F801D08287E99AE3019739
:10028000F1F700C0000080811F928F93EF92FF92E0
:10029000DF93CF930E94FC030F900F900F900F906D
:1002A0000F900F90E8CF0396E0E0F4E1808387E9B8
:1002B0009AE30197F1F700C0000080810895CF9282
:1002C000DF92EF92FF92CF93C62F803891053CF1D9
:1002D000BC0160587109072E000C880B990B0E9415
:1002E000C9026B017C0180E890E08C1B9109C7FD7D
:1002F0009395BC01990F880B990B0E94C90220E0CD
:1003000030E048EC52E40E941F029B01AC01C7019F
:10031000B6010E941F020E949102862F25C0BC01D7
:1003200060587109072E000C880B990B0E94C902B6
:100330006B017C018C2FCC0F990B80589F4FBC0117
:10034000990F880B990B0E94C90220E030E048EC1D
:1003500052E40E941F029B01AC01C701B6010E943A
:100360001F020E949102862FCF91FF90EF90DF90A5
:10037000CF9008950F931F93CF93DF93192FE0E051
:10038000F4E195E09083A7E9BAE31197F1F700C093
:100390000000208194E09083A7E9BAE31197F1F778
:1003A00000C00000C081D0E0C11BD10917FDD3956A
:1003B00030E0682FA901481B510987FD5395CA01F8
:1003C0000E945F01082F612FCE010E945F01282F3C
:1003D000602F000F770B822F220F990BDF91CF91A7
:1003E0001F910F91089583E090E020E030E0E0E07D
:1003F000F4E165E054E06083A7E9BAE31197F1F70F
:1004000000C000004081340F30585083A7E9BAE3A0
:100410001197F1F700C000004081240F2058019788
:1004200051F796E53902812D11242902912D1124CD
:1004300037FD839527FD93950895089508950E94AB
:1004400033020C941B030E94140358F00E940D0306
:1004500040F029F45F3F29F00C94040351110C94EF
:100460004F030C940A030E942C0368F39923B1F301
:10047000552391F3951B550BBB27AA2762177307CA
:10048000840738F09F5F5F4F220F331F441FAA1F5E
:10049000A9F335D00E2E3AF0E0E832D0915050401A
:1004A000E695001CCAF72BD0FE2F29D0660F771FC8
:1004B000881FBB1F261737074807AB07B0E809F0AE
:1004C000BB0B802DBF01FF2793585F4F3AF09E3F33
:1004D000510578F00C9404030C944F035F3FE4F350
:1004E000983ED4F3869577956795B795F7959F5F76
:1004F000C9F7880F911D9695879597F90895E1E0C2
:10050000660F771F881FBB1F621773078407BA0720
:1005100020F0621B730B840BBA0BEE1F88F7E0957B
:1005200008950E9498026894B1110C944F030895A5
:100530000E94340388F09F5798F0B92F9927B7513C
:10054000B0F0E1F0660F771F881F991F1AF0BA9577
:10055000C9F714C0B13091F00E944E03B1E0089584
:100560000C944E03672F782F8827B85F39F0B93F76
:10057000CCF3869577956795B395D9F73EF490952A
:100580008095709561957F4F8F4F9F4F0895E894A8
:1005900009C097FB3EF490958095709561957F4FCB
:1005A0008F4F9F4F9923A9F0F92F96E9BB27939579
:1005B000F695879577956795B795F111F8CFFAF489
:1005C000BB0F11F460FF1BC06F5F7F4F8F4F9F4FBA
:1005D00016C0882311F096E911C0772321F09EE818
:1005E000872F762F05C0662371F096E8862F70E07E
:1005F00060E02AF09A95660F771F881FDAF7880F58
:100600009695879597F9089597F99F6780E870E028
:1006100060E008959FEF80EC089500240A94161678
:10062000170618060906089500240A9412161306E0
:10063000140605060895092E0394000C11F488236E
:1006400052F0BB0F40F4BF2B11F460FF04C06F5F8A
:100650007F4F8F4F9F4F089557FD9058440F551F60
:1006600059F05F3F71F04795880F97FB991F61F034
:100670009F3F79F087950895121613061406551FAB
:10068000F2CF4695F1DF08C0161617061806991F17
:10069000F1CF86957105610508940895E894BB270C
:1006A00066277727CB0197F908958F929F92AF9293
:1006B000BF92CF92DF92EF92FF92CF93DF93EC0144
:1006C000688179818A819B81611571058105910518
:1006D00021F464E279ED8BE597E02DE133EF41E021
:1006E00050E00E94E00749015A019B01AC01A7EAD2
:1006F000B1E40E94FF076B017C01ACEEB4EFA501F1
:1007000094010E940D08DC01CB018C0D9D1DAE1DD6
:10071000BF1DB7FF03C00197A109B0488883998323
:10072000AA83BB839F77DF91CF91FF90EF90DF90FB
:10073000CF90BF90AF909F908F9008950E945503E7
:10074000089580E091E00E9455030895A0E0B0E094
:100750008093000190930101A0930201B0930301E3
:1007600008950F931F93CF93DF93009731F4611592
:10077000710519F480E090E03AC08B01EC016EE065
:1007800070E081E090E00E94E405FC01892B91F388
:1007900080E883830115110571F01387028781E8D2
:1007A00083838091200290912102892B21F4F09380
:1007B0002102E09320022097C9F0D187C08783816E
:1007C000826083838091220290912302892B71F4AD
:1007D000F0932302E093220280912402909125025B
:1007E000892B21F4F0932502E0932402CF01DF91BD
:1007F000CF911F910F910895A0E0B0E0E2E0F4E006
:100800000C942208AE014B5F5F4FFA016191719128
:10081000AF0180912202909123020E941204E2E033
:100820000C943E08ACE0B0E0E8E1F4E00C9412086F
:100830007C016B018A01FC0117821682838181FF92
:10084000BDC1CE0101964C01F7019381F60193FDE4
:10085000859193FF81916F01882309F4ABC18532A3
:1008600039F493FD859193FF81916F01853229F4CD
:10087000B70190E00E944A07E7CF512C312C20E0CD
:100880002032A0F48B3269F030F4803259F0833298
:1008900069F420612CC08D3239F0803339F4216045
:1008A00026C02260246023C0286021C027FD27C005
:1008B00030ED380F3A3078F426FF06C0FAE05F9E3C
:1008C000300D1124532E13C08AE0389E300D1124B0
:1008D000332E20620CC08E3221F426FD6BC12064C1
:1008E00006C08C3611F4206802C0883641F4F60147
:1008F00093FD859193FF81916F018111C1CF982F55
:100900009F7D9554933028F40C5F1F4FFFE3F983CC
:100910000DC0833631F0833771F0833509F05BC049
:1009200022C0F801808189830E5F1F4F44244394C5
:10093000512C540115C03801F2E06F0E711CF80102
:10094000A080B18026FF03C0652D70E002C06FEF6C
:100950007FEFC5012C870E943F072C0183012C8566
:100960002F77222E17C03801F2E06F0E711CF801AC
:10097000A080B18026FF03C0652D70E002C06FEF3C
:100980007FEFC5012C870E942D072C012C85206844
:10099000222E830123FC1BC0832D90E048165906AC
:1009A000B0F4B70180E290E00E944A073A94F4CF95
:1009B000F50127FC859127FE81915F01B70190E049
:1009C0000E944A0731103A94F1E04F1A510841143D
:1009D000510471F7E5C0843611F0893639F5F80114
:1009E00027FF07C060817181828193810C5F1F4F57
:1009F00008C060817181072E000C880B990B0E5F77
:100A00001F4F2F76722E97FF09C090958095709595
:100A100061957F4F8F4F9F4F2068722E2AE030E004
:100A2000A4010E948207A82EA81844C0853729F483
:100A30002F7EB22E2AE030E025C0F22FF97FBF2EA4
:100A40008F36C1F018F4883579F0B4C0803719F0CA
:100A5000883721F0AFC02F2F2061B22EB4FE0DC019
:100A60008B2D8460B82E09C024FF0AC09F2F96608A
:100A7000B92E06C028E030E005C020E130E002C019
:100A800020E132E0F801B7FE07C060817181828108
:100A900093810C5F1F4F06C06081718180E090E000
:100AA0000E5F1F4FA4010E948207A82EA818FB2DDD
:100AB000FF777F2E76FE0BC0372D3E7FA51450F4B6
:100AC00074FE0AC072FC08C0372D3E7E05C0BA2CE9
:100AD000372D03C0BA2C01C0B52C34FF0DC0FE0168
:100AE000EA0DF11D8081803311F4397E09C032FF97
:100AF00006C0B394B39404C0832F867809F0B394EE
:100B000033FD13C030FF06C05A2CB31418F4530C35
:100B10005B18B32CB31468F4B70180E290E03C8713
:100B20000E944A07B3943C85F5CFB31410F43B18E8
:100B300001C0312C34FF12C0B70180E390E03C8744
:100B40000E944A073C8532FF17C031FD03C088E789
:100B500090E002C088E590E0B7010CC0832F867852
:100B600059F031FF02C08BE201C080E237FD8DE217
:100B7000B70190E00E944A07A51438F4B70180E35A
:100B800090E00E944A075A94F7CFAA94F401EA0D24
:100B9000F11D8081B70190E00E944A07A110F5CFB6
:100BA000332009F451CEB70180E290E00E944A0759
:100BB0003A94F6CFF7018681978102C08FEF9FEFBD
:100BC0002C96E2E10C942E080F931F93CF93DF93A2
:100BD000869F8001879F100D969F100D1124C801DC
:100BE0000E940006EC01009729F0A80160E070E087
:100BF0000E943807CE01DF91CF911F910F91089588
:100C0000CF93DF938230910510F482E090E0E09181
:100C10002802F091290220E030E0C0E0D0E03097D7
:100C200011F14081518148175907C0F04817590701
:100C300061F482819381209719F09B838A832BC072
:100C4000909329028093280226C02115310519F0BE
:100C50004217530718F49A01BE01DF01EF01028029
:100C6000F381E02DDCCF2115310509F1281B390B6B
:100C70002430310590F412968D919C911397611553
:100C8000710521F0FB019383828304C090932902B4
:100C900080932802FD01329644C0FD01E20FF31F4C
:100CA00081939193225031092D933C933AC0209126
:100CB000260230912702232B41F420910601309126
:100CC00007013093270220932602209104013091DE
:100CD00005012115310541F42DB73EB740910801BA
:100CE00050910901241B350BE0912602F091270257
:100CF000E217F307A0F42E1B3F0B2817390778F0F3
:100D0000AC014E5F5F4F2417350748F04E0F5F1F51
:100D100050932702409326028193919302C0E0E012
:100D2000F0E0CF01DF91CF9108950F931F93CF9300
:100D3000DF93009709F48CC0FC0132971382128272
:100D400000912802109129020115110581F42081DA
:100D50003181820F931F209126023091270228179C
:100D6000390779F5F0932702E093260271C0D80184
:100D700040E050E0AE17BF0750F412962D913C9121
:100D80001397AD012115310509F1D901F3CF9D016B
:100D9000DA013383228360817181860F971F821766
:100DA000930769F4EC0128813981260F371F2E5FE4
:100DB0003F4F318320838A819B8193838283452B9C
:100DC00029F4F0932902E093280242C01396FC9381
:100DD000EE931297ED01499159919E01240F351F11
:100DE000E217F30771F480819181840F951F0296B9
:100DF00011969C938E938281938113969C938E93EC
:100E00001297E0E0F0E0D80112968D919C91139733
:100E1000009719F0F8018C01F6CF8D919C91980103
:100E20002E5F3F4F820F931F2091260230912702A1
:100E30002817390769F4309729F410922902109283
:100E4000280202C013821282109327020093260206
:100E5000DF91CF911F910F910895FC010590615092
:100E600070400110D8F7809590958E0F9F1F0895C0
:100E7000DC0101C06D9341505040E0F70895FC0142
:100E80006150704001900110D8F7809590958E0FB9
:100E90009F1F08950F931F93CF93DF93FB0123812F
:100EA00021FD03C08FEF9FEF28C022FF16C04681AF
:100EB0005781248135814217530744F4A081B181C1
:100EC0009D012F5F3F4F318320838C932681378193
:100ED0002F5F3F4F3783268310C0EB01092F182F58
:100EE0000084F185E02D0995892BE1F68E819F81A3
:100EF00001969F838E83812F902FDF91CF911F9139
:100F00000F910895FA01AA27283051F1203181F17B
:100F1000E8946F936E7F6E5F7F4F8F4F9F4FAF4F01
:100F2000B1E03ED0B4E03CD0670F781F891F9A1F14
:100F3000A11D680F791F8A1F911DA11D6A0F711DC8
:100F4000811D911DA11D20D009F468943F912AE0D4
:100F5000269F11243019305D3193DEF6CF010895BC
:100F6000462F4770405D4193B3E00FD0C9F7F6CFED
:100F7000462F4F70405D4A3318F0495D31FD4052B5
:100F8000419302D0A9F7EACFB4E0A695979587954B
:100F900077956795BA95C9F700976105710508952A
:100FA0009B01AC010A2E06945795479537952795D6
:100FB000BA95C9F7620F731F841F951FA01D08956E
:100FC000052E97FB1EF400940E94F70757FD07D0EB
:100FD0000E94490807FC03D04EF40C94F707509583
:100FE0004095309521953F4F4F4F5F4F0895909515
:100FF0008095709561957F4F8F4F9F4F08950E9408
:101000006B08A59F900DB49F900DA49F800D911D1E
:1010100011240895B7FF0C94FF070E94FF07821B5D
:10102000930B08952F923F924F925F926F927F920F
:101030008F929F92AF92BF92CF92DF92EF92FF92E8
:101040000F931F93CF93DF93CDB7DEB7CA1BDB0B94
:101050000FB6F894DEBF0FBECDBF09942A88398839
:1010600048885F846E847D848C849B84AA84B98440
:10107000C884DF80EE80FD800C811B81AA81B9814C
:10108000CE0FD11D0FB6F894DEBF0FBECDBFED0160
:101090000895A1E21A2EAA1BBB1BFD010DC0AA1FB9
:1010A000BB1FEE1FFF1FA217B307E407F50720F0D1
:1010B000A21BB30BE40BF50B661F771F881F991F4C
:1010C0001A9469F760957095809590959B01AC0195
:1010D000BD01CF010895A29FB001B39FC001A39F9E
:1010E000700D811D1124911DB29F700D811D112461
:0810F000911D0895F894FFCF53
:1010F8000100000000002A022000583A2025640A56
:101108000D00593A2025640A0D0053746172746900
:101118006E67205352414D20746573742E2E2E0A2B
:101128000D00577269746520706861736520657277
:10113800726F723A206578745F72616D5B253464F2
:101148005D203D2025303258202873686F756C6407
:101158002062652025303258290A0D0052657472C4
:10116800696576616C207068617365206572726F5D
:10117800723A206578745F72616D5B2534645D2016
:101188003D2025303258202873686F756C642062C2
:10119800652025303258290A0D005352414D2074DC
:1011A80065737420636F6D706C657465642077690E
:1011B8007468200A0D253464206572726F7273207A
:1011C800696E207772697465207068617365206143
:1011D8006E64200A0D253464206572726F72732064
:1011E800696E2072657472696576616C20706861D9
:1011F80073650A0A0D00416472657373653A2025A8
:1012080064202C20646174613A202564200A0D0052
:00000001FF
