:100000000C9460030C947D030C947D030C947D038D
:100010000C947D030C947D030C947D030C947D0360
:100020000C947D030C947D030C947D030C947D0350
:100030000C947D030C947D030C947D030C947D0340
:100040000C947D030C947D030C947D030C947D0330
:100050000C947D030C947D030C947D030C947D0320
:100060000C947D030C947D030C947D030C947D0310
:1000700000000000005C00000C000C007C287C28C4
:1000800058DC68002410480028542840000C000068
:10009000007884008478000054385400107C1000EC
:1000A00080400000101010000040000060100C00A4
:1000B00038543800487C40004864580044542C00B0
:1000C0001C107C005C5424003854240064140C0080
:1000D00068542C0048543800004800008048000054
:1000E0001028440028282800442810000454080040
:1000F00038445C00781478007C5428003844280088
:100100007C4438007C5444007C140400384474005F
:100110007C107C00447C440020403C007C106C003F
:100120007C4040007C187C0078103C00384438004B
:100130007C1408003844B8007C146800485424003B
:10014000047C04007C407C003C603C007C307C00F3
:100150006C106C000C700C0064544C00007C44006B
:100160000C106000447C00000804080080808000BF
:1001700000040800304878007C48300030484800CF
:1001800030487C00306850001078140090A8780047
:100190007C08700050744000808074007C106800FF
:1001A000447C4000781078007808700030483000B7
:1001B000F82810003048F80078100800505828003F
:1001C000083C4800384078003840380078207800F3
:1001D0004830480098A0780048685800107884009B
:1001E000007C00008478100008040804000000006F
:1001F0000000005F00000007000700147F147F1458
:10020000242A7F2A1223130864623649552250009B
:1002100005030000001C2241000041221C00082AA6
:100220001C2A0808083E080800503000000808088A
:100230000808006060000020100804023E51494593
:100240003E00427F400042615149462141454B31C9
:100250001814127F1027454545393C4A4949300159
:10026000710905033649494936064949291E0036B0
:100270003600000056360000000814224114141401
:10028000141441221408000201510906324979412F
:100290003E7E1111117E7F494949363E414141223E
:1002A0007F4141221C7F494949417F090901013EA3
:1002B000414151327F0808087F00417F41002040C2
:1002C000413F017F081422417F404040407F0204AB
:1002D000027F7F0408107F3E4141413E7F090909AA
:1002E000063E4151215E7F09192946464949493157
:1002F00001017F01013F4040403F1F2040201F7F00
:100300002018207F631408146303047804036151E8
:1003100049454300007F4141020408102041417FCC
:100320000000040201020440404040400001020479
:100330000020545454787F4844443838444444207E
:10034000384444487F3854545418087E0901020840
:100350001454543C7F0804047800447D400020403D
:10036000443D00007F10284400417F40007C041879
:1003700004787C0804047838444444387C14141409
:1003800008081414187C7C080404084854545420A9
:10039000043F4440203C4040207C1C2040201C3C2A
:1003A0004030403C44281028440C5050503C446499
:1003B000544C44000836410000007F0000004136E4
:1003C000080002010302010000000000000000001C
:1003D000065F5F0600000000070700070700001423
:1003E0007F7F147F7F1400242E6B6B3A120000462F
:1003F0006630180C666200307A4F5D377A48000428
:1004000007030000000000001C3E634100000000E4
:1004100041633E1C000000082A3E1C1C3E2A0808BE
:10042000083E3E0808000000A0E060000000000850
:100430000808080808000000006060000000006074
:1004400030180C060301003E7F594D7F3E000042EC
:10045000427F7F40400000627359496F660000226E
:100460006349497F360000181C16137F7F10002750
:100470006745457D3900003C7E4B497930000003DB
:100480006371190F070000367F49497F3600000667
:100490004F49693F1E000000006C6C000000000026
:1004A000A0EC6C00000000081C3663410000001442
:1004B00014141414140000004163361C08000002D8
:1004C0000351590F0600003E7F415D5D1F1E007CF9
:1004D0007E13137E7C0000417F7F49497F36001CDC
:1004E0003E634141632200417F7F41637F1C0041A5
:1004F0007F7F495D416300417F7F491D0103001CEF
:100500003E6341517372007F7F08087F7F000000C7
:10051000417F7F41000000307040417F3F0100413A
:100520007F7F081C776300417F7F41406070007FC0
:100530007F060C067F7F007F7F060C187F7F001CE4
:100540003E6341633E1C00417F7F49090F06001E48
:100550003F21717F5E0000417F7F19396F46002681
:10056000674D597B32000003417F7F410300007FCC
:100570007F40407F7F00001F3F60603F1F00007F83
:100580007F3018307F7F0063771C081C776300077B
:100590004F78784F0700006773594D47637100002B
:1005A0007F7F41410000000103060C18306000000D
:1005B00041417F7F000000080C0603060C08008004
:1005C000808080808080800000030704000000207D
:1005D0007454543C784000413F7F44447C38003898
:1005E0007C44446C280000307848493F7F40003804
:1005F0007C54545C180000487E7F49030200009838
:10060000BCA4A4F87C0400417F7F08047C7800002F
:10061000447D7D4000000040C484FD7D0000004119
:100620007F7F10386C440000417F7F400000007CD9
:100630007C0C180C7C78007C7C04047C78000038EE
:100640007C44447C38000084FCF8A4243C18001846
:100650003C24A4F8FC8400447C78441C1800004826
:100660005C54547424000000043E7F442400003C89
:100670007C40403C7C40001C3C60603C1C00003CDA
:100680007C6030607C3C00446C3810386C44009CCA
:10069000BCA0A0FC7C00004C64745C4C64000008AE
:1006A000083E7741410000000000777700000041DC
:1006B00041773E0808000002030103020301000025
:1006C00011241FBECFEFD4E0DEBFCDBF12E0A0E00B
:1006D000B1E0E0EFFEE102C005900D92AC3FB10742
:1006E000D9F723E0ACEFB2E001C01D92A630B2070B
:1006F000E1F70E947F030C94760F0C9400000F9397
:100700001F93CF93DF93CDB7DEB7C456D1090FB691
:10071000F894DEBF0FBECDBF8E010F5F1F4F1B8F42
:100720000A8F2EE031E03D8F2C8F1FA30EA386E1B0
:1007300091E099AB88AB81E08AAB1CAB0BAB3EABD5
:100740002DAB21961FAF0EAF21974BE151E02B96B9
:100750005FAF4EAF2B972C968FAF2C97FE01E45BCB
:10076000FF4F11830083338322831587048725E29B
:1007700031E0378B268B808F1A8219828DE291E0CF
:100780009C838B8387E391E09E838D8382E491E059
:1007900098878F838AE491E0988F8F8B83E0898F8D
:1007A000CE014A969E878D874996988B8F87FA8BC4
:1007B000E98B80E885BF90E290BF88BB8FE190E035
:1007C0000E9420040E9438050E94FF042FE382E467
:1007D0009FE0215080409040E1F700C000000E945F
:1007E0001B052FE382E49FE0215080409040E1F719
:1007F00000C000000E94D9060E94F2060E94DD0699
:100800002FE382E49FE0215080409040E1F700C058
:100810000000C8010E94C707CC59DF4F0FB6F894FB
:10082000DEBF0FBECDBFDF91CF911F910F91089515
:100830005D9BFECF8CB908955F9BFECF8CB1089570
:1008400090BD89B988E18AB98EE880BD6CE174E019
:1008500088E194E00E94BC0A089580E885BF85B7CE
:100860001F928F9383E691E09F938F930E94070BD3
:100870000F900F900F900F900895CF92DF92EF920C
:10088000FF920F931F93CF93DF9388E691E09F939E
:100890008F930E94070B0E94AC0A7C010E94B10A50
:1008A0000F900F90C12CD12CC0E0D0E000E811E0F7
:1008B0000E94AC0AF601F85E808320812817A1F01F
:1008C00099279F938F931F922F93DF92CF921F931D
:1008D0000F930E94070B21968DB79EB708960FB60F
:1008E000F8949EBF0FBE8DBF9FEFC91AD90AC114DD
:1008F00088E0D806E9F6C7010E94B10A00E010E0DE
:10090000E12CF12C0F2EFAEBCF2EF1E0DF2EF02DA3
:100910000E94AC0AF801F85E20812817B1F09927EF
:100920009F938F931F922F931F930F93DF92CF92DA
:100930000E94070B9FEFE91AF90A8DB79EB7089638
:100940000FB6F8949EBF0FBE8DBF0F5F1F4F0115EE
:1009500098E01907E9F6FF92EF92DF93CF9388EFC3
:1009600091E09F938F930E94070B0F900F900F9031
:100970000F900F900F90DF91CF911F910F91FF90EB
:10098000EF90DF90CF9008958FEF84BB15BA089554
:1009900000E014E10F2EF5E0FF2EF02DDF2C0F2EDE
:1009A000F4E1EF2EF02DC4E5D2E0F801D08287E922
:1009B0009AE30197F1F700C0000080811F928F93A6
:1009C000EF92FF92DF93CF930E94070B0F900F904F
:1009D0000F900F900F900F90E8CF0396E0E0F4E1B6
:1009E000808387E99AE30197F1F700C000008081D6
:1009F0000895E0910201F09103018083089520E0C1
:100A000030E050E840E0E0910201F091030180EB1A
:100A1000820F8083852F942FE0910001F0910101D6
:100A2000E20FF31F10820197B9F72F5F3F4F283075
:100A3000310549F7089520E030E060E850E04FEFDD
:100A4000E0910201F091030180EB820F8083862FF9
:100A5000952FE0910001F0910101E20FF31F408317
:100A60000197B9F72F5F3F4F2830310549F70895B7
:100A7000E0910201F09103018EEA8083E09102018E
:100A8000F091030181EA8083E0910201F09103017A
:100A90008AED8083E0910201F091030182E180837D
:100AA000E0910201F091030188EC8083E091020162
:100AB000F091030188EA8083E0910201F091030143
:100AC0008FE38083E0910201F091030185ED808343
:100AD000E0910201F091030180E88083E09102013E
:100AE000F091030181E88083E0910201F09103011C
:100AF00080E58083E0910201F091030189ED80831C
:100B0000E0910201F091030181E28083E091020112
:100B1000F091030180E28083E0910201F0910301F2
:100B200082E08083E0910201F09103018BED8083EC
:100B3000E0910201F091030180E38083E0910201E2
:100B4000F09103018DEA8083E0910201F0910301AD
:100B50001082E0910201F091030184EA8083E09128
:100B60000201F091030186EA8083E0910201F09195
:100B700003018FEA80830895E0910201F09103015F
:100B800080558083E0910201F0910301862F8F70E0
:100B90008083E0910201F091030162956F70605FC4
:100BA00060830895E0910001F09101018083089530
:100BB0008032D8F0805290E09C01220F331F220F28
:100BC000331F820F931F20E030E0F901E80FF91F77
:100BD000E451FE4FE491A0910001B0910101EC932A
:100BE0002F5F3F4F2530310581F70895EF92FF9237
:100BF0000F931F93CF93DF93FC018081882399F19A
:100C00008F010F5F1F4FC0E0D0E0E12C0F2EF9E104
:100C1000FF2EF02D0E94D8059E01AFEAB7E40E9496
:100C20001B09AE01481B590B56954795480F591F94
:100C3000529542954F7045275F704527F49EC0013D
:100C4000F59E900D1124C817D90739F4209729F083
:100C5000E39460E08E2D0E94BC052196F8018191FD
:100C60008F018111D7CFDF91CF911F910F91FF900D
:100C7000EF900895CF93DF93DC0180E8689FB00187
:100C80001124785E26C0803230F1205230E0F90124
:100C9000EE0FFF1FEE0FFF1FE20FF31FE451FE4F99
:100CA0002F5F3F4FC901880F991F880F991F280F89
:100CB000391F24513E4FEB01442319F09491909534
:100CC00001C0949199933196E217F307A9F76B5FEE
:100CD0007F4F2D91822F2111D6CFDF91CF91089593
:100CE000FC01F85E608308959C01240F311D2115DD
:100CF000344018F441110AC008958EE692E09F93A3
:100D00008F930E94070B0F900F900895A62FB72F77
:100D1000FC01F85E9C012F5F374E4150240F311DBE
:100D20009D919193E217F307D9F70895883048F021
:100D300083EB92E09F938F930E94070B0F900F908D
:100D4000089540E820E8829FC00111240E947406A3
:100D50000895833058F4E0910201F091030190E28C
:100D60009083E0910201F091030180830895E09166
:100D70000201F091030191E29083E0910201F09170
:100D800003018083E0910201F091030160830895E3
:100D9000E0910201F091030192E29083E09102015F
:100DA000F09103018083E0910201F09103016083DF
:100DB000089580E00E94A90608956FE780E00E94F0
:100DC000B70667E080E00E94C806E0E0F8E18191A4
:100DD000A0910001B09101018C93E1158CE1F8071D
:100DE000B1F70895E0E0F8E11192E1158CE1F80720
:100DF000D9F70895CF93DF93CDB7DEB7CB54D109A0
:100E00000FB6F894DEBF0FBECDBFFC011182108279
:100E10008DE291E09383828387E391E095838483DD
:100E200082E491E0978386838AE491E0978B868BB6
:100E300083E0808FCE0101969587848749969787B6
:100E400086874996918B808BC55BDF4F0FB6F894F0
:100E5000DEBF0FBECDBFDF91CF910895CF92DF925D
:100E6000EF92FF920F931F93CF93DF937C01C62ED7
:100E70000E94FF0460E080E00E94BC05F7018689C3
:100E800097890E94F605F701808D8823F9F0870184
:100E90000E5F1F4FC0E0D0E0D12C60E08C2F8F5F41
:100EA0000E94BC05CC16DD0621F488EF92E00E947A
:100EB000F605F801819191918F010E94F605219626
:100EC000F701208D30E0C217D3073CF3FFE926E895
:100ED00081E0F15020408040E1F700C00000DF9148
:100EE000CF911F910F91FF90EF90DF90CF900895D9
:100EF0009F92AF92BF92CF92DF92EF92FF920F93A9
:100F00001F93CF93DF938C01962E40E060E0FC01AD
:100F1000868997890E943A06F801808D882359F1C5
:100F20005801C0E0D0E0E92CF12C93946701FFEF69
:100F3000CF1ADF0ACC0CDD1CC00ED11EEC16FD064C
:100F400041F441E0692DF601808191810E943A06C9
:100F500008C040E06C2F6F5FF501828193810E9491
:100F60003A062196F2E0AF0EB11CF801208D30E078
:100F7000C217D3071CF3DF91CF911F910F91FF9000
:100F8000EF90DF90CF90BF90AF909F9008957C013D
:100F90000E94CC088C01C0E0D12CD0E00E94A308B4
:100FA0000E9472080E94CC0880179107E9F08330F4
:100FB000910529F4DD2099F0DA948C0115C0843074
:100FC000910579F44D2D50E0F701208D30E021504E
:100FD0003109421753073CF4D3948C0105C08C01AE
:100FE00003C08C0101C08C01C11111C00E941709FE
:100FF000882369F08D2D90E00696880F991FF701E0
:10100000E80FF91FE080F1800E94F206DD2E0E94B9
:101010001709C82F83ED90E30197F1F700C0000096
:101020006D2DC7010E9478070E94DD06B7CFCF92D1
:10103000DF92EF92FF92CF93C62F803891053CF15B
:10104000BC0160587109072E000C880B990B0E9497
:10105000D4096B017C0180E890E08C1B9109C7FDED
:101060009395BC01990F880B990B0E94D40920E03D
:1010700030E048EC52E40E942A099B01AC01C70110
:10108000B6010E942A090E949C09862F25C0BC0136
:1010900060587109072E000C880B990B0E94D40927
:1010A0006B017C018C2FCC0F990B80589F4FBC019A
:1010B000990F880B990B0E94D40920E030E048EC8E
:1010C00052E40E942A099B01AC01C701B6010E94AB
:1010D0002A090E949C09862FCF91FF90EF90DF9004
:1010E000CF900895FF920F931F93CF93DF93F82E25
:1010F000092F82E090E00E94ED04182F81E090E03B
:101100000E94ED04C82FD0E0C01BD10907FDD39584
:10111000812F90E06F2D8F199109F7FC93950E9414
:101120001708182F602FCE010E941708282F612F53
:10113000110F770B822F220F990BDF91CF911F9107
:101140000F91FF9008950F931F93CF93DF9303E0C8
:1011500010E0C0E0D0E082E090E00E94ED048D0F4E
:10116000D0E8D80F81E090E00E94ED048C0FC0E839
:10117000C80F0150110979F796E5D902812D112484
:10118000C902912D1124D7FD8395C7FD9395DF9159
:10119000CF911F910F9108959B01FC01681779076A
:1011A00019F1AB01772324F444275527461B570B2D
:1011B000DC01FF2324F4AA27BB27A81BB90BCA0113
:1011C0008A1B9B0B4396879790F02435310594F446
:1011D0002D3A3F4F94F0E435F10594F4ED3AFF4F8A
:1011E00094F080E090E0089580E090E0089580E041
:1011F00090E0089582E090E0089581E090E0089505
:1012000083E090E0089584E090E00895CF9383E038
:1012100090E00E94ED04C82F84E090E00E94ED046D
:10122000282F6C2F70E0822F90E0CF91089581E0FD
:10123000B79980E00895A29FB001B39FC001A39F1A
:10124000700D811D1124911DB29F700D811D1124FF
:10125000911D08950E943E090C94260A0E941F0ABF
:1012600058F00E94180A40F029F45F3F29F00C94CE
:101270000F0A51110C945A0A0C94150A0E94370A4D
:1012800068F39923B1F3552391F3951B550BBB27B5
:10129000AA2762177307840738F09F5F5F4F220FFA
:1012A000331F441FAA1FA9F335D00E2E3AF0E0E8F1
:1012B00032D091505040E695001CCAF72BD0FE2F3B
:1012C00029D0660F771F881FBB1F261737074807CF
:1012D000AB07B0E809F0BB0B802DBF01FF27935887
:1012E0005F4F3AF09E3F510578F00C940F0A0C9432
:1012F0005A0A5F3FE4F3983ED4F386957795679555
:10130000B795F7959F5FC9F7880F911D96958795BB
:1013100097F90895E1E0660F771F881FBB1F6217DA
:1013200073078407BA0720F0621B730B840BBA0B98
:10133000EE1F88F7E09508950E94A3096894B11103
:101340000C945A0A08950E943F0A88F09F5798F01B
:10135000B92F9927B751B0F0E1F0660F771F881FBA
:10136000991F1AF0BA95C9F714C0B13091F00E94D4
:10137000590AB1E008950C94590A672F782F8827ED
:10138000B85F39F0B93FCCF3869577956795B395FB
:10139000D9F73EF490958095709561957F4F8F4F6A
:1013A0009F4F0895E89409C097FB3EF4909580956F
:1013B000709561957F4F8F4F9F4F9923A9F0F92F1B
:1013C00096E9BB279395F695879577956795B79599
:1013D000F111F8CFFAF4BB0F11F460FF1BC06F5F7F
:1013E0007F4F8F4F9F4F16C0882311F096E911C091
:1013F000772321F09EE8872F762F05C0662371F0B2
:1014000096E8862F70E060E02AF09A95660F771FC5
:10141000881FDAF7880F9695879597F9089597F9B9
:101420009F6780E870E060E008959FEF80EC08958A
:1014300000240A94161617061806090608950024B3
:101440000A9412161306140605060895092E03942D
:10145000000C11F4882352F0BB0F40F4BF2B11F4A1
:1014600060FF04C06F5F7F4F8F4F9F4F089557FD00
:101470009058440F551F59F05F3F71F04795880F02
:1014800097FB991F61F09F3F79F087950895121699
:1014900013061406551FF2CF4695F1DF08C0161645
:1014A00017061806991FF1CF8695710561050894F6
:1014B0000895E894BB2766277727CB0197F908950D
:1014C0008F929F92AF92BF92CF92DF92EF92FF9254
:1014D000CF93DF93EC01688179818A819B816115CB
:1014E00071058105910521F464E279ED8BE597E0C2
:1014F0002DE133EF41E050E00E94EB0E49015A012B
:101500009B01AC01A7EAB1E40E940A0F6B017C01C8
:10151000ACEEB4EFA50194010E94180FDC01CB01E1
:101520008C0D9D1DAE1DBF1DB7FF03C00197A10906
:10153000B04888839983AA83BB839F77DF91CF913B
:10154000FF90EF90DF90CF90BF90AF909F908F90E3
:1015500008950E94600A089584E091E00E94600A64
:101560000895A0E0B0E08093040190930501A0935A
:101570000601B093070108950F931F93CF93DF9354
:10158000009731F46115710519F480E090E03AC0DC
:101590008B01EC016EE070E081E090E00E94EF0CC6
:1015A000FC01892B91F380E883830115110571F00B
:1015B0001387028781E883838091FC029091FD026A
:1015C000892B21F4F093FD02E093FC022097C9F0EF
:1015D000D187C0878381826083838091FE0290914E
:1015E000FF02892B71F4F093FF02E093FE028091D9
:1015F000000390910103892B21F4F0930103E09300
:101600000003CF01DF91CF911F910F910895A0E0CA
:10161000B0E0EDE0FBE00C942D0FAE014B5F5F4FAF
:10162000FA0161917191AF018091FE029091FF02E8
:101630000E941D0BE2E00C94490FACE0B0E0E3E245
:10164000FBE00C941D0F7C016B018A01FC011782E9
:101650001682838181FFBDC1CE0101964C01F70145
:101660009381F60193FD859193FF81916F0188230A
:1016700009F4ABC1853239F493FD859193FF8191D3
:101680006F01853229F4B70190E00E94550EE7CF33
:10169000512C312C20E02032A0F48B3269F030F450
:1016A000803259F0833269F420612CC08D3239F0D8
:1016B000803339F4216026C02260246023C0286072
:1016C00021C027FD27C030ED380F3A3078F426FFCF
:1016D00006C0FAE05F9E300D1124532E13C08AE03D
:1016E000389E300D1124332E20620CC08E3221F42E
:1016F00026FD6BC1206406C08C3611F4206802C040
:10170000883641F4F60193FD859193FF81916F0135
:101710008111C1CF982F9F7D9554933028F40C5F91
:101720001F4FFFE3F9830DC0833631F0833771F02B
:10173000833509F05BC022C0F801808189830E5F88
:101740001F4F44244394512C540115C03801F2E03A
:101750006F0E711CF801A080B18026FF03C0652DBB
:1017600070E002C06FEF7FEFC5012C870E944A0E28
:101770002C0183012C852F77222E17C03801F2E02F
:101780006F0E711CF801A080B18026FF03C0652D8B
:1017900070E002C06FEF7FEFC5012C870E94380E0A
:1017A0002C012C852068222E830123FC1BC0832D55
:1017B00090E048165906B0F4B70180E290E00E942C
:1017C000550E3A94F4CFF50127FC859127FE8191BF
:1017D0005F01B70190E00E94550E31103A94F1E09C
:1017E0004F1A51084114510471F7E5C0843611F0C5
:1017F000893639F5F80127FF07C060817181828140
:1018000093810C5F1F4F08C060817181072E000C0F
:10181000880B990B0E5F1F4F2F76722E97FF09C012
:1018200090958095709561957F4F8F4F9F4F206861
:10183000722E2AE030E0A4010E948D0EA82EA81876
:1018400044C0853729F42F7EB22E2AE030E025C02F
:10185000F22FF97FBF2E8F36C1F018F4883579F05A
:10186000B4C0803719F0883721F0AFC02F2F206126
:10187000B22EB4FE0DC08B2D8460B82E09C024FF9B
:101880000AC09F2F9660B92E06C028E030E005C040
:1018900020E130E002C020E132E0F801B7FE07C0ED
:1018A00060817181828193810C5F1F4F06C06081CE
:1018B000718180E090E00E5F1F4FA4010E948D0EA9
:1018C000A82EA818FB2DFF777F2E76FE0BC0372D94
:1018D0003E7FA51450F474FE0AC072FC08C0372D78
:1018E0003E7E05C0BA2C372D03C0BA2C01C0B52CE2
:1018F00034FF0DC0FE01EA0DF11D8081803311F42B
:10190000397E09C032FF06C0B394B39404C0832F5C
:10191000867809F0B39433FD13C030FF06C05A2C0B
:10192000B31418F4530C5B18B32CB31468F4B70158
:1019300080E290E03C870E94550EB3943C85F5CF41
:10194000B31410F43B1801C0312C34FF12C0B7019E
:1019500080E390E03C870E94550E3C8532FF17C023
:1019600031FD03C088E790E002C088E590E0B70150
:101970000CC0832F867859F031FF02C08BE201C082
:1019800080E237FD8DE2B70190E00E94550EA5146C
:1019900038F4B70180E390E00E94550E5A94F7CFD7
:1019A000AA94F401EA0DF11D8081B70190E00E9434
:1019B000550EA110F5CF332009F451CEB70180E2C6
:1019C00090E00E94550E3A94F6CFF70186819781F8
:1019D00002C08FEF9FEF2C96E2E10C94390F0F932A
:1019E0001F93CF93DF93869F8001879F100D969F53
:1019F000100D1124C8010E940B0DEC01009729F075
:101A0000A80160E070E00E94430ECE01DF91CF910B
:101A10001F910F910895CF93DF938230910510F4B9
:101A200082E090E0E0910403F091050320E030E0D3
:101A3000C0E0D0E0309711F140815181481759073B
:101A4000C0F04817590761F482819381209719F0FB
:101A50009B838A832BC0909305038093040326C045
:101A60002115310519F04217530718F49A01BE01E8
:101A7000DF01EF010280F381E02DDCCF211531057C
:101A800009F1281B390B2430310590F412968D9101
:101A90009C9113976115710521F0FB01938382835B
:101AA00004C09093050380930403FD01329644C063
:101AB000FD01E20FF31F81939193225031092D9381
:101AC0003C933AC02091020330910303232B41F44D
:101AD00020910A0130910B013093030320930203FC
:101AE00020910801309109012115310541F42DB7EC
:101AF0003EB740910C0150910D01241B350BE09134
:101B00000203F0910303E217F307A0F42E1B3F0B2F
:101B10002817390778F0AC014E5F5F4F241735075F
:101B200048F04E0F5F1F50930303409302038193CD
:101B3000919302C0E0E0F0E0CF01DF91CF910895F2
:101B40000F931F93CF93DF93009709F48CC0FC0190
:101B5000329713821282009104031091050301153C
:101B6000110581F420813181820F931F209102039E
:101B7000309103032817390779F5F0930303E093B5
:101B8000020371C0D80140E050E0AE17BF0750F427
:101B900012962D913C911397AD012115310509F154
:101BA000D901F3CF9D01DA013383228360817181F2
:101BB000860F971F8217930769F4EC0128813981FA
:101BC000260F371F2E5F3F4F318320838A819B81F1
:101BD00093838283452B29F4F0930503E093040358
:101BE00042C01396FC93EE931297ED0149915991DF
:101BF0009E01240F351FE217F30771F48081918154
:101C0000840F951F029611969C938E9382819381E7
:101C100013969C938E931297E0E0F0E0D801129611
:101C20008D919C911397009719F0F8018C01F6CFD4
:101C30008D919C9198012E5F3F4F820F931F2091B1
:101C40000203309103032817390769F4309729F408
:101C5000109205031092040302C0138212821093A3
:101C6000030300930203DF91CF911F910F91089519
:101C7000FC010590615070400110D8F78095909557
:101C80008E0F9F1F0895DC0101C06D93415050409D
:101C9000E0F70895FC016150704001900110D8F701
:101CA000809590958E0F9F1F08950F931F93CF934C
:101CB000DF93FB01238121FD03C08FEF9FEF28C03D
:101CC00022FF16C046815781248135814217530770
:101CD00044F4A081B1819D012F5F3F4F3183208368
:101CE0008C93268137812F5F3F4F3783268310C027
:101CF000EB01092F182F0084F185E02D0995892B20
:101D0000E1F68E819F8101969F838E83812F902F94
:101D1000DF91CF911F910F910895FA01AA272830E2
:101D200051F1203181F1E8946F936E7F6E5F7F4FA8
:101D30008F4F9F4FAF4FB1E03ED0B4E03CD0670F24
:101D4000781F891F9A1FA11D680F791F8A1F911D77
:101D5000A11D6A0F711D811D911DA11D20D009F4C7
:101D600068943F912AE0269F11243019305D319309
:101D7000DEF6CF010895462F4770405D4193B3E0F2
:101D80000FD0C9F7F6CF462F4F70405D4A3318F099
:101D9000495D31FD4052419302D0A9F7EACFB4E04A
:101DA000A6959795879577956795BA95C9F7009702
:101DB0006105710508959B01AC010A2E06945795A3
:101DC000479537952795BA95C9F7620F731F841FFA
:101DD000951FA01D0895052E97FB1EF400940E94E8
:101DE000020F57FD07D00E94540F07FC03D04EF49A
:101DF0000C94020F50954095309521953F4F4F4FD1
:101E00005F4F089590958095709561957F4F8F4FA6
:101E10009F4F08950E941B09A59F900DB49F900DA0
:101E2000A49F800D911D11240895B7FF0C940A0FF3
:101E30000E940A0F821B930B08952F923F924F929C
:101E40005F926F927F928F929F92AF92BF92CF924A
:101E5000DF92EF92FF920F931F93CF93DF93CDB753
:101E6000DEB7CA1BDB0B0FB6F894DEBF0FBECDBFCB
:101E700009942A88398848885F846E847D848C849C
:101E80009B84AA84B984C884DF80EE80FD800C81A5
:101E90001B81AA81B981CE0FD11D0FB6F894DEBF88
:101EA0000FBECDBFED010895A1E21A2EAA1BBB1BE8
:101EB000FD010DC0AA1FBB1FEE1FFF1FA217B30716
:101EC000E407F50720F0A21BB30BE40BF50B661F2C
:101ED000771F881F991F1A9469F7609570958095F0
:101EE00090959B01AC01BD01CF010895F894FFCFFF
:101EF0000012001001000000000006032000476FE0
:101F0000206261636B0047616D6500686967687393
:101F1000636F7265006F7074696F6E7300506C61EF
:101F2000792067616D65004869676873636F7265E2
:101F300073004F7074696F6E730054686973206921
:101F40007320746865206D61696E206D656E752003
:101F50003A290025640A0D005374617274696E6732
:101F6000205352414D20746573742E2E2E0A0D009D
:101F70005772697465207068617365206572726F4D
:101F8000723A206578745F72616D5B2534645D2000
:101F90003D2025303258202873686F756C642062AC
:101FA000652025303258290A0D0052657472696522
:101FB00076616C207068617365206572726F723A29
:101FC000206578745F72616D5B2534645D203D200F
:101FD00025303258202873686F756C642062652044
:101FE00025303258290A0D005352414D2074657333
:101FF0007420636F6D706C657465642077697468B4
:10200000200A0D253464206572726F727320696E28
:1020100020777269746520706861736520616E64F1
:10202000200A0D253464206572726F727320696E08
:102030002072657472696576616C20706861736581
:102040000A0A0D00416472657373653A20256420A5
:102050002C20646174613A202564200A0D006174AB
:1020600074656D7074656420746F2075706461743C
:102070006520627566666572206F75747369646544
:10208000206F662073637265656E2C20696D706CBD
:10209000656D656E7420777261702061726F756E08
:1020A000643F00617474656D7074656420746F20A2
:1020B0007570646174652062756666657220776903
:1020C000746820696E76616C6964206C696E652C39
:1020D00020696D706C656D656E742077726170201B
:0C20E00061726F756E643F002A200000E2
:00000001FF
