:100000000C9460030C947D030C947D030C947D038D
:100010000C947D030C947D030C947D030C947D0360
:100020000C947D030C947D030C947D030C947D0350
:100030000C947D030C947D030C947D030C947D0340
:100040000C947D030C947D030C947D030C947D0330
:100050000C947D030C947D030C947D030C947D0320
:100060000C947D030C947D030C947D030C947D0310
:1000700000000000005C00000C000C007C287C28C4
:1000800058DC68002410480028542840000C000068
:10009000007884008478000054385400107C1000EC
:1000A00080400000101010000040000060100C00A4
:1000B00038543800487C40004864580044542C00B0
:1000C0001C107C005C5424003854240064140C0080
:1000D00068542C0048543800004800008048000054
:1000E0001028440028282800442810000454080040
:1000F00038445C00781478007C5428003844280088
:100100007C4438007C5444007C140400384474005F
:100110007C107C00447C440020403C007C106C003F
:100120007C4040007C187C0078103C00384438004B
:100130007C1408003844B8007C146800485424003B
:10014000047C04007C407C003C603C007C307C00F3
:100150006C106C000C700C0064544C00007C44006B
:100160000C106000447C00000804080080808000BF
:1001700000040800304878007C48300030484800CF
:1001800030487C00306850001078140090A8780047
:100190007C08700050744000808074007C106800FF
:1001A000447C4000781078007808700030483000B7
:1001B000F82810003048F80078100800505828003F
:1001C000083C4800384078003840380078207800F3
:1001D0004830480098A0780048685800107884009B
:1001E000007C00008478100008040804000000006F
:1001F0000000005F00000007000700147F147F1458
:10020000242A7F2A1223130864623649552250009B
:1002100005030000001C2241000041221C00082AA6
:100220001C2A0808083E080800503000000808088A
:100230000808006060000020100804023E51494593
:100240003E00427F400042615149462141454B31C9
:100250001814127F1027454545393C4A4949300159
:10026000710905033649494936064949291E0036B0
:100270003600000056360000000814224114141401
:10028000141441221408000201510906324979412F
:100290003E7E1111117E7F494949363E414141223E
:1002A0007F4141221C7F494949417F090901013EA3
:1002B000414151327F0808087F00417F41002040C2
:1002C000413F017F081422417F404040407F0204AB
:1002D000027F7F0408107F3E4141413E7F090909AA
:1002E000063E4151215E7F09192946464949493157
:1002F00001017F01013F4040403F1F2040201F7F00
:100300002018207F631408146303047804036151E8
:1003100049454300007F4141020408102041417FCC
:100320000000040201020440404040400001020479
:100330000020545454787F4844443838444444207E
:10034000384444487F3854545418087E0901020840
:100350001454543C7F0804047800447D400020403D
:10036000443D00007F10284400417F40007C041879
:1003700004787C0804047838444444387C14141409
:1003800008081414187C7C080404084854545420A9
:10039000043F4440203C4040207C1C2040201C3C2A
:1003A0004030403C44281028440C5050503C446499
:1003B000544C44000836410000007F0000004136E4
:1003C000080002010302010000000000000000001C
:1003D000065F5F0600000000070700070700001423
:1003E0007F7F147F7F1400242E6B6B3A120000462F
:1003F0006630180C666200307A4F5D377A48000428
:1004000007030000000000001C3E634100000000E4
:1004100041633E1C000000082A3E1C1C3E2A0808BE
:10042000083E3E0808000000A0E060000000000850
:100430000808080808000000006060000000006074
:1004400030180C060301003E7F594D7F3E000042EC
:10045000427F7F40400000627359496F660000226E
:100460006349497F360000181C16137F7F10002750
:100470006745457D3900003C7E4B497930000003DB
:100480006371190F070000367F49497F3600000667
:100490004F49693F1E000000006C6C000000000026
:1004A000A0EC6C00000000081C3663410000001442
:1004B00014141414140000004163361C08000002D8
:1004C0000351590F0600003E7F415D5D1F1E007CF9
:1004D0007E13137E7C0000417F7F49497F36001CDC
:1004E0003E634141632200417F7F41637F1C0041A5
:1004F0007F7F495D416300417F7F491D0103001CEF
:100500003E6341517372007F7F08087F7F000000C7
:10051000417F7F41000000307040417F3F0100413A
:100520007F7F081C776300417F7F41406070007FC0
:100530007F060C067F7F007F7F060C187F7F001CE4
:100540003E6341633E1C00417F7F49090F06001E48
:100550003F21717F5E0000417F7F19396F46002681
:10056000674D597B32000003417F7F410300007FCC
:100570007F40407F7F00001F3F60603F1F00007F83
:100580007F3018307F7F0063771C081C776300077B
:100590004F78784F0700006773594D47637100002B
:1005A0007F7F41410000000103060C18306000000D
:1005B00041417F7F000000080C0603060C08008004
:1005C000808080808080800000030704000000207D
:1005D0007454543C784000413F7F44447C38003898
:1005E0007C44446C280000307848493F7F40003804
:1005F0007C54545C180000487E7F49030200009838
:10060000BCA4A4F87C0400417F7F08047C7800002F
:10061000447D7D4000000040C484FD7D0000004119
:100620007F7F10386C440000417F7F400000007CD9
:100630007C0C180C7C78007C7C04047C78000038EE
:100640007C44447C38000084FCF8A4243C18001846
:100650003C24A4F8FC8400447C78441C1800004826
:100660005C54547424000000043E7F442400003C89
:100670007C40403C7C40001C3C60603C1C00003CDA
:100680007C6030607C3C00446C3810386C44009CCA
:10069000BCA0A0FC7C00004C64745C4C64000008AE
:1006A000083E7741410000000000777700000041DC
:1006B00041773E0808000002030103020301000025
:1006C00011241FBECFEFD4E0DEBFCDBF12E0A0E00B
:1006D000B1E0EAE0FAE102C005900D92AE31B10757
:1006E000D9F722E0AEE1B2E001C01D92A832B20714
:1006F000E1F70E947F030C94030D0C940000CF934C
:10070000DF9380E885BF80E280BF0E94B2058FE161
:1007100090E00E94C2030E94EB05CEE0D1E0DF939F
:10072000CF930E948508DF93CF930E948508DF93C3
:10073000CF930E94850860E070E080E090E00E9426
:100740006F062FE986E891E0215080409040E1F764
:1007500000C000000F900F900F900F900F900F901F
:10076000C1E48C2F0E948806CF5FCB35D1F7DF9193
:10077000CF9108955D9BFECF8CB908955F9BFECF0E
:100780008CB1089590BD89B988E18AB98EE880BDA1
:100790006EEB73E08AEB93E00E943A08089580E8DC
:1007A00085BF85B71F928F9383E191E09F938F93CD
:1007B0000E9485080F900F900F900F900895CF9290
:1007C000DF92EF92FF920F931F93CF93DF9388E115
:1007D00091E09F938F930E9485080E942A087C01D4
:1007E0000E942F080F900F90C12CD12CC0E0D0E0B8
:1007F00000E311E00E942A08F601F85E8083208160
:100800002817A1F099279F938F931F922F93DF9220
:10081000CF921F930F930E94850821968DB79EB7A4
:1008200008960FB6F8949EBF0FBE8DBF9FEFC91AF2
:10083000D90AC11488E0D806E9F6C7010E942F083A
:1008400000E010E0E12CF12C0F2EFAE6CF2EF1E0C3
:10085000DF2EF02D0E942A08F801F85E208128176B
:10086000B1F099279F938F931F922F931F930F930C
:10087000DF92CF920E9485089FEFE91AF90A8DB79F
:100880009EB708960FB6F8949EBF0FBE8DBF0F5F40
:100890001F4F011598E01907E9F6FF92EF92DF93D9
:1008A000CF9388EA91E09F938F930E9485080F90E1
:1008B0000F900F900F900F900F90DF91CF911F919D
:1008C0000F91FF90EF90DF90CF9008958FEF84BB52
:1008D00015BA089500E014E10F2EF5E0FF2EF02D7B
:1008E000DF2C0F2EF4E1EF2EF02DC4E0D2E0F80162
:1008F000D08287E99AE30197F1F700C00000808178
:100900001F928F93EF92FF92DF93CF930E948508FF
:100910000F900F900F900F900F900F90E8CF0396CD
:10092000E0E0F4E1808387E99AE30197F1F700C002
:10093000000080810895CF92DF92EF92FF92CF93D3
:10094000C62F803891053CF1BC0160587109072E13
:10095000000C880B990B0E9452076B017C0180E808
:1009600090E08C1B9109C7FD9395BC01990F880BF2
:10097000990B0E94520720E030E048EC52E40E94BC
:10098000A8069B01AC01C701B6010E94A8060E94FF
:100990001A07862F25C0BC0160587109072E000C6C
:1009A000880B990B0E9452076B017C018C2FCC0F96
:1009B000990B80589F4FBC01990F880B990B0E948F
:1009C000520720E030E048EC52E40E94A8069B0168
:1009D000AC01C701B6010E94A8060E941A07862F23
:1009E000CF91FF90EF90DF90CF9008950F931F93DA
:1009F000CF93DF93192FE0E0F4E195E09083A7E92E
:100A0000BAE31197F1F700C00000208194E09083D1
:100A1000A7E9BAE31197F1F700C00000C081D0E068
:100A2000C11BD10917FDD39530E0682FA901481BE0
:100A3000510987FD5395CA010E949B04082F612F1D
:100A4000CE010E949B04282F602F000F770B822F6E
:100A5000220F990BDF91CF911F910F91089583E0A1
:100A600090E020E030E0E0E0F4E165E054E0608315
:100A7000A7E9BAE31197F1F700C000004081340FF5
:100A800030585083A7E9BAE31197F1F700C000008E
:100A90004081240F2058019751F796E53902812DA6
:100AA00011242902912D112437FD839527FD93955B
:100AB00008959B01FC016817790719F1AB017723B1
:100AC00024F444275527461B570BDC01FF2324F44D
:100AD000AA27BB27A81BB90BCA018A1B9B0B4396ED
:100AE000879790F02435310594F42D3A3F4F94F0D8
:100AF000E435F10594F4ED3AFF4F94F080E090E096
:100B0000089580E090E0089580E090E0089582E00C
:100B100090E0089581E090E0089583E090E00895EA
:100B200084E090E00895E0E0F4E186E0808387E9E6
:100B30009AE30197F1F700C00000308187E08083DD
:100B400087E99AE30197F1F700C000002081632F45
:100B500070E0822F90E00895E0910201F09103018E
:100B60008083089520E030E050E840E0E091020109
:100B7000F091030180EB820F8083852F942FE09109
:100B80000001F0910101E20FF31F10820197B9F704
:100B90002F5F3F4F2830310549F7089520E030E0BE
:100BA00060E850E04FEFE0910201F091030180EB2B
:100BB000820F8083862F952FE0910001F091010133
:100BC000E20FF31F40830197B9F72F5F3F4F2830A3
:100BD000310549F70895E0910201F09103018EEA91
:100BE0008083E0910201F091030181EA8083E0912A
:100BF0000201F09103018AED8083E0910201F091FE
:100C0000030182E18083E0910201F091030188EC0D
:100C10008083E0910201F091030188EA8083E091F2
:100C20000201F09103018FE38083E0910201F091D2
:100C3000030185ED8083E0910201F091030180E8DA
:100C40008083E0910201F091030181E88083E091CB
:100C50000201F091030180E58083E0910201F091AF
:100C6000030189ED8083E0910201F091030181E2AB
:100C70008083E0910201F091030180E28083E091A2
:100C80000201F091030182E08083E0910201F09182
:100C900003018BED8083E0910201F091030180E379
:100CA0008083E0910201F09103018DEA8083E0915D
:100CB0000201F09103011082E0910201F091030121
:100CC00084EA8083E0910201F091030186EA808347
:100CD000E0910201F09103018FEA80830895E09191
:100CE0000201F091030182EB8083E0910201F09117
:100CF000030183E08083E0910201F091030180E130
:100D000080830895E0910001F091010180830895AE
:100D10008032E8F0805290E0FC01EE0FFF1FEE0FF2
:100D2000FF1FEE0FFF1FE953FC4F880F991F880F1D
:100D3000991F880F991F81539C4F2491A091000106
:100D4000B09101012C933196E817F907B1F7089596
:100D50000E94BC060C94A4070E949D0758F00E94B4
:100D6000960740F029F45F3F29F00C948D0751114C
:100D70000C94D8070C9493070E94B50768F3992345
:100D8000B1F3552391F3951B550BBB27AA27621787
:100D90007307840738F09F5F5F4F220F331F441F94
:100DA000AA1FA9F335D00E2E3AF0E0E832D09150C8
:100DB0005040E695001CCAF72BD0FE2F29D0660FB5
:100DC000771F881FBB1F261737074807AB07B0E8F8
:100DD00009F0BB0B802DBF01FF2793585F4F3AF0FE
:100DE0009E3F510578F00C948D070C94D8075F3F17
:100DF000E4F3983ED4F3869577956795B795F79584
:100E00009F5FC9F7880F911D9695879597F908956B
:100E1000E1E0660F771F881FBB1F62177307840707
:100E2000BA0720F0621B730B840BBA0BEE1F88F716
:100E3000E09508950E9421076894B1110C94D80799
:100E400008950E94BD0788F09F5798F0B92F992701
:100E5000B751B0F0E1F0660F771F881F991F1AF0A5
:100E6000BA95C9F714C0B13091F00E94D707B1E02C
:100E700008950C94D707672F782F8827B85F39F02B
:100E8000B93FCCF3869577956795B395D9F73EF43E
:100E900090958095709561957F4F8F4F9F4F0895E6
:100EA000E89409C097FB3EF4909580957095619504
:100EB0007F4F8F4F9F4F9923A9F0F92F96E9BB27BA
:100EC0009395F695879577956795B795F111F8CF36
:100ED000FAF4BB0F11F460FF1BC06F5F7F4F8F4FA1
:100EE0009F4F16C0882311F096E911C0772321F097
:100EF0009EE8872F762F05C0662371F096E8862F2F
:100F000070E060E02AF09A95660F771F881FDAF785
:100F1000880F9695879597F9089597F99F6780E8C8
:100F200070E060E008959FEF80EC089500240A943B
:100F30001616170618060906089500240A941216B4
:100F40001306140605060895092E0394000C11F4E7
:100F5000882352F0BB0F40F4BF2B11F460FF04C094
:100F60006F5F7F4F8F4F9F4F089557FD9058440FED
:100F7000551F59F05F3F71F04795880F97FB991FF8
:100F800061F09F3F79F087950895121613061406B5
:100F9000551FF2CF4695F1DF08C016161706180642
:100FA000991FF1CF86957105610508940895E8941D
:100FB000BB2766277727CB0197F908958F929F92D9
:100FC000AF92BF92CF92DF92EF92FF92CF93DF93D7
:100FD000EC01688179818A819B81611571058105A8
:100FE000910521F464E279ED8BE597E02DE133EF93
:100FF00041E050E00E94690C49015A019B01AC019B
:10100000A7EAB1E40E94880C6B017C01ACEEB4EF5E
:10101000A50194010E94960CDC01CB018C0D9D1D55
:10102000AE1DBF1DB7FF03C00197A109B04888835B
:101030009983AA83BB839F77DF91CF91FF90EF9035
:10104000DF90CF90BF90AF909F908F9008950E94B7
:10105000DE07089584E091E00E94DE070895A0E095
:10106000B0E08093040190930501A0930601B09332
:10107000070108950F931F93CF93DF93009731F4E7
:101080006115710519F480E090E03AC08B01EC0124
:101090006EE070E081E090E00E946D0AFC01892B17
:1010A00091F380E883830115110571F0138702879E
:1010B00081E8838380911E0290911F02892B21F485
:1010C000F0931F02E0931E022097C9F0D187C087DA
:1010D0008381826083838091200290912102892BF9
:1010E00071F4F0932102E09320028091220290910A
:1010F0002302892B21F4F0932302E0932202CF01F3
:10110000DF91CF911F910F910895A0E0B0E0EBE83F
:10111000F8E00C94AB0CAE014B5F5F4FFA016191AC
:101120007191AF0180912002909121020E949B0851
:10113000E2E00C94C70CACE0B0E0E1EAF8E00C941B
:101140009B0C7C016B018A01FC0117821682838152
:1011500081FFBDC1CE0101964C01F7019381F601DB
:1011600093FD859193FF81916F01882309F4ABC1B1
:10117000853239F493FD859193FF81916F0185321A
:1011800029F4B70190E00E94D30BE7CF512C312C0A
:1011900020E02032A0F48B3269F030F4803259F034
:1011A000833269F420612CC08D3239F0803339F4F8
:1011B000216026C02260246023C0286021C027FD52
:1011C00027C030ED380F3A3078F426FF06C0FAE039
:1011D0005F9E300D1124532E13C08AE0389E300DCF
:1011E0001124332E20620CC08E3221F426FD6BC1F7
:1011F000206406C08C3611F4206802C0883641F4A1
:10120000F60193FD859193FF81916F018111C1CF0B
:10121000982F9F7D9554933028F40C5F1F4FFFE368
:10122000F9830DC0833631F0833771F0833509F0CF
:101230005BC022C0F801808189830E5F1F4F442468
:101240004394512C540115C03801F2E06F0E711C0B
:10125000F801A080B18026FF03C0652D70E002C0B8
:101260006FEF7FEFC5012C870E94C80B2C01830113
:101270002C852F77222E17C03801F2E06F0E711CDB
:10128000F801A080B18026FF03C0652D70E002C088
:101290006FEF7FEFC5012C870E94B60B2C012C85C8
:1012A0002068222E830123FC1BC0832D90E048166A
:1012B0005906B0F4B70180E290E00E94D30B3A9453
:1012C000F4CFF50127FC859127FE81915F01B701DD
:1012D00090E00E94D30B31103A94F1E04F1A51087C
:1012E0004114510471F7E5C0843611F0893639F59F
:1012F000F80127FF07C060817181828193810C5FB3
:101300001F4F08C060817181072E000C880B990B5C
:101310000E5F1F4F2F76722E97FF09C09095809514
:10132000709561957F4F8F4F9F4F2068722E2AE0F6
:1013300030E0A4010E940B0CA82EA81844C08537E9
:1013400029F42F7EB22E2AE030E025C0F22FF97F5B
:10135000BF2E8F36C1F018F4883579F0B4C08037CD
:1013600019F0883721F0AFC02F2F2061B22EB4FEC4
:101370000DC08B2D8460B82E09C024FF0AC09F2F9A
:101380009660B92E06C028E030E005C020E130E0CC
:1013900002C020E132E0F801B7FE07C06081718130
:1013A000828193810C5F1F4F06C06081718180E054
:1013B00090E00E5F1F4FA4010E940B0CA82EA818EE
:1013C000FB2DFF777F2E76FE0BC0372D3E7FA514B9
:1013D00050F474FE0AC072FC08C0372D3E7E05C072
:1013E000BA2C372D03C0BA2C01C0B52C34FF0DC068
:1013F000FE01EA0DF11D8081803311F4397E09C0B0
:1014000032FF06C0B394B39404C0832F867809F0EA
:10141000B39433FD13C030FF06C05A2CB31418F434
:10142000530C5B18B32CB31468F4B70180E290E05E
:101430003C870E94D30BB3943C85F5CFB31410F4D2
:101440003B1801C0312C34FF12C0B70180E390E09B
:101450003C870E94D30B3C8532FF17C031FD03C08F
:1014600088E790E002C088E590E0B7010CC0832FC8
:10147000867859F031FF02C08BE201C080E237FD6F
:101480008DE2B70190E00E94D30BA51438F4B701A8
:1014900080E390E00E94D30B5A94F7CFAA94F40112
:1014A000EA0DF11D8081B70190E00E94D30BA110DD
:1014B000F5CF332009F451CEB70180E290E00E94CD
:1014C000D30B3A94F6CFF7018681978102C08FEF54
:1014D0009FEF2C96E2E10C94B70C0F931F93CF93E0
:1014E000DF93869F8001879F100D969F100D11241A
:1014F000C8010E94890AEC01009729F0A80160E068
:1015000070E00E94C10BCE01DF91CF911F910F912E
:101510000895CF93DF938230910510F482E090E03C
:10152000E0912602F091270220E030E0C0E0D0E018
:10153000309711F14081518148175907C0F0481781
:10154000590761F482819381209719F09B838A83E4
:101550002BC0909327028093260226C021153105C7
:1015600019F04217530718F49A01BE01DF01EF0189
:101570000280F381E02DDCCF2115310509F1281B14
:10158000390B2430310590F412968D919C9113976C
:101590006115710521F0FB019383828304C0909350
:1015A000270280932602FD01329644C0FD01E20F1E
:1015B000F31F81939193225031092D933C933AC0AC
:1015C0002091240230912502232B41F420910A011D
:1015D00030910B01309325022093240220910801C1
:1015E000309109012115310541F42DB73EB74091E5
:1015F0000C0150910D01241B350BE0912402F09158
:101600002502E217F307A0F42E1B3F0B281739071A
:1016100078F0AC014E5F5F4F2417350748F04E0F4E
:101620005F1F50932502409324028193919302C03F
:10163000E0E0F0E0CF01DF91CF9108950F931F9389
:10164000CF93DF93009709F48CC0FC01329713828B
:10165000128200912602109127020115110581F4D2
:1016600020813181820F931F209124023091250225
:101670002817390779F5F0932502E093240271C009
:10168000D80140E050E0AE17BF0750F412962D91FC
:101690003C911397AD012115310509F1D901F3CF23
:1016A0009D01DA013383228360817181860F971F48
:1016B0008217930769F4EC0128813981260F371FBF
:1016C0002E5F3F4F318320838A819B819383828366
:1016D000452B29F4F0932702E093260242C013968B
:1016E000FC93EE931297ED01499159919E01240FBD
:1016F000351FE217F30771F480819181840F951FE4
:10170000029611969C938E938281938113969C935B
:101710008E931297E0E0F0E0D80112968D919C91A3
:101720001397009719F0F8018C01F6CF8D919C91D9
:1017300098012E5F3F4F820F931F2091240230911A
:1017400025022817390769F4309729F410922702E7
:101750001092260202C01382128210932502009377
:101760002402DF91CF911F910F910895FC01059004
:10177000615070400110D8F7809590958E0F9F1F93
:101780000895DC0101C06D9341505040E0F7089589
:10179000FC016150704001900110D8F78095909540
:1017A0008E0F9F1F08950F931F93CF93DF93FB011D
:1017B000238121FD03C08FEF9FEF28C022FF16C0B9
:1017C00046815781248135814217530744F4A08113
:1017D000B1819D012F5F3F4F318320838C93268100
:1017E00037812F5F3F4F3783268310C0EB01092FCE
:1017F000182F0084F185E02D0995892BE1F68E8163
:101800009F8101969F838E83812F902FDF91CF91AF
:101810001F910F910895FA01AA27283051F1203124
:1018200081F1E8946F936E7F6E5F7F4F8F4F9F4F74
:10183000AF4FB1E03ED0B4E03CD0670F781F891FB6
:101840009A1FA11D680F791F8A1F911DA11D6A0F84
:10185000711D811D911DA11D20D009F468943F9137
:101860002AE0269F11243019305D3193DEF6CF0136
:101870000895462F4770405D4193B3E00FD0C9F7FC
:10188000F6CF462F4F70405D4A3318F0495D31FD69
:101890004052419302D0A9F7EACFB4E0A6959795BC
:1018A000879577956795BA95C9F700976105710592
:1018B00008959B01AC010A2E0694579547953795DC
:1018C0002795BA95C9F7620F731F841F951FA01D36
:1018D0000895052E97FB1EF400940E94800C57FD7E
:1018E00007D00E94D20C07FC03D04EF40C94800C5D
:1018F00050954095309521953F4F4F4F5F4F08953C
:1019000090958095709561957F4F8F4F9F4F08956B
:101910000E94F40CA59F900DB49F900DA49F800D84
:10192000911D11240895B7FF0C94880C0E94880C17
:10193000821B930B08952F923F924F925F926F926A
:101940007F928F929F92AF92BF92CF92DF92EF924F
:10195000FF920F931F93CF93DF93CDB7DEB7CA1BD0
:10196000DB0B0FB6F894DEBF0FBECDBF09942A88FB
:10197000398848885F846E847D848C849B84AA84A3
:10198000B984C884DF80EE80FD800C811B81AA8130
:10199000B981CE0FD11D0FB6F894DEBF0FBECDBFFB
:1019A000ED010895A1E21A2EAA1BBB1BFD010DC07B
:1019B000AA1FBB1FEE1FFF1FA217B307E407F507FF
:1019C00020F0A21BB30BE40BF50B661F771F881FDB
:1019D000991F1A9469F760957095809590959B0171
:1019E000AC01BD01CF010895A29FB001B39FC0011A
:1019F000A39F700D811D1124911DB29F700D811D3B
:0A1A00001124911D0895F894FFCF02
:101A0A000012001001000000000028022000466AAF
:101A1A0061730025640A0D005374617274696E67FC
:101A2A00205352414D20746573742E2E2E0A0D00D8
:101A3A005772697465207068617365206572726F88
:101A4A00723A206578745F72616D5B2534645D203B
:101A5A003D2025303258202873686F756C642062E7
:101A6A00652025303258290A0D005265747269655D
:101A7A0076616C207068617365206572726F723A64
:101A8A00206578745F72616D5B2534645D203D204A
:101A9A0025303258202873686F756C64206265207F
:101AAA0025303258290A0D005352414D207465736E
:101ABA007420636F6D706C657465642077697468EF
:101ACA00200A0D253464206572726F727320696E64
:101ADA0020777269746520706861736520616E642D
:101AEA00200A0D253464206572726F727320696E44
:101AFA002072657472696576616C207068617365BD
:101B0A000A0A0D00416472657373653A20256420E0
:0E1B1A002C20646174613A202564200A0D00BD
:00000001FF
