:100000000C9474000C9495000C9495000C9495003D
:100010000C9495000C9495000C9495000C9495000C
:100020000C9495000C9495000C9495000C949500FC
:100030000C9495000C9495000C9495000C949500EC
:100040000C9495000C9495000C9495000C949500DC
:100050000C9495000C9495000C9495000C949500CC
:100060000C9495000C9495000C9495000C949500BC
:100070000C9495000C9495000C9495000C949500AC
:100080000C9495000C9495000C9495000C9495009C
:100090000C9495000C9495000C9495000C9495008C
:1000A0000C9495000C9495000C9495000C9495007C
:1000B0000C9495000C9495000C9495000C9495006C
:1000C0000C9495000C9495000C9495000C9495005C
:1000D0000C9495000C9495000C9495000C9495004C
:1000E0000C9495000C94BE0011241FBECFEFD1E2FA
:1000F000DEBFCDBF00E00CBF12E0A0E0B2E0E8EF51
:10010000FEE000E00BBF02C007900D92A838B107D7
:10011000D9F722E0A8E8B2E001C01D92A239B207E7
:10012000E1F70E9497000C947A070C94000087E690
:1001300090E00E94C6000E945B010E9471028FE362
:100140009CE90197F1F700C00000F7CF87E884B978
:1001500081E58CBD08958EBD0DB407FEFDCF83EC07
:1001600099E00197F1F700C00000089580E00E9437
:10017000AB000DB407FEFDCF8EB50895E0ECF0E0C6
:10018000908195FFFDCF8093C60008959093C500A0
:100190008093C40088E18093C1008EE08093C20008
:1001A00060E070E08EEB90E00E94F4020895E0ECD5
:1001B000F0E080818823ECF78091C60008952F98A5
:1001C00080EC0E94AB002F9A0895CF93C82F2F98F0
:1001D00083E00E94AB008C2F0E94AB000E94B6000F
:1001E0002F9ACF9108951F93CF93DF93182FEB0190
:1001F0002F9883E00E94AB00812F0E94AB000E94E9
:10020000B6002F9A8883DF91CF911F910895CF93E5
:10021000DF931F92CDB7DEB70E94A6000E94DF00D9
:10022000BE016F5F7F4F8EE00E94F3008981807E68
:10023000803831F086E092E00E94530381E001C0F3
:1002400080E00F90DF91CF9108952F988EE00E946B
:10025000E5002F9A08952F9881E80E94AB002F9A0D
:1002600008951F93CF93DF93182FD62FC42F2F9865
:1002700085E00E94AB00812F0E94AB008D2F0E9471
:10028000AB008C2F0E94AB002F9ADF91CF911F9172
:100290000895CF93DF93D82FC62F2F9882E00E9426
:1002A000AB008D2F0E94AB008C2F0E94AB002F9AC9
:1002B000DF91CF9108950E9407014FEF60E680E63D
:1002C0000E9431014FEF61E08BE20E94310140E07A
:1002D00060EE8FE00E9431010895CF92DF92EF929D
:1002E000FF920F931F93CF93DF93CDB7DEB72D9778
:1002F0000FB6F894DEBF0FBECDBF7C01FC0140817C
:100300004295440F407E60ED82E30E943101F70187
:1003100060817181769567957695679576956795F5
:1003200081E30E944901F70162856623B1F067010C
:10033000F2E0CF0ED11C00E010E0F60161916F01F8
:1003400086E3800F0E9449010F5F1F4FF70162850E
:10035000862F90E00817190784F385E30E9449016E
:10036000BE01645F7F4F82E30E94F300BE01635FC2
:100370007F4F81E30E94F3008D8590E0880F991FE5
:10038000880F991F880F991F2C8522952695277015
:10039000822B9A83898385E30E94E5008F708B8787
:1003A0008823B9F000E010E0B8016E5F7F4F81E074
:1003B00090E08C0F9D1F680F791F86E3800F0E94CD
:1003C000F3000F5F1F4F8B85282F30E002171307B4
:1003D0005CF349815A81F70120813181421753072B
:1003E00079F42B81928129130BC09285981308C050
:1003F0000E942B0187EA91E60197F1F700C0000007
:100400002D960FB6F894DEBF0FBECDBFDF91CF9112
:100410001F910F91FF90EF90DF90CF900895EF9292
:10042000FF920F931F93CF93DF93CDB7DEB72D9736
:100430000FB6F894DEBF0FBECDBF7C01BE01645F76
:100440007F4F82E60E94F300BE01635F7F4F81E62B
:100450000E94F3008D8590E0880F991F880F991FE7
:10046000880F991F2C85229526952770822B9A83B9
:10047000898385E60E94E5008F708B878823B1F021
:1004800000E010E0B8016E5F7F4F81E090E08C0FDC
:100490009D1F680F791F86E6800F0E94F3000F5F93
:1004A0001F4F2B8530E00217130764F340E061E033
:1004B0008CE20E9431018BE0FE013196D701019060
:1004C0000D928A95E1F7C7012D960FB6F894DEBF1D
:1004D0000FBECDBFDF91CF911F910F91FF90EF9095
:1004E00008959F92AF92BF92CF92DF92EF92FF92C8
:1004F0000F931F93CF93DF93CDB7DEB72B970FB634
:10050000F894DEBF0FBECDBF88E392E09F938F9338
:100510000E943F03CE0101960E940F0209811A81B9
:100520009B841F930F9382E492E09F938F930E948A
:100530003F030F900F900F900F900F900F9001308E
:10054000110559F5A92CB12C1A141B0434F56E01B0
:1005500023E0C20ED11C00E010E00F2EF4E5EF2ED8
:10056000F2E0FF2EF02DF60181916F011F930F93A2
:10057000282F082E000C330B3F938F93FF92EF929E
:100580000E943F030F5F1F4F0F900F900F900F902F
:100590000F900F900A151B0531F71F929F9281E76C
:1005A00092E09F938F930E943F03FFE72AE186E04A
:1005B000F15020408040E1F700C000000F900F9004
:1005C0000F900F902B960FB6F894DEBF0FBECDBFE5
:1005D000DF91CF911F910F91FF90EF90DF90CF901F
:1005E000BF90AF909F9008950F931F93CF93DF9389
:1005F000009731F46115710519F480E090E03AC07C
:100600008B01EC016EE070E081E090E00E947E05DD
:10061000FC01892B91F380E883830115110571F0AA
:100620001387028781E883838091880290918902F1
:10063000892B21F4F0938902E09388022097C9F076
:10064000D187C08783818260838380918A02909161
:100650008B02892B71F4F0938B02E0938A028091D4
:100660008C0290918D02892B21F4F0938D02E093FE
:100670008C02CF01DF91CF911F910F910895CF93FD
:10068000DF93CDB7DEB7AE014A5F5F4FFA016191EC
:100690007191AF0180918A0290918B020E94830335
:1006A000DF91CF9108950F931F93CF93DF93E09144
:1006B0008A02F0918B02238121FF1BC08C01D0E0C4
:1006C000C0E0F80181918F0160918A0270918B02E4
:1006D000DB011896ED91FC911997882331F019955B
:1006E000892B79F3DFEFCFEFECCF8AE01995892BD7
:1006F00019F08FEF9FEF02C08D2F9C2FDF91CF91CC
:100700001F910F9108952F923F924F925F926F9297
:100710007F928F929F92AF92BF92CF92DF92EF9291
:10072000FF920F931F93CF93DF93CDB7DEB72C9734
:100730000FB6F894DEBF0FBECDBF7C016B018A01FE
:10074000FC0117821682838181FFBDC1CE01019613
:100750004C01F7019381F60193FD859193FF8191FF
:100760006F01882309F4ABC1853239F493FD85917B
:1007700093FF81916F01853229F4B70190E00E94C7
:10078000E406E7CF512C312C20E02032A0F48B324C
:1007900069F030F4803259F0833269F420612CC062
:1007A0008D3239F0803339F4216026C02260246014
:1007B00023C0286021C027FD27C030ED380F3A3014
:1007C00078F426FF06C0FAE05F9E300D1124532E08
:1007D00013C08AE0389E300D1124332E20620CC0E5
:1007E0008E3221F426FD6BC1206406C08C3611F4D4
:1007F000206802C0883641F4F60193FD859193FF8D
:1008000081916F018111C1CF982F9F7D95549330B5
:1008100028F40C5F1F4FFFE3F9830DC0833631F0DE
:10082000833771F0833509F05BC022C0F801808105
:1008300089830E5F1F4F44244394512C540115C0EB
:100840003801F2E06F0E711CF801A080B18026FF24
:1008500003C0652D70E002C06FEF7FEFC5012C87EC
:100860000E94D9062C0183012C852F77222E17C0D8
:100870003801F2E06F0E711CF801A080B18026FFF4
:1008800003C0652D70E002C06FEF7FEFC5012C87BC
:100890000E94C7062C012C852068222E830123FC90
:1008A0001BC0832D90E048165906B0F4B70180E2D2
:1008B00090E00E94E4063A94F4CFF50127FC85917C
:1008C00027FE81915F01B70190E00E94E40631109C
:1008D0003A94F1E04F1A51084114510471F7E5C000
:1008E000843611F0893639F5F80127FF07C0608199
:1008F0007181828193810C5F1F4F08C0608171817B
:10090000072E000C880B990B0E5F1F4F2F76722E4F
:1009100097FF09C090958095709561957F4F8F4F97
:100920009F4F2068722E2AE030E0A4010E941C072D
:10093000A82EA81844C0853729F42F7EB22E2AE0AD
:1009400030E025C0F22FF97FBF2E8F36C1F018F4AA
:10095000883579F0B4C0803719F0883721F0AFC0FE
:100960002F2F2061B22EB4FE0DC08B2D8460B82EC7
:1009700009C024FF0AC09F2F9660B92E06C028E048
:1009800030E005C020E130E002C020E132E0F801B3
:10099000B7FE07C060817181828193810C5F1F4F18
:1009A00006C06081718180E090E00E5F1F4FA4015E
:1009B0000E941C07A82EA818FB2DFF777F2E76FE1D
:1009C0000BC0372D3E7FA51450F474FE0AC072FC94
:1009D00008C0372D3E7E05C0BA2C372D03C0BA2C77
:1009E00001C0B52C34FF0DC0FE01EA0DF11D808160
:1009F000803311F4397E09C032FF06C0B394B3943A
:100A000004C0832F867809F0B39433FD13C030FF00
:100A100006C05A2CB31418F4530C5B18B32CB3143F
:100A200068F4B70180E290E03C870E94E406B3944A
:100A30003C85F5CFB31410F43B1801C0312C34FFC2
:100A400012C0B70180E390E03C870E94E4063C8539
:100A500032FF17C031FD03C088E790E002C088E58F
:100A600090E0B7010CC0832F867859F031FF02C0A7
:100A70008BE201C080E237FD8DE2B70190E00E9479
:100A8000E406A51438F4B70180E390E00E94E40680
:100A90005A94F7CFAA94F401EA0DF11D8081B701B1
:100AA00090E00E94E406A110F5CF332009F451CE66
:100AB000B70180E290E00E94E4063A94F6CFF70195
:100AC0008681978102C08FEF9FEF2C960FB6F89426
:100AD000DEBF0FBECDBFDF91CF911F910F91FF9071
:100AE000EF90DF90CF90BF90AF909F908F907F90CE
:100AF0006F905F904F903F902F9008950F931F93AA
:100B0000CF93DF93869F8001879F100D969F100DD6
:100B10001124C8010E949A05EC01009729F0A80150
:100B200060E070E00E94D206CE01DF91CF911F916C
:100B30000F910895CF93DF938230910510F482E0F6
:100B400090E0E0919002F091910220E030E0C0E06E
:100B5000D0E0309711F14081518148175907C0F01A
:100B60004817590761F482819381209719F09B837C
:100B70008A832BC0909391028093900226C0211506
:100B8000310519F04217530718F49A01BE01DF012D
:100B9000EF010280F381E02DDCCF2115310509F151
:100BA000281B390B2430310590F412968D919C91BD
:100BB00013976115710521F0FB019383828304C0B3
:100BC0009093910280939002FD01329644C0FD0102
:100BD000E20FF31F81939193225031092D933C939F
:100BE0003AC020918E0230918F02232B41F4209144
:100BF00002023091030230938F0220938E022091E3
:100C00000002309101022115310541F42DB73EB7A4
:100C10004091040250910502241B350BE0918E0295
:100C2000F0918F02E217F307A0F42E1B3F0B281759
:100C3000390778F0AC014E5F5F4F2417350748F055
:100C40004E0F5F1F50938F0240938E0281939193BA
:100C500002C0E0E0F0E0CF01DF91CF9108950F9363
:100C60001F93CF93DF93009709F48CC0FC01329758
:100C700013821282009190021091910201151105C8
:100C800081F420813181820F931F20918E02309157
:100C90008F022817390779F5F0938F02E0938E02BF
:100CA00071C0D80140E050E0AE17BF0750F4129673
:100CB0002D913C911397AD012115310509F1D90111
:100CC000F3CF9D01DA013383228360817181860F26
:100CD000971F8217930769F4EC0128813981260F49
:100CE000371F2E5F3F4F318320838A819B819383FF
:100CF0008283452B29F4F0939102E093900242C045
:100D00001396FC93EE931297ED01499159919E0130
:100D1000240F351FE217F30771F480819181840F4E
:100D2000951F029611969C938E93828193811396C0
:100D30009C938E931297E0E0F0E0D80112968D918B
:100D40009C911397009719F0F8018C01F6CF8D91C3
:100D50009C9198012E5F3F4F820F931F20918E022E
:100D600030918F022817390769F4309729F41092CF
:100D700091021092900202C01382128210938F028D
:100D800000938E02DF91CF911F910F910895FC0186
:100D90000590615070400110D8F7809590958E0FA6
:100DA0009F1F0895DC0101C06D9341505040E0F752
:100DB0000895FC016150704001900110D8F78095B2
:100DC00090958E0F9F1F08950F931F93CF93DF93DE
:100DD000FB01238121FD03C08FEF9FEF28C022FF7D
:100DE00016C046815781248135814217530744F448
:100DF000A081B1819D012F5F3F4F318320838C9370
:100E0000268137812F5F3F4F3783268310C0EB0148
:100E1000092F182F0084F185E02D1995892BE1F613
:100E20008E819F8101969F838E83812F902FDF91EA
:100E3000CF911F910F910895FA01AA27283051F1FF
:100E4000203181F1E8946F936E7F6E5F7F4F8F4FFB
:100E50009F4FAF4FB1E03ED0B4E03CD0670F781F5A
:100E6000891F9A1FA11D680F791F8A1F911DA11D3F
:100E70006A0F711D811D911DA11D20D009F4689478
:100E80003F912AE0269F11243019305D3193DEF620
:100E9000CF010895462F4770405D4193B3E00FD0D6
:100EA000C9F7F6CF462F4F70405D4A3318F0495DC1
:100EB00031FD4052419302D0A9F7EACFB4E0A695A4
:100EC0009795879577956795BA95C9F700976105C6
:100ED000710508959B01AC010A2E0694579547951C
:100EE00037952795BA95C9F7620F731F841F951F11
:080EF000A01D0895F894FFCF46
:100EF8000000920220004D4350323531352069738D
:100F0800204E4F5420696E20636F6E666967757254
:100F18006174696F6E206D6F6465206166746572B7
:100F280020726573657421007465737443616E0A79
:100F38000D004D6573736167652049443A20256447
:100F4800200A0D004D6573736167652064617461E3
:100F58003A202564202C2069203D202564200A0D94
:100F6800004D657373616765206C656E67746820F2
:080F78003A202564200A0D0057
:00000001FF
