:100000000C94D3000C94F4000C94F4000C942F0383
:100010000C94F4000C94F4000C94F4000C94F40090
:100020000C94F4000C94F4000C94F4000C94F40080
:100030000C94F4000C94F4000C94F4000C94F40070
:100040000C94F4000C94F4000C94F4000C94F40060
:100050000C94F4000C94F4000C94F4000C94F40050
:100060000C94F4000C94F4000C94F4000C94F40040
:100070000C94F4000C94F4000C94F4000C94F40030
:100080000C948D050C94F4000C94F4000C94F40082
:100090000C94F4000C94F4000C94F4000C943D06C1
:1000A0000C94F4000C94F4000C94F4000C94F40000
:1000B0000C94F4000C94F4000C94F4000C94F400F0
:1000C0000C94F4000C94F4000C94F4000C94F400E0
:1000D0000C94F4000C94F4000C94F4000C94F400D0
:1000E0000C94F4005C06AE06AE06AE06AE06AE0696
:1000F000AE06AE065C06AE06AE06AE06AE06AE06B2
:10010000AE06AE065E06AE06AE06AE06AE06AE069F
:10011000AE06AE06AE06AE06AE06AE06AE06AE063F
:10012000AE06AE065E06AE06AE06AE06AE06AE067F
:10013000AE06AE06AE06AE06AE06AE06AE06AE061F
:10014000AE06AE06AA06AE06AE06AE06AE06AE0613
:10015000AE06AE068706AE06AE06AE06AE06AE0626
:10016000AE06AE06AE06AE06AE06AE06AE06AE06EF
:10017000AE06AE067B06AE06AE06AE06AE06AE0612
:10018000AE06AE0699060C945C060C94AA060C9476
:1001900045010C945E060C947B060C94AE060C9400
:1001A00099060C94870611241FBECFEFD1E2DEBF63
:1001B000CDBF00E00CBF12E0A0E0B2E0ECEEFEE14B
:1001C00000E00BBF02C007900D92AC3CB107D9F71D
:1001D00022E0ACECB2E001C01D92A53FB207E1F70E
:1001E0000E94F6000C94740F0C940000CF93DF93E0
:1001F000CDB7DEB72C970FB6F894DEBF0FBECDBFDC
:1002000087E690E00E944D010E947A070E94E20179
:100210000E94F4010E94DC030E94BA04CE01019600
:100220000E9453040E9472050E944A070E94C4065D
:100230002DEC3CEC4CEC5DE361E081E00E94A80712
:10024000CE0101960E94F7042C960FB6F894DEBFFB
:100250000FBECDBFDF91CF91089587E884B981E5C6
:100260008CBD08958EBD0DB407FEFDCF83EC99E0E3
:100270000197F1F700C00000089580E00E9432016C
:100280000DB407FEFDCF8EB50895E0ECF0E090814F
:1002900095FFFDCF8093C60008959093C50080938D
:1002A000C40088E18093C1008EE08093C20060E0CA
:1002B00070E085E491E00E94EE0A0895E0ECF0E041
:1002C00080818823ECF78091C60008952F9880ECF8
:1002D0000E9432012F9A0895CF93C82F2F9883E060
:1002E0000E9432018C2F0E9432010E943D012F9A00
:1002F000CF9108951F93CF93DF93182FEB012F9881
:1003000083E00E943201812F0E9432010E943D0150
:100310002F9A8883DF91CF911F910895CF93DF9318
:100320001F92CDB7DEB70E942D010E946601BE016B
:100330006F5F7F4F8EE00E947A018981807E8038D6
:1003400031F087E092E00E944D0B81E001C080E037
:100350000F90DF91CF9108952F988EE00E946C014D
:100360002F9A08952F9881E80E9432012F9A0895BC
:100370001F93CF93DF93182FD62FC42F2F9885E08C
:100380000E943201812F0E9432018D2F0E94320182
:100390008C2F0E9432012F9ADF91CF911F910895E7
:1003A000CF93DF93D82FC62F2F9882E00E9432017F
:1003B0008D2F0E9432018C2F0E9432012F9ADF91E3
:1003C000CF9108950E948E014FEF60E680E60E9473
:1003D000B8014FEF61E08BE20E94B80140E060EEAF
:1003E0008FE00E94B8010895F894EA9A78940895ED
:1003F000CF92DF92EF92FF920F931F93CF93DF93F1
:10040000CDB7DEB72D970FB6F894DEBF0FBECDBFC8
:100410007C01FC0140814295440F407E60ED82E307
:100420000E94B801F7016081718176956795769594
:1004300067957695679581E30E94D001F701628503
:100440006623B1F06701F2E0CF0ED11C00E010E0AE
:10045000F60161916F0186E3800F0E94D0010F5F6A
:100460001F4FF7016285862F90E00817190784F364
:1004700085E30E94D001BE01645F7F4F82E30E944A
:100480007A01BE01635F7F4F81E30E947A018D850F
:1004900090E0880F991F880F991F880F991F2C854E
:1004A000229526952770822B9A83898385E30E9463
:1004B0006C018F708B878823B9F000E010E0B801E1
:1004C0006E5F7F4F81E090E08C0F9D1F680F791F5A
:1004D00086E3800F0E947A010F5F1F4F8B85282FC4
:1004E00030E0021713075CF349815A81F70120813C
:1004F00031814217530791F42B81928129130EC049
:10050000928598130BC00E94B201FFEF21EE84E0A8
:10051000F15020408040E1F700C000002D960FB65A
:10052000F894DEBF0FBECDBFDF91CF911F910F9129
:10053000FF90EF90DF90CF900895EF92FF920F938E
:100540001F93CF93DF93CDB7DEB72D970FB6F894F7
:10055000DEBF0FBECDBF7C01BE01645F7F4F82E670
:100560000E947A01BE01635F7F4F81E60E947A019B
:100570008D8590E0880F991F880F991F880F991F0C
:100580002C85229526952770822B9A83898385E670
:100590000E946C018F708B878823B1F000E010E01F
:1005A000B8016E5F7F4F81E090E08C0F9D1F680F58
:1005B000791F86E6800F0E947A010F5F1F4F2B85FF
:1005C00030E00217130764F340E061E08CE20E9420
:1005D000B8018BE0FE013196D70101900D928A950A
:1005E000E1F7C7012D960FB6F894DEBF0FBECDBF61
:1005F000DF91CF911F910F91FF90EF900895EF92AF
:10060000FF920F931F93CF93DF93CDB7DEB72B9756
:100610000FB6F894DEBF0FBECDBFCE0101960E948B
:100620009D0289819A81019769F4E980FA800B81A2
:100630001C812D813E814F81588569857A858B8506
:100640000E9484072B960FB6F894DEBF0FBECDBF75
:10065000DF91CF911F910F91FF90EF9008951F921E
:100660000F920FB60F9211240BB60F922F933F9358
:100670004F935F936F937F938F939F93AF93BF93AA
:10068000EF93FF93F8940E94FF027894FF91EF910B
:10069000BF91AF919F918F917F916F915F914F919A
:1006A0003F912F910F900BBE0F900FBE0F901F9098
:1006B00018959F92AF92BF92CF92DF92EF92FF92E6
:1006C0000F931F93CF93DF93CDB7DEB72B970FB662
:1006D000F894DEBF0FBECDBF89E392E09F938F9366
:1006E0000E94390BCE0101960E949D0209811A8158
:1006F0009B841F930F9383E492E09F938F930E94B8
:10070000390B0F900F900F900F900F900F900130BA
:10071000110559F5A92CB12C1A141B0434F56E01DE
:1007200023E0C20ED11C00E010E00F2EF5E5EF2E05
:10073000F2E0FF2EF02DF60181916F011F930F93D0
:10074000282F082E000C330B3F938F93FF92EF92CC
:100750000E94390B0F5F1F4F0F900F900F900F905B
:100760000F900F900A151B0531F71F929F9282E799
:1007700092E09F938F930E94390BFFE72AE186E076
:10078000F15020408040E1F700C000000F900F9032
:100790000F900F902B960FB6F894DEBF0FBECDBF13
:1007A000DF91CF911F910F91FF90EF90DF90CF904D
:1007B000BF90AF909F900895259AE1E8F0E0808186
:1007C00088618083A0E8B0E08C9182688C938C91E2
:1007D0008E7B8C9380818460808380818C7F8083FA
:1007E000F89481EE94E090938700809386001092B5
:1007F000890010928800789480E80E94000408958F
:10080000682F70E080E090E00E94F5092BE237E865
:1008100046E95EE30E94810A20E030E04CE252E4C7
:100820000E94DF080E94C409F894709389006093C5
:10083000880078940895682F880F770B880B990BA0
:100840000E94F5092AE037ED43EA5FE30E94810A3E
:1008500020E030E040E053E40E94DF080E94C40939
:10086000862F0E9400040895CF93DF93C0E0D0E06C
:100870008C2F0E9400042FE38DE093E021508040F4
:100880009040E1F700C000002196C11521E0D20799
:1008900079F7DF91CF9108950E94A507FC0180812F
:1008A0000E941B040895FC01138685E082878CE278
:1008B00091E091838083938382839583848397835C
:1008C00086839187808708950F931F93CF93DF933B
:1008D000EC010B8510E00E94C304F801EE0FFF1F2E
:1008E000EC0FFD1F91838083C801019665E070E0E5
:1008F0000E94C2088B876A85A62FB0E01A161B06D5
:100900007CF4FE0120E030E080E090E041915191E4
:10091000840F951F2F5F3F4F2A173B07B9F702C07F
:1009200080E090E070E00E94AE08CB01DF91CF91B3
:100930001F910F910895CF93DF93EC010E946404FF
:100940008436910588F42A85222381F030E0FE0167
:1009500080E090E04CE251E0419351930196821780
:100960009307D0F381E003C080E001C081E0DF9114
:10097000CF910895809810927C0082E083BB80EE36
:1009800080937A00089580917A0084FF07C0809157
:1009900078002091790090E0922B089580E090E01B
:1009A00008950E94C3049F938F9389E892E09F93D8
:1009B0008F930E94390B0F900F900F900F90089516
:1009C000CF93DF93EC01CB010E949B04882361F05D
:1009D00088818F5F88832FE78AE196E021508040ED
:1009E0009040E1F700C00000DF91CF9108950F9390
:1009F0001F93CF93DF93CDB7DEB729970FB6F89447
:100A0000DEBF0FBECDBF8C0183E08C8319820E94B4
:100A1000CD059B838A831F821986188699818C81D4
:100A20009817D0F40E94A507FC0180810E941B0446
:100A30000E94F9070E94FD06BE01685F7F4FCE014C
:100A400007960E945207B801CE0101960E94E00469
:100A500029819C81291730F30E94CD0529960FB674
:100A6000F894DEBF0FBECDBFDF91CF911F910F91E4
:100A70000895CF93DF93CDB7DEB763970FB6F894A1
:100A8000DEBF0FBECDBFFC0182E090E09A83898378
:100A90009E01245F3F4F88E0D9011D928A95E9F7B6
:100AA00083818C8780818D8781818E8784818F87E8
:100AB000D901FE013396215031098D918193E217BE
:100AC000F307D9F784E08B87CE0101960E94F801E5
:100AD00063960FB6F894DEBF0FBECDBFDF91CF9106
:100AE00008950895F894E1E9F0E080818C608083B6
:100AF000E0E9F0E08081808384E39CE090939900BA
:100B000080939800E1E7F0E08081826080837894B0
:100B10001092D4021092D30208951F920F920FB632
:100B20000F9211240BB60F922F933F934F935F9325
:100B30006F937F938F939F93AF93BF93CF93DF93E5
:100B4000EF93FF938091D3029091D40201969093FA
:100B5000D4028093D3020E941307EC010E94A507E0
:100B6000FC018181662777276C1B7D0B0E94BA07E9
:100B7000FF91EF91DF91CF91BF91AF919F918F91B5
:100B80007F916F915F914F913F912F910F900BBE8D
:100B90000F900FBE0F901F9018958091D3029091E7
:100BA000D40208958CE08093B8008FEF8093BB004F
:100BB00084E08093BC0008958091BC00817008950A
:100BC000ECEBF0E0808180FDFDCF80910002089584
:100BD000CF93DF93EC01ECEBF0E0908190FDFDCF43
:100BE0006093CE0298819093CF0290FD13C0623043
:100BF00088F0FE013196A0EDB2E06250262F30E081
:100C00002E5F3F4FCE01820F931F21912D93E81746
:100C1000F907D9F71092CC0288EF8093000285EA99
:100C20008093BC00DF91CF910895ECEBF0E08081E0
:100C300080FDFDCF1092CC0288EF8093000285EA00
:100C40008093BC000895ECEBF0E0208120FDFDCF07
:100C50002091CC0220FF0DC0662359F02FEC32E02A
:100C6000A82FB92FF90181918D938E2F821B8617A2
:100C7000D0F38091CC02817008951F920F920FB62D
:100C80000F9211240BB60F922F933F938F939F9344
:100C9000AF93BF93EF93FF93E091B9008E2F90E055
:100CA000FC013897E135F10508F058C08827EE5867
:100CB000FF4F8F4F0C94D6081092CD02E091CD02D9
:100CC0008091CE02E81770F481E08E0F8093CD0200
:100CD000F0E0E153FD4F80818093BB0085E8809375
:100CE000BC0043C08091CC0281608093CC0284E937
:100CF0008093BC003AC0E091CD0281E08E0F8093DA
:100D0000CD028091BB00F0E0E153FD4F8083209144
:100D1000CD0230E08091CE0290E00197281739078C
:100D200024F485EC8093BC0020C085E88093BC004F
:100D30001CC08091BB00E091CD02F0E0E153FD4F7B
:100D400080838091CC0281608093CC0284E980937F
:100D5000BC000BC085EA8093BC0007C08091B9003D
:100D60008093000284E08093BC00FF91EF91BF91DB
:100D7000AF919F918F913F912F910F900BBE0F904C
:100D80000FBE0F901F9018950E94D205E1E0F1E090
:100D900080818A678083E2E0F1E0808180618083E6
:100DA0008081877F808380818064808308959923F8
:100DB00054F4E2E0F1E020812D7F208322273327C5
:100DC000281B390B06C0E2E0F1E02081226020837D
:100DD0009C012F3F310579F070F09F938F938AE942
:100DE00092E09F938F930E94390B0F900F900F907A
:100DF0000F902FEF30E0822F0895CF93DF9300D034
:100E0000CDB7DEB72EE529831A820E94D7068B83E1
:100E100063E0CE0101960E94E8050F900F900F90BD
:100E2000DF91CF910895CF93DF93F894109207014B
:100E3000E2E0F1E080818F7D80838081877F808305
:100E400087E893E10197F1F700C00000A6E0B1E068
:100E50008C9190E0982F8827208128602083C7E814
:100E6000D3E12197F1F700C000003C9120812F7B56
:100E70002083A7E8B3E11197F1F700C000002081BB
:100E8000206420832081206220837894832BDF914B
:100E9000CF910895819A899808950E94A507FC0131
:100EA000828108950F931F93CF93DF93EC018B0101
:100EB000888181110DC00E944D078823B1F00E94E6
:100EC000CD05F8019183808381E08883899A0DC0E4
:100ED0000E94CD05F80120813181821B930B06977A
:100EE00020F08998118210821882DF91CF911F9192
:100EF0000F910895E5EDF2E01082118212821382C3
:100F00001482158216820895EF92FF920F931F9319
:100F1000CF93DF93CDB7DEB72B970FB6F894DEBF34
:100F20000FBECDBFE5EDF2E0008311832170228377
:100F30002B960FB6F894DEBF0FBECDBFDF91CF91D9
:100F40001F910F91FF90EF90089585ED92E0089525
:100F5000ECEDF2E0848365832087318742875387F5
:100F600010821182128213821686158614861782C9
:100F700016820895CF93DF93282F880F330B261BFB
:100F8000370BCCEDD2E0488159816A817B81C90160
:100F9000032E000CAA0BBB0B840F951FA61FB71FB7
:100FA00088839983AA83BB834C814203C001439FFA
:100FB000900D11249E878D873F932F9383EB92E0B2
:100FC0009F938F930E94390B8D859E859F938F935E
:100FD0008FEB92E09F938F930E94390B8DB79EB752
:100FE00008960FB6F8949EBF0FBE8DBFDF91CF91CC
:100FF00008958091E9029091EA0208950F93ECED33
:10100000F2E0848365832087318742875387048792
:10101000178216821082118212821382168615861A
:101020000F9108954F925F926F927F928F929F924D
:10103000AF92BF92CF92DF92EF92FF921F93CF9326
:10104000DF93CCEDD2E02E813F81620F731F7F834F
:101050006E83EE80FF80682F880F770B880B990BCB
:101060000E94F5094B015C016E2DEE0C770B880B8D
:10107000990B0E94F50920E030E040E252E40E9422
:101080004B099B01AC01C501B4010E94DE080E941E
:10109000BD09C880D980EA80FB804B01072E000C77
:1010A000AA08BB08C80CD91CEA1CFB1CC882D98240
:1010B000EA82FB822C81488459846A847B841D8166
:1010C00088809980AA80BB80022E000C330B269F5B
:1010D000A001279F500D369F500D1124BA01550FC6
:1010E000880B990B0E94F5096B017C01612F110F90
:1010F000770B880B990B0E94F5099B01AC01C3018A
:10110000B2010E94810A2B013C01C501B4010E9479
:10111000F5099B01AC01C301B2010E94810A9B0148
:10112000AC01C701B6010E94DF080E94BD097E879D
:101130006D87DF91CF911F91FF90EF90DF90CF905F
:10114000BF90AF909F908F907F906F905F904F90E7
:1011500008958091E9029091EA020895AA1BBB1BB1
:1011600051E107C0AA1FBB1FA617B70710F0A61BA7
:10117000B70B881F991F5A95A9F780959095BC01C8
:10118000CD01089597FB072E16F4009407D077FD44
:1011900009D00E94AE0807FC05D03EF490958195D9
:1011A0009F4F0895709561957F4F0895EE0FFF1F33
:1011B000881F8BBF0790F691E02D19945058BB27DC
:1011C000AA270E94F6080C94470A0E94390A38F0B0
:1011D0000E94400A20F039F49F3F19F426F40C9441
:1011E000360A0EF4E095E7FB0C94300AE92F0E94D2
:1011F000580A58F3BA17620773078407950720F057
:1012000079F4A6F50C947A0A0EF4E0950B2EBA2F19
:10121000A02D0B01B90190010C01CA01A0011124FC
:10122000FF27591B99F0593F50F4503E68F11A16A8
:10123000F040A22F232F342F4427585FF3CF469539
:1012400037952795A795F0405395C9F77EF41F165B
:10125000BA0B620B730B840BBAF09150A1F0FF0F25
:10126000BB1F661F771F881FC2F70EC0BA0F621F11
:10127000731F841F48F4879577956795B795F79501
:101280009E3F08F0B0CF9395880F08F09927EE0F96
:101290009795879508950E945F090C94470A0E94CC
:1012A000400A58F00E94390A40F029F45F3F29F0C3
:1012B0000C94300A51110C947B0A0C94360A0E944B
:1012C000580A68F39923B1F3552391F3951B550BF5
:1012D000BB27AA2762177307840738F09F5F5F4F09
:1012E000220F331F441FAA1FA9F335D00E2E3AF048
:1012F000E0E832D091505040E695001CCAF72BD060
:10130000FE2F29D0660F771F881FBB1F26173707B0
:101310004807AB07B0E809F0BB0B802DBF01FF27E2
:1013200093585F4F3AF09E3F510578F00C94300A85
:101330000C947B0A5F3FE4F3983ED4F3869577954F
:101340006795B795F7959F5FC9F7880F911D96959B
:10135000879597F90895E1E0660F771F881FBB1FF7
:10136000621773078407BA0720F0621B730B840BA4
:10137000BA0BEE1F88F7E09508950E94C40968949F
:10138000B1110C947B0A08950E94600A88F09F575F
:1013900098F0B92F9927B751B0F0E1F0660F771F99
:1013A000881F991F1AF0BA95C9F714C0B13091F08F
:1013B0000E947A0AB1E008950C947A0A672F782F78
:1013C0008827B85F39F0B93FCCF386957795679554
:1013D000B395D9F73EF490958095709561957F4FC0
:1013E0008F4F9F4F0895E89409C097FB3EF4909566
:1013F0008095709561957F4F8F4F9F4F9923A9F0EE
:10140000F92F96E9BB279395F6958795779567957C
:10141000B795F111F8CFFAF4BB0F11F460FF1BC0C0
:101420006F5F7F4F8F4F9F4F16C0882311F096E953
:1014300011C0772321F09EE8872F762F05C0662301
:1014400071F096E8862F70E060E02AF09A95660FBA
:10145000771F881FDAF7880F9695879597F9089573
:1014600097F99F6780E870E060E008959FEF80EC57
:10147000089500240A9416161706180609060895FA
:1014800000240A9412161306140605060895092E60
:101490000394000C11F4882352F0BB0F40F4BF2BCF
:1014A00011F460FF04C06F5F7F4F8F4F9F4F08950F
:1014B00057FD9058440F551F59F05F3F71F0479505
:1014C000880F97FB991F61F09F3F79F087950895EA
:1014D000121613061406551FF2CF4695F1DF08C009
:1014E000161617061806991FF1CF86957105610526
:1014F00008940895E894BB2766277727CB0197F9CE
:1015000008950E94940A0C94470A0E94390A38F000
:101510000E94400A20F0952311F00C94300A0C949C
:10152000360A11240C947B0A0E94580A70F3959F86
:10153000C1F3950F50E0551F629FF001729FBB27CA
:10154000F00DB11D639FAA27F00DB11DAA1F649F66
:101550006627B00DA11D661F829F2227B00DA11D19
:10156000621F739FB00DA11D621F839FA00D611D9F
:10157000221F749F3327A00D611D231F849F600DC0
:10158000211D822F762F6A2F11249F5750409AF0E9
:10159000F1F088234AF0EE0FFF1FBB1F661F771F75
:1015A000881F91505040A9F79E3F510580F00C9440
:1015B000300A0C947B0A5F3FE4F3983ED4F386959F
:1015C00077956795B795F795E7959F5FC1F7FE2BE0
:1015D000880F911D9695879597F908950F931F93FE
:1015E000CF93DF93009731F46115710519F480E012
:1015F00090E03AC08B01EC016EE070E081E090E099
:101600000E94780DFC01892B91F380E883830115FA
:10161000110571F01387028781E883838091EB02C3
:101620009091EC02892B21F4F093EC02E093EB0211
:101630002097C9F0D187C08783818260838380919E
:10164000ED029091EE02892B71F4F093EE02E0939B
:10165000ED028091EF029091F002892B21F4F0933A
:10166000F002E093EF02CF01DF91CF911F910F9134
:101670000895CF93DF93CDB7DEB7AE014A5F5F4FDA
:10168000FA0161917191AF018091ED029091EE02AA
:101690000E947D0BDF91CF9108950F931F93CF93FD
:1016A000DF93E091ED02F091EE02238121FF1BC058
:1016B0008C01D0E0C0E0F80181918F016091ED02D2
:1016C0007091EE02DB011896ED91FC911997882339
:1016D00031F01995892B79F3DFEFCFEFECCF8AE06A
:1016E0001995892B19F08FEF9FEF02C08D2F9C2F3A
:1016F000DF91CF911F910F9108952F923F924F92BA
:101700005F926F927F928F929F92AF92BF92CF9291
:10171000DF92EF92FF920F931F93CF93DF93CDB79A
:10172000DEB72C970FB6F894DEBF0FBECDBF7C019D
:101730006B018A01FC0117821682838181FFBDC182
:10174000CE0101964C01F7019381F60193FD85913D
:1017500093FF81916F01882309F4ABC1853239F47D
:1017600093FD859193FF81916F01853229F4B70133
:1017700090E00E94DE0EE7CF512C312C20E0203289
:10178000A0F48B3269F030F4803259F0833269F47E
:1017900020612CC08D3239F0803339F4216026C0AD
:1017A0002260246023C0286021C027FD27C030EDBF
:1017B000380F3A3078F426FF06C0FAE05F9E300D0D
:1017C0001124532E13C08AE0389E300D1124332E7D
:1017D00020620CC08E3221F426FD6BC1206406C04D
:1017E0008C3611F4206802C0883641F4F60193FD6E
:1017F000859193FF81916F018111C1CF982F9F7DBA
:101800009554933028F40C5F1F4FFFE3F9830DC00C
:10181000833631F0833771F0833509F05BC022C025
:10182000F801808189830E5F1F4F44244394512C1B
:10183000540115C03801F2E06F0E711CF801A08050
:10184000B18026FF03C0652D70E002C06FEF7FEF0F
:10185000C5012C870E94D30E2C0183012C852F7784
:10186000222E17C03801F2E06F0E711CF801A08023
:10187000B18026FF03C0652D70E002C06FEF7FEFDF
:10188000C5012C870E94C10E2C012C852068222EB8
:10189000830123FC1BC0832D90E048165906B0F449
:1018A000B70180E290E00E94DE0E3A94F4CFF50199
:1018B00027FC859127FE81915F01B70190E00E948E
:1018C000DE0E31103A94F1E04F1A510841145104E0
:1018D00071F7E5C0843611F0893639F5F80127FF34
:1018E00007C060817181828193810C5F1F4F08C0A6
:1018F00060817181072E000C880B990B0E5F1F4FC2
:101900002F76722E97FF09C09095809570956195FE
:101910007F4F8F4F9F4F2068722E2AE030E0A40146
:101920000E94160FA82EA81844C0853729F42F7ED0
:10193000B22E2AE030E025C0F22FF97FBF2E8F367D
:10194000C1F018F4883579F0B4C0803719F08837C1
:1019500021F0AFC02F2F2061B22EB4FE0DC08B2D11
:101960008460B82E09C024FF0AC09F2F9660B92E4C
:1019700006C028E030E005C020E130E002C020E1F0
:1019800032E0F801B7FE07C06081718182819381E6
:101990000C5F1F4F06C06081718180E090E00E5F98
:1019A0001F4FA4010E94160FA82EA818FB2DFF7729
:1019B0007F2E76FE0BC0372D3E7FA51450F474FEAB
:1019C0000AC072FC08C0372D3E7E05C0BA2C372DE8
:1019D00003C0BA2C01C0B52C34FF0DC0FE01EA0DC6
:1019E000F11D8081803311F4397E09C032FF06C0B9
:1019F000B394B39404C0832F867809F0B39433FD75
:101A000013C030FF06C05A2CB31418F4530C5B18E3
:101A1000B32CB31468F4B70180E290E03C870E94D5
:101A2000DE0EB3943C85F5CFB31410F43B1801C01F
:101A3000312C34FF12C0B70180E390E03C870E9454
:101A4000DE0E3C8532FF17C031FD03C088E790E011
:101A500002C088E590E0B7010CC0832F867859F06A
:101A600031FF02C08BE201C080E237FD8DE2B70199
:101A700090E00E94DE0EA51438F4B70180E390E0F8
:101A80000E94DE0E5A94F7CFAA94F401EA0DF11DDC
:101A90008081B70190E00E94DE0EA110F5CF3320C7
:101AA00009F451CEB70180E290E00E94DE0E3A9434
:101AB000F6CFF7018681978102C08FEF9FEF2C96BA
:101AC0000FB6F894DEBF0FBECDBFDF91CF911F914F
:101AD0000F91FF90EF90DF90CF90BF90AF909F90CD
:101AE0008F907F906F905F904F903F902F900895D0
:101AF0000F931F93CF93DF93869F8001879F100DD5
:101B0000969F100D1124C8010E94940DEC010097BE
:101B100029F0A80160E070E00E94CC0ECE01DF91B8
:101B2000CF911F910F910895CF93DF93823091054C
:101B300010F482E090E0E091F302F091F40220E0F2
:101B400030E0C0E0D0E0309711F14081518148177A
:101B50005907C0F04817590761F482819381209793
:101B600019F09B838A832BC09093F4028093F30235
:101B700026C02115310519F04217530718F49A01B0
:101B8000BE01DF01EF010280F381E02DDCCF2115E2
:101B9000310509F1281B390B2430310590F41296D8
:101BA0008D919C9113976115710521F0FB01938331
:101BB000828304C09093F4028093F302FD01329675
:101BC00044C0FD01E20FF31F81939193225031092C
:101BD0002D933C933AC02091F1023091F202232BD5
:101BE00041F420910302309104023093F2022093D9
:101BF000F10220910102309102022115310541F4D8
:101C00002DB73EB74091050250910602241B350BBB
:101C1000E091F102F091F202E217F307A0F42E1B1B
:101C20003F0B2817390778F0AC014E5F5F4F241740
:101C3000350748F04E0F5F1F5093F2024093F102B8
:101C40008193919302C0E0E0F0E0CF01DF91CF916A
:101C500008950F931F93CF93DF93009709F48CC0DF
:101C6000FC013297138212820091F3021091F40268
:101C70000115110581F420813181820F931F20917C
:101C8000F1023091F2022817390779F5F093F20248
:101C9000E093F10271C0D80140E050E0AE17BF07F9
:101CA00050F412962D913C911397AD0121153105F9
:101CB00009F1D901F3CF9D01DA01338322836081D9
:101CC0007181860F971F8217930769F4EC012881B1
:101CD0003981260F371F2E5F3F4F318320838A8142
:101CE0009B8193838283452B29F4F093F402E09344
:101CF000F30242C01396FC93EE931297ED014991C3
:101D000059919E01240F351FE217F30771F480816A
:101D10009181840F951F029611969C938E938281D8
:101D2000938113969C938E931297E0E0F0E0D80194
:101D300012968D919C911397009719F0F8018C01E0
:101D4000F6CF8D919C9198012E5F3F4F820F931F8C
:101D50002091F1023091F2022817390769F4309787
:101D600029F41092F4021092F30202C0138212823C
:101D70001093F2020093F102DF91CF911F910F9126
:101D80000895FC010590615070400110D8F78095CE
:101D900090958E0F9F1F0895DC0101C06D934150F7
:101DA0005040E0F70895FC0161507040019001102F
:101DB000D8F7809590958E0F9F1F08950F931F93CE
:101DC000CF93DF93FB01238121FD03C08FEF9FEFB2
:101DD00028C022FF16C046815781248135814217D1
:101DE000530744F4A081B1819D012F5F3F4F3183A0
:101DF00020838C93268137812F5F3F4F3783268343
:101E000010C0EB01092F182F0084F185E02D1995E2
:101E1000892BE1F68E819F8101969F838E83812F8E
:101E2000902FDF91CF911F910F910895FA01AA276A
:101E3000283051F1203181F1E8946F936E7F6E5F0D
:101E40007F4F8F4F9F4FAF4FB1E03ED0B4E03CD0BB
:101E5000670F781F891F9A1FA11D680F791F8A1F9E
:101E6000911DA11D6A0F711D811D911DA11D20D005
:101E700009F468943F912AE0269F11243019305DBF
:101E80003193DEF6CF010895462F4770405D4193B0
:101E9000B3E00FD0C9F7F6CF462F4F70405D4A33FD
:101EA00018F0495D31FD4052419302D0A9F7EACFC5
:101EB000B4E0A6959795879577956795BA95C9F7F4
:101EC00000976105710508959B01AC010A2E0694E7
:101ED0005795479537952795BA95C9F7620F731FA0
:0C1EE000841F951FA01D0895F894FFCFEB
:101EEC00F80000F50220004D4350323531352069A1
:101EFC0073204E4F5420696E20636F6E6669677550
:101F0C00726174696F6E206D6F64652061667465B3
:101F1C007220726573657421007465737443616E0D
:101F2C000A0D004D6573736167652049443A20259D
:101F3C0064200A0D004D65737361676520646174DC
:101F4C00613A202564202C2069203D202564200A3C
:101F5C000D004D657373616765206C656E67746801
:101F6C00203A202564200A0D0041444320726573F9
:101F7C00756C743A2025750A0D007C706F7765724C
:101F8C007C203E2032353521212120703A202564D9
:101F9C000A0D006572726F723A2025640A0D00708A
:0C1FAC006F7765723A2025640A0D000072
:00000001FF
