:100000000C94D3000C94F4000C94F4000C942C0386
:100010000C94F4000C94F4000C94F4000C94F40090
:100020000C94F4000C94F4000C94F4000C94F40080
:100030000C94F4000C94F4000C94F4000C94F40070
:100040000C94F4000C94F4000C94F4000C94F40060
:100050000C94F4000C94F4000C94F4000C94F40050
:100060000C94F4000C94F4000C94F4000C94F40040
:100070000C94F4000C94F4000C94F4000C94F40030
:100080000C9490050C94F4000C94F4000C94F4007F
:100090000C94F4000C94F4000C94F4000C941706E7
:1000A0000C94F4000C94F4000C94F4000C94F40000
:1000B0000C94F4000C94F4000C94F4000C94F400F0
:1000C0000C94F4000C94F4000C94F4000C94F400E0
:1000D0000C94F4000C94F4000C94F4000C94F400D0
:1000E0000C94F4003606880688068806880688067A
:1000F00088068806360688068806880688068806E2
:1001000088068806380688068806880688068806CF
:10011000880688068806880688068806880688066F
:1001200088068806380688068806880688068806AF
:10013000880688068806880688068806880688064F
:100140008806880684068806880688068806880643
:100150008806880661068806880688068806880656
:10016000880688068806880688068806880688061F
:100170008806880655068806880688068806880642
:100180008806880673060C9436060C9484060C9434
:1001900042010C9438060C9455060C9488060C9475
:1001A00073060C94610611241FBECFEFD1E2DEBFAF
:1001B000CDBF00E00CBF12E0A0E0B2E0E6E5FDE15B
:1001C00000E00BBF02C007900D92AE39B107D9F71E
:1001D00022E0AEE9B2E001C01D92A83BB207E1F710
:1001E0000E94F6000C94A90E0C940000CF93DF93AC
:1001F000CDB7DEB764970FB6F894DEBF0FBECDBFA4
:1002000087E690E00E944A010E9427080E94DF01D1
:100210000E94F1010E9485030E946304CE010196B1
:100220000E94FC030E9475050E94E407CE010D9612
:100230000E949E06BE01635F7F4FCE0101960E9421
:10024000180564960FB6F894DEBF0FBECDBFDF91E0
:10025000CF91089587E884B981E58CBD08958EBD5E
:100260000DB407FEFDCF83EC99E00197F1F700C0D4
:100270000000089580E00E942F010DB407FEFDCF1D
:100280008EB50895E0ECF0E0908195FFFDCF80936E
:10029000C60008959093C5008093C40088E18093C0
:1002A000C1008EE08093C20060E070E082E491E0E3
:1002B0000E94230A0895E0ECF0E080818823ECF7A7
:1002C0008091C60008952F9880EC0E942F012F9AEC
:1002D0000895CF93C82F2F9883E00E942F018C2F71
:1002E0000E942F010E943A012F9ACF9108951F93E7
:1002F000CF93DF93182FEB012F9883E00E942F01FB
:10030000812F0E942F010E943A012F9A8883DF914A
:10031000CF911F910895CF93DF931F92CDB7DEB792
:100320000E942A010E946301BE016F5F7F4F8EE031
:100330000E9477018981807E803831F087E092E0E9
:100340000E94820A81E001C080E00F90DF91CF918E
:1003500008952F988EE00E9469012F9A08952F9892
:1003600081E80E942F012F9A08951F93CF93DF9366
:10037000182FD62FC42F2F9885E00E942F01812F90
:100380000E942F018D2F0E942F018C2F0E942F0180
:100390002F9ADF91CF911F910895CF93DF93D82F9C
:1003A000C62F2F9882E00E942F018D2F0E942F01CF
:1003B0008C2F0E942F012F9ADF91CF9108950E94D8
:1003C0008B014FEF60E680E60E94B5014FEF61E0E0
:1003D0008BE20E94B50140E060EE8FE00E94B50123
:1003E0000895F894EA9A78940895CF92DF92EF9264
:1003F000FF920F931F93CF93DF93CDB7DEB72D9767
:100400000FB6F894DEBF0FBECDBF7C01FC0140816A
:100410004295440F407E60ED82E30E94B501F701F2
:1004200060817181769567957695679576956795E4
:1004300081E30E94CD01F70162856623B1F0670177
:10044000F2E0CF0ED11C00E010E0F60161916F01E7
:1004500086E3800F0E94CD010F5F1F4FF701628579
:10046000862F90E00817190784F385E30E94CD01D9
:10047000BE01645F7F4F82E30E947701BE01635F2C
:100480007F4F81E30E9477018D8590E0880F991F4F
:10049000880F991F880F991F2C8522952695277004
:1004A000822B9A83898385E30E9469018F708B87F1
:1004B0008823B9F000E010E0B8016E5F7F4F81E063
:1004C00090E08C0F9D1F680F791F86E3800F0E94BC
:1004D00077010F5F1F4F8B85282F30E0021713071E
:1004E0005CF349815A81F70120813181421753071A
:1004F00091F42B81928129130EC0928598130BC021
:100500000E94AF01FFEF21EE84E0F15020408040D7
:10051000E1F700C000002D960FB6F894DEBF0FBEC5
:10052000CDBFDF91CF911F910F91FF90EF90DF90A2
:10053000CF900895EF92FF920F931F93CF93DF9385
:10054000CDB7DEB72D970FB6F894DEBF0FBECDBF87
:100550007C01BE01645F7F4F82E60E947701BE018D
:10056000635F7F4F81E60E9477018D8590E0880F61
:10057000991F880F991F880F991F2C852295269502
:100580002770822B9A83898385E60E9469018F7088
:100590008B878823B1F000E010E0B8016E5F7F4FD9
:1005A00081E090E08C0F9D1F680F791F86E6800F19
:1005B0000E9477010F5F1F4F2B8530E00217130752
:1005C00064F340E061E08CE20E94B5018BE0FE0143
:1005D0003196D70101900D928A95E1F7C7012D96CA
:1005E0000FB6F894DEBF0FBECDBFDF91CF911F9144
:1005F0000F91FF90EF900895EF92FF920F931F934A
:10060000CF93DF93CDB7DEB72B970FB6F894DEBF4D
:100610000FBECDBFCE0101960E949A0289819A81B8
:10062000019769F4E980FA800B811C812D813E815C
:100630004F81588569857A858B850E9431082B9674
:100640000FB6F894DEBF0FBECDBFDF91CF911F91E3
:100650000F91FF90EF9008951F920F920FB60F9297
:1006600011240BB60F922F933F934F935F936F9389
:100670007F938F939F93AF93BF93EF93FF93F894E0
:100680000E94FC027894FF91EF91BF91AF919F91EE
:100690008F917F916F915F914F913F912F910F902B
:1006A0000BBE0F900FBE0F901F901895CF93DF9346
:1006B000CDB7DEB72B970FB6F894DEBF0FBECDBF18
:1006C000CE0101960E949A022B8589819A81019719
:1006D00051F430E01216130634F480E090E00196F5
:1006E00082179307E1F72FE78AE196E021508040D7
:1006F0009040E1F700C000002B960FB6F894DEBFE3
:100700000FBECDBFDF91CF910895259AE1E8F0E0CB
:10071000808188618083A0E8B0E08C9182688C93AE
:100720008C918E7B8C9380818460808380818C7F90
:100730008083F89481EE94E0909387008093860004
:100740001092890010928800789480E80E94A90392
:100750000895682F70E080E090E00E942A092BE263
:1007600037E846E95EE30E94B60920E030E04CE25B
:1007700052E40E9486080E94F908F8947093890058
:100780006093880078940895682F880F770B880B02
:10079000990B0E942A092AE037ED43EA5FE30E94A1
:1007A000B60920E030E040E053E40E9486080E9451
:1007B000F908862F0E94A9030895CF93DF93C0E024
:1007C000D0E08C2F0E94A9032FE38DE093E021500D
:1007D00080409040E1F700C000002196C11521E063
:1007E000D20779F7DF91CF9108950E945208FC015A
:1007F00080810E94C4030895FC01138685E08287EE
:100800008CE291E0918380839383828395838483B8
:10081000978386839187808708950F931F93CF9343
:10082000DF93EC010B8510E00E947404F801EE0FD9
:10083000FF1FEC0FFD1F91838083C801019665E0C7
:1008400070E00E9469088B876A85A62FB0E01A16AF
:100850001B067CF4FE0120E030E080E090E0419156
:100860005191840F951F2F5F3F4F2A173B07B9F710
:1008700002C080E090E070E00E945508CB01DF915B
:10088000CF911F910F910895CF93DF93EC010E94B8
:100890000D048436910588F42A85222381F030E006
:1008A000FE0180E090E04CE251E0419351930196CB
:1008B00082179307D0F381E003C080E001C081E09C
:1008C000DF91CF910895809810927C00EBE7F0E0E3
:1008D00080818083EAE7F0E080EA808382E083BF62
:1008E000808180648083089580917A0084FF07C0AE
:1008F000809178002091790090E0922B089580E01B
:1009000090E008950E9474049F938F9389E392E08E
:100910009F938F930E946E0A0F900F900F900F90ED
:100920000895CF93DF93EC01CB010E944404882308
:1009300061F088818F5F88832FE78AE196E02150FC
:1009400080409040E1F700C0000088811F928F93A3
:100950008AE492E09F938F930E946E0A0F900F900B
:100960000F900F90DF91CF910895CF92DF92EF9289
:10097000FF920F931F93CF93DF93CDB7DEB76397AB
:100980000FB6F894DEBF0FBECDBF6C017B018A01AC
:10099000FA018081811109C00E94A705F7019183A6
:1009A000808381E0F801808334C00E94A705F701AD
:1009B00020813181821B930B0B9758F182E090E0EC
:1009C0009A838983DE011C9688E0FD0111928A9545
:1009D000E9F7F60181818C8780818D8783818E87FD
:1009E00084818F87FE0133969E01255F3F4F8D9155
:1009F0008193E217F307D9F784E08B87F894CE014F
:100A000001960E94F5017894F8011082F701118295
:100A1000108263960FB6F894DEBF0FBECDBFDF9194
:100A2000CF911F910F91FF90EF90DF90CF9008959D
:100A3000EF92FF920F931F93CF93DF93CDB7DEB763
:100A40002C970FB6F894DEBF0FBECDBF8C017B0193
:100A500083E08C8319820E94A7059B838A831F826F
:100A6000198618861B861A861C8699818C81981790
:100A700060F50E945208FC0180810E94C403C701F6
:100A80000E94CE06BE01685F7F4FCE0107960E948E
:100A9000EC07B801CE0101960E949104FFE32DE01E
:100AA00083E0F15020408040E1F700C00000AE013B
:100AB000445F5F4FBE01665F7F4FCE0101960E948B
:100AC000B50429819C812917A0F20E94A7052C96C4
:100AD0000FB6F894DEBF0FBECDBFDF91CF911F914F
:100AE0000F91FF90EF9008950895F894E1E9F0E0F8
:100AF00080818C608083E0E9F0E08081808384E302
:100B00009CE09093990080939800E1E7F0E0808169
:100B10008260808378941092A6021092A5020895B4
:100B20001F920F920FB60F9211248F939F93809173
:100B3000A5029091A60201969093A6028093A50229
:100B40009F918F910F900FBE0F901F9018958091DD
:100B5000A5029091A60208958CE08093B8008FEFD3
:100B60008093BB0084E08093BC0008958091BC001A
:100B700081700895ECEBF0E0808180FDFDCF8091E5
:100B800000020895CF93DF93EC01ECEBF0E090814D
:100B900090FDFDCF6093A00298819093A10290FDFB
:100BA00013C0623088F0FE013196A2EAB2E06250D2
:100BB000262F30E02E5F3F4FCE01820F931F2191F1
:100BC0002D93E817F907D9F710929E0288EF8093CA
:100BD000000285EA8093BC00DF91CF910895ECEB91
:100BE000F0E0808180FDFDCF10929E0288EF80931F
:100BF000000285EA8093BC000895ECEBF0E02081D0
:100C000020FDFDCF20919E0220FF0DC0662359F0EC
:100C100021EA32E0A82FB92FF90181918D938E2F0F
:100C2000821B8617D0F380919E02817008951F92D7
:100C30000F920FB60F9211240BB60F922F933F9382
:100C40008F939F93AF93BF93EF93FF93E091B9007E
:100C50008E2F90E0FC013897E135F10508F058C07F
:100C60008827EE58FF4F8F4F0C947D0810929F02FB
:100C7000E0919F028091A002E81770F481E08E0F4E
:100C800080939F02F0E0EF55FD4F80818093BB0081
:100C900085E88093BC0043C080919E028160809370
:100CA0009E0284E98093BC003AC0E0919F0281E0FB
:100CB0008E0F80939F028091BB00F0E0EF55FD4FB7
:100CC000808320919F0230E08091A00290E0019704
:100CD0002817390724F485EC8093BC0020C085E8F0
:100CE0008093BC001CC08091BB00E0919F02F0E0AB
:100CF000EF55FD4F808380919E02816080939E021C
:100D000084E98093BC000BC085EA8093BC0007C0D7
:100D10008091B9008093000284E08093BC00FF9131
:100D2000EF91BF91AF919F918F913F912F910F9034
:100D30000BBE0F900FBE0F901F901895CF93DF93AF
:100D4000EC010E94AC05E1E0F1E080818A678083DC
:100D5000E2E0F1E09081906190839081977F9083B1
:100D6000908190649083AE0161E081E00E941D0754
:100D7000DF91CF91089588233CF4E2E0F1E0908187
:100D80009D7F908381950895181634F4E2E0F1E098
:100D9000908192609083089580E00895CF93DF93CF
:100DA00000D0CDB7DEB70E9427079EE599831A824F
:100DB0000E94BB068B8363E0CE0101960E94C205B0
:100DC0000F900F900F90DF91CF910895CF93DF9305
:100DD000F89410920701E2E0F1E080818F7D80833A
:100DE0008081877F808387E893E10197F1F700C0D6
:100DF0000000A6E0B1E08C9190E0982F8827208138
:100E000028602083C7E8D3E12197F1F700C00000F4
:100E10003C9120812F7B2083A7E8B3E11197F1F764
:100E200000C0000020812064208320812062208374
:100E30007894832BDF91CF910895FA01108211826B
:100E400012821382848365831782168208954F92DB
:100E50005F926F927F928F929F92AF92BF92CF924A
:100E6000DF92EF92FF920F931F93CF93DF93EC01EA
:100E70000E945208FC01008111810E94E606E12FC8
:100E8000110FFF0B2E813F81A901481B590BCA018D
:100E90005F834E830F2EF8E2EF2EF12CF02DB70179
:100EA0000E9469088F01061B170BFF93EF938AE5D9
:100EB00092E09F938F930E946E0A8E819F81B7016B
:100EC0000E9469087F936F938BE692E09F938F93C4
:100ED0000E946E0A1F930F938AE792E09F938F936D
:100EE0000E946E0A8C81282F082E000C330B3F9332
:100EF0008F9386E892E09F938F930E946E0A680119
:100F0000012E000CEE08FF0888819981AA81BB811F
:100F1000C80ED91EEA1EFB1EC882D982EA82FB8255
:100F20002C812003B001219F700D1124072E000C8D
:100F3000880B990B0E942A094B015C018D81682F57
:100F4000880F770B880B990B0E942A092DEC3CEC3B
:100F50004CEC5DE30E94B6092B013C01C701B601D0
:100F60000E942A099B01AC01C301B2010E94B6098B
:100F70009B01AC01C501B4010E9486080E94F208E1
:100F8000CB01EDB7FEB770960FB6F894FEBF0FBE5B
:100F9000EDBF61387F4F14F481E89FEF80389105F1
:100FA00014F08FE790E0DF91CF911F910F91FF90A8
:100FB000EF90DF90CF90BF90AF909F908F907F90F9
:100FC0006F905F904F900895819A899808950E943C
:100FD0005208FC01828108950F931F93CF93DF93F2
:100FE000EC018B01888181110DC00E94E7078823E5
:100FF00049F10E94A705F8019183808381E08883ED
:10100000899A20C00E94A705F80120813181821BA6
:10101000930B9F938F938EE892E09F938F930E9400
:101020006E0A0E94A705F80120813181821B930B73
:101030000F900F900F900F90069720F089981182D3
:1010400010821882DF91CF911F910F910895E7EAE6
:10105000F2E01082118212821382148215821682AB
:101060000895EF92FF920F931F93CF93DF93CDB725
:10107000DEB72B970FB6F894DEBF0FBECDBFE7EA01
:10108000F2E000831183217022832B960FB6F8942F
:10109000DEBF0FBECDBFDF91CF911F910F91FF90AB
:1010A000EF90089587EA92E00895AA1BBB1B51E1D7
:1010B00007C0AA1FBB1FA617B70710F0A61BB70BC8
:1010C000881F991F5A95A9F780959095BC01CD016D
:1010D000089597FB072E16F4009407D077FD09D0EA
:1010E0000E94550807FC05D03EF4909581959F4FCE
:1010F0000895709561957F4F0895EE0FFF1F881F2B
:101100008BBF0790F691E02D19945058BB27AA2762
:101110000E949D080C947C090E946E0938F00E9480
:10112000750920F039F49F3F19F426F40C946B09EB
:101130000EF4E095E7FB0C946509E92F0E948D09F8
:1011400058F3BA17620773078407950720F079F4FC
:10115000A6F50C94AF090EF4E0950B2EBA2FA02D36
:101160000B01B90190010C01CA01A0011124FF2754
:10117000591B99F0593F50F4503E68F11A16F0404F
:10118000A22F232F342F4427585FF3CF469537954E
:101190002795A795F0405395C9F77EF41F16BA0B13
:1011A000620B730B840BBAF09150A1F0FF0FBB1FC1
:1011B000661F771F881FC2F70EC0BA0F621F731F0A
:1011C000841F48F4879577956795B795F7959E3F67
:1011D00008F0B0CF9395880F08F09927EE0F9795F8
:1011E000879508950E94F9086894B1110C94B0098C
:1011F00008950E94950988F09F5798F0B92F992774
:10120000B751B0F0E1F0660F771F881F991F1AF0F1
:10121000BA95C9F714C0B13091F00E94AF09B1E09E
:1012200008950C94AF09672F782F8827B85F39F09D
:10123000B93FCCF3869577956795B395D9F73EF48A
:1012400090958095709561957F4F8F4F9F4F089532
:10125000E89409C097FB3EF4909580957095619550
:101260007F4F8F4F9F4F9923A9F0F92F96E9BB2706
:101270009395F695879577956795B795F111F8CF82
:10128000FAF4BB0F11F460FF1BC06F5F7F4F8F4FED
:101290009F4F16C0882311F096E911C0772321F0E3
:1012A0009EE8872F762F05C0662371F096E8862F7B
:1012B00070E060E02AF09A95660F771F881FDAF7D2
:1012C000880F9695879597F9089597F99F6780E815
:1012D00070E060E008959FEF80EC089500240A9488
:1012E0001616170618060906089500240A94121601
:1012F0001306140605060895092E0394000C11F434
:10130000882352F0BB0F40F4BF2B11F460FF04C0E0
:101310006F5F7F4F8F4F9F4F089557FD9058440F39
:10132000551F59F05F3F71F04795880F97FB991F44
:1013300061F09F3F79F08795089512161306140601
:10134000551FF2CF4695F1DF08C01616170618068E
:10135000991FF1CF86957105610508940895E89469
:10136000BB2766277727CB0197F908950E94C90903
:101370000C947C090E946E0938F00E94750920F0D7
:10138000952311F00C9465090C946B0911240C94AD
:10139000B0090E948D0970F3959FC1F3950F50E03D
:1013A000551F629FF001729FBB27F00DB11D639F17
:1013B000AA27F00DB11DAA1F649F6627B00DA11DBD
:1013C000661F829F2227B00DA11D621F739FB00D63
:1013D000A11D621F839FA00D611D221F749F3327D3
:1013E000A00D611D231F849F600D211D822F762F6C
:1013F0006A2F11249F5750409AF0F1F088234AF049
:10140000EE0FFF1FBB1F661F771F881F91505040B4
:10141000A9F79E3F510580F00C9465090C94B00922
:101420005F3FE4F3983ED4F3869577956795B7953B
:10143000F795E7959F5FC1F7FE2B880F911D969555
:10144000879597F908950F931F93CF93DF93009794
:1014500031F46115710519F480E090E03AC08B0118
:10146000EC016EE070E081E090E00E94AD0CFC01C8
:10147000892B91F380E883830115110571F013879F
:10148000028781E883838091AE029091AF02892B1D
:1014900021F4F093AF02E093AE022097C9F0D18718
:1014A000C0878381826083838091B0029091B10272
:1014B000892B71F4F093B102E093B0028091B202F3
:1014C0009091B302892B21F4F093B302E093B2021E
:1014D000CF01DF91CF911F910F910895CF93DF93AB
:1014E000CDB7DEB7AE014A5F5F4FFA0161917191EE
:1014F000AF018091B0029091B1020E94B20ADF91D7
:10150000CF9108950F931F93CF93DF93E091B00293
:10151000F091B102238121FF1BC08C01D0E0C0E01B
:10152000F80181918F016091B0027091B102DB01ED
:101530001896ED91FC911997882331F01995892B14
:1015400079F3DFEFCFEFECCF8AE01995892B19F013
:101550008FEF9FEF02C08D2F9C2FDF91CF911F91B6
:101560000F9108952F923F924F925F926F927F92C8
:101570008F929F92AF92BF92CF92DF92EF92FF92A3
:101580000F931F93CF93DF93CDB7DEB72C970FB692
:10159000F894DEBF0FBECDBF7C016B018A01FC0158
:1015A00017821682838181FFBDC1CE0101964C0155
:1015B000F7019381F60193FD859193FF81916F016E
:1015C000882309F4ABC1853239F493FD859193FFEB
:1015D00081916F01853229F4B70190E00E94130ECA
:1015E000E7CF512C312C20E02032A0F48B3269F06F
:1015F00030F4803259F0833269F420612CC08D328E
:1016000039F0803339F4216026C02260246023C081
:10161000286021C027FD27C030ED380F3A3078F41C
:1016200026FF06C0FAE05F9E300D1124532E13C032
:101630008AE0389E300D1124332E20620CC08E3289
:1016400021F426FD6BC1206406C08C3611F420689D
:1016500002C0883641F4F60193FD859193FF819194
:101660006F018111C1CF982F9F7D9554933028F43D
:101670000C5F1F4FFFE3F9830DC0833631F08337D2
:1016800071F0833509F05BC022C0F8018081898345
:101690000E5F1F4F44244394512C540115C0380150
:1016A000F2E06F0E711CF801A080B18026FF03C02C
:1016B000652D70E002C06FEF7FEFC5012C870E949F
:1016C000080E2C0183012C852F77222E17C038019C
:1016D000F2E06F0E711CF801A080B18026FF03C0FC
:1016E000652D70E002C06FEF7FEFC5012C870E946F
:1016F000F60D2C012C852068222E830123FC1BC0B3
:10170000832D90E048165906B0F4B70180E290E0CE
:101710000E94130E3A94F4CFF50127FC859127FE21
:1017200081915F01B70190E00E94130E31103A944D
:10173000F1E04F1A51084114510471F7E5C08436A5
:1017400011F0893639F5F80127FF07C060817181F2
:10175000828193810C5F1F4F08C060817181072EC9
:10176000000C880B990B0E5F1F4F2F76722E97FF80
:1017700009C090958095709561957F4F8F4F9F4FD1
:101780002068722E2AE030E0A4010E944B0EA82EA1
:10179000A81844C0853729F42F7EB22E2AE030E005
:1017A00025C0F22FF97FBF2E8F36C1F018F488358F
:1017B00079F0B4C0803719F0883721F0AFC02F2FEF
:1017C0002061B22EB4FE0DC08B2D8460B82E09C0EE
:1017D00024FF0AC09F2F9660B92E06C028E030E093
:1017E00005C020E130E002C020E132E0F801B7FEA0
:1017F00007C060817181828193810C5F1F4F06C099
:101800006081718180E090E00E5F1F4FA4010E9413
:101810004B0EA82EA818FB2DFF777F2E76FE0BC04F
:10182000372D3E7FA51450F474FE0AC072FC08C028
:10183000372D3E7E05C0BA2C372D03C0BA2C01C00F
:10184000B52C34FF0DC0FE01EA0DF11D80818033FF
:1018500011F4397E09C032FF06C0B394B39404C0BA
:10186000832F867809F0B39433FD13C030FF06C090
:101870005A2CB31418F4530C5B18B32CB31468F43B
:10188000B70180E290E03C870E94130EB3943C8540
:10189000F5CFB31410F43B1801C0312C34FF12C043
:1018A000B70180E390E03C870E94130E3C8532FF35
:1018B00017C031FD03C088E790E002C088E590E0E2
:1018C000B7010CC0832F867859F031FF02C08BE23C
:1018D00001C080E237FD8DE2B70190E00E94130E57
:1018E000A51438F4B70180E390E00E94130E5A94D7
:1018F000F7CFAA94F401EA0DF11D8081B70190E0C1
:101900000E94130EA110F5CF332009F451CEB70178
:1019100080E290E00E94130E3A94F6CFF7018681A0
:10192000978102C08FEF9FEF2C960FB6F894DEBF21
:101930000FBECDBFDF91CF911F910F91FF90EF9020
:10194000DF90CF90BF90AF909F908F907F906F90DF
:101950005F904F903F902F9008950F931F93CF93D8
:10196000DF93869F8001879F100D969F100D112495
:10197000C8010E94C90CEC01009729F0A80160E0A1
:1019800070E00E94010ECE01DF91CF911F910F9167
:101990000895CF93DF938230910510F482E090E0B8
:1019A000E091B602F091B70220E030E0C0E0D0E074
:1019B000309711F14081518148175907C0F04817FD
:1019C000590761F482819381209719F09B838A8360
:1019D0002BC09093B7028093B60226C02115310523
:1019E00019F04217530718F49A01BE01DF01EF0105
:1019F0000280F381E02DDCCF2115310509F1281B90
:101A0000390B2430310590F412968D919C911397E7
:101A10006115710521F0FB019383828304C09093CB
:101A2000B7028093B602FD01329644C0FD01E20F79
:101A3000F31F81939193225031092D933C933AC027
:101A40002091B4023091B502232B41F4209103027E
:101A5000309104023093B5022093B4022091010228
:101A6000309102022115310541F42DB73EB7409166
:101A7000050250910602241B350BE091B402F0914F
:101A8000B502E217F307A0F42E1B3F0B2817390706
:101A900078F0AC014E5F5F4F2417350748F04E0FCA
:101AA0005F1F5093B5024093B4028193919302C09B
:101AB000E0E0F0E0CF01DF91CF9108950F931F9305
:101AC000CF93DF93009709F48CC0FC013297138207
:101AD00012820091B6021091B7020115110581F42E
:101AE00020813181820F931F2091B4023091B50281
:101AF0002817390779F5F093B502E093B40271C065
:101B0000D80140E050E0AE17BF0750F412962D9177
:101B10003C911397AD012115310509F1D901F3CF9E
:101B20009D01DA013383228360817181860F971FC3
:101B30008217930769F4EC0128813981260F371F3A
:101B40002E5F3F4F318320838A819B8193838283E1
:101B5000452B29F4F093B702E093B60242C01396E6
:101B6000FC93EE931297ED01499159919E01240F38
:101B7000351FE217F30771F480819181840F951F5F
:101B8000029611969C938E938281938113969C93D7
:101B90008E931297E0E0F0E0D80112968D919C911F
:101BA0001397009719F0F8018C01F6CF8D919C9155
:101BB00098012E5F3F4F820F931F2091B402309106
:101BC000B5022817390769F4309729F41092B70243
:101BD0001092B60202C0138212821093B5020093D3
:101BE000B402DF91CF911F910F910895FC010590F0
:101BF000615070400110D8F7809590958E0F9F1F0F
:101C00000895DC0101C06D9341505040E0F7089504
:101C1000FC016150704001900110D8F780959095BB
:101C20008E0F9F1F08950F931F93CF93DF93FB0198
:101C3000238121FD03C08FEF9FEF28C022FF16C034
:101C400046815781248135814217530744F4A0818E
:101C5000B1819D012F5F3F4F318320838C9326817B
:101C600037812F5F3F4F3783268310C0EB01092F49
:101C7000182F0084F185E02D1995892BE1F68E81CE
:101C80009F8101969F838E83812F902FDF91CF912B
:101C90001F910F910895FA01AA27283051F12031A0
:101CA00081F1E8946F936E7F6E5F7F4F8F4F9F4FF0
:101CB000AF4FB1E03ED0B4E03CD0670F781F891F32
:101CC0009A1FA11D680F791F8A1F911DA11D6A0F00
:101CD000711D811D911DA11D20D009F468943F91B3
:101CE0002AE0269F11243019305D3193DEF6CF01B2
:101CF0000895462F4770405D4193B3E00FD0C9F778
:101D0000F6CF462F4F70405D4A3318F0495D31FDE4
:101D10004052419302D0A9F7EACFB4E0A695979537
:101D2000879577956795BA95C9F70097610571050D
:101D300008959B01AC010A2E069457954795379557
:101D40002795BA95C9F7620F731F841F951FA01DB1
:061D50000895F894FFCF96
:101D5600F80000B80220004D435032353135206975
:101D660073204E4F5420696E20636F6E66696775E7
:101D7600726174696F6E206D6F646520616674654B
:101D86007220726573657421004144432072657345
:101D9600756C743A2025750A0D004E756D206661C6
:101DA600696C733A2025640A0D004A6F7973746969
:101DB600636B20593A2025640A0D00506F736974CD
:101DC600696F6E3A2025640A0D004572726F723A89
:101DD6002025640A0D004B702025640A0D00546905
:0E1DE6006D6520646966663A2025640A0D006A
:00000001FF
