:100000000C94D3000C94F4000C94F4000C9434037E
:100010000C94F4000C94F4000C94F4000C94F40090
:100020000C94F4000C94F4000C94F4000C94F40080
:100030000C94F4000C94F4000C94F4000C94F40070
:100040000C94F4000C94F4000C94F4000C94F40060
:100050000C94F4000C94C2050C94F4000C94F4007D
:100060000C94F4000C94F4000C94F4000C94F40040
:100070000C94F4000C94F4000C94F4000C94F40030
:100080000C9492050C94F4000C94F4000C94F4007D
:100090000C94F4000C94F4000C94F4000C9473068B
:1000A0000C94F4000C94F4000C94F4000C94F40000
:1000B0000C94F4000C94F4000C94F4000C94F400F0
:1000C0000C94F4000C94F4000C94F4000C94F400E0
:1000D0000C94F4000C94F4000C94F4000C94F400D0
:1000E0000C94F4009206E406E406E406E406E40652
:1000F000E406E4069206E406E406E406E406E40602
:10010000E406E4069406E406E406E406E406E406EF
:10011000E406E406E406E406E406E406E406E4068F
:10012000E406E4069406E406E406E406E406E406CF
:10013000E406E406E406E406E406E406E406E4066F
:10014000E406E406E006E406E406E406E406E40663
:10015000E406E406BD06E406E406E406E406E40676
:10016000E406E406E406E406E406E406E406E4063F
:10017000E406E406B106E406E406E406E406E40662
:10018000E406E406CF060C9492060C94E0060C9468
:100190004A010C9494060C94B1060C94E4060C9459
:1001A000CF060C94BD0611241FBECFEFD1E2DEBFF7
:1001B000CDBF00E00CBF12E0A0E0B2E0E2EBFEE158
:1001C00000E00BBF02C007900D92A23CB107D9F727
:1001D00022E0A2ECB2E001C01D92A63FB207E1F717
:1001E0000E94F6000C94570F0C9400000F93CF93CD
:1001F000DF93CDB7DEB72C970FB6F894DEBF0FBEF6
:10020000CDBF87E690E00E9452010E94A8070E949D
:10021000E7010E94F9010E94E1030E94BF04CE01A0
:1002200001960E9458040E9477050E94AE050E9424
:1002300078070E94FA0608E22AE037ED43EA5CE319
:1002400062E081E00E943608CE0101960E94FC0423
:100250002C960FB6F894DEBF0FBECDBFDF91CF91C5
:100260000F91089587E884B981E58CBD08958EBD0E
:100270000DB407FEFDCF83EC99E00197F1F700C0C4
:100280000000089580E00E9437010DB407FEFDCF05
:100290008EB50895E0ECF0E0908195FFFDCF80935E
:1002A000C60008959093C5008093C40088E18093B0
:1002B000C1008EE08093C20060E070E08AE491E0CB
:1002C0000E94D10A0895E0ECF0E080818823ECF7E9
:1002D0008091C60008952F9880EC0E9437012F9AD4
:1002E0000895CF93C82F2F9883E00E9437018C2F59
:1002F0000E9437010E9442012F9ACF9108951F93C7
:10030000CF93DF93182FEB012F9883E00E943701E2
:10031000812F0E9437010E9442012F9A8883DF912A
:10032000CF911F910895CF93DF931F92CDB7DEB782
:100330000E9432010E946B01BE016F5F7F4F8EE011
:100340000E947F018981807E803831F087E092E0D1
:100350000E94300B81E001C080E00F90DF91CF91CF
:1003600008952F988EE00E9471012F9A08952F987A
:1003700081E80E9437012F9A08951F93CF93DF934E
:10038000182FD62FC42F2F9885E00E943701812F78
:100390000E9437018D2F0E9437018C2F0E94370158
:1003A0002F9ADF91CF911F910895CF93DF93D82F8C
:1003B000C62F2F9882E00E9437018D2F0E943701AF
:1003C0008C2F0E9437012F9ADF91CF9108950E94C0
:1003D00093014FEF60E680E60E94BD014FEF61E0C0
:1003E0008BE20E94BD0140E060EE8FE00E94BD0103
:1003F0000895F894EA9A78940895CF92DF92EF9254
:10040000FF920F931F93CF93DF93CDB7DEB72D9756
:100410000FB6F894DEBF0FBECDBF7C01FC0140815A
:100420004295440F407E60ED82E30E94BD01F701DA
:1004300060817181769567957695679576956795D4
:1004400081E30E94D501F70162856623B1F067015F
:10045000F2E0CF0ED11C00E010E0F60161916F01D7
:1004600086E3800F0E94D5010F5F1F4FF701628561
:10047000862F90E00817190784F385E30E94D501C1
:10048000BE01645F7F4F82E30E947F01BE01635F14
:100490007F4F81E30E947F018D8590E0880F991F37
:1004A000880F991F880F991F2C85229526952770F4
:1004B000822B9A83898385E30E9471018F708B87D9
:1004C0008823B9F000E010E0B8016E5F7F4F81E053
:1004D00090E08C0F9D1F680F791F86E3800F0E94AC
:1004E0007F010F5F1F4F8B85282F30E00217130706
:1004F0005CF349815A81F70120813181421753070A
:1005000091F42B81928129130EC0928598130BC010
:100510000E94B701FFEF21EE84E0F15020408040BF
:10052000E1F700C000002D960FB6F894DEBF0FBEB5
:10053000CDBFDF91CF911F910F91FF90EF90DF9092
:10054000CF900895EF92FF920F931F93CF93DF9375
:10055000CDB7DEB72D970FB6F894DEBF0FBECDBF77
:100560007C01BE01645F7F4F82E60E947F01BE0175
:10057000635F7F4F81E60E947F018D8590E0880F49
:10058000991F880F991F880F991F2C8522952695F2
:100590002770822B9A83898385E60E9471018F7070
:1005A0008B878823B1F000E010E0B8016E5F7F4FC9
:1005B00081E090E08C0F9D1F680F791F86E6800F09
:1005C0000E947F010F5F1F4F2B8530E0021713073A
:1005D00064F340E061E08CE20E94BD018BE0FE012B
:1005E0003196D70101900D928A95E1F7C7012D96BA
:1005F0000FB6F894DEBF0FBECDBFDF91CF911F9134
:100600000F91FF90EF900895EF92FF920F931F9339
:10061000CF93DF93CDB7DEB72B970FB6F894DEBF3D
:100620000FBECDBFCE0101960E94A20289819A81A0
:10063000019769F4E980FA800B811C812D813E814C
:100640004F81588569857A858B850E94B2072B96E4
:100650000FB6F894DEBF0FBECDBFDF91CF911F91D3
:100660000F91FF90EF9008951F920F920FB60F9287
:1006700011240BB60F922F933F934F935F936F9379
:100680007F938F939F93AF93BF93EF93FF93F894D0
:100690000E9404037894FF91EF91BF91AF919F91D5
:1006A0008F917F916F915F914F913F912F910F901B
:1006B0000BBE0F900FBE0F901F9018959F92AF9298
:1006C000BF92CF92DF92EF92FF920F931F93CF933F
:1006D000DF93CDB7DEB72B970FB6F894DEBF0FBE12
:1006E000CDBF89E392E09F938F930E941C0BCE01B4
:1006F00001960E94A20209811A819B841F930F9385
:1007000083E492E09F938F930E941C0B0F900F90B5
:100710000F900F900F900F900130110559F5A92CF3
:10072000B12C1A141B0434F56E0123E0C20ED11C47
:1007300000E010E00F2EF5E5EF2EF2E0FF2EF02D99
:10074000F60181916F011F930F93282F082E000C43
:10075000330B3F938F93FF92EF920E941C0B0F5F1E
:100760001F4F0F900F900F900F900F900F900A1542
:100770001B0531F71F929F9282E792E09F938F9320
:100780000E941C0BFFE72AE186E0F15020408040E8
:10079000E1F700C000000F900F900F900F902B9684
:1007A0000FB6F894DEBF0FBECDBFDF91CF911F9182
:1007B0000F91FF90EF90DF90CF90BF90AF909F9000
:1007C0000895259AE1E8F0E0808188618083A0E8BF
:1007D000B0E08C9182688C938C918E7B8C9380811D
:1007E0008460808380818C7F8083F89481EE94E0A4
:1007F0009093870080938600109289001092880061
:10080000789480E80E9405040895682F70E080E0E5
:1008100090E00E94D8092BE237E846E95EE30E94A7
:10082000640A20E030E04CE252E40E9434090E9465
:10083000A709F894709389006093880078940895CC
:10084000682F880F770B880B990B0E94D8092AE034
:1008500037ED43EA5FE30E94640A20E030E040E0C5
:1008600053E40E9434090E94A709862F0E940504C0
:100870000895CF93DF93C0E0D0E08C2F0E94050451
:100880002FE38DE093E0215080409040E1F700C0DD
:1008900000002196C11521E0D20779F7DF91CF91B1
:1008A00008950E94D307FC0180810E9420040895CE
:1008B000FC01138685E082878CE291E0918380833E
:1008C00093838283958384839783868391878087AC
:1008D00008950F931F93CF93DF93EC010B8510E0E6
:1008E0000E94C804F801EE0FFF1FEC0FFD1F91835B
:1008F0008083C801019665E070E00E94F5088B874F
:100900006A85A62FB0E01A161B067CF4FE0120E0D3
:1009100030E080E090E041915191840F951F2F5F6E
:100920003F4F2A173B07B9F702C080E090E070E024
:100930000E94E108CB01DF91CF911F910F910895A3
:10094000CF93DF93EC010E9469048436910588F40B
:100950002A85222381F030E0FE0180E090E04CE225
:1009600051E041935193019682179307D0F381E0B0
:1009700003C080E001C081E0DF91CF9108958098AD
:1009800010927C0082E083BB80EE80937A00089511
:1009900080917A0084FF07C08091780020917900CF
:1009A00090E0922B089580E090E008950E94C804A2
:1009B0009F938F9389E892E09F938F930E941C0BE3
:1009C0000F900F900F900F900895CF93DF93EC014D
:1009D000CB010E94A004882361F088818F5F888307
:1009E0002FE78AE196E0215080409040E1F700C077
:1009F0000000DF91CF9108950F931F93CF93DF9362
:100A0000CDB7DEB729970FB6F894DEBF0FBECDBFC6
:100A10008C0183E08C8319820E94A9059B838A83C1
:100A20001F821986188699818C819817D0F40E94AC
:100A3000D307FC0180810E9420040E94CE080E94FE
:100A40003307BE01685F7F4FCE0107960E94800783
:100A5000B801CE0101960E94E50429819C812917E5
:100A600030F30E94A90529960FB6F894DEBF0FBE99
:100A7000CDBFDF91CF911F910F910895CF93DF9359
:100A8000CDB7DEB763970FB6F894DEBF0FBECDBF0C
:100A9000FC0182E090E09A8389839E01245F3F4FAE
:100AA00088E0D9011D928A95E9F783818C8780813E
:100AB0008D8781818E8784818F87D901FE0133964E
:100AC000215031098D918193E217F307D9F784E022
:100AD0008B87CE0101960E94FD0163960FB6F894B4
:100AE000DEBF0FBECDBFDF91CF9108950895F8947A
:100AF000E1E9F0E080818C608083E0E9F0E08081D2
:100B0000808384E39CE09093990080939800E1E7D0
:100B1000F0E080818260808378941092CB02109202
:100B2000CA0208951F920F920FB60F9211248F934D
:100B30009F938091CA029091CB0201969093CB0231
:100B40008093CA029F918F910F900FBE0F901F90BC
:100B500018958091CA029091CB020895F89482E092
:100B600084BD85E085BD8AE987BDEEE6F0E0808141
:100B70008260808378941092CD021092CC02109201
:100B8000C90208951F920F920FB60F9211240BB64F
:100B90000F922F933F934F935F936F937F938F9316
:100BA0009F93AF93BF93CF93DF93EF93FF93809186
:100BB000C902882381F00E944907EC010E94D307F3
:100BC000FC018181662777276C1B7D0B0E944E08F4
:100BD0001092C90203C081E08093C902FF91EF9196
:100BE000DF91CF91BF91AF919F918F917F916F9145
:100BF0005F914F913F912F910F900BBE0F900FBEC1
:100C00000F901F9018958091CC029091CD0208957D
:100C10008CE08093B8008FEF8093BB0084E08093DA
:100C2000BC0008958091BC0081700895ECEBF0E069
:100C3000808180FDFDCF809100020895CF93DF93E6
:100C4000EC01ECEBF0E0908190FDFDCF6093C402ED
:100C500098819093C50290FD13C0623088F0FE0128
:100C60003196A6ECB2E06250262F30E02E5F3F4F67
:100C7000CE01820F931F21912D93E817F907D9F721
:100C80001092C20288EF8093000285EA8093BC0034
:100C9000DF91CF910895ECEBF0E0808180FDFDCFF6
:100CA0001092C20288EF8093000285EA8093BC0014
:100CB0000895ECEBF0E0208120FDFDCF2091C202F1
:100CC00020FF0DC0662359F025EC32E0A82FB92F84
:100CD000F90181918D938E2F821B8617D0F380911D
:100CE000C202817008951F920F920FB60F921124C5
:100CF0000BB60F922F933F938F939F93AF93BF9316
:100D0000EF93FF93E091B9008E2F90E0FC013897AC
:100D1000E135F10508F058C08827EE58FF4F8F4F96
:100D20000C9409091092C302E091C3028091C4029D
:100D3000E81770F481E08E0F8093C302F0E0EB536C
:100D4000FD4F80818093BB0085E88093BC0043C049
:100D50008091C20281608093C20284E98093BC00CA
:100D60003AC0E091C30281E08E0F8093C30280916C
:100D7000BB00F0E0EB53FD4F80832091C30230E0D5
:100D80008091C40290E001972817390724F485EC7C
:100D90008093BC0020C085E88093BC001CC080917B
:100DA000BB00E091C302F0E0EB53FD4F80838091E4
:100DB000C20281608093C20284E98093BC000BC0B0
:100DC00085EA8093BC0007C08091B900809300023F
:100DD00084E08093BC00FF91EF91BF91AF919F9110
:100DE0008F913F912F910F900BBE0F900FBE0F90E0
:100DF0001F9018950E940806E1E0F1E080818A6763
:100E00008083E2E0F1E08081806180838081877F60
:100E100080838081806480830895992354F4E2E084
:100E2000F1E020812D7F208322273327281B390BD7
:100E300006C0E2E0F1E02081226020839C012F3F88
:100E4000310579F070F09F938F938AE992E09F9338
:100E50008F930E941C0B0F900F900F900F902FEF0D
:100E600030E0822F0895CF93DF9300D0CDB7DEB767
:100E70002EE529831A820E940D078B8363E0CE0141
:100E800001960E941E060F900F900F90DF91CF9158
:100E90000895F89410920701E2E0F1E080818F7DDF
:100EA00080838081877F808326E02A95F1F700C0C8
:100EB000A6E0B1E08C9190E0982F882720812860EF
:100EC000208326E02A95F1F700C03C9120812F7BFA
:100ED0002083A9EFB0E01197F1F700C00000208156
:100EE000206420832081206220837894832B0895BE
:100EF000819A899808950E94D307FC018281089500
:100F00000F931F93CF93DF93EC018B0188818111A5
:100F10000DC00E947B078823B1F00E94A905F8014B
:100F20009183808381E08883899A0DC00E94A905FE
:100F3000F80120813181821B930B069720F089985C
:100F4000118210821882DF91CF911F910F91089525
:100F5000EEECF2E01082118212821382148215826A
:100F600016820895EF92FF920F931F93CF93DF9312
:100F7000CDB7DEB72B970FB6F894DEBF0FBECDBF4F
:100F8000EEECF2E000831183217022832B960FB6E2
:100F9000F894DEBF0FBECDBFDF91CF911F910F91AF
:100FA000FF90EF9008958EEC92E00895E5EDF2E069
:100FB0006483758386839783428B148A138A168A87
:100FC000158A15861486108611861286138610825D
:100FD00011821282138216861786108A118A08954A
:100FE000CF92DF92EF92FF92CF93DF93683C71052F
:100FF00021F06091EA027091EB02C5EDD2E0CC8065
:10100000DD80EE80FF80082E000C990B861B970B6D
:10101000BC01990F880B990B0E94D8099B01AC0168
:10102000C701B6010E94640A0E94A0097C8B6B8BE9
:10103000DF91CF91FF90EF90DF90CF900895CF9305
:10104000DF93C5EDD2E08B899C899F938F9383EBCF
:1010500092E09F938F930E941C0B8B899C890F9029
:101060000F900F900F90DF91CF9108950F93E5EDC2
:10107000F2E0848365832087318742875387048722
:1010800080E690EF9783868310821182128213820A
:1010900016861586108A17860F9108954F925F92D3
:1010A0006F927F928F929F92AF92BF92EF92FF9238
:1010B0000F931F93CF93DF93482F2B01CB018853BE
:1010C0009F4F8139914020F04090E4025090E5021A
:1010D000E5EDF2E086819781840D951D97838683E7
:1010E000868197816485242F440F330B062E000CD4
:1010F000770B0E94F5083901661A770A8080918083
:10110000A280B38022E36216710434F4C301072C79
:10111000000CAA0BBB0B03C080E090E0DC01880D43
:10112000991DAA1DBB1DC5EDD2E088839983AA83B2
:10113000BB838C8188849984AA84BB84AD812881F7
:1011400039814A815B81182FB30116037001179F03
:10115000F00C11240A2E000CBB0B0E9411090E94F6
:10116000D8099B01AC01C501B4010E94640A0E9428
:10117000A0096E0D7F1D7E876D87588A4F86DF918F
:10118000CF911F910F91FF90EF90BF90AF909F90E4
:101190008F907F906F905F904F9008958091E402C0
:1011A0009091E5029F938F9389EB92E09F938F93A9
:1011B0000E941C0B0F900F900F900F9080E090E01A
:1011C0000895AA1BBB1B51E107C0AA1FBB1FA6178E
:1011D000B70710F0A61BB70B881F991F5A95A9F7E0
:1011E00080959095BC01CD01089597FB072E16F4CC
:1011F000009407D077FD09D00E94E10807FC05D0D4
:101200003EF4909581959F4F0895709561957F4F1D
:101210000895EE0FFF1F881F8BBF0790F691E02DFA
:101220001994B7FF0C9419090E941909821B930B9A
:1012300008950E942409A59F900DB49F900DA49F2E
:10124000800D911D11240895A29FB001B39FC0018C
:10125000A39F700D811D1124911DB29F700D811DE2
:101260001124911D08955058BB27AA270E944B09AD
:101270000C942A0A0E941C0A38F00E94230A20F0CB
:1012800039F49F3F19F426F40C94190A0EF4E095F2
:10129000E7FB0C94130AE92F0E943B0A58F3BA1794
:1012A000620773078407950720F079F4A6F50C947C
:1012B0005D0A0EF4E0950B2EBA2FA02D0B01B9019B
:1012C00090010C01CA01A0011124FF27591B99F0BC
:1012D000593F50F4503E68F11A16F040A22F232FC8
:1012E000342F4427585FF3CF469537952795A79518
:1012F000F0405395C9F77EF41F16BA0B620B730BBF
:10130000840BBAF09150A1F0FF0FBB1F661F771F2F
:10131000881FC2F70EC0BA0F621F731F841F48F4E4
:10132000879577956795B795F7959E3F08F0B0CF6D
:101330009395880F08F09927EE0F97958795089554
:101340000E94A7096894B1110C945E0A08950E9446
:10135000430A88F09F5798F0B92F9927B751B0F0FA
:10136000E1F0660F771F881F991F1AF0BA95C9F729
:1013700014C0B13091F00E945D0AB1E008950C9460
:101380005D0A672F782F8827B85F39F0B93FCCF313
:10139000869577956795B395D9F73EF490958095A6
:1013A000709561957F4F8F4F9F4F0895E89409C0C6
:1013B00097FB3EF490958095709561957F4F8F4F88
:1013C0009F4F9923A9F0F92F96E9BB279395F6959E
:1013D000879577956795B795F111F8CFFAF4BB0F1C
:1013E00011F460FF1BC06F5F7F4F8F4F9F4F16C080
:1013F000882311F096E911C0772321F09EE8872F0A
:10140000762F05C0662371F096E8862F70E060E0C5
:101410002AF09A95660F771F881FDAF7880F96953E
:10142000879597F9089597F99F6780E870E060E0E5
:1014300008959FEF80EC089500240A94161617066D
:1014400018060906089500240A94121613061406B5
:1014500005060895092E0394000C11F4882352F018
:10146000BB0F40F4BF2B11F460FF04C06F5F7F4FD0
:101470008F4F9F4F089557FD9058440F551F59F0B7
:101480005F3F71F04795880F97FB991F61F09F3F71
:1014900079F087950895121613061406551FF2CF9A
:1014A0004695F1DF08C0161617061806991FF1CFEA
:1014B00086957105610508940895E894BB27662711
:1014C0007727CB0197F908950E94770A0C942A0A8E
:1014D0000E941C0A38F00E94230A20F0952311F084
:1014E0000C94130A0C94190A11240C945E0A0E949D
:1014F0003B0A70F3959FC1F3950F50E0551F629F13
:10150000F001729FBB27F00DB11D639FAA27F00D5C
:10151000B11DAA1F649F6627B00DA11D661F829F83
:101520002227B00DA11D621F739FB00DA11D621F68
:10153000839FA00D611D221F749F3327A00D611D85
:10154000231F849F600D211D822F762F6A2F112467
:101550009F5750409AF0F1F088234AF0EE0FFF1F9A
:10156000BB1F661F771F881F91505040A9F79E3FF1
:10157000510580F00C94130A0C945E0A5F3FE4F36B
:10158000983ED4F3869577956795B795F795E79547
:101590009F5FC1F7FE2B880F911D9695879597F950
:1015A00008950F931F93CF93DF93009731F4611544
:1015B000710519F480E090E03AC08B01EC016EE017
:1015C00070E081E090E00E945B0DFC01892B91F3BB
:1015D00080E883830115110571F01387028781E884
:1015E00083838091EC029091ED02892B21F4F0939A
:1015F000ED02E093EC022097C9F0D187C087838188
:10160000826083838091EE029091EF02892B71F4C6
:10161000F093EF02E093EE028091F0029091F102DC
:10162000892B21F4F093F102E093F002CF01DF91D6
:10163000CF911F910F910895CF93DF93CDB7DEB770
:10164000AE014A5F5F4FFA0161917191AF018091E4
:10165000EE029091EF020E94600BDF91CF9108950E
:101660000F931F93CF93DF93E091EE02F091EF027F
:10167000238121FF1BC08C01D0E0C0E0F8018191E3
:101680008F016091EE027091EF02DB011896ED91EF
:10169000FC911997882331F01995892B79F3DFEFA5
:1016A000CFEFECCF8AE01995892B19F08FEF9FEFE0
:1016B00002C08D2F9C2FDF91CF911F910F91089524
:1016C0002F923F924F925F926F927F928F929F9252
:1016D000AF92BF92CF92DF92EF92FF920F931F9340
:1016E000CF93DF93CDB7DEB72C970FB6F894DEBF5C
:1016F0000FBECDBF7C016B018A01FC0117821682EF
:10170000838181FFBDC1CE0101964C01F701938118
:10171000F60193FD859193FF81916F01882309F470
:10172000ABC1853239F493FD859193FF81916F01AF
:10173000853229F4B70190E00E94C10EE7CF512C09
:10174000312C20E02032A0F48B3269F030F480326A
:1017500059F0833269F420612CC08D3239F0803326
:1017600039F4216026C02260246023C0286021C093
:1017700027FD27C030ED380F3A3078F426FF06C039
:10178000FAE05F9E300D1124532E13C08AE0389E7C
:10179000300D1124332E20620CC08E3221F426FD30
:1017A0006BC1206406C08C3611F4206802C08836F4
:1017B00041F4F60193FD859193FF81916F018111B1
:1017C000C1CF982F9F7D9554933028F40C5F1F4F05
:1017D000FFE3F9830DC0833631F0833771F0833531
:1017E00009F05BC022C0F801808189830E5F1F4F22
:1017F00044244394512C540115C03801F2E06F0E7B
:10180000711CF801A080B18026FF03C0652D70E037
:1018100002C06FEF7FEFC5012C870E94B60E2C012E
:1018200083012C852F77222E17C03801F2E06F0E2E
:10183000711CF801A080B18026FF03C0652D70E007
:1018400002C06FEF7FEFC5012C870E94A40E2C0110
:101850002C852068222E830123FC1BC0832D90E061
:1018600048165906B0F4B70180E290E00E94C10E1C
:101870003A94F4CFF50127FC859127FE81915F0111
:10188000B70190E00E94C10E31103A94F1E04F1A76
:1018900051084114510471F7E5C0843611F08936BE
:1018A00039F5F80127FF07C060817181828193813A
:1018B0000C5F1F4F08C060817181072E000C880BE0
:1018C000990B0E5F1F4F2F76722E97FF09C09095D0
:1018D0008095709561957F4F8F4F9F4F2068722E36
:1018E0002AE030E0A4010E94F90EA82EA81844C0F6
:1018F000853729F42F7EB22E2AE030E025C0F22F62
:10190000F97FBF2E8F36C1F018F4883579F0B4C056
:10191000803719F0883721F0AFC02F2F2061B22E09
:10192000B4FE0DC08B2D8460B82E09C024FF0AC000
:101930009F2F9660B92E06C028E030E005C020E158
:1019400030E002C020E132E0F801B7FE07C060815C
:101950007181828193810C5F1F4F06C0608171810C
:1019600080E090E00E5F1F4FA4010E94F90EA82EA8
:10197000A818FB2DFF777F2E76FE0BC0372D3E7FFC
:10198000A51450F474FE0AC072FC08C0372D3E7EC8
:1019900005C0BA2C372D03C0BA2C01C0B52C34FFBA
:1019A0000DC0FE01EA0DF11D8081803311F4397EF6
:1019B00009C032FF06C0B394B39404C0832F867865
:1019C00009F0B39433FD13C030FF06C05A2CB31492
:1019D00018F4530C5B18B32CB31468F4B70180E20D
:1019E00090E03C870E94C10EB3943C85F5CFB314C0
:1019F00010F43B1801C0312C34FF12C0B70180E352
:101A000090E03C870E94C10E3C8532FF17C031FD3B
:101A100003C088E790E002C088E590E0B7010CC001
:101A2000832F867859F031FF02C08BE201C080E23B
:101A300037FD8DE2B70190E00E94C10EA51438F485
:101A4000B70180E390E00E94C10E5A94F7CFAA94A8
:101A5000F401EA0DF11D8081B70190E00E94C10EF2
:101A6000A110F5CF332009F451CEB70180E290E008
:101A70000E94C10E3A94F6CFF7018681978102C089
:101A80008FEF9FEF2C960FB6F894DEBF0FBECDBF41
:101A9000DF91CF911F910F91FF90EF90DF90CF904A
:101AA000BF90AF909F908F907F906F905F904F907E
:101AB0003F902F9008950F931F93CF93DF93869FAE
:101AC0008001879F100D969F100D1124C8010E9460
:101AD000770DEC01009729F0A80160E070E00E940A
:101AE000AF0ECE01DF91CF911F910F910895CF934B
:101AF000DF938230910510F482E090E0E091F402EF
:101B0000F091F50220E030E0C0E0D0E0309711F134
:101B10004081518148175907C0F04817590761F4AF
:101B200082819381209719F09B838A832BC09093A5
:101B3000F5028093F40226C02115310519F04217F1
:101B4000530718F49A01BE01DF01EF010280F3810F
:101B5000E02DDCCF2115310509F1281B390B24308C
:101B6000310590F412968D919C9113976115710532
:101B700021F0FB019383828304C09093F50280934C
:101B8000F402FD01329644C0FD01E20FF31F819380
:101B90009193225031092D933C933AC02091F20247
:101BA0003091F302232B41F420910302309104027F
:101BB0003093F3022093F20220910102309102024D
:101BC0002115310541F42DB73EB7409105025091E2
:101BD0000602241B350BE091F202F091F302E217AA
:101BE000F307A0F42E1B3F0B2817390778F0AC0140
:101BF0004E5F5F4F2417350748F04E0F5F1F50931D
:101C0000F3024093F2028193919302C0E0E0F0E08E
:101C1000CF01DF91CF9108950F931F93CF93DF935F
:101C2000009709F48CC0FC01329713821282009154
:101C3000F4021091F5020115110581F42081318122
:101C4000820F931F2091F2023091F3022817390777
:101C500079F5F093F302E093F20271C0D80140E00D
:101C600050E0AE17BF0750F412962D913C91139798
:101C7000AD012115310509F1D901F3CF9D01DA013B
:101C80003383228360817181860F971F82179307A8
:101C900069F4EC0128813981260F371F2E5F3F4FF1
:101CA000318320838A819B8193838283452B29F40E
:101CB000F093F502E093F40242C01396FC93EE9386
:101CC0001297ED01499159919E01240F351FE2179A
:101CD000F30771F480819181840F951F029611960C
:101CE0009C938E938281938113969C938E931297EB
:101CF000E0E0F0E0D80112968D919C911397009747
:101D000019F0F8018C01F6CF8D919C9198012E5F0E
:101D10003F4F820F931F2091F2023091F302281758
:101D2000390769F4309729F41092F5021092F40201
:101D300002C0138212821093F3020093F202DF9129
:101D4000CF911F910F910895FC0105906150704053
:101D50000110D8F7809590958E0F9F1F0895DC0194
:101D600001C06D9341505040E0F70895FC0161506F
:101D7000704001900110D8F7809590958E0F9F1FAD
:101D800008950F931F93CF93DF93FB01238121FDD0
:101D900003C08FEF9FEF28C022FF16C046815781F6
:101DA000248135814217530744F4A081B1819D01FC
:101DB0002F5F3F4F318320838C93268137812F5FA4
:101DC0003F4F3783268310C0EB01092F182F008463
:101DD000F185E02D1995892BE1F68E819F81019681
:101DE0009F838E83812F902FDF91CF911F910F9131
:101DF0000895FA01AA27283051F1203181F1E894A1
:101E00006F936E7F6E5F7F4F8F4F9F4FAF4FB1E0ED
:101E10003ED0B4E03CD0670F781F891F9A1FA11DE8
:101E2000680F791F8A1F911DA11D6A0F711D811DE9
:101E3000911DA11D20D009F468943F912AE0269FAE
:101E400011243019305D3193DEF6CF010895462F0D
:101E50004770405D4193B3E00FD0C9F7F6CF462FEE
:101E60004F70405D4A3318F0495D31FD4052419357
:101E700002D0A9F7EACFB4E0A69597958795779514
:101E80006795BA95C9F700976105710508959B019B
:101E9000AC010A2E06945795479537952795BA9524
:101EA000C9F7620F731F841F951FA01D0895F89432
:021EB000FFCF62
:101EB200F80000F60220004D4350323531352069DA
:101EC20073204E4F5420696E20636F6E666967758A
:101ED200726174696F6E206D6F64652061667465EE
:101EE2007220726573657421007465737443616E48
:101EF2000A0D004D6573736167652049443A2025D8
:101F020064200A0D004D6573736167652064617416
:101F1200613A202564202C2069203D202564200A76
:101F22000D004D657373616765206C656E6774683B
:101F3200203A202564200A0D004144432072657333
:101F4200756C743A2025750A0D007C706F77657286
:101F52007C203E2032353521212120703A20256413
:101F62000A0D00753A202564006D3A2025640A0D99
:021F720000006D
:00000001FF
