:100000000C9474000C9495000C9495000C9495003D
:100010000C9495000C9495000C9495000C9495000C
:100020000C9495000C9495000C9495000C949500FC
:100030000C9495000C9495000C9495000C949500EC
:100040000C9495000C9495000C9495000C949500DC
:100050000C9495000C9495000C9495000C949500CC
:100060000C9495000C9495000C9495000C949500BC
:100070000C9495000C9495000C9495000C949500AC
:100080000C9495000C9495000C9495000C9495009C
:100090000C9495000C9495000C9495000C9495008C
:1000A0000C9495000C9495000C9495000C9495007C
:1000B0000C9495000C9495000C9495000C9495006C
:1000C0000C9495000C9495000C9495000C9495005C
:1000D0000C9495000C9495000C9495000C9495004C
:1000E0000C9495000C94D50011241FBECFEFD1E2E3
:1000F000DEBFCDBF00E00CBF12E0A0E0B2E0E6EA58
:10010000F5E100E00BBF02C007900D92A83EB107D9
:10011000D9F722E0A8EEB2E001C01D92A23FB207DB
:10012000E1F70E9497000C94D10A0C940000CF9341
:10013000DF93CDB7DEB727970FB6F894DEBF0FBEBB
:10014000CDBF87E690E00E94DD000E9472010E9410
:100150000B030E941204CE0101960E94B603CE0149
:1001600001960E9489042FEF83ED90E32150804097
:100170009040E1F700C00000F6CF87E884B981E540
:100180008CBD08958EBD0DB407FEFDCF83EC99E0C4
:100190000197F1F700C00000089580E00E94C200BE
:1001A0000DB407FEFDCF8EB50895E0ECF0E0908130
:1001B00095FFFDCF8093C60008959093C50080936E
:1001C000C40088E18093C1008EE08093C20060E0AB
:1001D00070E085ED90E00E944B060895E0ECF0E0C1
:1001E00080818823ECF78091C60008952F9880ECD9
:1001F0000E94C2002F9A0895CF93C82F2F9883E0B2
:100200000E94C2008C2F0E94C2000E94CD002F9A33
:10021000CF9108951F93CF93DF93182FEB012F9861
:1002200083E00E94C200812F0E94C2000E94CD0084
:100230002F9A8883DF91CF911F910895CF93DF93F9
:100240001F92CDB7DEB70E94BD000E94F600BE012E
:100250006F5F7F4F8EE00E940A018981807E803827
:1002600031F086E092E00E94AA0681E001C080E0C1
:100270000F90DF91CF9108952F988EE00E94FC009F
:100280002F9A08952F9881E80E94C2002F9A08950E
:100290001F93CF93DF93182FD62FC42F2F9885E06D
:1002A0000E94C200812F0E94C2008D2F0E94C200B6
:1002B0008C2F0E94C2002F9ADF91CF911F91089539
:1002C000CF93DF93D82FC62F2F9882E00E94C200D1
:1002D0008D2F0E94C2008C2F0E94C2002F9ADF91A6
:1002E000CF9108950E941E014FEF60E680E60E94C4
:1002F00048014FEF61E08BE20E94480140E060EE70
:100300008FE00E9448010895CF92DF92EF92FF9212
:100310000F931F93CF93DF93CDB7DEB72D970FB613
:10032000F894DEBF0FBECDBF7C01FC014081429539
:10033000440F407E60ED82E30E944801F701608136
:10034000718176956795769567957695679581E342
:100350000E946001F70162856623B1F06701F2E057
:10036000CF0ED11C00E010E0F60161916F0186E331
:10037000800F0E9460010F5F1F4FF7016285862F7B
:1003800090E00817190784F385E30E946001BE011D
:10039000645F7F4F82E30E940A01BE01635F7F4F6B
:1003A00081E30E940A018D8590E0880F991F880FD4
:1003B000991F880F991F2C85229526952770822BCF
:1003C0009A83898385E30E94FC008F708B87882342
:1003D000B9F000E010E0B8016E5F7F4F81E090E07F
:1003E0008C0F9D1F680F791F86E3800F0E940A0102
:1003F0000F5F1F4F8B85282F30E0021713075CF328
:1004000049815A81F701208131814217530779F4DC
:100410002B81928129130BC09285981308C00E94EA
:10042000420187EA91E60197F1F700C000002D969E
:100430000FB6F894DEBF0FBECDBFDF91CF911F91F5
:100440000F91FF90EF90DF90CF900895EF92FF9281
:100450000F931F93CF93DF93CDB7DEB72D970FB6D2
:10046000F894DEBF0FBECDBF7C01BE01645F7F4F3D
:1004700082E60E940A01BE01635F7F4F81E60E940F
:100480000A018D8590E0880F991F880F991F880FAA
:10049000991F2C85229526952770822B9A83898314
:1004A00085E60E94FC008F708B878823B1F000E006
:1004B00010E0B8016E5F7F4F81E090E08C0F9D1FD0
:1004C000680F791F86E6800F0E940A010F5F1F4F99
:1004D0002B8530E00217130764F340E061E08CE203
:1004E0000E9448018BE0FE013196D70101900D92E8
:1004F0008A95E1F7C7012D960FB6F894DEBF0FBEBF
:10050000CDBFDF91CF911F910F91FF90EF90089594
:100510009F92AF92BF92CF92DF92EF92FF920F9392
:100520001F93CF93DF93CDB7DEB72B970FB6F89419
:10053000DEBF0FBECDBF88E392E09F938F930E94F2
:100540009606CE0101960E94260209811A819B849B
:100550001F930F9382E492E09F938F930E949606DD
:100560000F900F900F900F900F900F90013011058A
:1005700059F5A92CB12C1A141B0434F56E0123E093
:10058000C20ED11C00E010E00F2EF4E5EF2EF2E0D9
:10059000FF2EF02DF60181916F011F930F93282FED
:1005A000082E000C330B3F938F93FF92EF920E9423
:1005B00096060F5F1F4F0F900F900F900F900F90A8
:1005C0000F900A151B0531F71F929F9281E792E069
:1005D0009F938F930E949606FFE72AE186E0F150F1
:1005E00020408040E1F700C000000F900F900F9076
:1005F0000F902B960FB6F894DEBF0FBECDBFDF91E4
:10060000CF911F910F91FF90EF90DF90CF90BF900F
:10061000AF909F900895259AE1E8F0E0808188618D
:100620008083A0E8B0E08C9182688C938C918E7B63
:100630008C9380818460808380818C7F8083F89418
:1006400081EE94E090938700809386001092890059
:1006500010928800789480E80E942F030895CF9329
:10066000DF93C82FD0E01F928F9388E892E09F938A
:100670008F930E949606BE01DD0F880B990B0E9496
:1006800052052BE237E846E95EE30E94DE0520E0F2
:1006900030E040E652E40E94B5040E942105F8943F
:1006A000709389006093880078940F900F900F905A
:1006B0000F90DF91CF9108950F931F93CF93DF9306
:1006C000CDB7DEB72B970FB6F894DEBF0FBECDBF08
:1006D000CE0101960E94260229813A8121303105FE
:1006E00011F40B811C81802F912F2B960FB6F8945B
:1006F000DEBF0FBECDBFDF91CF911F910F91089547
:10070000682F880F770B880B990B0E9452052AE0FF
:1007100037ED43EA5FE30E94DE0520E030E040E091
:1007200053E40E94B5040E942105862F0E942F03E6
:100730000895CF93DF93C0E0D0E08C2F0E942F0369
:100740002FE38DE093E0215080409040E1F700C01E
:1007500000002196C11521E0D20779F7DF91CF91F2
:1007600008950E945C030E9480030895FC01168294
:1007700085E085838FEF8083818382838383848375
:1007800008950F931F93CF93DF93EC010E8110E038
:100790000E942004FE01E00FF11F808399279F93A0
:1007A0008F9386E992E09F938F930E949606C801EB
:1007B000019665E070E00E94A0048E836D810F9029
:1007C0000F900F900F90662361F0FE01C60FD11DB0
:1007D00080E090E02191820F911DEC17FD07D1F789
:1007E00002C080E090E070E00E948C04862FDF91D0
:1007F000CF911F910F910895CF930E94C103C82FED
:100800001F928F9386EA92E09F938F930E949606A1
:1008100081E00F900F900F900F90C43608F080E0A9
:10082000CF910895809810927C00EBE7F0E08081F2
:100830008860808382E083BB80EE80937A00089595
:1008400080917A0084FF07C0809178002091790020
:1008500090E0922B089580E090E008950E9420049B
:100860009F938F9384EB92E09F938F930E949606C1
:100870000F900F900F900F900895CF93DF93EC019E
:10088000CB010E94FC038823A1F085EC92E09F93AA
:100890008F930E94960688818F5F88832FE38DE077
:1008A00093E0215080409040E1F700C000000F909D
:1008B0000F9088811F928F9388ED92E09F938F9382
:1008C0000E9496060F900F900F900F90DF91CF919E
:1008D00008950F931F93CF93DF9300D01F92CDB74E
:1008E000DEB78C0183E08C8319820E94B103B801CA
:1008F000CE0101960E943D0429819C812917A8F30D
:100900000F900F900F900F90DF91CF911F910F914B
:1009100008950E9469040895AA1BBB1B51E107C0FA
:10092000AA1FBB1FA617B70710F0A61BB70B881F7F
:10093000991F5A95A9F780959095BC01CD0108950E
:1009400097FB072E16F4009407D077FD09D00E947C
:100950008C0407FC05D03EF4909581959F4F089537
:10096000709561957F4F08955058BB27AA270E9424
:10097000CC040C94A4050E94960538F00E949D05B5
:1009800020F039F49F3F19F426F40C9493050EF4EB
:10099000E095E7FB0C948D05E92F0E94B50558F30F
:1009A000BA17620773078407950720F079F4A6F554
:1009B0000C94D7050EF4E0950B2EBA2FA02D0B0149
:1009C000B90190010C01CA01A0011124FF27591B94
:1009D00099F0593F50F4503E68F11A16F040A22F9A
:1009E000232F342F4427585FF3CF4695379527950B
:1009F000A795F0405395C9F77EF41F16BA0B620B0A
:100A0000730B840BBAF09150A1F0FF0FBB1F661F50
:100A1000771F881FC2F70EC0BA0F621F731F841F93
:100A200048F4879577956795B795F7959E3F08F0B9
:100A3000B0CF9395880F08F09927EE0F979587957B
:100A400008950E94BD0588F09F5798F0B92F992707
:100A5000B751B0F0E1F0660F771F881F991F1AF0A9
:100A6000BA95C9F714C0B13091F00E94D705B1E032
:100A700008950C94D705672F782F8827B85F39F031
:100A8000B93FCCF3869577956795B395D9F73EF442
:100A900090958095709561957F4F8F4F9F4F0895EA
:100AA000E89409C097FB3EF4909580957095619508
:100AB0007F4F8F4F9F4F9923A9F0F92F96E9BB27BE
:100AC0009395F695879577956795B795F111F8CF3A
:100AD000FAF4BB0F11F460FF1BC06F5F7F4F8F4FA5
:100AE0009F4F16C0882311F096E911C0772321F09B
:100AF0009EE8872F762F05C0662371F096E8862F33
:100B000070E060E02AF09A95660F771F881FDAF789
:100B1000880F9695879597F9089597F99F6780E8CC
:100B200070E060E008959FEF80EC089500240A943F
:100B30001616170618060906089500240A941216B8
:100B40001306140605060895092E0394000C11F4EB
:100B5000882352F0BB0F40F4BF2B11F460FF04C098
:100B60006F5F7F4F8F4F9F4F089557FD9058440FF1
:100B7000551F59F05F3F71F04795880F97FB991FFC
:100B800061F09F3F79F087950895121613061406B9
:100B9000551FF2CF4695F1DF08C016161706180646
:100BA000991FF1CF86957105610508940895E89421
:100BB000BB2766277727CB0197F908950E94F10597
:100BC0000C94A4050E94960538F00E949D0520F023
:100BD000952311F00C948D050C94930511240C941D
:100BE000D8050E94B50570F3959FC1F3950F50E0AD
:100BF000551F629FF001729FBB27F00DB11D639FCF
:100C0000AA27F00DB11DAA1F649F6627B00DA11D74
:100C1000661F829F2227B00DA11D621F739FB00D1A
:100C2000A11D621F839FA00D611D221F749F33278A
:100C3000A00D611D231F849F600D211D822F762F23
:100C40006A2F11249F5750409AF0F1F088234AF000
:100C5000EE0FFF1FBB1F661F771F881F915050406C
:100C6000A9F79E3F510580F00C948D050C94D80592
:100C70005F3FE4F3983ED4F3869577956795B795F3
:100C8000F795E7959F5FC1F7FE2B880F911D96950D
:100C9000879597F908950F931F93CF93DF9300974C
:100CA00031F46115710519F480E090E03AC08B01D0
:100CB000EC016EE070E081E090E00E94D508FC015C
:100CC000892B91F380E883830115110571F0138757
:100CD000028781E883838091E8029091E902892B61
:100CE00021F4F093E902E093E8022097C9F0D1875C
:100CF000C0878381826083838091EA029091EB02B6
:100D0000892B71F4F093EB02E093EA028091EC02FC
:100D10009091ED02892B21F4F093ED02E093EC0227
:100D2000CF01DF91CF911F910F910895CF93DF9362
:100D3000CDB7DEB7AE014A5F5F4FFA0161917191A5
:100D4000AF018091EA029091EB020E94DA06DF91F6
:100D5000CF9108950F931F93CF93DF93E091EA0211
:100D6000F091EB02238121FF1BC08C01D0E0C0E099
:100D7000F80181918F016091EA027091EB02DB0131
:100D80001896ED91FC911997882331F01995892BCC
:100D900079F3DFEFCFEFECCF8AE01995892B19F0CB
:100DA0008FEF9FEF02C08D2F9C2FDF91CF911F916E
:100DB0000F9108952F923F924F925F926F927F9280
:100DC0008F929F92AF92BF92CF92DF92EF92FF925B
:100DD0000F931F93CF93DF93CDB7DEB72C970FB64A
:100DE000F894DEBF0FBECDBF7C016B018A01FC0110
:100DF00017821682838181FFBDC1CE0101964C010D
:100E0000F7019381F60193FD859193FF81916F0125
:100E1000882309F4ABC1853239F493FD859193FFA2
:100E200081916F01853229F4B70190E00E943B0A5D
:100E3000E7CF512C312C20E02032A0F48B3269F026
:100E400030F4803259F0833269F420612CC08D3245
:100E500039F0803339F4216026C02260246023C039
:100E6000286021C027FD27C030ED380F3A3078F4D4
:100E700026FF06C0FAE05F9E300D1124532E13C0EA
:100E80008AE0389E300D1124332E20620CC08E3241
:100E900021F426FD6BC1206406C08C3611F4206855
:100EA00002C0883641F4F60193FD859193FF81914C
:100EB0006F018111C1CF982F9F7D9554933028F4F5
:100EC0000C5F1F4FFFE3F9830DC0833631F083378A
:100ED00071F0833509F05BC022C0F80180818983FD
:100EE0000E5F1F4F44244394512C540115C0380108
:100EF000F2E06F0E711CF801A080B18026FF03C0E4
:100F0000652D70E002C06FEF7FEFC5012C870E9456
:100F1000300A2C0183012C852F77222E17C038012F
:100F2000F2E06F0E711CF801A080B18026FF03C0B3
:100F3000652D70E002C06FEF7FEFC5012C870E9426
:100F40001E0A2C012C852068222E830123FC1BC045
:100F5000832D90E048165906B0F4B70180E290E086
:100F60000E943B0A3A94F4CFF50127FC859127FEB5
:100F700081915F01B70190E00E943B0A31103A94E1
:100F8000F1E04F1A51084114510471F7E5C084365D
:100F900011F0893639F5F80127FF07C060817181AA
:100FA000828193810C5F1F4F08C060817181072E81
:100FB000000C880B990B0E5F1F4F2F76722E97FF38
:100FC00009C090958095709561957F4F8F4F9F4F89
:100FD0002068722E2AE030E0A4010E94730AA82E35
:100FE000A81844C0853729F42F7EB22E2AE030E0BD
:100FF00025C0F22FF97FBF2E8F36C1F018F4883547
:1010000079F0B4C0803719F0883721F0AFC02F2FA6
:101010002061B22EB4FE0DC08B2D8460B82E09C0A5
:1010200024FF0AC09F2F9660B92E06C028E030E04A
:1010300005C020E130E002C020E132E0F801B7FE57
:1010400007C060817181828193810C5F1F4F06C050
:101050006081718180E090E00E5F1F4FA4010E94CB
:10106000730AA82EA818FB2DFF777F2E76FE0BC0E3
:10107000372D3E7FA51450F474FE0AC072FC08C0E0
:10108000372D3E7E05C0BA2C372D03C0BA2C01C0C7
:10109000B52C34FF0DC0FE01EA0DF11D80818033B7
:1010A00011F4397E09C032FF06C0B394B39404C072
:1010B000832F867809F0B39433FD13C030FF06C048
:1010C0005A2CB31418F4530C5B18B32CB31468F4F3
:1010D000B70180E290E03C870E943B0AB3943C85D4
:1010E000F5CFB31410F43B1801C0312C34FF12C0FB
:1010F000B70180E390E03C870E943B0A3C8532FFC9
:1011000017C031FD03C088E790E002C088E590E099
:10111000B7010CC0832F867859F031FF02C08BE2F3
:1011200001C080E237FD8DE2B70190E00E943B0AEA
:10113000A51438F4B70180E390E00E943B0A5A946A
:10114000F7CFAA94F401EA0DF11D8081B70190E078
:101150000E943B0AA110F5CF332009F451CEB7010C
:1011600080E290E00E943B0A3A94F6CFF701868134
:10117000978102C08FEF9FEF2C960FB6F894DEBFD9
:101180000FBECDBFDF91CF911F910F91FF90EF90D8
:10119000DF90CF90BF90AF909F908F907F906F9097
:1011A0005F904F903F902F9008950F931F93CF9390
:1011B000DF93869F8001879F100D969F100D11244D
:1011C000C8010E94F108EC01009729F0A80160E035
:1011D00070E00E94290ACE01DF91CF911F910F91FB
:1011E0000895CF93DF938230910510F482E090E070
:1011F000E091F002F091F10220E030E0C0E0D0E0B8
:10120000309711F14081518148175907C0F04817B4
:10121000590761F482819381209719F09B838A8317
:101220002BC09093F1028093F00226C02115310566
:1012300019F04217530718F49A01BE01DF01EF01BC
:101240000280F381E02DDCCF2115310509F1281B47
:10125000390B2430310590F412968D919C9113979F
:101260006115710521F0FB019383828304C0909383
:10127000F1028093F002FD01329644C0FD01E20FBD
:10128000F31F81939193225031092D933C933AC0DF
:101290002091EE023091EF02232B41F420910202C3
:1012A000309103023093EF022093EE02209100026E
:1012B000309101022115310541F42DB73EB740911F
:1012C000040250910502241B350BE091EE02F091CF
:1012D000EF02E217F307A0F42E1B3F0B2817390784
:1012E00078F0AC014E5F5F4F2417350748F04E0F82
:1012F0005F1F5093EF024093EE028193919302C0DF
:10130000E0E0F0E0CF01DF91CF9108950F931F93BC
:10131000CF93DF93009709F48CC0FC0132971382BE
:1013200012820091F0021091F1020115110581F471
:1013300020813181820F931F2091EE023091EF02C4
:101340002817390779F5F093EF02E093EE0271C0A8
:10135000D80140E050E0AE17BF0750F412962D912F
:101360003C911397AD012115310509F1D901F3CF56
:101370009D01DA013383228360817181860F971F7B
:101380008217930769F4EC0128813981260F371FF2
:101390002E5F3F4F318320838A819B819383828399
:1013A000452B29F4F093F102E093F00242C013962A
:1013B000FC93EE931297ED01499159919E01240FF0
:1013C000351FE217F30771F480819181840F951F17
:1013D000029611969C938E938281938113969C938F
:1013E0008E931297E0E0F0E0D80112968D919C91D7
:1013F0001397009719F0F8018C01F6CF8D919C910D
:1014000098012E5F3F4F820F931F2091EE02309183
:10141000EF022817390769F4309729F41092F10286
:101420001092F00202C0138212821093EF02009316
:10143000EE02DF91CF911F910F910895FC0105906D
:10144000615070400110D8F7809590958E0F9F1FC6
:101450000895DC0101C06D9341505040E0F70895BC
:10146000FC016150704001900110D8F78095909573
:101470008E0F9F1F08950F931F93CF93DF93FB0150
:10148000238121FD03C08FEF9FEF28C022FF16C0EC
:1014900046815781248135814217530744F4A08146
:1014A000B1819D012F5F3F4F318320838C93268133
:1014B00037812F5F3F4F3783268310C0EB01092F01
:1014C000182F0084F185E02D1995892BE1F68E8186
:1014D0009F8101969F838E83812F902FDF91CF91E3
:1014E0001F910F910895FA01AA27283051F1203158
:1014F00081F1E8946F936E7F6E5F7F4F8F4F9F4FA8
:10150000AF4FB1E03ED0B4E03CD0670F781F891FE9
:101510009A1FA11D680F791F8A1F911DA11D6A0FB7
:10152000711D811D911DA11D20D009F468943F916A
:101530002AE0269F11243019305D3193DEF6CF0169
:101540000895462F4770405D4193B3E00FD0C9F72F
:10155000F6CF462F4F70405D4A3318F0495D31FD9C
:101560004052419302D0A9F7EACFB4E0A6959795EF
:10157000879577956795BA95C9F7009761057105C5
:1015800008959B01AC010A2E06945795479537950F
:101590002795BA95C9F7620F731F841F951FA01D69
:0615A0000895F894FFCF4E
:1015A6000000F20220004D43503235313520697378
:1015B600204E4F5420696E20636F6E6669677572A0
:1015C6006174696F6E206D6F646520616674657203
:1015D60020726573657421007465737443616E0AC5
:1015E6000D004D6573736167652049443A20256493
:1015F600200A0D004D65737361676520646174612F
:101606003A202564202C2069203D202564200A0DDF
:10161600004D657373616765206C656E677468203D
:101626003A202564200A0D0050C3A5647261673A0A
:101636002025640A0D0049525F73616D706C653A2E
:101646002025640A0D0043757272656E743A202572
:10165600640A0D0041444320726573756C743A2028
:1016660025750A0D004661696C2072656769737499
:10167600657265643A0A0D004E756D206661696C87
:08168600733A2025640A0D00EF
:00000001FF
