:100000000C94D3000C94F4000C94F4000C94F400C1
:100010000C94F4000C94F4000C94F4000C94F40090
:100020000C94F4000C94F4000C94F4000C94F40080
:100030000C94F4000C94F4000C94F4000C94F40070
:100040000C94F4000C94F4000C94F4000C94F40060
:100050000C94F4000C94F4000C94F4000C94F40050
:100060000C94F4000C94F4000C94F4000C94F40040
:100070000C94F4000C94F4000C94F4000C94F40030
:100080000C9428050C94F4000C94F4000C94F400E7
:100090000C94F4000C94F4000C94F4000C94AF0550
:1000A0000C94F4000C94F4000C94F4000C94F40000
:1000B0000C94F4000C94F4000C94F4000C94F400F0
:1000C0000C94F4000C94F4000C94F4000C94F400E0
:1000D0000C94F4000C94F4000C94F4000C94F400D0
:1000E0000C94F400CE0520062006200620062006EB
:1000F00020062006CE052006200620062006200623
:1001000020062006D0052006200620062006200610
:1001100020062006200620062006200620062006AF
:1001200020062006D00520062006200620062006F0
:10013000200620062006200620062006200620068F
:10014000200620061C062006200620062006200683
:1001500020062006F9052006200620062006200697
:10016000200620062006200620062006200620065F
:1001700020062006ED052006200620062006200683
:10018000200620060B060C94F9050C940B060C9423
:1001900041010C941C060C94ED050C94CE050C94B6
:1001A000D0050C94200611241FBECFEFD1E2DEBF94
:1001B000CDBF00E00CBF13E0A0E0B2E0EAE5FCE157
:1001C00000E00BBF02C007900D92A631B107D9F72E
:1001D00023E0A6E1B3E001C01D92A932B207E1F726
:1001E0000E94F6000C942B0E0C940000CF93DF932A
:1001F000CDB7DEB764970FB6F894DEBF0FBECDBFA4
:1002000087E690E00E9449010E94DE010E94770388
:100210000E949904CE0101960E9432040E940D05AD
:100220000E949707CE010D960E943606BE01635FBD
:100230007F4FCE0101960E94D6040E94B0042FEF9A
:1002400083ED90E3215080409040E1F700C0000032
:10025000F4CF87E884B981E58CBD08958EBD0DB4D7
:1002600007FEFDCF83EC99E00197F1F700C0000095
:10027000089580E00E942E010DB407FEFDCF8EB5DB
:100280000895E0ECF0E0908195FFFDCF8093C600EB
:1002900008959093C5008093C40088E18093C100C5
:1002A0008EE08093C20060E070E081E491E00E9403
:1002B000A5090895E0ECF0E080818823ECF78091B7
:1002C000C60008952F9880EC0E942E012F9A089561
:1002D000CF93C82F2F9883E00E942E018C2F0E946D
:1002E0002E010E9439012F9ACF9108951F93CF9329
:1002F000DF93182FEB012F9883E00E942E01812FAE
:100300000E942E010E9439012F9A8883DF91CF919C
:100310001F910895CF93DF931F92CDB7DEB70E9450
:1003200029010E946201BE016F5F7F4F8EE00E9433
:1003300076018981807E803831F087E092E00E94EA
:10034000040A81E001C080E00F90DF91CF91089511
:100350002F988EE00E9468012F9A08952F9881E8C7
:100360000E942E012F9A08951F93CF93DF93182F89
:10037000D62FC42F2F9885E00E942E01812F0E9436
:100380002E018D2F0E942E018C2F0E942E012F9A5C
:10039000DF91CF911F910895CF93DF93D82FC62F70
:1003A0002F9882E00E942E018D2F0E942E018C2F0B
:1003B0000E942E012F9ADF91CF9108950E948A0109
:1003C0004FEF60E680E60E94B4014FEF61E08BE200
:1003D0000E94B40140E060EE8FE00E94B4010895F5
:1003E000CF92DF92EF92FF920F931F93CF93DF9301
:1003F000CDB7DEB72D970FB6F894DEBF0FBECDBFD9
:100400007C01FC0140814295440F407E60ED82E317
:100410000E94B401F70160817181769567957695A8
:1004200067957695679581E30E94CC01F701628517
:100430006623B1F06701F2E0CF0ED11C00E010E0BE
:10044000F60161916F0186E3800F0E94CC010F5F7E
:100450001F4FF7016285862F90E00817190784F374
:1004600085E30E94CC01BE01645F7F4F82E30E945E
:100470007601BE01635F7F4F81E30E9476018D8527
:1004800090E0880F991F880F991F880F991F2C855E
:10049000229526952770822B9A83898385E30E9473
:1004A00068018F708B878823B9F000E010E0B801F5
:1004B0006E5F7F4F81E090E08C0F9D1F680F791F6A
:1004C00086E3800F0E9476010F5F1F4F8B85282FD8
:1004D00030E0021713075CF349815A81F70120814C
:1004E00031814217530779F42B81928129130BC074
:1004F0009285981308C00E94AE0187EA91E60197A1
:10050000F1F700C000002D960FB6F894DEBF0FBEC5
:10051000CDBFDF91CF911F910F91FF90EF90DF90B2
:10052000CF900895EF92FF920F931F93CF93DF9395
:10053000CDB7DEB72D970FB6F894DEBF0FBECDBF97
:100540007C01BE01645F7F4F82E60E947601BE019E
:10055000635F7F4F81E60E9476018D8590E0880F72
:10056000991F880F991F880F991F2C852295269512
:100570002770822B9A83898385E60E9468018F7099
:100580008B878823B1F000E010E0B8016E5F7F4FE9
:1005900081E090E08C0F9D1F680F791F86E6800F29
:1005A0000E9476010F5F1F4F2B8530E00217130763
:1005B00064F340E061E08CE20E94B4018BE0FE0154
:1005C0003196D70101900D928A95E1F7C7012D96DA
:1005D0000FB6F894DEBF0FBECDBFDF91CF911F9154
:1005E0000F91FF90EF9008959F92AF92BF92CF929C
:1005F000DF92EF92FF920F931F93CF93DF93CDB7CC
:10060000DEB72B970FB6F894DEBF0FBECDBF89E3E0
:1006100092E09F938F930E94F009CE0101960E9471
:10062000920209811A819B841F930F9383E492E0C5
:100630009F938F930E94F0090F900F900F900F904F
:100640000F900F900130110559F5A92CB12C1A14F7
:100650001B0434F56E0123E0C20ED11C00E010E053
:100660000F2EF5E5EF2EF2E0FF2EF02DF601819131
:100670006F011F930F93282F082E000C330B3F930D
:100680008F93FF92EF920E94F0090F5F1F4F0F9020
:100690000F900F900F900F900F900A151B0531F7D8
:1006A0001F929F9282E792E09F938F930E94F0099E
:1006B000FFE72AE186E0F15020408040E1F700C0EA
:1006C00000000F900F900F900F902B960FB6F8949C
:1006D000DEBF0FBECDBFDF91CF911F910F91FF9075
:1006E000EF90DF90CF90BF90AF909F900895259AA4
:1006F000E1E8F0E0808188618083A0E8B0E08C913F
:1007000082688C938C918E7B8C93808184608083B3
:1007100080818C7F8083F89481EE94E090938700B1
:10072000809386001092890010928800789480E867
:100730000E949B030895682F70E080E090E00E9483
:10074000AC082BE237E846E95EE30E94380920E076
:1007500030E048E252E40E9408080E947B08F894C6
:100760007093890060938800789408950F931F9385
:10077000CF93DF93CDB7DEB72B970FB6F894DEBFDC
:100780000FBECDBFCE0101960E94920229813A810F
:100790002130310511F40B811C81802F912F2B9674
:1007A0000FB6F894DEBF0FBECDBFDF91CF911F9182
:1007B0000F910895CF93DF93C82F682F880F770B81
:1007C000880B990B0E94AC082AE037ED43EA5FE3FF
:1007D0000E94380920E030E040E053E40E9408081D
:1007E0000E947B08D62F862F0E949B031F92DF93C7
:1007F00089E892E09F938F930E94F0098C2F0C2E32
:10080000000C990B9F93CF938AE992E09F938F936B
:100810000E94F0098DB79EB708960FB6F8949EBF58
:100820000FBE8DBFDF91CF910895CF93DF93C0E0CE
:10083000D0E08C2F0E949B032FE38DE093E02150AA
:1008400080409040E1F700C000002196C11521E0F2
:10085000D20779F7DF91CF9108950E94B6030E94E5
:10086000DA030895FC01138685E082878CE291E02B
:100870009183808393838283958384839783868304
:100880009187808708950F931F93CF93DF93EC0197
:100890000B8510E00E94A204F801EE0FFF1FEC0F81
:1008A000FD1F91838083C801019665E070E00E947E
:1008B000EB078B876A85A62FB0E01A161B067CF41F
:1008C000FE0120E030E080E090E041915191840F02
:1008D000951F2F5F3F4F2A173B07B9F702C080E0F3
:1008E00090E070E00E94D707CB01DF91CF911F917C
:1008F0000F910895CF93DF93EC010E944304843657
:10090000910588F42A85222381F030E0FE0180E001
:1009100090E04CE251E04193519301968217930786
:10092000D0F381E003C080E001C081E0DF91CF918E
:100930000895809810927C0082E083BB80EE8093C3
:100940007A00089580917A0084FF07C08091780032
:100950002091790090E0922B089580E090E0089536
:100960000E94A2049F938F9389EA92E09F938F93B2
:100970000E94F0090F900F900F900F900895CF9361
:10098000DF93EC01CB010E947A04882361F0888117
:100990008F5F88832FE78AE196E021508040904066
:1009A000E1F700C00000DF91CF910895EF92FF9230
:1009B0000F931F93CF93DF9300D000D0CDB7DEB756
:1009C0008C017B0183E08C8319820E943F059B830D
:1009D0008A8399818C81981780F40E942D04C70125
:1009E0000E9466060E94C107B801CE0101960E94CE
:1009F000BF0429819C81291780F30E943F05269618
:100A00000FB6F894DEBF0FBECDBFDF91CF911F911F
:100A10000F91FF90EF9008950895F894E1E9F0E0C8
:100A200080818C608083E0E9F0E08081808384E3D2
:100A30009CE09093990080939800E1E7F0E080813A
:100A400082608083789410921E0310921D03089593
:100A50001F920F920FB60F9211248F939F93809144
:100A60001D0390911E03019690931E0380931D0316
:100A70009F918F910F900FBE0F901F9018958091AE
:100A80001D0390911E0308958CE08093B8008FEFB2
:100A90008093BB0084E08093BC0008958091BC00EB
:100AA00081700895ECEBF0E0808180FDFDCF8091B6
:100AB00000020895CF93DF93EC01ECEBF0E090811E
:100AC00090FDFDCF6093180398819093190390FDDA
:100AD00013C0623088F0FE013196AAE1B3E06250A3
:100AE000262F30E02E5F3F4FCE01820F931F2191C2
:100AF0002D93E817F907D9F71092160388EF809322
:100B0000000285EA8093BC00DF91CF910895ECEB61
:100B1000F0E0808180FDFDCF1092160388EF809376
:100B2000000285EA8093BC000895ECEBF0E02081A0
:100B300020FDFDCF2091160320FF0DC0662359F044
:100B400029E133E0A82FB92FF90181918D938E2FE0
:100B5000821B8617D0F380911603817008951F922F
:100B60000F920FB60F9211240BB60F922F933F9353
:100B70008F939F93AF93BF93EF93FF93E091B9004F
:100B80008E2F90E0FC013897E135F10508F058C050
:100B90008827EE58FF4F8F4F0C94FF0710921703D2
:100BA000E091170380911803E81770F481E08E0F2D
:100BB00080931703F0E0E75EFC4F80818093BB00D9
:100BC00085E88093BC0043C08091160381608093C8
:100BD000160384E98093BC003AC0E091170381E0DA
:100BE0008E0F809317038091BB00F0E0E75EFC4F0F
:100BF00080832091170330E08091180390E00197E3
:100C00002817390724F485EC8093BC0020C085E8C0
:100C10008093BC001CC08091BB00E0911703F0E002
:100C2000E75EFC4F808380911603816080931603FA
:100C300084E98093BC000BC085EA8093BC0007C0A8
:100C40008091B9008093000284E08093BC00FF9102
:100C5000EF91BF91AF919F918F913F912F910F9005
:100C60000BBE0F900FBE0F901F901895CF93DF9380
:100C7000EC010E944405E1E0F1E080818A67808315
:100C8000E2E0F1E09081906190839081977F908382
:100C9000908190649083AE0161E081E00E94CC0677
:100CA000DF91CF91089588233CF4E2E0F1E0908158
:100CB0009D7F908381950895181634F4E2E0F1E069
:100CC000908192609083089580E008950F931F9320
:100CD000CF93DF9300D0CDB7DEB78C011AB80E9456
:100CE000B603C8010E94D606182F8EE589831A82A2
:100CF0009F931F938AEB92E09F938F930E94F0093A
:100D0000812F0E9453068B8363E0CE0101960E94DF
:100D10005A050F900F900F900F900F900F900F901B
:100D2000DF91CF911F910F910895CF93DF93F894A6
:100D300010920701E2E0F1E080818F7D8083808165
:100D4000877F808387E893E10197F1F700C0000077
:100D5000A6E0B1E08C9190E0982F88272081286050
:100D60002083C7E8D3E12197F1F700C000003C9150
:100D700020812F7B2083A7E8B3E11197F1F700C012
:100D800000002081206420832081206220837894C9
:100D9000832BDF91CF910895FA0110821182128284
:100DA0001382848365831782168208958F929F929F
:100DB000AF92BF92CF92DF92EF92FF920F931F9369
:100DC000CF93DF93EC010E94B603D92E0E949506C3
:100DD000ED2D0D2C000CFF0B2E813F81A901481B2E
:100DE000590BCA015F834E830F2EF8E2EF2EF12CD0
:100DF000F02DB7010E94EB078F01061B170BFF9325
:100E0000DF9286EC92E09F938F930E94F0098E818F
:100E10009F81B7010E94EB077F936F9387ED92E06C
:100E20009F938F930E94F0091F930F9386EE92E099
:100E30009F938F930E94F0098C81282F082E000C1D
:100E4000330B3F938F9382EF92E09F938F930E9497
:100E5000F009A801012E000C660B770B888199819F
:100E6000AA81BB81840F951FA61FB71F8883998312
:100E7000AA83BB83BF93AF939F938F938AEF92E034
:100E80009F938F930E94F0092C812003B001219F32
:100E9000700D1124072E000C880B990B0E94AC08D2
:100EA0006B017C018D81682F880F770B880B990B64
:100EB0000E94AC082DEC3CEC4CEC5DE30E94380940
:100EC0004B015C01688179818A819B810E94AC0819
:100ED0009B01AC01C501B4010E9438099B01AC0122
:100EE000C701B6010E9408080E947408CB012DB703
:100EF0003EB72A5E3F4F0FB6F8943EBF0FBE2DBFE0
:100F000061387F4F14F481E89FEF8038910514F029
:100F10008FE790E0DF91CF911F910F91FF90EF90BD
:100F2000DF90CF90BF90AF909F908F900895819A5F
:100F3000799808951F93CF93DF93CDB7DEB72B97A2
:100F40000FB6F894DEBF0FBECDBFCE0101960E9452
:100F500092021D811F921F9389E093E09F938F93CC
:100F60000E94F0090F900F900F900F90812F2B96F9
:100F70000FB6F894DEBF0FBECDBFDF91CF911F91AA
:100F800008950E949A07813089F4799A2FE986E8BA
:100F900091E0215080409040E1F700C00000799836
:100FA00083ED90E30197F1F700C000000895AA1BBC
:100FB000BB1B51E107C0AA1FBB1FA617B70710F044
:100FC000A61BB70B881F991F5A95A9F78095909576
:100FD000BC01CD01089597FB072E16F4009407D0AD
:100FE00077FD09D00E94D70707FC05D03EF4909505
:100FF00081959F4F0895709561957F4F0895EE0FED
:10100000FF1F881F8BBF0790F691E02D1994505851
:10101000BB27AA270E941F080C94FE080E94F00814
:1010200038F00E94F70820F039F49F3F19F426F4B5
:101030000C94ED080EF4E095E7FB0C94E708E92F1B
:101040000E940F0958F3BA176207730784079507C0
:1010500020F079F4A6F50C9431090EF4E0950B2EEE
:10106000BA2FA02D0B01B90190010C01CA01A001FA
:101070001124FF27591B99F0593F50F4503E68F155
:101080001A16F040A22F232F342F4427585FF3CF96
:10109000469537952795A795F0405395C9F77EF467
:1010A0001F16BA0B620B730B840BBAF09150A1F0B0
:1010B000FF0FBB1F661F771F881FC2F70EC0BA0F36
:1010C000621F731F841F48F4879577956795B795BE
:1010D000F7959E3F08F0B0CF9395880F08F09927B9
:1010E000EE0F9795879508950E947B086894B1113B
:1010F0000C94320908950E94170988F09F5798F0C0
:10110000B92F9927B751B0F0E1F0660F771F881F0C
:10111000991F1AF0BA95C9F714C0B13091F00E9426
:101120003109B1E008950C943109672F782F882791
:10113000B85F39F0B93FCCF3869577956795B3954D
:10114000D9F73EF490958095709561957F4F8F4FBC
:101150009F4F0895E89409C097FB3EF490958095C1
:10116000709561957F4F8F4F9F4F9923A9F0F92F6D
:1011700096E9BB279395F695879577956795B795EB
:10118000F111F8CFFAF4BB0F11F460FF1BC06F5FD1
:101190007F4F8F4F9F4F16C0882311F096E911C0E3
:1011A000772321F09EE8872F762F05C0662371F004
:1011B00096E8862F70E060E02AF09A95660F771F18
:1011C000881FDAF7880F9695879597F9089597F90C
:1011D0009F6780E870E060E008959FEF80EC0895DD
:1011E00000240A9416161706180609060895002406
:1011F0000A9412161306140605060895092E039480
:10120000000C11F4882352F0BB0F40F4BF2B11F4F3
:1012100060FF04C06F5F7F4F8F4F9F4F089557FD52
:101220009058440F551F59F05F3F71F04795880F54
:1012300097FB991F61F09F3F79F0879508951216EB
:1012400013061406551FF2CF4695F1DF08C0161697
:1012500017061806991FF1CF869571056105089448
:101260000895E894BB2766277727CB0197F908955F
:101270000E944B090C94FE080E94F00838F00E946E
:10128000F70820F0952311F00C94E7080C94ED0872
:1012900011240C9432090E940F0970F3959FC1F339
:1012A000950F50E0551F629FF001729FBB27F00D14
:1012B000B11D639FAA27F00DB11DAA1F649F662769
:1012C000B00DA11D661F829F2227B00DA11D621FB8
:1012D000739FB00DA11D621F839FA00D611D221F72
:1012E000749F3327A00D611D231F849F600D211D56
:1012F000822F762F6A2F11249F5750409AF0F1F0D9
:1013000088234AF0EE0FFF1FBB1F661F771F881F41
:1013100091505040A9F79E3F510580F00C94E7088A
:101320000C9432095F3FE4F3983ED4F386957795A9
:101330006795B795F795E7959F5FC1F7FE2B880FE7
:10134000911D9695879597F908950F931F93CF93C5
:10135000DF93009731F46115710519F480E090E096
:101360003AC08B01EC016EE070E081E090E00E94F9
:101370002F0CFC01892B91F380E883830115110563
:1013800071F01387028781E8838380911F03909116
:101390002003892B21F4F0932003E0931F0320976F
:1013A000C9F0D187C08783818260838380912103C4
:1013B00090912203892B71F4F0932203E09321038F
:1013C0008091230390912403892B21F4F09324032B
:1013D000E0932303CF01DF91CF911F910F910895E7
:1013E000CF93DF93CDB7DEB7AE014A5F5F4FFA010F
:1013F00061917191AF0180912103909122030E942C
:10140000340ADF91CF9108950F931F93CF93DF9309
:10141000E0912103F0912203238121FF1BC08C0165
:10142000D0E0C0E0F80181918F01609121037091BB
:101430002203DB011896ED91FC911997882331F076
:101440001995892B79F3DFEFCFEFECCF8AE019956F
:10145000892B19F08FEF9FEF02C08D2F9C2FDF910A
:10146000CF911F910F9108952F923F924F925F92CB
:101470006F927F928F929F92AF92BF92CF92DF92A4
:10148000EF92FF920F931F93CF93DF93CDB7DEB709
:101490002C970FB6F894DEBF0FBECDBF7C016B0159
:1014A0008A01FC0117821682838181FFBDC1CE01B2
:1014B00001964C01F7019381F60193FD859193FF0D
:1014C00081916F01882309F4ABC1853239F493FD12
:1014D000859193FF81916F01853229F4B70190E0E6
:1014E0000E94950DE7CF512C312C20E02032A0F442
:1014F0008B3269F030F4803259F0833269F4206124
:101500002CC08D3239F0803339F4216026C022603E
:10151000246023C0286021C027FD27C030ED380F8C
:101520003A3078F426FF06C0FAE05F9E300D1124B1
:10153000532E13C08AE0389E300D1124332E2062C2
:101540000CC08E3221F426FD6BC1206406C08C369F
:1015500011F4206802C0883641F4F60193FD8591AC
:1015600093FF81916F018111C1CF982F9F7D955479
:10157000933028F40C5F1F4FFFE3F9830DC08336CF
:1015800031F0833771F0833509F05BC022C0F80178
:10159000808189830E5F1F4F44244394512C540152
:1015A00015C03801F2E06F0E711CF801A080B18007
:1015B00026FF03C0652D70E002C06FEF7FEFC5010D
:1015C0002C870E948A0D2C0183012C852F77222ED7
:1015D00017C03801F2E06F0E711CF801A080B180D5
:1015E00026FF03C0652D70E002C06FEF7FEFC501DD
:1015F0002C870E94780D2C012C852068222E8301D7
:1016000023FC1BC0832D90E048165906B0F4B701A7
:1016100080E290E00E94950D3A94F4CFF50127FC0A
:10162000859127FE81915F01B70190E00E94950DA1
:1016300031103A94F1E04F1A51084114510471F7F6
:10164000E5C0843611F0893639F5F80127FF07C067
:1016500060817181828193810C5F1F4F08C060811E
:101660007181072E000C880B990B0E5F1F4F2F7690
:10167000722E97FF09C090958095709561957F4F68
:101680008F4F9F4F2068722E2AE030E0A4010E9405
:10169000CD0DA82EA81844C0853729F42F7EB22E70
:1016A0002AE030E025C0F22FF97FBF2E8F36C1F03F
:1016B00018F4883579F0B4C0803719F0883721F0F4
:1016C000AFC02F2F2061B22EB4FE0DC08B2D8460D1
:1016D000B82E09C024FF0AC09F2F9660B92E06C0FD
:1016E00028E030E005C020E130E002C020E132E037
:1016F000F801B7FE07C060817181828193810C5F20
:101700001F4F06C06081718180E090E00E5F1F4F27
:10171000A4010E94CD0DA82EA818FB2DFF777F2EC7
:1017200076FE0BC0372D3E7FA51450F474FE0AC020
:1017300072FC08C0372D3E7E05C0BA2C372D03C081
:10174000BA2C01C0B52C34FF0DC0FE01EA0DF11D0D
:101750008081803311F4397E09C032FF06C0B39412
:10176000B39404C0832F867809F0B39433FD13C07B
:1017700030FF06C05A2CB31418F4530C5B18B32C6A
:10178000B31468F4B70180E290E03C870E94950DA5
:10179000B3943C85F5CFB31410F43B1801C0312C41
:1017A00034FF12C0B70180E390E03C870E94950DA2
:1017B0003C8532FF17C031FD03C088E790E002C0CE
:1017C00088E590E0B7010CC0832F867859F031FF8F
:1017D00002C08BE201C080E237FD8DE2B70190E0EC
:1017E0000E94950DA51438F4B70180E390E00E94A3
:1017F000950D5A94F7CFAA94F401EA0DF11D80815A
:10180000B70190E00E94950DA110F5CF332009F4A7
:1018100051CEB70180E290E00E94950D3A94F6CF48
:10182000F7018681978102C08FEF9FEF2C960FB64C
:10183000F894DEBF0FBECDBFDF91CF911F910F9106
:10184000FF90EF90DF90CF90BF90AF909F908F90E0
:101850007F906F905F904F903F902F9008950F93DF
:101860001F93CF93DF93869F8001879F100D969FD4
:10187000100D1124C8010E944B0CEC01009729F0B7
:10188000A80160E070E00E94830DCE01DF91CF914E
:101890001F910F910895CF93DF938230910510F43B
:1018A00082E090E0E0912703F091280320E030E00F
:1018B000C0E0D0E0309711F14081518148175907BD
:1018C000C0F04817590761F482819381209719F07D
:1018D0009B838A832BC0909328038093270326C081
:1018E0002115310519F04217530718F49A01BE016A
:1018F000DF01EF010280F381E02DDCCF21153105FE
:1019000009F1281B390B2430310590F412968D9182
:101910009C9113976115710521F0FB0193838283DC
:1019200004C09093280380932703FD01329644C09E
:10193000FD01E20FF31F81939193225031092D9302
:101940003C933AC02091250330912603232B41F488
:101950002091030230910402309326032093250343
:1019600020910102309102022115310541F42DB779
:101970003EB74091050250910602241B350BE091C1
:101980002503F0912603E217F307A0F42E1B3F0B6B
:101990002817390778F0AC014E5F5F4F24173507E1
:1019A00048F04E0F5F1F5093260340932503819309
:1019B000919302C0E0E0F0E0CF01DF91CF91089574
:1019C0000F931F93CF93DF93009709F48CC0FC0112
:1019D0003297138212820091270310912803011578
:1019E000110581F420813181820F931F20912503FD
:1019F000309126032817390779F5F0932603E093F1
:101A0000250371C0D80140E050E0AE17BF0750F485
:101A100012962D913C911397AD012115310509F1D5
:101A2000D901F3CF9D01DA01338322836081718173
:101A3000860F971F8217930769F4EC01288139817B
:101A4000260F371F2E5F3F4F318320838A819B8172
:101A500093838283452B29F4F0932803E093270393
:101A600042C01396FC93EE931297ED014991599160
:101A70009E01240F351FE217F30771F480819181D5
:101A8000840F951F029611969C938E938281938169
:101A900013969C938E931297E0E0F0E0D801129693
:101AA0008D919C911397009719F0F8018C01F6CF56
:101AB0008D919C9198012E5F3F4F820F931F209133
:101AC0002503309126032817390769F4309729F444
:101AD000109228031092270302C0138212821093DF
:101AE000260300932503DF91CF911F910F91089555
:101AF000FC010590615070400110D8F780959095D9
:101B00008E0F9F1F0895DC0101C06D93415050401E
:101B1000E0F70895FC016150704001900110D8F782
:101B2000809590958E0F9F1F08950F931F93CF93CD
:101B3000DF93FB01238121FD03C08FEF9FEF28C0BE
:101B400022FF16C0468157812481358142175307F1
:101B500044F4A081B1819D012F5F3F4F31832083E9
:101B60008C93268137812F5F3F4F3783268310C0A8
:101B7000EB01092F182F0084F185E02D1995892B91
:101B8000E1F68E819F8101969F838E83812F902F16
:101B9000DF91CF911F910F910895FA01AA27283064
:101BA00051F1203181F1E8946F936E7F6E5F7F4F2A
:101BB0008F4F9F4FAF4FB1E03ED0B4E03CD0670FA6
:101BC000781F891F9A1FA11D680F791F8A1F911DF9
:101BD000A11D6A0F711D811D911DA11D20D009F449
:101BE00068943F912AE0269F11243019305D31938B
:101BF000DEF6CF010895462F4770405D4193B3E074
:101C00000FD0C9F7F6CF462F4F70405D4A3318F01A
:101C1000495D31FD4052419302D0A9F7EACFB4E0CB
:101C2000A6959795879577956795BA95C9F7009783
:101C30006105710508959B01AC010A2E0694579524
:101C4000479537952795BA95C9F7620F731F841F7B
:0A1C5000951FA01D0895F894FFCF22
:101C5A00F80000290320004D435032353135206900
:101C6A0073204E4F5420696E20636F6E66696775E4
:101C7A00726174696F6E206D6F6465206166746548
:101C8A007220726573657421007465737443616EA2
:101C9A000A0D004D6573736167652049443A202532
:101CAA0064200A0D004D6573736167652064617471
:101CBA00613A202564202C2069203D202564200AD1
:101CCA000D004D657373616765206C656E67746896
:101CDA00203A202564200A0D004A6F7973746963DB
:101CEA006B20583A2025640A0D00436F6F726473A3
:101CFA0020783A2025640A0D004144432072657316
:101D0A00756C743A2025750A0D00506F7765723A22
:101D1A002025640A0D004A6F79737469636B205930
:101D2A003A2025640A0D00506F736974696F6E3A20
:101D3A002025640A0D004572726F723A2025640AE2
:101D4A000D004B702025640A0D004572726F7253A4
:101D5A00756D3A2025640A0D00427574746F6E3AE7
:061D6A002025640A0000C0
:00000001FF
